:100000000C94A3040C94AD490C94DE490C940F4A53
:100010000C94404A0C94714A0C94A24A0C94D34A12
:100020000C94044B0C94D4040C94D4040C94D40479
:100030000C94D4040C94D4040C94D4040C94A239DD
:100040000C94D4040C94D4040C94D4040C94D404D0
:100050000C94D4040C94D4040C94D4040C94474B06
:100060000C94D4040C94FD430C9433440C94D404A9
:100070000C94D4040C94D4040C94D4040C94D404A0
:100080000C94D4040C94D4040C94D4040C94D40490
:100090000C94AA440C94E0440C94D4040C94D4041E
:1000A0000C94D4040C94D4040C94D4040C94D40470
:1000B0000C94D4040C94D4040C9466400C94DA3F51
:1000C0000C94C8400C94D4040C94D4040C9457455C
:1000D0000C948D450C94D4040C9404460C943A462C
:1000E0000C94D40487495149594965497249934947
:1000F000A049634C664C554C594C5F4C9D4C6A4C26
:100100006E4C744C784C7C4C824C864C8A4C9D4C8A
:10011000904C944C984C084AD73B3BCE016E84BC23
:10012000BFFDC12F3D6C74319ABD56833DDA3D0051
:10013000C77F11BED9E4BB4C3E916BAAAABE00009A
:1001400000803F05A84CCDB2D44EB93836A9020C78
:1001500050B9918688083CA6AAAA2ABE0000008051
:100160003F000C94CD2D0C94B1460C94904C0C9403
:10017000594C0C9467440C94F3040C94EF040C94C5
:10018000DC0C0C94D6040C942E420C9472490C9402
:10019000944C0C94B7450C94744C0C94C1450C943D
:1001A0009B380C945F4C0C9459490C9451490C9415
:1001B00087490C94A3070C944B070C947C4C0C942B
:1001C0000A450C94554C0C94984C0C944E3C0C9451
:1001D00042420C94CA220C94824C0C94C4340C9469
:1001E00013420C94664C0C94082E0C945D440C94B1
:1001F000864C0C946E460C9464460C945B410C94B3
:100200006E4C0C94A0420C9469060C94902D0C94A6
:10021000784C0C94FE2D0C94543C0C9455410C9449
:1002200014450C9465490C94CC3A0C94C2420C943D
:1002300086060C94D0220C948A4C0C94E03A0C94D0
:10024000634C0C9420420C949D4C0C946A4C0C947E
:1002500060250C9493490C94CA340C9427430C9455
:10026000B7060C94032E0C94892D0C944F060C9415
:10027000A049536574757020636F6D706C6574650B
:100280002E2E0053746172742074696D65722E2E67
:100290000053746172742077696E642E2E0053745B
:1002A000617274206E6D6561205478202D206F6E10
:1002B0002070696E732034362054782C2034382016
:1002C000527820617420005374617274206E6D65E1
:1002D000612054782E2E005374617274206E6D6507
:1002E00061205278202D2073657269616C34206121
:1002F00074200043535F50494E204F55545055547D
:10030000203D20484947480043535F50494E2073E1
:10031000657420746F204F555450555400537461C8
:100320007274205350492075617274732E2E0053DD
:1003300074617274206E6D6561205278202D207377
:10034000657269616C33206174200053746172744A
:10035000206E6D6561205278202D20736572696171
:100360006C32206174200053746172742073656173
:1003700074616C6B202D2073657269616C32206131
:1003800074203438303000537461727420475053F5
:10039000205278202D2073657269616C3120617460
:1003A00020005374617274206770732E2E00496EA2
:1003B000697469616C697A696E672E2E0077696E5F
:1003C00064416C61726D53746174650077696E6429
:1003D000416C61726D4D6574686F640077696E641D
:1003E00000776174657254656D7000746172676541
:1003F0007448656164696E674E6F727468007461F9
:100400007267657448656164696E674D61676E65A2
:10041000746963007374656572696E6700737461F3
:1004200074650073746172626F6172644C6F636BA8
:1004300000737065656454727565007370656564FA
:100440005468726F75676857617465720073706580
:1004500065644F76657247726F756E640073706580
:1004600065644170706172656E7400737065656477
:10047000416C61726D0073696C656E74496E746570
:100480007276616C00727564646572416E676C654A
:1004900054617267657400727564646572416E6759
:1004A0006C6500726F6C6C00726174654F66547598
:1004B000726E007261646172416C61726D5374613D
:1004C0007465007261646172416C61726D4D657436
:1004D000686F6400706F776572416C61726D537400
:1004E00061746500706F776572416C61726D4D6506
:1004F00074686F6400706F736974696F6E00706FF9
:1005000072744C6F636B0070697463680070616E25
:1005100070616E416C61726D5374617465007061DD
:100520006E70616E416C61726D4D6574686F6400D0
:100530006E617669676174696F6E006D6F646500E6
:100540006D6F62416C61726D5374617465006D6FA3
:1005500062416C61726D4D6574686F64006D6179A4
:10056000646179416C61726D5374617465006D6191
:1005700079646179416C61726D4D6574686F640076
:100580006D6178526164697573006D617844726958
:10059000766552617465006D617844726976654173
:1005A0006D7073006D61676E657469635661726921
:1005B0006174696F6E006C6F6E6769747564650055
:1005C0006C617469747564650068656164696E67FF
:1005D000547275650068656164696E67536F757202
:1005E00063650068656164696E674D61676E657417
:1005F000696300677073416C61726D5374617465F7
:1006000000677073416C61726D4D6574686F640052
:1006100067656E65726963416C61726D5374617474
:10062000650067656E65726963416C61726D4D65E9
:1006300074686F6400676173416C61726D537461BB
:10064000746500676173416C61726D4D6574686FAC
:1006500064006761696E0066697265416C61726D04
:1006600053746174650066697265416C61726D4DA9
:100670006574686F6400656E7669726F6E6D656E25
:100680007400656E67696E65416C61726D5374616B
:10069000746500656E67696E65416C61726D4D656C
:1006A00074686F6400646972656374696F6E547214
:1006B000756500646972656374696F6E4368616E25
:1006C0006765416C61726D00646972656374696F1E
:1006D0006E4170706172656E7400646561645A6F1A
:1006E0006E6500636F757273654F76657247726FE2
:1006F000756E645472756500636F757273654F76BD
:10070000657247726F756E644D61676E657469637B
:10071000006261636B6C617368006175746F70690E
:100720006C6F74416C61726D5374617465006175B6
:10073000746F70696C6F74416C61726D4D65746833
:100740006F64006175746F70696C6F7400616E63C3
:10075000686F72416C61726D537461746500616E93
:1007600063686F72416C61726D4D6574686F64008F
:10077000616E63686F7200616C74697475646500A2
:10078000616C61726D52616469757300616C617254
:100790006D48656164696E6758746500616C61726B
:1007A0006D0061697250726573737572654368613B
:1007B0006E676552617465416C61726D006169724A
:1007C00050726573737572650073656C660076654B
:1007D0007373656C730000000A0B02090C0D0E08A0
:1007E00007030401000000000000000000000000FA
:1007F00000000000000000000000000000000000F9
:1008000000001211100000000000000000000000B5
:1008100000000000000000000000000001021020A5
:100820002008081020401020408002010201080426
:1008300002010102040810204080804020100804BA
:100840000201800402018040201008040201080413
:100850000201010204081020408001020408102057
:100860004080050505050705080808080202020280
:100870000A0A08080404040401010101010101013C
:100880000303030303030303040707070C0C0C0C07
:100890000C0C0C0C020202020606060606060606F0
:1008A0000B0B0B0B0B0B0B0B000020002300260087
:1008B00029002C002F003200000100000301060176
:1008C000090100002200250028002B002E00310025
:1008D000340002010000050108010B0100002100A5
:1008E000240027002A002D00300033000101000001
:1008F000040107010A014E414E494E495459494EDF
:1009000046CDCCCC3D0AD7233C17B7D13877CC2B7A
:10091000329595E6241FB14F0A000020410000C81F
:100920004200401C4620BCBE4CCA1B0E5AAEC59DA0
:1009300074004B07DC0C9B38CC3A67441445C14526
:100940006E46A307E03A11241FBECFEFD1E2DEBF0F
:10095000CDBF00E00CBF17E0A0E0B2E0ECEEFBEA98
:1009600000E00BBF02C007900D92A634B107D9F783
:1009700023E1A6E4B7E001C01D92AE35B207E1F76E
:1009800019E0C2E4D9E000E006C022970109FE01A7
:100990000BBF0E94B451C233D10780E00807A9F70A
:1009A0000E94364B0C94E4550C94000081E0809337
:1009B000370F8091350F9091360F01969093360F37
:1009C0008093350F8091350F9091360F64E170E080
:1009D0000E944E519093360F8093350F08958DE409
:1009E00098E00C948F098DE498E00C94D1094EE1C5
:1009F00057E566EA7BE68CE09DE00E943616AB0187
:100A0000BC0126E08BEC90E10E947F436EEA73E02C
:100A10008BEC90E10E94314762EA73E08BEC90E14D
:100A20000E94314787E498E00E94B53867E873E098
:100A30008BEC90E10E94EF464FE157E566EA7BE6DA
:100A40008CE09DE00E943616AB01BC012AE030E04C
:100A50008BEC90E10E943D484FE157E566EA7BE66A
:100A60008CE09DE00E943616AB01BC0126E088E6D2
:100A700091E10E947F4349EC56E061E073ED8CE028
:100A80009DE00E94B315882361F067E673E08BEC6C
:100A900090E10E94314727E040EC52E160E070E0D5
:100AA00021C06BE473E08BEC90E10E94EF4640E2E2
:100AB00057E566EA7BE68CE09DE00E943616AB01C6
:100AC000BC012AE030E08BEC90E10E943D4840E21E
:100AD00057E566EA7BE68CE09DE00E943616AB01A6
:100AE000BC0126E085E092E10E947F436FE273E063
:100AF0008BEC90E10E94EF4641E257E566EA7BE627
:100B00008CE09DE00E943616AB01BC012AE030E08B
:100B10008BEC90E10E943D4841E257E566EA7BE6B6
:100B20008CE09DE00E943616AB01BC0126E082EA13
:100B300092E10E947F436DE173E08BEC90E10E94B3
:100B4000314768EE73E080E090E00E94C04B61E0C6
:100B500083E40E949E4C68E073E08BEC90E10E947D
:100B6000314764E670E080E090E00E94C04B61E0B5
:100B700083E40E94D74C63EF72E08BEC90E10E941B
:100B8000314767ED72E08BEC90E10E94EF4642E264
:100B900057E566EA7BE68CE09DE00E943616AB01E5
:100BA000BC012AE030E08BEC90E10E943D4842E23B
:100BB00057E566EA7BE68CE09DE00E943616AB01C5
:100BC000BC0189E398E00E94B32E64E670E080E007
:100BD00090E00E94C04B67EC72E08BEC90E10E94C9
:100BE000314760E080E30E949E4C61E08EE20E940B
:100BF0009E4C6EE972E08BEC90E10E94EF4643E27E
:100C000057E566EA7BE68CE09DE00E943616AB0174
:100C1000BC012AE030E08BEC90E10E943D4881EE7F
:100C200097E00E94F63961E972E08BEC90E10E9456
:100C3000314760E083E00E949E4C43E050E06FEE5D
:100C400074E081E00E943C4960E082E00E949E4C9A
:100C500043E050E063EF74E080E00E943C4963E8C9
:100C600072E08BEC90E10E94314746ED54E064E67F
:100C700070E080E090E00E9435390E94413962E7DF
:100C800072E08BEC90E10E9431476BEC70E18CE0FC
:100C90009DE00E94672260E082E40C949E4C8BEC05
:100CA00090E10E94134202979CF08BEC90E10E942D
:100CB0002E42682F86E497E00E9422241816190617
:100CC00074F760E472E08BEC90E10E944347E7CF59
:100CD000089588E691E10E941342892BB1F088E6DD
:100CE00091E10E942E42682F87E498E00E94C73667
:100CF0008093C207882369F383EA9BE00E94C2299C
:100D0000BC018BEC90E10C944347089585E092E19F
:100D10000E941342892B51F149EC56E061E073EDDA
:100D20008CE09DE00E94B315882351F085E092E1AC
:100D30000E942E42682F83EC97E00E942B25E6CF7D
:100D400085E092E10E942E42682F8BE09AE00E949B
:100D5000C0078093C1078823C9F28BE09AE00E9404
:100D60003808BC018BEC90E10C9443470895CF9375
:100D700082EA92E10E941342892BF9F082EA92E121
:100D80000E942E42C82F4AE050E0682F8BEC90E181
:100D90000E9426486C2F8FE399E00E94C007809341
:100DA000C007882329F38FE399E00E943808BC012B
:100DB0008BEC90E1CF910C944347CF910895CF9362
:100DC00089E398E00E94032E892BF9F089E398E0EB
:100DD0000E94FE2DC82F4AE050E0682F8BEC90E176
:100DE0000E9426486C2F83E798E00E94C0078093FA
:100DF000BF07882329F383E798E00E943808BC01E5
:100E00008BEC90E1CF910C944347CF910895809162
:100E1000370F8823F1F181EE97E00E941B3B809110
:100E2000350F9091360F80FD04C08DE498E00E944C
:100E3000350A8091350F9091360F62E370E00E9481
:100E40004E51892B21F48DE498E00E94C40A8091D0
:100E5000350F9091360F64E670E00E944E51892B59
:100E6000B1F48DED97E00E945F3E8DE498E00E9422
:100E7000810C8EE698E00E94AD416BEC70E18CE055
:100E80009DE00E94672286E497E00E94F122109282
:100E9000370F0C94DF068CE09DE00E94820F60E02B
:100EA00070E083EA9BE00E94382960E070E087ED03
:100EB0009AE00E94B70760E070E08BE09AE00E9441
:100EC000B70760E070E08FE399E00E94B70760E049
:100ED00070E083E798E00E94B7076CE07DE08EE663
:100EE00098E00E9462416CE07DE08DE498E00E9411
:100EF0003B084CE05DE063EA7BE087E498E00E9419
:100F0000D13441E063E489E398E00E94442D6CE031
:100F10007DE081EE97E00E94D0396CE07DE08DEDC0
:100F200097E00E942F3E4CE05DE065E072E183ECCB
:100F300097E00E9423254CE05DE06BEC70E186E4D5
:100F400097E00C94E22286E497E00E94CA228DED9D
:100F500097E00E944E3C81EE97E00E94CB3A87E4F6
:100F600098E00E94C4348EE698E00C945541FC0150
:100F7000E853FF4F11821082329611821082089539
:100F80000F931F93CF93DF93DC01A853BF4F4D9175
:100F90005C911197FC01E653FF4F4236510514F066
:100FA000118210826A3011F06D3011F411821082BA
:100FB000643261F424E6EC0119922A95E9F7EC0118
:100FC000688381E090E08D939C9345C020813181BE
:100FD00021303105E9F02CF42115310509F442C026
:100FE0003DC02230310561F123303105B9F5FC01F6
:100FF000E40FF51F60834E5F5F4F4D935C9311824A
:10100000BC018C599F4F0E94495421E030E02AC016
:101010008A010F5F1F4F11961C930E939C01240FA2
:10102000351FE90168834E5F5F4FE801C80FD91F84
:101030004D935C9368836A3299F482E090E00BC030
:101040009A012F5F3F4F2D933C93DC01A40FB51FF6
:101050006C9383E090E09183808302C011821082C0
:1010600020E030E0C901DF91CF911F910F910895E9
:101070008C599F4F08950F931F93CF93DF938C014B
:10108000EB01FC0170A3678F0E949D4B60936A0F78
:1010900070936B0F80936C0F90936D0F40916A0F5C
:1010A00050916B0F60916C0F70916D0F4093660FB4
:1010B0005093670F6093680F7093690F1092520FEF
:1010C0001092530F1092540F1092550F81E080939D
:1010D000510F10923B0F10923C0F8091380F90915E
:1010E000390F20E030913A0F231760F4FC0134E00F
:1010F000239FE00DF11D11241082118212821382B0
:101100002F5FF0CFF801168E46EE50E269E878E9DD
:10111000CE010E94EB1620E030E046EC52E40E9443
:101120005D5018165CF400E010E026EC32E446EE68
:1011300050E269E878E9CE010E943213DF91CF9145
:101140001F910F910895CF92DF92EF92FF920F932C
:101150001F93CF93CB01BA0197FF09C0909580955B
:10116000709561957F4F8F4F9F4FC0E001C0C1E0E8
:10117000683621E072078105910534F028E631E0F8
:1011800040E050E00E948451653B71058105910566
:1011900034F0645B71098109910921E0C2276B3544
:1011A00071058105910564F004EB10E020E030E06A
:1011B00068017901C61AD70AE80AF90AC701B60117
:1011C000660F771FFB01EA5BFD4F60817181CC23C5
:1011D00019F080E090E00CC0CB01A0E0B0E09C01F1
:1011E000AD0166277727CB01621B730B840B950B30
:1011F000CF911F910F91FF90EF90DF90CF900895C6
:10120000465A5F4F6F4F7F4F0C94A3084F925F92E7
:101210006F927F928F929F92AF92BF92CF92DF9206
:10122000EF92FF920F931F93CF93DF938C01609007
:101230003B0FC091380FD091390F712CC12CD12C9C
:101240007601812C912C54017614C1F0488159818A
:101250006A817B81C8010E940009860E971EA81E24
:10126000B91E4991599169917991C8010E94A308C9
:10127000C60ED71EE81EF91E7394E6CF81149104A2
:10128000A104B10429F4C114D104E104F104A1F1D1
:10129000662D70E080E090E00E94FC4E2B013C0146
:1012A000C501B4010E94FC4E20E830E040E857E35D
:1012B0000E946850A30192010E94614E4B015C01A3
:1012C000C701B6010E94FC4E20E830E040E857E339
:1012D0000E946850A30192010E94614EA5019401F1
:1012E0000E94074E21EE3EE245E652E40E9468501D
:1012F0000E94C94ECB0102C080E090E0DF91CF9107
:101300001F910F91FF90EF90DF90CF90BF90AF9023
:101310009F908F907F906F905F904F9008950F9364
:101320001F930E94914B0091720F1091730F2091A7
:10133000740F3091750F601B710B820B930B603132
:1013400071058105910550F18091510F8823E1F0DD
:1013500080916A0F90916B0FA0916C0FB0916D0FFF
:101360008093660F9093670FA093680FB093690FF7
:101370000E949D4B60936A0F70936B0F80936C0F6C
:1013800090936D0F1092510F0E94914B6093720FCA
:101390007093730F8093740F9093750F1F910F913B
:1013A00008950F931F930E94914B00916E0F10911F
:1013B0006F0F2091700F3091710F601B710B820BBA
:1013C000930B603171058105910508F44BC0809144
:1013D000510F81113DC080915A0F90915B0FA091E8
:1013E0005C0FB0915D0F8093560F9093570FA093B1
:1013F000580FB093590F0E949D4B60935A0F7093F2
:101400005B0F80935C0F90935D0F8091660F9091BE
:10141000670FA091680FB091690F8093620F90934E
:10142000630FA093640FB093650F80916A0F909142
:101430006B0FA0916C0FB0916D0F80935E0F909326
:101440005F0FA093600FB093610F81E08093510F05
:101450000E94914B60936E0F70936F0F8093700F8B
:101460009093710F1F910F910895CF92DF92EF9299
:10147000FF92F8948091620F9091630FA091640F96
:10148000B091650FC0905E0FD0905F0FE090600F3D
:10149000F090610F4091560F5091570F6091580F87
:1014A0007091590F78948C159D05AE05BF0508F015
:1014B00066C0C81AD90AEA0AFB0A28E9C2162AE352
:1014C000D206E104F10408F45AC0C092520FD0923F
:1014D000530FE092540FF092550F9A01AB01281B65
:1014E000390B4A0B5B0B233331054105510508F4D9
:1014F00046C02C153D054E055F0508F040C0A8E626
:10150000B1E00E94A951A70196010E9462512836BC
:1015100081E038074105510590F580913C0F8F5FC0
:1015200080933C0F90913B0F60913A0FE091380F00
:10153000F091390F9617B0F481E0890F80933B0F3B
:1015400084E0989FE00DF11D1124208331834283B4
:10155000538380913C0F60913B0F0E9442519093C6
:101560003C0F0DC00E94425190933C0F84E0989F25
:10157000E00DF11D11242083318342835383FF90BA
:10158000EF90DF90CF9008952F923F924F925F920D
:101590006F927F928F929F92AF92BF92CF92DF9283
:1015A000EF92FF920F931F93CF93DF9300D01F9280
:1015B000CDB7DEB71C010E94914B0091720F1091C4
:1015C000730F2091740F3091750F601771078207A8
:1015D000930750F40E94914B6093720F7093730FB6
:1015E0008093740F9093750F0E94914B00916E0F32
:1015F00010916F0F2091700F3091710F601771076C
:101600008207930750F40E94914B60936E0F709382
:101610006F0F8093700F9093710F0E94914B8B010D
:101620009C014BE15DE563E27AECF101878D90A1CD
:101630000E948C120E94914B0091720F1091730FB7
:101640002091740F3091750F601B710B820B930BFF
:10165000F101A78CB0A0693B7B408105910540F06A
:1016600020E030E04FEB57ED62EA76E3C50131C18F
:101670002091520F3091530F4091540F5091550FBC
:10168000211531054105510509F4C5C060E071EE31
:1016900085EF95E00E94625169017A0123E4C21648
:1016A00021E0D206E104F1040CF044C0AAE0B0E06D
:1016B000A70196010E94A9512B013C0143E45EE081
:1016C00065EC7DECC5010E94EB164B015C01A301AA
:1016D0009201C301B2010E94325127E93FEF4FEF5F
:1016E0005FEF0E94845129013A01A701960168E247
:1016F00073EE83E090E00E94325124E630E040E057
:1017000050E00E948451420E531E641E751E84EEEA
:10171000481A8FE2580A61087108C301B2010E9499
:10172000FC4EA50194010E94614E20E030E040E2B1
:1017300051E464C043E45EE065EC7DECC501FCE38C
:10174000CF16F5E1DF06E104F1044CF50E94EB163B
:101750002B013C01A7019601C701B6010E9432513D
:101760002EEA38E040E050E00E94845149015A01DD
:10177000ABE9BAE4A70196010E94A95124E630E042
:1017800040E050E00E948451820E931EA41EB51EBC
:1017900026EA820E25E2921EA11CB11C29C00E94DD
:1017A000EB162B013C01A7019601C701B6010E946F
:1017B000325122E134E040E050E00E948451A4E63E
:1017C000B0E00E94A9514B015C01A701960164EBB6
:1017D00070E281E89FEF0E943251860E971EA81E8C
:1017E000B91EF4E48F0EFDEB9F1EFBE2AF1EB11C91
:1017F000C501B4010E94FC4EA30192010E94614EFA
:101800008B019C014FEB57ED62EA76E3F101878D86
:1018100090A10E9432134FEB57ED62EA76E3F1019B
:10182000878D90A10E94EB166B017C014AEA5AEB6E
:1018300067E275E3F101878D90A10E94EB169B0191
:10184000AC01C701B6010E945D501816A4F44FEB1D
:1018500057ED62EA76E3F101878D90A10E94EB16C5
:101860008B019C014AEA5AEB67E275E3F101878D2F
:1018700090A10E943213C1010E9406098C014BEE17
:1018800056E861ED78E5F101878D90A10E94EB1695
:101890009B01AC01B801882777FD8095982F29839B
:1018A0003A834B835C830E94FC4E29813A814B81B1
:1018B0005C810E94944D0E94C94E9B0177FF02C03B
:1018C00028593E4F44E257E962EC72ECF101878DF2
:1018D00090A10F900F900F900F90DF91CF911F91DB
:1018E0000F91FF90EF90DF90CF90BF90AF909F90BF
:1018F0008F907F906F905F904F903F902F900C94BF
:101900002112CF92DF92EF92FF92CF93DF93EC01FF
:1019100043E95EE665E97DEC8F8D98A10E94DB19B5
:10192000882309F442C046EE50E269E878E98F8DD9
:1019300098A10E94EB1620E030E0A9010E945D50C2
:10194000181624F54FEB57ED62EA76E38F8D98A1D8
:101950000E94EB166B017C0146EE50E269E878E9E3
:101960008F8D98A10E94EB169B01AC01C701B601B7
:101970000E945D50181654F443E95EE665E97DEC7B
:101980008F8D98A10E94DB1981110FC021E043E9DE
:101990005EE665E97DEC8F8D98A1DF91CF91FF9098
:1019A000EF90DF90CF900C94EF11DF91CF91FF90EB
:1019B000EF90DF90CF9008958DE39FE09093390FE3
:1019C0008093380F85E080933A0F10923B0F10926E
:1019D0003C0F08950895CF92DF92EF92FF920F93FC
:1019E0001F93FB0165E075E180E090E0C190CC20A1
:1019F000B9F08B019C0145E0000F111F221F331F1E
:101A00004A95D1F7DD24C7FCD094ED2CFD2C0C0DAC
:101A10001D1D2E1D3F1D600F711F821F931FE6CFDE
:101A20001F910F91FF90EF90DF90CF900895CB0121
:101A30006AE173E00C941447CB0168E273E00C9404
:101A400043470F931F93CF93DF931F92CDB7DEB71A
:101A50008B0168E273E0C80149830E941447498101
:101A600041110AC065E376E0C8010F90DF91CF9184
:101A70001F910F910C9414470F90DF91CF911F91FC
:101A80000F9108950F931F93CF93DF93EB01FA010A
:101A900064918A010F5F1F4F662349F0E881F98145
:101AA0000190F081E02DCE011995A801F0CFDF91D2
:101AB000CF911F910F910895EF92FF920F931F9373
:101AC000CF93DF931F921F92CDB7DEB78C017B01BE
:101AD0006CEF72E0C70149835A830E941447498121
:101AE0005A81B701C8010E94420D6EEF72E0C70132
:101AF0000F900F90DF91CF911F910F91FF90EF907A
:101B00000C9414476F927F928F929F92AF92BF92E4
:101B1000CF92DF92EF920F931F93CF93DF931F9299
:101B20001F92CDB7DEB76C013B01480159016CEF44
:101B300072E0C30149835A830E94144749815A8144
:101B4000B301C6010E94420D62E073E0C3010E942E
:101B50001447A5019401C501B4010E945A4E88237F
:101B600031F06FE073E0C3010E94144707C02AE020
:101B700030E0B501A401C3010E943A4968E273E074
:101B8000C3010E941447E11014C065E376E0C3016D
:101B90000F900F90DF91CF911F910F91EF90DF90F9
:101BA000CF90BF90AF909F908F907F906F900C944C
:101BB00014470F900F90DF91CF911F910F91EF90ED
:101BC000DF90CF90BF90AF909F908F907F906F905D
:101BD0000895AF92BF92CF92DF92EF92FF920F9350
:101BE000CF93DF931F921F92CDB7DEB76C015B01DD
:101BF00079016CEF72E0C50149835A830E94144752
:101C000049815A81B501C6010E94420D62E073E02C
:101C1000C5010E9414478FEFE816F80631F46FE013
:101C200073E0C5010E94144706C04AE050E0B701C6
:101C3000C5010E94F84768E273E0C5010E9414479D
:101C4000011110C065E376E0C5010F900F90DF91A0
:101C5000CF910F91FF90EF90DF90CF90BF90AF901A
:101C60000C9414470F900F90DF91CF910F91FF903C
:101C7000EF90DF90CF90BF90AF9008956F927F92DA
:101C80008F929F92AF92BF92CF92DF92EF920F937B
:101C90001F93CF93DF931F921F92CDB7DEB76C01D6
:101CA0003B01480159016CEF72E0C30149835A833B
:101CB0000E94144749815A81B301C6010E94420D16
:101CC00062E073E0C3010E9414478FEF8816980604
:101CD000A806B80631F46FE073E0C3010E94144710
:101CE00007C02AE030E0B501A401C3010E94AE475D
:101CF00068E273E0C3010E941447E11014C065E379
:101D000076E0C3010F900F90DF91CF911F910F915B
:101D1000EF90DF90CF90BF90AF909F908F907F908B
:101D20006F900C9414470F900F90DF91CF911F91FB
:101D30000F91EF90DF90CF90BF90AF909F908F90DA
:101D40007F906F900895AF92BF92CF92DF92EF9203
:101D5000FF920F93CF93DF931F921F92CDB7DEB701
:101D60007C015B0169016CEF72E0C50149835A8314
:101D70000E94144749815A81B501C7010E94420D52
:101D800062E073E0C5010E941447B601C5010E94DC
:101D9000144767E273E0C5010E941447011110C0A7
:101DA00065E376E0C5010F900F90DF91CF910F9121
:101DB000FF90EF90DF90CF90BF90AF900C941447BE
:101DC0000F900F90DF91CF910F91FF90EF90DF90E8
:101DD000CF90BF90AF900895FB0101900020E9F7EC
:101DE000E61BF70B3297DB01119680E09D01261B65
:101DF000370B2E173F0718F49D918927F7CF0895C9
:101E00004D3F84E058078FE0680784E8780709F4BD
:101E100067C090F5403487E0580782EB68078EE092
:101E2000780709F466C080F44D3383E358078BE9E3
:101E3000680786E0780709F453C0483B514D614973
:101E40007C4009F453C058C0473E88EB58078DE4E6
:101E5000680785E1780709F452C0483489E95807D2
:101E60008EE0680782E57807D9F14D305B49664816
:101E70007F4009F444C040C04F378CE658078AEAD7
:101E8000680782ED780791F1B0F4423A8EEA58077C
:101E900087E7680784EC780791F14B318DE55807A7
:101EA00083E268078AEC7807D9F04B3B5F486446C9
:101EB000714A11F515C0403887E3580786EA68076C
:101EC0008AEE780781F04D3E8DEE580789E8680765
:101ED0008BEE780729F0433F57416C46774E61F40B
:101EE00083E090E0089581E090E0089584E090E040
:101EF000089586E090E0089580E090E0089582E003
:101F000090E008950F931F93CF93DF93EC010E940D
:101F1000EA0C81E794E09983888380E090E0AAEB63
:101F2000B2E48A839B83AC83BD831E821F821886A2
:101F300019861A861B861C861D861E861F86188A91
:101F4000198A1A8A1B8A1C8A1D8A1E8A1F8A188E61
:101F5000198E8AE293E09B8F8A8F1C8E1D8E1E8EB7
:101F60001F8E18A219A21AA21BA218AE19AE1AAE81
:101F70001BAEFE01E05BFF4F1082118212821382C2
:101F8000349610821182128213823496108211824A
:101F90001282138234961082118212821382349636
:101FA0001082118212821382349610821182128260
:101FB0001382349610821182128213823496108218
:101FC000118212821382349610821182128213823D
:101FD00034961082118212821382349610821182FA
:101FE00012821382349610821182128213823496E6
:101FF0001082118212821382349610821182128210
:1020000013823496108211821282138234961082C7
:1020100011821282138234961082118212821382EC
:1020200034961082118212821382349689E090E0F5
:10203000918380833E96108211821282138234969D
:1020400010821182128213823496108211821282BF
:1020500013823C971082118212821382349710826D
:10206000118212821382349710821182128213829B
:102070007896108211821282138234961082118215
:102080001282138234961182108234961082118249
:102090001282138234961082118212821382349635
:1020A000108211821282138234961182108232962B
:1020B000108211821282138234961082118212824F
:1020C000138234961182108232961082118212820B
:1020D00013823496108211821282138234961082F7
:1020E000118212821382349610821182128213821C
:1020F000349681E090E09183808332961182108241
:102100003296918380833296118210823296918327
:102110008083329611821082329691838083329628
:1021200011821082329691838083329611821082BE
:1021300032969183808332961182108232969183F7
:1021400080833296118210823296918380833296F8
:10215000118210823296918380833296118210828E
:1021600032962CE231E03183208332969183808352
:102170003296118210823296918380833296118238
:102180001082329691838083329611821082329629
:1021900091838083329611821082EE5BFF4F108212
:1021A000118212821382349680E090E0A0E8B4E4B9
:1021B00080839183A283B38334961082118212822A
:1021C0001382349610821182128213823496108206
:1021D00011821282138270961082118212821382EF
:1021E00034961082118212821382349610821182E8
:1021F00012821382349610821182128213823496D4
:1022000010821182128213827C97108211821282B4
:102210001382349610821182128213827C9610826D
:1022200011821282138234961082118212821382DA
:102230003496108211821282138234961082118297
:102240001282138234961082118212821382B897FE
:102250001082118212821382BC9610821182128225
:102260001382349610821182128213823496108265
:10227000118212821382349610821182128213828A
:102280003496108211821282138234961082118247
:1022900012821382EC5FF10911821082F395108291
:1022A000319611821082329610821182128213822C
:1022B00034961082118212821382349686E58083CE
:1022C000319640E056E960E070E0408351836283DC
:1022D000738334964083518362837383349600E81A
:1022E00015E220E030E000831183228333833496AB
:1022F0000083118322833383349640835183628326
:102300007383349680EC92E1A0E0B0E08083918307
:10231000A283B38334961182108234961182108284
:10232000349611821082369711821082349611826F
:10233000108234961182108232961082118212829B
:102340001382349610821182128213823496108284
:1023500011821282138234961082118212821382A9
:102360003496108211821282138234961082118266
:102370001282138234961082118212821382349652
:10238000108231961082118212821382349610824A
:102390001182128213823496108211821282138269
:1023A0003496108211821282138234961082118226
:1023B0001282138234961082118212821382349612
:1023C0001082118212821382CB5DDD4F1882198236
:1023D0001A821B82DF91CF911F910F910895493C82
:1023E00036E0530731E0630733ED730731F04038CF
:1023F0005743664A7A4E29F00895FC01E85FFD4F85
:1024000003C0FC01E454FE4F20830895403457403C
:10241000624B7E4021F4FC01E953FE4F2083089576
:102420000F931F934F375C466A4A724D39F4FC0193
:10243000EF5DFD4F00831183228333831F910F9142
:1024400008954F33EDE35E07E4ED6E07ECE77E079A
:1024500009F44CC0F0F4473EE8EB5E07EDE46E078C
:10246000E5E17E07D9F130F44D305B4966487F40A5
:1024700069F10895413CE6EB5E07E8EC6E07E6E1A2
:102480007E0709F443C0443E51406C467741D1F188
:102490000895423AEEEA5E07E7E76E07E4EC7E074E
:1024A000C9F030F44236584867477D47D9F008955F
:1024B0004115EAE75E07EEEC6E07E9EC7E07F1F006
:1024C0004332554C61477A4CA9F00895FC01E3541E
:1024D000FE4F1FC0FC01EC52FF4F1BC0FC01E65F2A
:1024E000FE4F17C0FC01E052FE4F13C0FC01EE513D
:1024F000FE4F0FC0FC01EC51FE4F0BC0FC01EA5136
:10250000FE4F07C0FC01E851FE4F03C0FC01E6513D
:10251000FE4F3183208308950F931F934232E7E5E6
:102520005E07E6EA6E07EBE67E0709F484C078F5FD
:102530004E31E7E55E07E6EA6E07EBE67E0709F453
:102540006EC0B0F44D33E3E35E07EBE96E07E6E0FF
:102550007E0709F458C04834E9E95E07EEE06E07EB
:10256000E2E57E0709F079C0FC01ED53FE4F6EC035
:102570004032E7E55E07E6EA6E07EBE67E0709F420
:1025800052C008F054C0FC01E453FE4F5FC04B3B07
:10259000EFE85E07E4E66E07E1EA7E0709F453C060
:1025A000B0F44332E7E55E07E6EA6E07EBE67E0746
:1025B00009F445C04D3FE4E05E07EFE06E07E4E854
:1025C0007E0709F04AC0FC01E451FE4F3FC0433F83
:1025D000E7E15E07ECE66E07E7EE7E07E1F04D3ED1
:1025E000EDEE5E07E9E86E07EBEE7E0781F04B311A
:1025F000EDE55E07E3E26E07EAEC7E0771F5FC01AC
:10260000E75FFD4F23C0FC01E154FE4F1FC0FC01FA
:10261000E85AFF4F1BC0FC01E051FE4F17C0FC0100
:10262000E853FE4F13C0FC01E053FE4F0FC0FC0106
:10263000EC52FE4F0BC0FC01E852FE4F07C0FC01FC
:10264000E452FE4F03C0FC01E35EFD4F00831183A3
:10265000228333831F910F91089598011F910F9149
:102660000C9421120F931F934A33E6EA5E07EBEEB8
:102670006E07E4E87E0709F429C208F0F1C0433D83
:10268000EFEB5E07EEE46E07E3E47E0709F4EEC1CC
:1026900008F073C04536E4E85E07EBE26E07EAE156
:1026A0007E0709F44FC280F54E3BE0EF5E07E5EF91
:1026B0006E07EEE07E0709F4D1C198F4473EE3E7E8
:1026C0005E07E6E96E07EAE07E0709F4B7C1483B1A
:1026D000514D61497C4009F043C2FC01EB5DFD4F67
:1026E0003BC24B3BE7E95E07E9E46E07E7E17E07A3
:1026F00009F4B8C1413F5049684A794109F030C2F4
:10270000FC01E252FF4F28C24C3BECEE5E07E5E1D4
:102710006E07E3E27E0709F4BDC198F44433EDE6A9
:102720005E07EAEA6E07EFE17E0709F4F7C1423A75
:10273000514E6545704209F013C2FC01EE53FF4F44
:102740000BC24F3BE7ED5E07E2EA6E07E6E37E076A
:1027500009F4F4C14D32F7EB5F07F1EB6F07FEE3CD
:102760007F0709F493C14A3A5A4B6742754309F00F
:10277000F7C1FC01EB5EFD4FEFC1453EF2EB5F0799
:10278000F3E26F07F9E67F0709F4B0C180F54F3F28
:10279000F5E65F07FCE16F07F9E57F0709F454C12F
:1027A00098F4413CFBED5F07FAE46F07F2E57F0721
:1027B00009F4C0C14B3E5648614D784509F0D0C17F
:1027C000FC01E75EFD4FC8C14832F5EC5F07FFEB47
:1027D0006F07FEE57F0709F481C149385E4A654706
:1027E000784609F0BDC1FC01E455FE4FB5C148393A
:1027F000FCE85F07F1EE6F07F7E77F0709F452C1C6
:1028000098F4413EFBE35F07F3E86F07F9E67F07C3
:1028100009F460C149395C4F6444714709F0A0C1B3
:10282000FC01EC54FE4F98C14733FEE85F07F9E422
:102830006F07F0E87F0709F441C14137E0E45E0724
:10284000E5EA6E07E4E87E0709F454C14F3A554AB9
:10285000664D7B4709F084C1FC01E05AFF4F7CC103
:102860004F32E7E15E07E4E76E07EFEB7E0709F41E
:102870004DC108F073C04D35E5EE5E07E6E16E0729
:10288000E9E97E0709F452C180F54234EFE05E07C2
:10289000E5ED6E07EAE87E0709F4F0C098F44C35E0
:1028A000EBE95E07ECEF6E07E4E87E0709F43AC156
:1028B0004B335A426C4A754809F052C1FC01E0584A
:1028C000FF4F4AC14B3AEBE95E07EDEE6E07EEE8CB
:1028D0007E0709F4F7C0463E50426948784909F03E
:1028E0003FC1FC01E055FE4F37C1403AE4E95E07C5
:1028F000E3E66E07E4EB7E0709F428C198F4423E54
:10290000E5E85E07E1EC6E07E2EB7E0709F4BAC08A
:1029100048355D406940744B09F022C1FC01E85024
:10292000FE4F1AC14132E7EA5E07E3E06E07EFEBC4
:102930007E0709F4BBC04435F7EF5F07FAE66F077F
:10294000FFEB7F0709F4DEC04B3452416A4D764BF2
:1029500009F006C1FC01EE55FF4FFEC04C3BFEEAFC
:102960005F07F0ED6F07F4ED7F0709F4C7C078F556
:102970004432F7E95F07F2EC6F077F0709F4CAC03A
:1029800098F44A31F4E05F07FEE96F07FFEB7F0739
:1029900009F4E0C0403F534F674A7F4B09F0E0C065
:1029A000FC01EC5FFD4FD8C04F39FAE95F07F3E354
:1029B0006F07F9EC7F0709F471C043345E40654C42
:1029C0007D4C09F0CDC0FC01EF5EFD4FC5C048371E
:1029D000F1E25F07FCE86F07FEED7F07D9F198F49D
:1029E0004A3FF1E45F07FFED6F07FBED7F0709F456
:1029F00061C04D3C5A4A6A407C4D09F0B1C0FC01AF
:102A0000E453FF4FA9C04E3EF0E15F07FDE96F07B9
:102A1000FBEF7F0709F466C0413BECE85E07E1ECA1
:102A20006E07EDEF7E0731F14C335446634E7A4F1B
:102A300009F096C0FC01E855FE4F8EC0FC010283F0
:102A40001383248335838CC0FC010683178320877E
:102A5000318786C0FC01EC5AFF4F7EC0FC01E45A6E
:102A6000FF4F7AC0FC01E459FF4F76C0FC01E059EA
:102A7000FF4F72C0FC01EC58FF4F6EC0FC01E858DC
:102A8000FF4F6AC0FC01E458FF4F66C0FC01EC57E1
:102A9000FF4F62C0FC01E857FF4F5EC0FC01E057EA
:102AA000FF4F5AC0FC01EC56FF4F56C0FC01EA55DF
:102AB000FF4F52C0FC01E655FF4F4EC0FC01E255EE
:102AC000FF4F4AC0FC01E256FF4F46C0FC01E656EC
:102AD000FF4F42C0FC01EE54FF4F3EC0FC01EA54E0
:102AE000FF4F3AC0FC01EE51FF4F36C0FC01E254EB
:102AF000FF4F32C0FC01EA53FF4F2EC0FC01E053F0
:102B0000FF4F2AC0FC01EA52FF4F26C0FC01E652EB
:102B1000FF4F22C0FC01EC55FE4F1EC0FC01E854E3
:102B2000FE4F1AC0FC01E45AFE4F16C0FC01E05AE9
:102B3000FE4F12C0FC01E858FE4F0EC0FC01E35FDF
:102B4000FD4F0AC0FC01EC50FE4F06C0FC01E450F2
:102B5000FE4F02C0FC01FE5F00831183228333839A
:102B60001F910F910895493C26E0520721E062072A
:102B700023ED720749F040385743664A7A4E49F4CC
:102B8000FC01E454FE4F03C0FC01E85FFD4F80816F
:102B9000089580E008954F332DE3520724ED620736
:102BA0002CE7720709F451C028F5473E28EB52077D
:102BB0002DE4620725E1720709F443C050F44D305B
:102BC0005B4966487F4009F04EC0FC01E354FE4F6C
:102BD00047C0413C26EB520728EC620726E172070A
:102BE000E1F1443E51406C467741E9F5FC01E85182
:102BF000FE4F36C0423A2EEA520727E7620724EC1E
:102C00007207D9F048F44236584867477D4759F56E
:102C1000FC01E052FE4F24C041152AE752072EEC7A
:102C2000620729EC7207A9F04332554C61477A4C90
:102C3000D1F4FC01EC51FE4F13C0FC01EC52FF4FEC
:102C40000FC0FC01E65FFE4F0BC0FC01EE51FE4FD2
:102C500007C0FC01EA51FE4F03C0FC01E651FE4FE4
:102C60008081918108958FEF9FE70895423227E593
:102C7000520726EA62072BE6720709F47EC060F568
:102C80004E3127E5520726EA62072BE6720709F460
:102C900068C098F44D3323E352072BE9620726E01E
:102CA000720709F44EC0483459496E40724509F024
:102CB00070C0FC01ED53FE4F67C0403227E552075C
:102CC00026EA62072BE6720709F44FC008F051C0EC
:102CD000FC01E453FE4F58C04B3B2FE8520724E65B
:102CE000620721EA720789F198F4433227E5520717
:102CF00026EA62072BE6720709F443C04D3F5440B1
:102D00006F40744809F045C0FC01E451FE4F3CC0DF
:102D1000433F27E152072CE6620727EE7207C9F00E
:102D20004D3E2DEE520729E862072BEE7207A9F0FF
:102D30004B315D4563427A4C61F5FC01E75FFD4F25
:102D400023C0FC01E154FE4F1FC0FC01E35EFD4FB8
:102D50001BC0FC01E051FE4F17C0FC01E85AFF4FB9
:102D600013C0FC01E853FE4F0FC0FC01E053FE4FBF
:102D70000BC0FC01EC52FE4F07C0FC01E852FE4FB5
:102D800003C0FC01E452FE4F608171818281938116
:102D900008956FEF7FEFCB010895483B21ED520777
:102DA00021E962072CE0720749F04F375C466A4A16
:102DB000724D61F4FC01EF5DFD4F03C0FC01EB5D62
:102DC000FD4F6081718182819381089560E070E0A0
:102DD00080E89FE408954A3326EA52072BEE620703
:102DE00024E8720709F429C208F0F1C0433DFFEB63
:102DF0005F07FEE46F07F3E47F0709F4EEC108F014
:102E000073C04536E4E85E07EBE26E07EAE17E0751
:102E100009F44FC280F54E3B20EF520725EF6207C1
:102E20002EE0720709F4D1C198F4473EF3E75F073B
:102E3000F6E96F07FAE07F0709F4B7C1483B514D47
:102E400061497C4009F044C2FC01EB5DFD4F3BC28F
:102E50004B3BE7E95E07E9E46E07E7E17E0709F42B
:102E6000B8C1413F5049684A794109F031C2FC017B
:102E7000E252FF4F28C24C3B2CEE520725E162077D
:102E800023E2720709F4BDC198F44433FDE65F07FD
:102E9000FAEA6F07FFE17F0709F4F7C1423A514EA2
:102EA0006545704209F014C2FC01EE53FF4F0BC29E
:102EB0004F3BE7ED5E07E2EA6E07E6E37E0709F4C3
:102EC000F4C14D32F7EB5F07F1EB6F07FEE37F07CD
:102ED00009F493C14A3A5A4B6742754309F0F8C165
:102EE000FC01EB5EFD4FEFC1453EE2EB5E07E3E226
:102EF0006E07E9E67E0709F4B0C180F54F3F25E68D
:102F000052072CE1620729E5720709F454C198F4CD
:102F1000413CFBED5F07FAE46F07F2E57F0709F438
:102F2000C0C14B3E5648614D784509F0D1C1FC0106
:102F3000E75EFD4FC8C14832E5EC5E07EFEB6E0778
:102F4000EEE57E0709F481C149385E4A6547784657
:102F500009F0BEC1FC01E455FE4FB5C148392CE86B
:102F6000520721EE620727E7720709F452C198F46D
:102F7000413EFBE35F07F3E86F07F9E67F0709F4DB
:102F800060C149395C4F6444714709F0A1C1FC013B
:102F9000EC54FE4F98C14733EEE85E07E9E46E0754
:102FA000E0E87E0709F441C14137F0E45F07F5EA44
:102FB0006F07F4E87F0709F454C14F3A554A664D4C
:102FC0007B4709F085C1FC01E05AFF4F7CC14F32BD
:102FD000E7E15E07E4E76E07EFEB7E0709F44DC11A
:102FE00008F073C04D3525EE520726E1620729E946
:102FF000720709F452C180F54234FFE05F07F5ED36
:103000006F07FAE87F0709F4F0C098F44C35EBE954
:103010005E07ECEF6E07E4E87E0709F43AC14B3334
:103020005A426C4A754809F053C1FC01E058FF4F01
:103030004AC14B3A2BE952072DEE62072EE8720780
:1030400009F4F7C0463E50426948784909F040C14A
:10305000FC01E055FE4F37C1403AF4E95F07F3E663
:103060006F07F4EB7F0709F428C198F4423EE5E8C6
:103070005E07E1EC6E07E2EB7E0709F4BAC0483563
:103080005D406940744B09F023C1FC01E850FE4FDC
:103090001AC1413227EA520723E062072FEB720779
:1030A00009F4BBC04435E7EF5E07EAE66E07EFEBD5
:1030B0007E0709F4DEC04B3452416A4D764B09F06D
:1030C00007C1FC01EE55FF4FFEC04C3B2EEA5207F4
:1030D00020ED620724ED720709F4C7C078F5443289
:1030E000F7E95F07F2EC6F077F0709F4CAC098F4AD
:1030F0004A31E4E05E07EEE96E07EFEB7E0709F484
:10310000E0C0403F534F674A7F4B09F0E1C0FC01EC
:10311000EC5FFD4FD8C04F392AE9520723E362071D
:1031200029EC720709F471C043345E40654C7D4C54
:1031300009F0CEC0FC01EF5EFD4FC5C04837F1E29B
:103140005F07FCE86F07FEED7F07D9F198F44A3F6F
:10315000E1E45E07EFED6E07EBED7E0709F461C079
:103160004D3C5A4A6A407C4D09F0B2C0FC01E45320
:10317000FF4FA9C04E3E20E152072DE962072BEF19
:10318000720709F466C0413BECE85E07E1EC6E07AC
:10319000EDEF7E0731F14C335446634E7A4F09F020
:1031A00097C0FC01E855FE4F8EC0FC01628173811F
:1031B000848195810895FC01668177818085918560
:1031C0000895FC01EC5AFF4F7EC0FC01E45AFF4F0A
:1031D0007AC0FC01E459FF4F76C0FC01E059FF4F73
:1031E00072C0FC01EC58FF4F6EC0FC01E858FF4F65
:1031F0006AC0FC01E458FF4F66C0FC01EC57FF4F6A
:1032000062C0FC01E857FF4F5EC0FC01E057FF4F72
:103210005AC0FC01EC56FF4F56C0FC01EA55FF4F67
:1032200052C0FC01E655FF4F4EC0FC01E255FF4F76
:103230004AC0FC01E256FF4F46C0FC01E656FF4F74
:1032400042C0FC01EE54FF4F3EC0FC01EA54FF4F68
:103250003AC0FC01EE51FF4F36C0FC01E254FF4F73
:1032600032C0FC01EA53FF4F2EC0FC01E053FF4F78
:103270002AC0FC01EA52FF4F26C0FC01E652FF4F74
:1032800022C0FC01EC55FE4F1EC0FC01E854FE4F6D
:103290001AC0FC01E45AFE4F16C0FC01E05AFE4F72
:1032A00012C0FC01E858FE4F0EC0FC01E35FFD4F69
:1032B0000AC0FC01EC50FE4F06C0FC01E450FE4F7A
:1032C00002C0FC01FE5F608171818281938108955B
:1032D00060E070E080EC9FE7089540345740624B17
:1032E0007E4029F4FC01E953FE4F8081089580E37C
:1032F0000895FC01E654FF4F81E020813181232BAA
:1033000009F480E00895FC01E25FFE4F20813181E5
:10331000223031050CF04DC072972081318122306E
:1033200031050CF046C034972081318122303105BF
:103330000CF03FC070972081318122303105CCF5EF
:10334000349620813181223031059CF534962081DC
:103350003181223031056CF5709620813181223027
:1033600031053CF5349620813181223031050CF550
:1033700034962081318122303105DCF4749720812C
:10338000318122303105ACF47E96208131812230AA
:1033900031057CF4349620813181223031054CF4A2
:1033A000349681E020813181223031051CF480E0A7
:1033B000089581E008954F332BE352072FED620704
:1033C00027E7720709F480C078F54E382AE95207DA
:1033D0002BE462072DE4720709F46AC098F4473AB7
:1033E00025EC52072BE7620727E2720709F454C065
:1033F0004C355741694C7B4309F06FC0FC01E851E3
:10340000FF4F65C04E3D26E852072AEC620724E5CF
:10341000720709F455C04636524F684E754509F09B
:103420005CC0FC01F39553C047332DE0520725E5FE
:10343000620722EB720761F190F44B3E28E65207D7
:1034400020EC620727EA720759F14B3255426C476C
:103450007E4A09F042C0FC01EA5EFE4F38C04339A3
:103460002EE6520725E962072DEC720729F14F3548
:1034700022E952072EE362072CEE7207A9F04C33C3
:10348000504F6D47794C49F5FC01E850FF4F1FC084
:10349000FC01E051FF4F1BC0FC01EC50FF4F17C077
:1034A000FC01E450FF4F13C0FC01EC5FFE4F0FC066
:1034B000FC01E85FFE4F0BC0FC01E25FFE4F07C05E
:1034C000FC01EE5EFE4F03C0FC01E65EFE4F81E0B4
:1034D00020813181223031050CF480E008954F3392
:1034E0002BE352072FED620727E7720709F480C02C
:1034F00078F54E382AE952072BE462072DE472076B
:1035000009F46AC098F4473A25EC52072BE76207A2
:1035100027E2720709F454C04C355741694C7B438C
:1035200009F06FC0FC01E851FF4F65C04E3D26E831
:1035300052072AEC620724E5720709F455C04636A3
:10354000524F684E754509F05CC0FC01F39553C0BD
:1035500047332DE0520725E5620722EB720761F140
:1035600090F44B3E28E6520720EC620727EA7207E8
:1035700059F14B3255426C477E4A09F042C0FC017A
:10358000EA5EFE4F38C043392EE6520725E962074E
:103590002DEC720729F14F3522E952072EE362071D
:1035A0002CEE7207A9F04C33504F6D47794C49F51A
:1035B000FC01E850FF4F1FC0FC01E051FF4F1BC052
:1035C000FC01EC50FF4F17C0FC01E450FF4F13C04B
:1035D000FC01EC5FFE4F0FC0FC01E85FFE4F0BC02B
:1035E000FC01E25FFE4F07C0FC01EE5EFE4F03C030
:1035F000FC01E65EFE4F81E0208131811216130648
:103600000CF080E00895EF92FF920F931F93CF93F9
:10361000DF93EC017B01142FE881F98136978081DB
:1036200091814CE957E08C0F9D1F0E945C0DFE01BB
:10363000EA51FF4F0190F081E02DEE0FFF1FEC5C8F
:10364000FD4F20813181E881F98136978081918118
:1036500000E04EE557E0B7018C0F9D1F0E94A30EBE
:10366000FE01E851FF4F0190F081E02DEE0FFF1FAA
:10367000E45DFD4F20813181E881F98136978081B9
:1036800091814DE457E0B7018C0F9D1F0E94A30E5E
:10369000FE01E651FF4F0190F081E02DEE0FFF1F7C
:1036A000EC5CFD4F20813181E881F9813697808182
:1036B00091814EE257E0B7018C0F9D1F0E94A30E2F
:1036C000FE01E451FF4F0190F081E02DEE0FFF1F4E
:1036D000E45DFD4F20813181E881F9813697808159
:1036E00091814AE157E0B7018C0F9D1F0E94A30E04
:1036F000FE01E251FF4F0190F081E02DEE0FFF1F20
:10370000EC5CFD4F20813181E881F9813697808121
:10371000918143E956E0B7018C0F9D1F0E94A30ED3
:10372000FE01E051FF4F0190F081E02DEE0FFF1FF1
:10373000E45DFD4F20813181E881F98136978081F8
:10374000918142E856E0B7018C0F9D1F0E94A30EA5
:10375000FE01EE50FF4F0190F081E02DEE0FFF1FB4
:10376000EC5CFD4F20813181E881F98136978081C1
:10377000918146E656E0B7018C0F9D1F0E94A30E73
:10378000FE01EC50FF4F0190F081E02DEE0FFF1F86
:10379000E45DFD4F20813181E881F9813697808198
:1037A000918147E556E0B7018C0F9D1F0E94A30E43
:1037B000FE01EA50FF4F0190F081E02DEE0FFF1F58
:1037C000EC5CFD4F20813181E881F9813697808161
:1037D000918143E456E0B7018C0F9D1F0E94A30E18
:1037E000FE01E850FF4F0190F081E02DEE0FFF1F2A
:1037F000E45DFD4F20813181E881F9813697808138
:10380000918145E356E0B7018C0F9D1F0E94A30EE6
:10381000FE01E650FF4F0190F081E02DEE0FFF1FFB
:10382000EC5CFD4F20813181E881F9813697808100
:10383000918141E056E0B7018C0F9D1F0E94A30EBD
:10384000FE01E450FF4F0190F081E02DEE0FFF1FCD
:10385000E45DFD4F20813181E881F98136978081D7
:10386000918143EF55E0B7018C0F9D1F0E94A30E7D
:10387000FE01E250FF4F0190F081E02DEE0FFF1F9F
:10388000EC5CFD4F20813181E881F98136978081A0
:1038900091814EE655E0B7018C0F9D1F0E94A30E4B
:1038A000FE01F3950190F081E02DEE0FFF1FE45D26
:1038B000FD4F20813181E881F981369780819181A6
:1038C0004DE555E0B7018C0F9D1F0E94A30EFE0130
:1038D000EE5FFE4F0190F081E02DEE0FFF1FEC5CDC
:1038E000FD4F20813181E881F98136978081918176
:1038F0004EE155E0B7018C0F9D1F0E94A30EFE0103
:10390000EC5FFE4F0190F081E02DEE0FFF1FE45DB4
:10391000FD4F20813181E881F98136978081918145
:103920004DE055E0B7018C0F9D1F0E94A30EFE01D4
:10393000EA5FFE4F0190F081E02DEE0FFF1FEC5C7F
:10394000FD4F20813181E881F98136978081918115
:1039500044EE54E0B7018C0F9D1F0E94A30EFE01A0
:10396000E85FFE4F0190F081E02DEE0FFF1FE45D58
:10397000FD4F20813181E881F981369780819181E5
:1039800044ED54E0B7018C0F9D1F0E94A30EFE0171
:10399000E65FFE4F20813181E881F9813697808191
:1039A000918146E754E0B7018C0F9D1F0E94E90DFD
:1039B000FE01E45FFE4F0190F081E02DEE0FFF1F4E
:1039C000EC5CFD4F20813181E881F981369780815F
:1039D00091814CEC53E0B7018C0F9D1F0E94A30E08
:1039E000FE01E25FFE4F0190F081E02DEE0FFF1F20
:1039F000E45DFD4F20813181E881F9813697808136
:103A000091814DEB53E0B7018C0F9D1F0E94A30ED7
:103A1000FE01E05FFE4F0190F081E02DEE0FFF1FF1
:103A2000EC5CFD4F20813181E881F98136978081FE
:103A3000918142E256E0B7018C0F9D1F0E94A30EB8
:103A4000FE01EE5EFE4F0190F081E02DEE0FFF1FB4
:103A5000E45DFD4F20813181E881F98136978081D5
:103A6000918140E156E0B7018C0F9D1F0E94A30E8B
:103A7000FE01EC5EFE4F0190F081E02DEE0FFF1F86
:103A8000EC5CFD4F20813181E881F981369780819E
:103A9000918143EC54E0B7018C0F9D1F0E94A30E4F
:103AA000FE01EA5EFE4F0190F081E02DEE0FFF1F58
:103AB000E45DFD4F20813181E881F9813697808175
:103AC000918143EB54E0B7018C0F9D1F0E94A30E20
:103AD000FE01E85EFE4F0190F081E02DEE0FFF1F2A
:103AE000EC5CFD4F20813181E881F981369780813E
:103AF00091814EE455E0B7018C0F9D1F0E94A30EEB
:103B0000FE01E65EFE4F0190F081E02DEE0FFF1FFB
:103B1000E45DFD4F20813181E881F9813697808114
:103B2000918101E040E455E0B7018C0F9D1F0E9498
:103B3000A30EE881F981369780819181412F6BEC4A
:103B400070E18C0F9D1FDF91CF911F910F91FF901E
:103B5000EF900C94210DCF92DF92EF92FF920F9392
:103B60001F93CF93DF93EC016B01F42EE881F98171
:103B700036978081918140E757E08C0F9D1F0E940E
:103B80005C0DFE01EA55FF4F0081118122813381D6
:103B9000E881F981369780819181E12C40E857E0F6
:103BA000B6018C0F9D1F0E94820DFE01E655FF4F4E
:103BB0000081118122813381E881F98136978081EA
:103BC000918140E855E0B6018C0F9D1F0E94820D47
:103BD000E881F98136978081918145EF54E0B60103
:103BE0008C0F9D1F0E945C0DFE01E858FF4F008165
:103BF000118122813381E881F98136978081918119
:103C000040EC55E0B6018C0F9D1F0E94820DFE0115
:103C1000EC58FF4F0081118122813381E881F981C5
:103C200036978081918146EB55E0B6018C0F9D1F40
:103C30000E94820DFE01E458FF4F00811181228114
:103C40003381E881F981369780819181EE24E39474
:103C500047E757E0B6018C0F9D1F0E94820DE88157
:103C6000F98136978081918141E06BEC70E18C0F96
:103C70009D1F0E94210DE881F981369780819181F5
:103C80004F2D6BEC70E18C0F9D1FDF91CF911F9139
:103C90000F91FF90EF90DF90CF900C94210DCF9279
:103CA000DF92EF92FF920F931F93CF93DF93EC017C
:103CB0006B01F42EE881F98136978081918145EF7F
:103CC00054E08C0F9D1F0E945C0DFE01E858FF4FD1
:103CD0000081118122813381E881F98136978081C9
:103CE0009181E12C40EC55E0B6018C0F9D1F0E94A4
:103CF000820DFE01EC58FF4F00811181228133813A
:103D0000E881F98136978081918146EB55E0B601D3
:103D10008C0F9D1F0E94820DFE01E458FF4F008111
:103D2000118122813381E881F981369780819181E7
:103D3000EE24E39447E757E0B6018C0F9D1F0E94E5
:103D4000820DE881F9813697808191814F2D6BEC4E
:103D500070E18C0F9D1FDF91CF911F910F91FF900C
:103D6000EF90DF90CF900C94210DCF92DF92EF92E5
:103D7000FF920F931F93CF93DF93EC016B01F42E0F
:103D8000E881F98136978081918143E457E08C0F77
:103D90009D1F0E945C0DFE01E654FF4F0190F081D3
:103DA000E02DEE0FFF1FEA5DFD4F20813181E8819C
:103DB000F98136978081918100E04DE154E0B601B0
:103DC0008C0F9D1F0E94A30EFE01E454FF4F019033
:103DD000F081E02DEE0FFF1FE05EFD4F208131816D
:103DE000E881F9813697808191814BE355E0B601F6
:103DF0008C0F9D1F0E94A30EFE01E254FF4F008115
:103E0000118122813381E881F98136978081918106
:103E1000E12C4BEE53E0B6018C0F9D1F0E94820DEA
:103E2000FE01EE53FF4F0081118122813381E88131
:103E3000F9813697808191814EEF53E0B6018C0F66
:103E40009D1F0E94820DFE01EA53FF4F00811181E8
:103E500022813381E881F9813697808191814CE814
:103E600057E0B6018C0F9D1F0E94820DFE01E653A4
:103E7000FF4F0190F081E02DEE0FFF1FEA5FFD4F35
:103E800020813181E881F98136978081918100E03C
:103E900045ED55E0B6018C0F9D1F0E94A30EFE015B
:103EA000E453FF4F0081118122813381E881F98140
:103EB0003697808191814AED56E0B6018C0F9D1FA7
:103EC0000E94820DFE01E053FF4F0081118122818B
:103ED0003381E881F98136978081918141E157E012
:103EE000B6018C0F9D1F0E94820DFE01EC52FF4F08
:103EF00000811181222717FD2095322FE881F98159
:103F000036978081918142E556E0B6018C0F9D1F66
:103F10000E943E0EFE01EA52FF4F00811181228174
:103F20003381E881F98136978081918147E955E0B5
:103F3000B6018C0F9D1F0E94820DFE01E652FF4FBD
:103F40000081118122813381E881F9813697808156
:103F500091814AE855E0B6018C0F9D1F0E94820DA9
:103F6000FE01E252FF4F0081118122813381E881FD
:103F7000F9813697808191814EEF54E0B6018C0F24
:103F80009D1F0E94820DFE01EE51FF4F00811181A5
:103F900022813381E881F981369780819181EE24F5
:103FA000E39443E254E0B6018C0F9D1F0E94820D02
:103FB000E881F9813697808191814F2D6BEC70E11A
:103FC0008C0F9D1FDF91CF911F910F91FF90EF906C
:103FD000DF90CF900C94210DCF92DF92EF92FF9261
:103FE0000F931F93CF93DF93EC016B01F42EE881C5
:103FF000F9813697808191814CED53E08C0F9D1FA4
:104000000E945C0DFE01E055FE4F0081118122816E
:104010003381E881F981369780819181E12C4BE6EB
:1040200054E0B6018C0F9D1F0E94820DFE01E855E1
:10403000FE4F0081118122813381E881F981369719
:104040008081918143EB56E0B6018C0F9D1F0E9449
:10405000820DFE01EC55FE4F0081118122813381DA
:10406000E881F98136978081918148EC56E0B6016C
:104070008C0F9D1F0E94820DFE01E455FE4F0081B2
:10408000118122813381E881F98136978081918184
:1040900045EA56E0B6018C0F9D1F0E94820DFE017D
:1040A000E854FE4F0081118122813381E881F9813A
:1040B0003697808191814DE554E0B6018C0F9D1FAC
:1040C0000E94820DFE01EC54FE4F0081118122817D
:1040D0003381E881F981369780819181EE24E394E0
:1040E00041E354E0B6018C0F9D1F0E94820DE881D0
:1040F000F9813697808191814F2D6BEC70E18C0FA7
:104100009D1FDF91CF911F910F91FF90EF90DF9056
:10411000CF900C94210DCF92DF92EF92FF920F93EC
:104120001F93CF93DF93EC016B01F42EE881F981AB
:1041300036978081918140E355E06BEC70E18C0F04
:104140009D1F0E945C0D0E811F8128853985E881A5
:10415000F981369780819181E12C43EE56E06BEC3A
:1041600070E18C0F9D1F0E94820D0A811B812C81A2
:104170003D81E881F98136978081918148EF56E051
:104180006BEC70E18C0F9D1F0E94820DFE01E459C3
:10419000FF4F0081118122813381E881F9813697B7
:1041A0008081918143EE55E06BEC70E18C0F9D1F97
:1041B0000E94820DFE01EC5AFF4F00811181228185
:1041C0003381E881F98136978081918144EA55E015
:1041D0006BEC70E18C0F9D1F0E94820DFE01E05977
:1041E000FF4F0081118122813381E881F981369767
:1041F0008081918149EC55E06BEC70E18C0F9D1F43
:104200000E94820DFE01E058FF4F00811181228142
:104210003381E881F98136978081918147E055E0CB
:104220006BEC70E18C0F9D1F0E94820DFE01EC571C
:10423000FF4F0081118122813381E881F981369716
:104240008081918148EA54E06BEC70E18C0F9D1FF6
:104250000E94820DFE01E857FF4F008111812281EB
:104260003381E881F98136978081918143EA54E076
:104270006BEC70E18C0F9D1F0E94820DFE01E057D8
:10428000FF4F0081118122813381E881F9813697C6
:10429000808191814DE454E06BEC70E18C0F9D1FA7
:1042A0000E94820DFE01EC56FF4F00811181228198
:1042B0003381E881F9813697808191814BE354E025
:1042C0006BEC70E18C0F9D1F0E94820DFE01E85681
:1042D000FF4F0190F081E02DEE0FFF1FE45FFD4FD7
:1042E00020813181E881F98136978081918100E0D8
:1042F0004DE154E06BEC70E18C0F9D1F0E94A30E0A
:1043000040E0B601CE010E94AB1D41E06BEC70E1D4
:10431000CE010E944F1EE881F981369780819181FC
:104320004F2D6BEC70E18C0F9D1FDF91CF911F9192
:104330000F91FF90EF90DF90CF900C94210DCF92D2
:10434000DF92EF92FF920F931F93CF93DF93EC01D5
:104350006B01F42EE881F98136978081918146E7DF
:1043600056E06BEC70E18C0F9D1F0E945C0DFE010E
:10437000E45AFE4F0081118122813381E881F98165
:10438000369780819181E12C42EA57E06BEC70E135
:104390008C0F9D1F0E94820DFE01E05AFE4F00818E
:1043A000118122813381E881F98136978081918161
:1043B0004DEB57E06BEC70E18C0F9D1F0E94820D5E
:1043C000FE01E858FE4F0081118122813381E8818E
:1043D000F98136978081918141EE53E06BEC70E179
:1043E0008C0F9D1F0E94820D41E0B601CE010E94FC
:1043F000EC1FE881F9813697808191814F2D6BEC1C
:1044000070E18C0F9D1FDF91CF911F910F91FF9055
:10441000EF90DF90CF900C94210DCF92DF92EF922E
:10442000FF920F931F93CF93DF93EC016B01F42E58
:10443000E881F98136978081918144E154E06BEC09
:1044400070E18C0F9D1F0E945C0DFE01EE54FF4F2A
:104450000081118122813381E881F9813697808141
:104460009181E12C47E954E06BEC70E18C0F9D1FCA
:104470000E94820DFE01EA54FF4F008111812281CA
:104480003381E881F98136978081918145E854E054
:104490006BEC70E18C0F9D1F0E94820D41E0B60114
:1044A000CE010E94B51EE881F98136978081918105
:1044B0004F2D6BEC70E18C0F9D1FDF91CF911F9101
:1044C0000F91FF90EF90DF90CF900C94210D0F9300
:1044D0001F93CF93DF93EC018B01E881F98136972D
:1044E000808191816BEC70E18C0F9D1F0E94170DF4
:1044F000E881F9813697808191814EEC57E06BEC31
:1045000070E18C0F9D1F0E945C0DE881F981369748
:104510008081918149EC57E06BEC70E18C0F9D1F1D
:104520000E945C0D40E0B801CE010E948B2040E06B
:10453000B801CE010E94031B40E0B801CE010E94E9
:104540000D2241E0B801CE010E949F21E881F9814E
:1045500036978081918141E0B8018C0F9D1F0E94A8
:10456000210DE881F98136978081918141E0B80180
:104570008C0F9D1F0E94210DE881F9813697808163
:104580009181B8018C0F9D1FDF91CF911F910F91E9
:104590000C941C0D2AE734E0FC013183208308953C
:1045A0002AE734E0FC01318320830C94454BFC0165
:1045B000178216821186108610A61286EA5BFF4FBC
:1045C000108208952AE734E0FC0131832083E85803
:1045D000FF4F1082FC0173836283558344830C94E4
:1045E000D722FC01178216820C94D722CF92DF9239
:1045F000EF92FF920F931F93CF93DF93EC018B0108
:10460000AC81BD81BC016D5A7F4FED91FC9111973A
:104610003697808191818A0F9B1F0E94EB0C6B0162
:104620007C01888599858230910561F08330910500
:1046300009F465C0019709F079C021E0012B09F068
:1046400067C065C0B8018FE093E00E944054892B99
:1046500009F46CC0AC81BD81ED91FC911197369746
:1046600080819181B701A6018A0F9B1F0E94000FD4
:104670008230910591F17CF4892B09F057C0C80173
:104680000E9416548B019C01B701A6018C819D816B
:104690000E9432134BC08330910579F0049709F0E2
:1046A00045C0C8010E9416548B019C01B701A601A8
:1046B0008C819D810E94101239C04AE050E060E078
:1046C00070E0C8010E9402538B019C01B701A60152
:1046D0008C819D810E948C1229C0C8010E941A54AD
:1046E0009C01B701A6018C819D81DF91CF911F9123
:1046F0000F91FF90EF90DF90CF900C9421126CE11E
:1047000073E0C8010E94405421E0892B09F020E0A9
:10471000B701A6018C819D81DF91CF911F910F91EF
:10472000FF90EF90DF90CF900C94EF11DF91CF913D
:104730001F910F91FF90EF90DF90CF900895CF934E
:10474000DF93DC01AA5BBF4FFD0101900020E9F778
:10475000EA1BFB0B3297F7FD0CC0EC01CE0FDF1FFD
:10476000CA5BDF4F28812E3211F4188203C03197C3
:10477000F2CF1C92FC01E858FF4F1082DF91CF91DD
:104780000895FB0101900020E9F7319740831182E1
:1047900081E00895462FBC016A5B7F4F22E330E041
:1047A0000C94C123EF92FF920F931F93CF93DF934B
:1047B0008C01EB018881882371F1D801AA5BBF4F7E
:1047C000FD0101900020E9F73197EA1BFB0B1E1653
:1047D0001F0614F07E0107C06EE2C8010E94CA23C2
:1047E0008111F8CF18C0FE0101900020E9F7319740
:1047F000EC1BFD0BC7018C1B9D0B8E179F0738F41C
:10480000F70161917F01C8010E94CA23ECCFF80132
:10481000E858FF4F1082DF91CF911F910F91FF90C9
:10482000EF900895462FBC01685D7F4F2EE130E088
:104830000C94C123462FBC01665F7F4F2EE130E010
:104840000C94C123CF92DF92EF92FF920F931F93AC
:10485000CF93DF931F921F92CDB7DEB76C01262F47
:104860007C0188E2E80EF11C04E010E0E62FEF7D09
:10487000E983F601868197818230910509F4BFC0F2
:1048800034F4009761F0019709F462C0CCC0843021
:10489000910509F49AC0069709F4ABC0C4C02D3540
:1048A00059F154F42232F9F02B35D1F564E774E074
:1048B000C6010E94D223B7C0243739F12B3769F0E3
:1048C000263671F581E090E0F6019783868383E0D8
:1048D00090E09187808766E632C081E090E0F60143
:1048E0009783868383C081E090E0F6019783868377
:1048F0009187808710A697C0C6010E949F2384E0FD
:1049000090E0F601978386838EC081E090E0F60107
:104910009783868383E090E09187808764E70FC068
:1049200080ED820F8A3078F481E090E0F601978381
:10493000868382E090E09187808710A6622FC6016F
:104940000E94122470C02D3279F32E3669F36EC0A6
:10495000F6018085918581309105E9F01CF4892B61
:1049600039F061C082309105C9F0039741F15BC015
:104970002D3741F464E774E0C6012A830E94D223F4
:10498000F60115C0223209F051C082E090E0F60134
:104990009783868347C0223219F0D0CF2C3259F446
:1049A000B701C6012A830E94F622F60110A61783DA
:1049B00006832A815ECFF981FD3591F3BFCF2C327A
:1049C00079F389818D3561F3B9CF822F8F7D8D3554
:1049D00049F02C3211F0223271F481E090E0F601BE
:1049E00097838683C6010E949F23F6011186108655
:1049F0001AC02A33D9F4F6011782168214C0223263
:104A000029F0622FC6010E941A240DC086E090E0B2
:104A1000F60197838683B601665F7F4FC6010E94C9
:104A2000D223F601128680E090E002C08FEF9FEF64
:104A30000F900F90DF91CF911F910F91FF90EF900A
:104A4000DF90CF900895FC01578B468B718F608F5C
:104A5000118210820895FC01A081B181A80FB91FB5
:104A600012966C938081918143972CF4808191817F
:104A7000019691838083089561E085E30E94D74C7D
:104A800061E085E30E949E4C8CB580618CBD8CB545
:104A900080648CBD61E084E30E949E4C61E083E30E
:104AA0000C949E4C811103C08CB5806202C08CB501
:104AB0008F7D8CBD08959CB5937F982B9CBD0895E8
:104AC000FC01A681B7819D012F5F3F4F84819581B5
:104AD00040855185840F951F2817390750F4378377
:104AE00026836C930680F781E02D108281E090E0B0
:104AF000089580E090E00895FC01A481B581B7831A
:104B0000A68380859185892B09F01C9208950895CC
:104B10002F923F924F925F926F927F928F929F92CD
:104B2000AF92BF92CF92DF92EF92FF920F931F93BB
:104B3000CF93DF93CDB7DEB72A970FB6F894DEBFD9
:104B40000FBECDBF9A878987DC01D6968C918823CA
:104B500009F4E5C00E94914B69837A838B839C831F
:104B6000E985FA8580A191A129813A81281B390B19
:104B700084A595A5281739070CF4D1C0028CF38DB4
:104B8000E02D80809180A280B380A985BA855E9651
:104B9000ED91FC915F97A501940160817181828103
:104BA00093810E94934D2B013C01E985FA85208970
:104BB0003189428953890E946850A985BA859496A3
:104BC0002D913D914D915C9197970E94944D6B0171
:104BD0007C01E985FA8564A375A386A397A312A92E
:104BE00003A934A825A8212F302F432D522D0E9430
:104BF0005D5018162CF4812F902FA32DB22D18C0C4
:104C0000A985BA859E968D919D910D90BC91A02D00
:104C10008D839E83AF83B8879C01AD01C701B60128
:104C20000E945A4E87FF0AC08D819E81AF81B88550
:104C3000E985FA8584A395A3A6A3B7A3A985BA8518
:104C40001C962D913D914D915C911F97C301B2012E
:104C50000E946850E985FA8524A135A146A157A193
:104C60000E94944D6B017C01A985BA8598962D917F
:104C70003D914D915C919B97C501B4010E94934D6C
:104C8000E985FA8524893589468957890E946850C3
:104C90009B01AC01C701B6010E94934D6B017C01E1
:104CA000212F302F432D522D0E945D501816DCF01D
:104CB000A985BA859E961C919E979F960C919F9769
:104CC000D0963C90D097D1962C90212F302F432D09
:104CD000522DB601C7010E945A4E87FD04C01C2DFB
:104CE0000D2D3E2C2F2CA985BA855C96ED91FC915B
:104CF0005D97812F902FA32DB22D80839183A28366
:104D0000B383E985FA8580A691A6A2A6B3A6898178
:104D10009A81AB81BC8180A391A3A2A3B3A32A965D
:104D20000FB6F894DEBF0FBECDBFDF91CF911F91BC
:104D30000F91FF90EF90DF90CF90BF90AF909F903A
:104D40008F907F906F905F904F903F902F9008953D
:104D50002F923F924F925F926F927F928F929F928B
:104D6000AF92BF92CF92DF92EF92FF920F931F9379
:104D7000CF93DF9300D01F92CDB7DEB71C012A017D
:104D80003B014801590120E030E0A901C301B20113
:104D90000E945A4E87FD7AC020E030E0A901C5018B
:104DA000B4010E945A4E87FD71C020E030E0A90195
:104DB000C701B6010E945A4E87FD68C0F1014082CA
:104DC00051826282738284829582A682B782C08673
:104DD000D186E286F38664A575A5882777FD809540
:104DE000982F0E94FC4E20E030E04AE754E40E94F5
:104DF000614E69837A838B839C83F1014486558657
:104E0000668677869B01AC01C501B4010E9468509B
:104E10004B015C01F101608B718B828B938B29813B
:104E20003A814B815C81C701B6010E94614E6B01E2
:104E30007C01F101648B758B868B978B808D918DB6
:104E4000019721F5A301920160E070E0CB010E947F
:104E5000934DF1016487758786879787A501940133
:104E600060E070E0CB010E94934DF101608B718B8B
:104E7000828B938BA701960160E070E0CB010E94CA
:104E8000934DF101648B758B868B978B0F900F90F0
:104E90000F900F90DF91CF911F910F91FF90EF90A6
:104EA000DF90CF90BF90AF909F908F907F906F904A
:104EB0005F904F903F902F900895CF92DF92EF92A6
:104EC000FF920F931F93CF93DF93EC018B01161684
:104ED000170694F5882777FD8095982F0E94FC4E41
:104EE0006B017C016CA57DA5882777FD8095982FA7
:104EF0000E94FC4E9B01AC01C701B6010E94614EAD
:104F00006B017C019B01AC01688979898A899B8945
:104F10000E946850688B798B8A8B9B8BA7019601C6
:104F20006C897D898E899F890E94614E6C8B7D8BF7
:104F30008E8B9F8B1DA70CA7DF91CF911F910F9197
:104F4000FF90EF90DF90CF9008952F923F924F9275
:104F50005F926F927F928F929F92AF92BF92CF9209
:104F6000DF92EF92FF920F931F93CF93DF93EC01A9
:104F70006A017B0148015901A9019801C701B601E5
:104F80000E945D5087FF4EC0CEA6DFA6E8AAF9AA10
:104F90008AAA9BAAACAABDAA8EA9882309F442C0FA
:104FA0002C8C3D8CF1014080518062807380A50182
:104FB0009401C301B2010E945D50181634F4F1014E
:104FC00080829182A282B3820DC0A7019601C301A3
:104FD000B2010E945A4E87FF05C0F101C082D18202
:104FE000E282F3828CA09DA0AEA0BFA0CAA8DBA8DD
:104FF000ECA8FDA8A7019601C501B4010E945D506F
:10500000181664F0CEA4DFA4E8A8F9A8A7019601B9
:10501000C501B4010E945A4E87FF04C0CCA2DDA294
:10502000EEA2FFA2DF91CF911F910F91FF90EF9021
:10503000DF90CF90BF90AF909F908F907F906F90B8
:105040005F904F903F902F9008958F929F92AF92D4
:10505000BF92CF92DF92EF92FF92CF93DF93EC015A
:10506000EC8DFD8DC080D180E280F380CCA2DDA2EA
:10507000EEA2FFA2EA8DFB8D80819181A281B38196
:1050800088A799A7AAA7BBA78AA89BA8ACA8BDA8D0
:10509000A5019401C701B6010E945D50181664F085
:1050A0008EA49FA4A8A8B9A8A5019401C701B60120
:1050B0000E945A4E87FF04C08CA29DA2AEA2BFA23E
:1050C000DF91CF91FF90EF90DF90CF90BF90AF90A6
:1050D0009F908F9008951F93CF93DF93EC0111E081
:1050E0006130710509F010E08EA991E0892718134D
:1050F00003C0CE010E9425281EABDF91CF911F91E6
:1051000008950F931F93CF93DF93EC018B018EA92A
:10511000882361F1888D998D6817790739F12C857D
:105120003D854E855F8560E070E0CB010E94934D28
:105130006C877D878E879F87288939894A895B8913
:1051400060E070E0CB010E94934D688B798B8A8B75
:105150009B8B2C893D894E895F8960E070E0CB0193
:105160000E94934D6C8B7D8B8E8B9F8B198F088F3C
:10517000DF91CF911F910F9108952F923F924F92FF
:105180005F926F927F928F929F92AF92BF92CF92D7
:10519000DF92EF92FF920F931F93CF93DF93CDB7E0
:1051A000DEB728970FB6F894DEBF0FBECDBF4C0117
:1051B0007A8369831A013C832B8327013801AD82EE
:1051C000BE82CF82D88600E010E02FE733E440E0D3
:1051D00050E0BA010E94A52784E690E0F40195A76B
:1051E00084A76AA17BA1C4010E948128CE8CDF8C98
:1051F000E8A0F9A00D811E812F813885B301A2019D
:10520000C4010E94A8260E94914BF40144A455A415
:10521000662457FC6094762C6419750986099709F1
:1052200060A371A382A393A316AA358E248E8981CD
:105230009A81938F828F8B819C81978F868F2896FE
:105240000FB6F894DEBF0FBECDBFDF91CF911F9197
:105250000F91FF90EF90DF90CF90BF90AF909F9015
:105260008F907F906F905F904F903F902F90089518
:105270000F931F93CF93DF93FC017183608312829E
:1052800013821482158286E5868317821086118622
:10529000128613861486158616861786108A118A3A
:1052A000128A138A148A158A168ADF01A754BF4FFF
:1052B00011961C921E92AE55BF4F11961C921E92D3
:1052C000149611961C921E92129611961C921E9282
:1052D000129611961C921E92178AAC5AB1091D9211
:1052E0001C92EF0104E110E08FE090E00E94DB519E
:1052F000FE01E15EFE4F918380838FE090E00E948B
:10530000DB51FE01E558FF4F91838083FC01108241
:105310000150110922960115110531F7DF91CF9146
:105320001F910F910895FC016281738184819581A1
:105330000895FC0186810895FC016781708581854F
:1053400092850895FC016385748585859685089509
:10535000CF92DF92EF92FF926A017B01FC012785D9
:10536000308941895289C701B6010E946850FF9077
:10537000EF90DF90CF900895FC016389748985894F
:105380009689089547960895660F771F680F791FCD
:10539000FB01E558FF4F8081918108954F925F9204
:1053A0006F927F928F929F92AF92BF92CF92DF9235
:1053B000EF92FF920F931F93CF93DF93FB01108126
:1053C0001D3241F031E020E01B3209F030E0832F44
:1053D000922F02C081E090E0EB01C80FD91F00E0DE
:1053E0003DEC432E3CEC532E652C3DE3732E812C7B
:1053F000912C5401C12CD12C7601E991EE23E9F1D5
:10540000EE32C9F1FF27E7FDF095011113C0AAE0C4
:10541000B0E0A70196010E94A9516B017C01CF0168
:10542000C097AA2797FDA095BA2FC80ED91EEA1ECD
:10543000FB1EE3CFBF0160537109882777FD80957C
:10544000982F0E94FC4E9B01AC01C301B2010E9447
:1054500068509B01AC01C501B4010E94944D4B0101
:105460005C0120E030E040E251E4C301B2010E945F
:10547000614E2B013C0101E0C0CFC701B6010E9483
:10548000FC4E9B01AC01C501B4010E94944D1D323C
:1054900039F49B01AC0160E070E0CB010E94934DB8
:1054A000DF91CF911F910F91FF90EF90DF90CF9000
:1054B000BF90AF909F908F907F906F905F904F9034
:1054C00008958F929F92AF92BF92CF92DF92EF9208
:1054D000FF920F931F93CF93DF93EC01AC01455ADA
:1054E0005E4FDA012D913C911197FC01E15AFE4F7C
:1054F000243631056CF4A25AB1098D919C91119713
:10550000449734F4A655BF4F8D919C910F9714F09A
:10551000118210826A3011F06D3011F41182108204
:105520006432E1F4DE01A35ABE4F11961C921E9222
:10553000149611961C921E92A85AB10911961C92AB
:105540001E92A655BF4F1D921C92C554DF4F688313
:1055500081E090E0DA018D939C93E4C08081918199
:105560008130910569F024F4009709F47AC272C27F
:105570008230910509F492C0039709F4D6C06AC23B
:10558000273031057CF4D901AA57BB4F8C916813A1
:1055900009C0DE01A35ABE4F8D919C9111970196CF
:1055A0008D939C93C9010196DA018D939C932C0FE6
:1055B0003D1FD901A554BF4F6C93CE0187549F4F17
:1055C0008E010D591E4F6A3249F1DE01AF59BE4FAF
:1055D000FC016C3209F040C020813181A9014F5F8C
:1055E0005F4F51834083C901880F991F8C0F9D1F06
:1055F000EC01C15EDE4F0990D881C02DF801808199
:105600009181C80FD91F1882118210828D919C91AF
:105610001197FCE28F278D939C931EC2DC012D9184
:105620003C911197A9014F5F5F4F4D935C93C90166
:10563000880F991F8C0F9D1FEC01C15EDE4F0990F2
:10564000D881C02DD8018D919C911197C80FD91F79
:1056500018821D921C9263C080819181880F991FCE
:105660008C0F9D1FEC01C15EDE4F0990D881C02DCB
:10567000F801808191819C012F5F3F4F318320830E
:10568000C80FD91F6883772767FD70958D919C910E
:105690001197682779276D937C93DEC1C901019624
:1056A000DA018D939C932C0F3D1FD901A554BF4F58
:1056B0006C93DE01A754BF4F8D919C91880F991F69
:1056C0008C0F9D1FDC01A15EBE4F0D911C919E01B0
:1056D0002D593E4FD9018D919C911197AC014F5F8F
:1056E0005F4F4D935C93080F191FD8016C93CF59EE
:1056F000DE4F48815981862F992787FD9095613427
:1057000014F0C79701C0C0979C01B4E0220F331F6B
:10571000BA95E1F7CA01821B930B99838883808134
:10572000918101969183808397C1CE01820F931F4F
:10573000DC01A554BF4F6C932E5F3F4FDA012D93D0
:105740003C93DC01A454BF4F1C929E0127543F4F51
:10575000D9018D919C91880F991F8C0F9D1FDC01A1
:10576000A15EBE4F8D919C916E01BDE9CB1ABEEF3B
:10577000DB0AD6010D911C917801BFEFEB1AFB0AF1
:10578000D601ED92FC92800F911FDC016C93D90140
:105790008D919C9111978C010F5F1F4F0D931C935E
:1057A000880F991F8C0F9D1F815E9E4FDC018D918C
:1057B0009C91D6010D911C91800F911FDC011C92D0
:1057C00011821082FE01EF59FE4F80819181062FD8
:1057D000112707FD1095613424F0B8016753710952
:1057E00003C0B80160537109861B970B91838083B6
:1057F000009709F031C168817981672B29F4FA019A
:1058000060817181CB010AC0FE01E35AFE4F6081C5
:1058100071816630710509F024C1F1CF019797FDC0
:105820000AC0FE01E80FF91F8F0105541F4FD80170
:105830001C91178BF3CFFB013197CB0177FF02C08F
:1058400080E090E0BF01681B790BDA016D937C93D7
:10585000FE01E954FF4F1182108240815181D9012C
:105860008D919C914817590784F5D6011D921C9281
:1058700080819181D6014D915C91880F991F8C0F89
:105880009D1FBC01615E7E4FDB016D917C91640FB9
:10589000751FDB016C9185589F4FDC018D919C91A8
:1058A000840F951FDC01662349F06C93D6018D911E
:1058B0009C91119701968D939C93DACF1C928081D5
:1058C0009181019691838083C8CFFE01E35AFE4FF8
:1058D00080819181069709F0C2C0FC976081718137
:1058E000CE010E94CE296A837B838C839D83FE0137
:1058F000ED5DFE4F0190F081E02D80818E83FE01F1
:10590000EB5DFE4F60817181CE010E94CE2920E0C7
:1059100030E048EC52E40E94614E4B015C010E9471
:10592000374F6B017C018E010B591E4FF8016083CC
:105930007183828393839B01AC01C501B4010E94F2
:10594000934D20E030E048EC52E40E94685020E0A3
:1059500030E040E752E40E94614EA70196010E94A8
:10596000944D9B01AC016F83788789879A87FE01EC
:10597000E95DFE4F0190F081E02D8081833549F48F
:1059800060E070E0CB010E94934D6F837887898738
:105990009A87FE01E75DFE4F60817181CE010E9412
:1059A000CE2920E030E048EC52E40E94614E4B01E9
:1059B0005C010E94374F6B017C01D8016D937D9390
:1059C0008D939C9313979B01AC01C501B4010E9478
:1059D000934D20E030E048EC52E40E94685020E013
:1059E00030E040E752E40E94614EA70196010E9418
:1059F000944D9B01AC016B877C878D879E87FE0150
:105A0000E55DFE4F0190F081E02D8081873549F4FE
:105A100060E070E0CB010E94934D6B877C878D879F
:105A20009E87FE01E35DFE4F60817181CE010E9481
:105A3000CE296F87788B898B9A8BFE01E15DFE4FB3
:105A400060817181CE010E94CE296B8B7C8B8D8B06
:105A50009E8B05C01182108280E090E002C081E040
:105A600090E0DF91CF911F910F91FF90EF90DF9029
:105A7000CF90BF90AF909F908F9008958EBD0DB442
:105A800007FEFDCF8EB508950F931F93FC0113827F
:105A9000128208EE13E020E030E0048315832683B1
:105AA000378382ED94E091838083648745871F91DB
:105AB0000F910895EF92FF921F93CF93DF931F9260
:105AC000CDB7DEB77C01162F60E0FC0184854983E9
:105AD0000E94D74CF8E01F9FB0011124F701858583
