:100000000C947D040C94B03D0C94E13D0C94123E94
:100010000C94433E0C94743E0C94A53E0C94D63E36
:100020000C94073F0C94AE040C94AE040C94AE04F4
:100030000C94AE040C94AE040C94AE040C94733384
:100040000C94AE040C94AE040C94AE040C94AE0468
:100050000C94AE040C94AE040C94AE040C944A3F81
:100060000C94AE040C94E8370C941E380C94AE0437
:100070000C94AE040C94AE040C94AE040C94AE0438
:100080000C94AE040C94AE040C94AE040C94AE0428
:100090000C9495380C94CB380C94AE040C94AE04AC
:1000A0000C94AE040C94AE040C94AE040C94AE0408
:1000B0000C94AE040C94AE040C94F6340C94653499
:1000C0000C9458350C94AE040C94AE040C94423944
:1000D0000C9478390C94AE040C94EF390C94253AB6
:1000E0000C94AE048A3D543D5C3D683D753D963DA3
:1000F000A33D8B408E407D4081408740C54092406B
:1001000096409C40A040A440AA40AE40B240C540AA
:10011000B840BC40C040084AD73B3BCE016E84BCCF
:10012000BFFDC12F3D6C74319ABD56833DDA3D0051
:10013000C77F11BED9E4BB4C3E916BAAAABE00009A
:1001400000803F05A84CCDB2D44EB93836A9020C78
:1001500050B9918688083CA6AAAA2ABE0000008051
:100160003F07634236B79BD8A71A39685618AEBA0C
:10017000AB558C1D3CB7CC5763BD6DEDFD753EF6A0
:10018000177231BF000000803F08000000BE9224BB
:1001900049123EABAAAA2ABECDCCCC4C3E000000F0
:1001A00080BEABAAAAAA3E00000000BF00000080EB
:1001B0003F0000000000084178D3BB4387D1133DC6
:1001C000190E3CC3BD4282AD2B3E68EC8276BED98F
:1001D0008FE1A93E4C80EFFFBE01C4FF7F3F0000CE
:1001E000000000000C944F3A0C942D360C94062617
:1001F0000C9484170C9443260C94B6040C94193672
:100200000C94B0040C94E9130C94593A0C947D406E
:100210000C9412370C94FB0C0C9447180C9448382F
:100220000C94A6090C94310D0C94B8400C949C408D
:100230000C94A4400C94AB2D0C94BE330C949C3ABB
:100240000C946F0C0C948B400C94961D0C94D50C54
:100250000C94C5400C94AD360C9452380C948A3DE5
:100260000C94A42D0C9496400C94AE400C940B3638
:100270000C943F180C94F6050C94A8330C945C3D38
:100280000C9492090C9479260C94A33D0C944E186E
:100290000C94543D0C94683D0C947E260C9474266A
:1002A0000C94F5380C94E3130C94FF250C948B36C6
:1002B0000C94AC390C94240B0C94A0400C949240F8
:1002C0000C948E400C9481400C94753D0C94F00578
:1002D0000C94280B0C9487400C94B2400C94CD33B2
:1002E0000C94D61D0C94963D0C94F30D0C94FF3891
:1002F0000C947E0E0C9445180C94AA400C94BC40AF
:100300000C94FE350C94C0400C94A2390C940B0B49
:10031000496E6974206175746F70696C6F742063C5
:100320006F6D706C65746500496E697420617574D9
:100330006F70696C6F742E2E736574206C696D69B3
:1003400074732E2E00496E6974206175746F706924
:100350006C6F742E2E7374617274205049442E2E6B
:1003600000496E6974206175746F70696C6F742ECA
:100370002E006A736F6E7265616465722E726573AA
:10038000756C74735B315D203D20006A736F6E7213
:1003900065616465722E726573756C74735B305D34
:1003A000203D2000536574757020636F6D706C651F
:1003B00074652E2E0053746172742074696D6572B9
:1003C0002E2E0053746172742077696E642E2E0095
:1003D0005374617274206E6D6561205478202D20F5
:1003E0006F6E2070696E732034362054782C203460
:1003F0003820527820617420005374617274206E2A
:100400006D65612054782E2E005374617274206ED5
:100410006D6561205278202D2073657269616C349E
:10042000206174200043535F50494E204F55545073
:100430005554203D20484947480043535F50494E9A
:100440002073657420746F204F55545055540053D9
:1004500074617274205350492075617274732E2E2A
:10046000005374617274206E6D6561205278202D86
:100470002073657269616C3320617420005374616C
:100480007274206E6D6561205278202D2073657224
:1004900069616C322061742000537461727420733E
:1004A000656174616C6B202D2073657269616C32BB
:1004B00020617420343830300053746172742047E6
:1004C0005053205278202D2073657269616C312061
:1004D00061742000496E697469616C697A696E673C
:1004E0002E2E002C002C57534B3A002C5753583AC1
:1004F000002C4141443A002C4141453A002C4141F5
:100500004E3A002C4141523A002C4141583A002CBD
:100510004150523A002C4150433A002C4150543A39
:10052000002C4150533A005549443A4D4547412C1F
:100530004150583A0021215645523A312E392C006B
:1005400024504D544B3235312C0024504D544B33F4
:1005500031342C302C312C302C312C312C312C30AE
:100560002C302C302C302C302C302C302C302C30AB
:100570002C302C302C302C302A32380024504D5462
:100580004B3232302C313030302A314600536574D2
:1005900074696E672047505320746F204D54454B4B
:1005A0005F33333239002C382C312C302A00245060
:1005B0005352463130302C312C00245053524631A6
:1005C00030352C302A3346002450535246313033D4
:1005D0002C30342C30302C30312C30312A32310058
:1005E00024505352463130332C30332C30302C329F
:1005F000302C30312A3235002450535246313033BA
:100600002C30322C30302C30352C30312A32330023
:1006100024505352463130332C30302C30302C3073
:10062000352C30312A323100245053524631303388
:100630002C30312C30302C30302C30312A323500F7
:1006400024505352463130332C30352C30302C303E
:10065000302C30312A32310024505352463130355B
:100660002C312A33450053657474696E67204750F6
:100670005320746F20454D5F34303641005365740C
:1006800074696E672047505320746F2047454E456C
:100690005249430053657474696E67204750532074
:1006A000636F6E6669672E2E2E00202020646566BB
:1006B00061756C7420746F20343830302E2E0046F3
:1006C00041494C4544004F4B2061742000202020BC
:1006D000747279206175746F62617564202E2E20AA
:1006E00000202064657465637465642070756C73A4
:1006F000652072617465203D20002C542A00244836
:10070000434844542C002C4E2C412A002E302C52AD
:100710002C002457494D57562C0053504920696EE0
:10072000697420636F6D706C657465005350492067
:1007300055415254207265736574005350492073BB
:10074000746172746564004D756C74695365726987
:10075000616C3A3A626567696E002C20747261635D
:10076000653D002A505554204E554D45524F21208D
:10077000002C2074726163653D002A50555420534B
:100780005452494E472120002C20636861723A0080
:100790002C20656C656D656E7420747970653A0007
:1007A00050726F6365737320636861722C20737479
:1007B000617475733A002A71756572795F6D617441
:1007C000636821200000000A0B02090C0D0E0807C7
:1007D0000304010000000000000000000000000011
:1007E0000000000000000000000000000000000009
:1007F00000121110000000000000000000000000C6
:100800000000000000000000000000010210202095
:100810000808102040102040800201020108040254
:1008200001010204081020408080402010080402CA
:100830000180040201804020100804020108040223
:100840000101020408102040800102040810204029
:100850008005050505070508080808020202020AC6
:100860000A08080404040401010101010101010353
:1008700003030303030303040707070C0C0C0C0C0E
:100880000C0C0C0202020206060606060606060B01
:100890000B0B0B0B0B0B0B00002000230026002979
:1008A000002C002F003200000100000301060109A6
:1008B0000100002200250028002B002E003100340A
:1008C0000002010000050108010B010000210024C5
:1008D0000027002A002D0030003300010100000431
:1008E0000107010A01009209F30D8417961D523881
:1008F000FF38AC39593AA6097E0E11241FBECFEF3E
:10090000D1E2DEBFCDBF00E00CBF14E0A0E0B2E05A
:10091000ECE8F8E900E00BBF02C007900D92AA32A4
:10092000B107D9F72FE0AAE2B4E001C01D92A831C7
:10093000B207E1F718E0C6EFD8E000E006C0229762
:100940000109FE010BBF0E940747C63ED10780E0A8
:100950000807A9F70E94393F0C94344C0C9400000E
:1009600021E132E0FC0131832083089521E132E06E
:10097000FC01318320830C94483FFC01CB0121E131
:1009800032E03183208373836283148240E050E03D
:10099000BA010E94A91261E088E10E94C64061E0AC
:1009A0008AE10E94C64061E08CE10E94C64061E09D
:1009B0008EE10E94C64060E082E40C94C640CF9273
:1009C000DF92EF92FF92CF93DF93EC018A819B81BC
:1009D0000E946B13882389F08A819B810E947F107B
:1009E0006B017C010E94943F21E0C616D706E80601
:1009F000F90608F020E0822F01C080E0DF91CF915E
:100A0000FF90EF90DF90CF900895CF92DF92EF921A
:100A1000FF92CF93DF93EC010E94DF048823A9F1BA
:100A20000E94943F6B017C018A819B810E94791016
:100A3000C61AD70AE80AF90A89EEC81683E0D8066A
:100A4000E104F104C0F16C8188E10E94FF406C81F7
:100A50008AE10E94FF406C818CE10E94FF406C8122
:100A60008EE10E94FF408C8191E089278C830E9457
:100A7000943FAB01BC018A819B81DF91CF91FF90B4
:100A8000EF90DF90CF900C94A91260E088E10E9473
:100A9000FF4060E08AE10E94FF4060E08CE10E943C
:100AA000FF4060E08EE1DF91CF91FF90EF90DF900B
:100AB000CF900C94FF40DF91CF91FF90EF90DF90AB
:100AC000CF900895CF92DF92EF92FF92CF93DF9372
:100AD000EC018A819B810E94A412882311F18A81F2
:100AE0009B810E94781218161906DCF48A819B817A
:100AF0000E9484126B017C018A819B810E94781282
:100B0000BC01882777FD8095982F0E9424439B0184
:100B1000AC01C701B6010E948544181614F461E0C7
:100B200001C060E08A819B81DF91CF91FF90EF90BF
:100B3000DF90CF900C949B130F931F93CF93DF9371
:100B4000EC0180E40E944D408C018A819B810E94CF
:100B50005412081719074CF08A819B810E944E128B
:100B60008017910714F060E001C061E08A819B81E9
:100B70000E94221381E40E944D408C018A819B8156
:100B80000E946012081719073CF08A819B810E941D
:100B90005A128017910714F461E001C060E08A8165
:100BA0009B810E94311382E40E944D408C018A8116
:100BB0009B810E946C12081719073CF08A819B8167
:100BC0000E9466128017910714F461E001C060E092
:100BD0008A819B81DF91CF911F910F910C944013DB
:100BE00029E132E0FC0131832083089529E132E0DC
:100BF000FC01318320830C94483F2F923F924F9207
:100C00005F926F927F928F929F92AF92BF92CF929C
:100C1000DF92EF92FF920F931F93CF93DF93CDB7A5
:100C2000DEB728970FB6F894DEBF0FBECDBF1C010C
:100C30006A017B0109831A832B833C83FC01828137
:100C400093810E94B5109B01AC01C701B6010E94BF
:100C5000BC412B013C01F101828193810E94B510BE
:100C60009B01AC01C701B6010E94BB414B015C0175
:100C7000F101828193810E94B5109B01AC016981D1
:100C80007A818B819C810E94BC416B017C01F101C6
:100C9000828193810E94B5109B01AC0169817A81A8
:100CA0008B819C810E94BB4169837A838B839C8367
:100CB000F101828193810E94BB106D837E838F83BB
:100CC000988724E83AEB4CE358E3C301B2010E9451
:100CD000BB412D813E814F8158850E948544181665
:100CE0006CF4F101828193810E94A7109B01AC01F9
:100CF000C301B2010E94824287FD8CC0F101828152
:100D000093810E94A7102B013C0124E83AEB4CE3AD
:100D100058E3C501B4010E94BC41A30192010E94A5
:100D2000824287FF0EC0F101828193810E94BB1035
:100D30009B01AC01C501B4010E94854418160CF456
:100D400071C0F101828193810E94C1104B015C014D
:100D500024E83AEB4CE358E3C701B6010E94BB41DB
:100D6000A50194010E94854418166CF4F10182815A
:100D700093810E948B109B01AC01C701B6010E94B8
:100D8000824287FD57C0F101828193810E948B10BE
:100D90006B017C0124E83AEB4CE358E369817A81EA
:100DA0008B819C810E94BC41A70196010E948242D6
:100DB00087FF48C0F101828193810E94C1109B018D
:100DC000AC0169817A818B819C810E9485441816CF
:100DD000CCF549815A816B817C81F10182819381BB
:100DE00028960FB6F894DEBF0FBECDBFDF91CF912E
:100DF0001F910F91FF90EF90DF90CF90BF90AF9039
:100E00009F908F907F906F905F904F903F902F902A
:100E10000C94DC12B301A201F101828193810E9442
:100E2000CA126CCFB501A401F101828193810E94A5
:100E3000D61287CFB701A601F101828193810E946A
:100E4000BE12A1CF28960FB6F894DEBF0FBECDBF5D
:100E5000DF91CF911F910F91FF90EF90DF90CF9096
:100E6000BF90AF909F908F907F906F905F904F90CA
:100E70003F902F9008958F929F92AF92BF92CF9202
:100E8000DF92EF92FF920F931F93CF93DF93EC01CA
:100E90006A017B014801590140E050E064EB72E4D3
:100EA0008A819B810E94CA1240E050E064EB72ECA0
:100EB0008A819B810E94D61240E050E064E373E493
:100EC0008A819B810E94BE1240E050E064E373EC93
:100ED0008A819B810E94DC128A819B810E94AD10D5
:100EE0002DE93BEF46E157E30E949044AB01BC0182
:100EF0008A819B810E94D01295018401B701A601CD
:100F0000CE010E94FD05DF91CF911F910F91FF90BF
:100F1000EF90DF90CF90BF90AF909F908F9008950B
:100F2000CF92DF92EF92FF920F931F93CF93DF93B5
:100F3000EC018B0189E192E0998388837B836A834A
:100F4000CB010E9499106B017C01C8010E94911095
:100F5000AB01BC0197018601CE010E943B07DF91E6
:100F6000CF911F910F91FF90EF90DF90CF90089558
:100F70004F925F926F927F928F929F92AF92BF92A9
:100F8000CF92DF92EF92FF920F931F93CF93DF9355
:100F900000D01F92CDB7DEB74C01FC018281938156
:100FA0000E949A12882309F4D2C00E94943F2B0118
:100FB0003C01F401828193810E941D12461A570A56
:100FC000680A790AF1EE4F16F3E95F06F4E06F065E
:100FD000710438F0F401828193810E949A12811188
:100FE0008DC0F401828193810E943D12882309F40F
:100FF000AEC0F401828193810E942D125B016C01CD
:10100000F401828193810E9425122B013C01F4019D
:10101000828193810E9499109B01AC01F40182812D
:10102000938129833A834B835C830E9491108301CF
:10103000720129813A814B815C810E94FF14AB01CE
:10104000BC01F401828193810E94B812F401828173
:1010500093810E9485102B013C01F40182819381D0
:101060000E94A1109B01AC01C301B2010E94854402
:10107000181664F4F401828193810E948510AB01FB
:10108000BC01F401828193810E94C412F401828127
:1010900093810E942D122B013C01F40182819381E6
:1010A0000E942512AB01BC0193018201C4010E9480
:1010B000FD05F401828193810E949A12882369F1CF
:1010C000F401828193810E9485102B013C01F4017F
:1010D000828193810E94AD109B01AC01C301B201DA
:1010E0000E9485441816CCF440E050E0BA01F401A7
:1010F000828193810E94AF1261E010C040E050E015
:10110000BA01F401828193810E94AF1261E0F4017F
:10111000828193810E94B51264CF60E0F4018281E4
:1011200093810F900F900F900F90DF91CF911F91AF
:101130000F91FF90EF90DF90CF90BF90AF909F9076
:101140008F907F906F905F904F900C94B5120F909E
:101150000F900F900F90DF91CF911F910F91FF9003
:10116000EF90DF90CF90BF90AF909F908F907F9047
:101170006F905F904F9008950F931F93CF93DF93DD
:10118000EC018B0181960E94FD1D18A30F8FDF914A
:10119000CF911F910F9108958F929F92AF92BF921E
:1011A000CF92DF92EF92FF920F931F93CF93DF9333
:1011B000CDB7DEB7E7970FB6F894DEBF0FBECDBF51
:1011C0004C01FC01168E158E148E138E61E673E0B1
:1011D00087E89CE00E941C3BF401878D90A10E944F
:1011E000D613AB01BC0181E794E00E942C2764E692
:1011F00070E080E090E00E94C33FF401878D90A1F1
:101200000E94CD1020E030E044E354E40E94BC4151
:101210006B017C01F4016083718382839383878DEA
:1012200090A10E94C8119B01AC01C701B6010E94A8
:10123000BC41F4016483758386839783878D90A175
:101240000E94C710F401608771878287938711E03D
:10125000108B65E473E087E89CE00E941C3BA401CE
:10126000485F5F4FB4016C5F7F4F1F921F938FE306
:101270008F9385E08F938EE18F9388EB8F938AE035
:10128000A82E87EDB82E83EAC82E8DE3D82E16E659
:10129000E12EFE2C06EE1EE39401CE0101960E9483
:1012A000332187E3FE013196D401919601900D928E
:1012B0008A95E1F768E273E087E89CE00E941C3BB6
:1012C000F1E28F0E911C00E010E024E832E440E0EF
:1012D00050E0BA01C4010E941B2064E670E0C40122
:1012E0000E94D31F60E173E087E89CE00E941C3BF2
:1012F0000F900F900F900F900F900F90E7960FB6F2
:10130000F894DEBF0FBECDBFDF91CF911F910F913B
:10131000FF90EF90DF90CF90BF90AF909F908F9015
:101320000895089540E063E481E794E00E94BA25BF
:1013300061E774E08CE494E00E94422C20E841E3F1
:101340006CE474E08AE294E00C94BE278AE294E0B4
:101350000C94FE270F931F93CF93DF93EC018C0126
:101360000F5E1F4F81E794E00E947926892B21F1BF
:1013700081E794E00E9474262D8D3E8DFE01E20FE0
:10138000F31F818B2F5F3F4F3E8F2D8F8A3029F0C7
:101390008D3019F0213331052CF3FE01E20FF31FDC
:1013A000118AB80187E89CE00E942E3B1E8E1D8E9C
:1013B000F80111821082D6CFDF91CF911F910F914A
:1013C00008954F925F926F927F92AF92BF92CF92A9
:1013D000DF92EF92FF920F931F93CF93DF9300D092
:1013E00000D0CDB7DEB75C01FC01878D90A10E94D3
:1013F000921385010F5D1F4F882309F4DEC0C501DC
:101400000E94AA0961E070E0C8010E94E120F50194
:10141000878D90A10E94CD1020E030E044E354E499
:101420000E94BC416B017C01F50160837183828362
:101430009383878D90A10E94C8119B01AC01C701C5
:10144000B6010E94BC41F50164837583868397834E
:10145000C8010E94FE1DF501248535854685578506
:1014600060857185828593850E94BB416B017C01FB
:1014700020E030E0A9010E948544181624F0F7FA14
:10148000F094F7F8F094F501878D90A10E9409126D
:10149000BC01882777FD8095982F0E9424439B01EB
:1014A000AC01C701B6010E94854418160CF09EC01D
:1014B000F5018089078D10A1C084D184E284F38472
:1014C0004484558466847784A3019201882309F1BA
:1014D000C701B6010E94854418160CF1A3019201C0
:1014E000C701B6010E94824287FF3FC0F501108A02
:1014F000C8010E940F12BC01882777FD8095982FA4
:101500000E9424439B01AC01C701B6010E94BB416C
:1015100027C0C701B6010E94824287FF06C0F501BD
:10152000C486D586E686F78620C0A3019201C7014E
:10153000B6010E9485441816C4F481E0F501808B41
:10154000C8010E940F12BC01882777FD8095982F53
:101550000E9424439B01AC01C701B6010E94BC411B
:10156000F5016487758786879787F50144855585DA
:1015700066857785878D90A10E94E212F501878D9F
:1015800090A10E9415122B013C0120E030E048ECB4
:1015900052E4F50164857585868597850E9490449F
:1015A0000E94F142AB01BC01E12CF12C93018201BC
:1015B0008AE294E00E947D2A19C060E070E0C801D0
:1015C00026960FB6F894DEBF0FBECDBFDF91CF9148
:1015D0001F910F91FF90EF90DF90CF90BF90AF9051
:1015E0007F906F905F904F900C94E12026960FB6FD
:1015F000F894DEBF0FBECDBFDF91CF911F910F9149
:10160000FF90EF90DF90CF90BF90AF907F906F9062
:101610005F904F90089581E08093470B8091450B38
:101620009091460B01969093460B8093450B8091C9
:10163000450B9091460B64E170E00E94A1469093A7
:10164000460B8093450B089582E995E00C94E91AC6
:1016500082E995E00C942B1B83E79AE00E943510F9
:1016600083E79AE00E94A613AB01BC0126E087E85D
:101670009CE00E946A3764ED74E087E89CE00E9479
:101680001C3B8CE895E00E949E1769EB74E087E8AC
:101690009CE00E94DA3A83E79AE00E94AE13AB0125
:1016A000BC012AE030E087E89CE00E94153C83E71B
:1016B0009AE00E94AE13AB01BC0126E084E29DE0FB
:1016C0000E946A3783E79AE00E94DE13882361F064
:1016D00069E974E087E89CE00E941C3B27E040EC4D
:1016E00052E160E070E019C06DE774E087E89CE0CB
:1016F0000E94DA3A83E79AE00E94B613AB01BC017C
:101700002AE030E087E89CE00E94153C83E79AE0FD
:101710000E94B613AB01BC0126E081EC9DE00E9463
:101720006A3761E674E087E89CE00E94DA3A83E772
:101730009AE00E94BE13AB01BC012AE030E087E8CA
:101740009CE00E94153C83E79AE00E94BE13AB0127
:10175000BC0126E08EE59EE00E946A376FE474E0EB
:1017600087E89CE00E941C3B68EE73E080E090E01C
:101770000E94C33F61E083E40E94C6406AE374E0D4
:1017800087E89CE00E941C3B64E670E080E090E00B
:101790000E94C33F61E083E40E94FF4065E274E081
:1017A00087E89CE00E941C3B69E074E087E89CE0CD
:1017B0000E94DA3A83E79AE00E94C613AB01BC01AB
:1017C0002AE030E087E89CE00E94153C83E79AE03D
:1017D0000E94C613AB01BC018EE795E00E942C2746
:1017E00064E670E080E090E00E94C33F69EF73E040
:1017F00087E89CE00E941C3B60E080E30E94C640BA
:1018000061E08EE20E94C64060ED73E087E89CE0F4
:101810000E94DA3A83E79AE00E94CE13AB01BC0142
:101820002AE030E087E89CE00E94153C83E79AE0DC
:101830000E94CE13AB01BC0182E39AE00E945C18C7
:1018400086E295E00E94CC0863EC73E087E89CE0B8
:101850000E941C3B60E083E00E94C64043E050E0F1
:1018600064E27BE081E00E943F3D60E082E00E9414
:10187000C64043E050E068E27BE080E00E943F3DEC
:1018800065EB73E087E89CE00E941C3B4BE05BE06B
:1018900064E670E080E090E00E9406330E9412331C
:1018A00064EA73E087E89CE00C941C3BCF93DF93E1
:1018B000DC01FC0101900020E9F7E81BF90B3297ED
:1018C000EC01219680E09E012A1B3B0B2E173F075F
:1018D00018F499918927F7CFDF91CF9108950F934D
:1018E0001F93CF93DF93C4EAD4E014E687E89CE02B
:1018F0000E94FE35892B09F453C087E89CE00E94C2
:101900001936082F682F8FE794E00E9487312091C5
:10191000A2043091A304F901EC55FB4F00832F5F23
:101920003F4F3093A3042093A2040A3029F00D30D6
:1019300019F023363105D4F2F901EC55FB4F108232
:1019400064EA74E087E89CE00E942E3B1092A304B6
:101950001092A204FE01812F11928A95E9F76BE89B
:1019600073E087E89CE00E94DA3AE0918104F0910C
:1019700082046081718187E89CE00E942E3B62E7CF
:1019800073E087E89CE00E94DA3AE0918104F091EC
:1019900082046281738187E89CE00E942E3BA6CF7F
:1019A000DF91CF911F910F91089584E29DE00E94F5
:1019B000FE35892BF9F084E29DE00E941936682FEC
:1019C0008CE895E00E94E6158093A104882369F3D2
:1019D00089EC98E00E943822BC0182E39AE00E94E0
:1019E0006D1889EC98E00E943822BC0187E89CE0E1
:1019F0000C942E3B089581EC9DE00E94FE35892BCE
:101A000079F183E79AE00E94DE13882351F081EC9C
:101A10009DE00E941936682F88E095E00E94981991
:101A2000EACF81EC9DE00E941936682F81E397E0B0
:101A30000E94C4178093A0048823E9F281E397E011
:101A40000E943C18BC0182E39AE00E946D1881E379
:101A500097E00E943C18BC0187E89CE00C942E3B68
:101A60000895CF938EE59EE00E94FE35892B41F1CB
:101A70008EE59EE00E941936C82F4AE050E0682F9C
:101A800087E89CE00E943B3C6C2F85E696E00E9434
:101A9000C41780939F04882329F385E696E00E946B
:101AA0003C18BC0182E39AE00E946D1885E696E03E
:101AB0000E943C18BC0187E89CE0CF910C942E3B1F
:101AC000CF910895CF938EE795E00E947926892BD8
:101AD00041F18EE795E00E947426C82F4AE050E05D
:101AE000682F87E89CE00E943B3C6C2F89E995E0D9
:101AF0000E94C41780939E04882329F389E995E006
:101B00000E943C18BC0182E39AE00E946D1889E9AA
:101B100095E00E943C18BC0187E89CE0CF910C94B2
:101B20002E3BCF9108958091470B882309F459C02B
:101B300086E295E00E94E1098091450B9091460B69
:101B400080FD04C082E995E00E948F1B8091450BC7
:101B50009091460B62E370E00E94A146892BB1F49C
:101B600082E995E00E948F1B82E995E00E941E1C8D
:101B700082E39AE00E946F1884E995E00E940505CF
:101B800067E87CE083E79AE00E94E8108091450BCB
:101B90009091460B64E670E00E94A146892BF9F40F
:101BA0006DE872E087E89CE00E94FF3A0E944927B6
:101BB0004AE050E0BC0187E89CE00E94FD3B82E2E5
:101BC00095E00E94B80784E995E00E94620584E9E7
:101BD00095E00E949C0582E39AE00E94EF18109223
:101BE000470B0C94620DCF92DF92EF92FF920F930E
:101BF0001F9383E79AE00E94960E1092350A109286
:101C0000340A88EE93E0A0E0B0E08093360A909327
:101C1000370AA093380AB093390A84EE92E0909381
:101C2000330A8093320A83E79AE090933F0A8093C5
:101C30003E0A60E070E089EC98E00E94AE2160E02E
:101C400070E08DEF97E00E94BB1760E070E081E3E9
:101C500097E00E94BB1760E070E085E696E00E9486
:101C6000BB1760E070E089E995E00E94BB1763E76D
:101C70007AE084E995E00E94BD0463E77AE082E9B6
:101C800095E00E94A91943E75AE069EC78E08CE8F6
:101C900095E00E94F01341E063E48EE795E00E9436
:101CA000BA2563E77AE086E295E00E94BC0863E724
:101CB0007AE082E295E00E94900743E75AE061EC07
:101CC0007DE088E095E00E9490198EE1C82ED12C2D
:101CD0009FE0E92EF12C0CE010E022E030E046E03D
:101CE00052E067E87CE08FE794E00E940D2E1F91A0
:101CF0000F91FF90EF90DF90CF9008958FE794E0E1
:101D00000E94A42D82E295E00E94F00586E295E013
:101D10000E9491098CE895E00E94E31384E995E024
:101D20000E94B00482E39AE00C944718FC011082F0
:101D30001182128213821482158216821782108AEF
:101D4000118A128A138A148A158A168A178A108EA3
:101D5000118E128E138E148E40E050E064EB72E40C
:101D6000458F568F678F70A340E050E064EB72ECB4
:101D700041A352A363A374A340E050E064E373E47F
:101D800045A356A367A370A740E050E064E373EC5B
:101D900041A752A763A774A715A683E482AB13AA31
:101DA00014AA15AA16AA40E050E064E072E447AB1A
:101DB00050AF61AF72AF13AE40E050E068EC72E438
:101DC00044AF55AF66AF77AFDF01A05CBF4F40E0D7
:101DD00050E060E271E44D935D936D937C931397B3
:101DE00014964D935D936D937C931397149640E8EE
:101DF00050E060E070E04D935D936D937C9313979A
:101E00001086118612861386148615861686178606
:101E100014961C9211961D921D921D921C9213975E
:101E200014961D921D921D921C921397149686E58E
:101E30008C9311961D921D921D921C9213971496CD
:101E40001D921D921D921C92139714961D921D9225
:101E50001D921C92139714961D921D921D921C9216
:101E6000139714961C9211961C9211961C9211961F
:101E70001C92A55ABF4F21E034E011963C932E935B
:101E800012968FEF9FEF11969C938E93AC55B109EC
:101E90001C92A25ABF4F11963C932E931296119604
:101EA0009C938E93AF55B1091C92AF59BF4F1196B9
:101EB0003C932E93129611969C938E93A256B10941
:101EC0001D921D921D921C92139714961D921D92A5
:101ED0001D921C921397149611961C921E921296A4
:101EE00011961C921E92129611961C921E92129698
:101EF0001C9211961D921D921D921C92139714967E
:101F00001D921D921D921C921397149640E050E072
:101F100060E272E44D935D936D937C9313971496F6
:101F20001C9211961C92119611961C921E9212965A
:101F300011961C921E92169640E050E060E87FE3F6
:101F40004D935D936D937C93139714961C92119609
:101F500040EE53E964E070E04D935D936D937C93A4
:101F6000139714961C9211961C92119683E690E09A
:101F700011969C938E9312961C92119640E050E419
:101F80006CE176E44D935D936D937C931397149677
:101F900011961C921E92129681E090E011969C93ED
:101FA0008E93129640E056E960E070E04D935D93A9
:101FB0006D937C93139714964D935D936D937C93DF
:101FC0001397149640E855E260E070E04D935D93FE
:101FD0006D937C93139714964D935D936D937C93BF
:101FE000139714964D935D936D937C931397189666
:101FF0004D935D936D937C93139714961C92E053CD
:10200000FF4F8DE090E09183808308950F931F939D
:10201000CF93DF93EC01FC01E053FF4F408160E080
:1020200070E085EC9BE00E94A433FE01EF52FF4F6D
:10203000408161E070E085EC9BE00E94A433C558CC
:10204000DF4F64E070E049918B010F5F1F4F85EC1B
:102050009BE00E94A4330935110511F0B801F3CFBC
:10206000DF91CF911F910F910895EF92FF920F93FF
:102070001F93CF93DF931F921F92CDB7DEB78C01D2
:1020800060E070E085EC9BE00E94A133898361E011
:1020900070E085EC9BE00E94A1338A83F801E05355
:1020A000FF4F29813A81808191812817390719F0E2
:1020B000C8010E94061005581F4F64E070E07B01C4
:1020C0008FEFE81AF80A85EC9BE00E94A133F80133
:1020D00081938F01F9E5EF16F10411F0B701EFCF0D
:1020E0000F900F90DF91CF911F910F91FF90EF9084
:1020F0000895FC0160817181828193810895FC01C2
:1021000064817581868197810895FC016489758950
:10211000868997890895FC0165A176A187A190A57C
:10212000089585589F4FFC01608171818281938160
:10213000089581589F4FFC01608171818281938154
:102140000895FC01608D718D828D938D0895FC0141
:10215000658D768D878D90A108958D579F4FFC01D9
:1021600060817181828193810895FC016089718908
:10217000828993890895FC0161A172A183A194A130
:102180000895FC0161A572A583A594A50895FC019D
:1021900067A970AD81AD92AD0895FC0163A974A9E2
:1021A00085A996A90895FC0122A9273559F4EA5872
:1021B000FF4F60817181882777FD8095982F0E945D
:1021C00024430895FC016085718582859385089577
:1021D000EF92FF920F931F93CF93DF938C01EB014C
:1021E00065E375E0CE010E94DA3A67E275E0CE0160
:1021F0000E94DA3AF80165A570E04AE050E0CE01AD
:102200000E94F53B61E275E0CE010E94DA3AF801E6
:1022100062A9CE010E94013BF80185A58823A9F19E
:102220006BE175E0CE010E94DA3AF80143A954A9A6
:1022300065A976A922E030E0CE010E943D3D65E12E
:1022400075E0CE010E94DA3AC8010E94D310AB01BA
:10225000BC0122E030E0CE010E943D3D6FE075E020
:10226000CE010E94DA3A20E030E044E052E4F80186
:1022700067A970AD81AD92AD0E94BB41AB01BC01BD
:1022800022E030E0CE010E943D3D69E075E0CE01E4
:102290000E94DA3A7801F7E8EF0EF11CF70160814D
:1022A00070E04AE050E0CE010E94F53B63E075E04B
:1022B000CE010E94DA3AF801ED57FF4F408151817B
:1022C0006281738122E030E0CE010E943D3DF70142
:1022D0008081882389F16DEF74E0CE010E94DA3AA3
:1022E000F801E558FF4F408151816281738122E0FE
:1022F00030E0CE010E943D3D67EF74E0CE010E94C8
:10230000DA3AF801E158FF4F4081518162817381CF
:1023100022E030E0CE010E943D3D61EF74E0CE014D
:102320000E94DA3AF801448955896689778922E062
:1023300030E0CE010E943D3D6BEE74E0CE010E9484
:10234000DA3AF801E256FF4F608170E04AE050E06F
:10235000CE010E94F53B65EE74E0CE010E94DA3AB0
:10236000F801E456FF4F608171814AE050E0CE01F0
:102370000E94F53B63EE74E0CE010E941C3B80E0BE
:1023800090E0DF91CF911F910F91FF90EF90089512
:10239000CF92DF92EF92FF92CF93DF93EC010E94F6
:1023A000D3109B01AC016BA97CA98DA99EA90E94A9
:1023B000BB416B017C0120E030E044E353E40E9428
:1023C000854418167CF020E030E044E353ECC7016C
:1023D000B6010E94824287FF0AC020E030E044EB51
:1023E00053E408C020E030E044EB53EC03C020E0AD
:1023F00030E0A901C701B6010E94BC416EA77FA7CA
:1024000088AB99ABDF91CF91FF90EF90DF90CF90A9
:10241000089587579F4FFC018081918108958557CA
:102420009F4FFC0180819181089583579F4FFC014C
:1024300060817181828193810895835B9F4FFC014C
:10244000608171818281938108958A5A9F4FFC0136
:1024500060817181828193810895865A9F4FFC012A
:10246000608171818281938108958F569F4FFC0115
:10247000608171818281938108958B5A9F4FFC0105
:1024800080810895FC01608571858285938508951A
:10249000FC01648575858685978508958C539F4FCB
:1024A000FC018081918108958A539F4FFC018081B6
:1024B0009181089588539F4FFC01808191810895F7
:1024C00086539F4FFC0180819181089584539F4FD3
:1024D000FC0180819181089582539F4FFC0180818E
:1024E000918108958D559F4FFC01808191810895C0
:1024F00084569F4FFC018081918108958A589F4F97
:10250000FC0180819181089580599F4FFC01608179
:10251000718182819381089581569F4FFC01608172
:1025200071818281938108958C589F4FFC01808135
:102530009181089589579F4FFC0180810895845BA4
:102540009F4FFC018081089582569F4FFC0180813E
:102550000895FC0140835183628373830895FC01D5
:1025600044835583668377830895FC01648F0895BF
:10257000FC01448B558B668B778B0895FC0145A33A
:1025800056A367A370A70895FC01408F518F628FF7
:10259000738F0895FC01458F568F678F70A3089540
:1025A000FC01408B518B628B738B0895FC0141A31E
:1025B00052A363A374A30895FC0141A752A763A784
:1025C00074A70895FC0147AB50AF61AF72AF089597
:1025D0008E599F4FFC01408351836283738308951A
:1025E000845B9F4FFC0160830895835B9F4FFC01D8
:1025F000408351836283738308958A5A9F4FFC01FD
:1026000040835183628373830895865A9F4FFC01F0
:1026100040835183628373830895825A9F4FFC01E4
:10262000408351836283738308958B5A9F4FFC01CB
:10263000608308958F5A9F4FFC01408351836283CA
:1026400073830895CF93DF931F92CDB7DEB769836D
:10265000298187599F4FFC0120830F90DF91CF91F3
:102660000895CF93DF931F92CDB7DEB76983298199
:1026700086599F4FFC0120830F90DF91CF910895E1
:10268000CF93DF931F92CDB7DEB769832981855938
:102690009F4FFC0120830F90DF91CF9108958456C6
:1026A0009F4FFC017183608308958A589F4FFC01FE
:1026B00071836083089580599F4FFC01408351834B
:1026C00062837383089584599F4FFC014083518333
:1026D000628373830895FC01E658FF4F2081222313
:1026E000F9F0739720812223D9F03197208122239A
:1026F000B9F0FC01248D222399F023AD222381F02F
:10270000E859FF4F2081222359F03196208122235E
:1027100039F031962081222319F031968081089575
:1027200080E00895FC0185A508958C589F4FFC0119
:1027300071836083089586589F4FFC0160830895DC
:102740008B559F4FFC0180819181089589559F4F42
:10275000FC016081718182819381089585559F4F2D
:10276000FC016081718182819381089581559F4F21
:10277000FC01608171818281938108958D549F4F06
:10278000FC016081718182819381089589549F4FFA
:10279000FC016081718182819381089585549F4FEE
:1027A000FC016081718182819381089581549F4FE2
:1027B000FC01608171818281938108958D539F4FC7
:1027C000FC01808108952CED32E0FC0131832083EF
:1027D00008952CED32E0FC01318320830C94483FB6
:1027E000FC018CED92E09183808355834483738355
:1027F00062830895CF92DF92EF92FF921F93CF935F
:10280000DF93162F60E0812F0E94C64061E0812F88
:102810000E94FF40C0E0D4E080E1C82E87E2D82EBD
:10282000E12CF12C28E438EE41E050E060E0812F0B
:102830000E94354116161706180619063CF46C1549
:102840007D058E059F0514F46B017C01219751F7DE
:1028500061EE76E087E89CE00E94DA3A2AE030E018
:10286000B701A60187E89CE00E94153C8CE0C816E1
:10287000D104E104F104F4F184E1C816D104E104C7
:10288000F104ECF18EE1C816D104E104F104E4F1A5
:1028900088E2C816D104E104F104DCF18CE3C81627
:1028A000D104E104F104D4F180E5C816D104E104B7
:1028B000F104CCF186E9C816D104E104F104C4F1B5
:1028C0008CE2C81681E0D806E104F104B4F188E591
:1028D000C81682E0D806E104F104A4F180EBC81622
:1028E00084E0D806E104F10494F560EB74E080E044
:1028F00090E030C060E072EC81E090E02BC060E0DE
:1029000071EE80E090E026C060E076E980E090E043
:1029100021C060E870E780E090E01CC060E07BE4EC
:1029200080E090E017C060E478E380E090E012C0BF
:1029300060E875E280E090E00DC060EC72E180E05C
:1029400090E008C060E679E080E090E003C060E0DD
:1029500070E0CB01DF91CF911F91FF90EF90DF905E
:10296000CF900895CF92DF92EF92FF927C016DECB1
:1029700076E087E89CE00E94DA3A63E170E0C70104
:102980000E94FA136B017C01161617061806190629
:10299000C4F466EC76E087E89CE00E94DA3A2AE02C
:1029A00030E0B701A60187E89CE00E94153C26E0D4
:1029B000B701A60184E29DE00E946A37B601C70113
:1029C00019C06FEB76E087E89CE00E94DA3A6AEA89
:1029D00076E087E89CE00E941C3B26E040EC52E158
:1029E00060E070E084E29DE00E946A3760EC72E192
:1029F00080E090E0FF90EF90DF90CF9008954F92AD
:102A00005F926F927F928F929F92AF92BF92CF927E
:102A1000DF92EF92FF920F931F93CF93DF93CDB787
:102A2000DEB760970FB6F894DEBF0FBECDBF6983E7
:102A30007A838B839C83CA01B90127013801A601DF
:102A400095010E94BB4125E33AEF4EE85CE30E940A
:102A500090446B017C010E943F456D877E878F8784
:102A6000988BC701B6010E9486426D837E838F8357
:102A7000988725E33AEF4EE85CE369817A818B81A0
:102A80009C810E9490446B017C0125E33AEF4EE863
:102A90005CE3C301B2010E9490442B013C01C701D9
:102AA000B6010E943F454B015C01C701B6010E947F
:102AB000864269837A838B839C83C301B2010E941F
:102AC0003F4569877A878B879C87C301B2010E9443
:102AD00086426B017C0129853A854B855C8569813D
:102AE0007A818B819C810E9490442B013C01A7013B
:102AF0009601C501B4010E9490442D813E814F8111
:102B000058850E9490449B01AC01C301B2010E9410
:102B1000BB419B01AC010E9490442B013C012D85DF
:102B20003E854F855889C701B6010E9490449B019C
:102B3000AC010E9490449B01AC01C301B2010E9410
:102B4000BC410E9449452B013C0129853A854B85B2
:102B50005C85C501B4010E9490444B015C01A70152
:102B6000960169817A818B819C810E9490442D819C
:102B70003E814F8158850E9490449B01AC01C50164
:102B8000B4010E94BC419B01AC01C301B2010E948F
:102B90002F4226E73BE742EC5AE40E9490446096BD
:102BA0000FB6F894DEBF0FBECDBFDF91CF911F915E
:102BB0000F91FF90EF90DF90CF90BF90AF909F90DC
:102BC0008F907F906F905F904F900895CF93DF9399
:102BD000EC018A819B810E94D72261E0892B09F454
:102BE00060E08C819D810E94F0128C819D810E9409
:102BF0009F12882369F18A819B810E940F22682F8E
:102C00008C819D810E9415138A819B810E940F22D5
:102C10008134F1F460E070E08A819B810E943A2265
:102C2000FC0182818235A1F060E070E08A819B81A5
:102C30000E943A22FC0183818D3451F060E070E003
:102C40008A819B810E943A22FC018481833431F481
:102C50008C819D81DF91CF910C949F120E94943FB3
:102C6000AB01BC018C819D810E94F5128A819B8100
:102C70000E943222AB01BC018C819D810E94E8122E
:102C80008A819B810E941222AB01BC018C819D81B3
:102C90000E94FD128A819B810E941822AB01BC0117
:102CA0008C819D810E9405138C819D810E9435122B
:102CB000AB01BC018A819B810E941E22AB01BC0139
:102CC0008C819D810E940D138A819B810E94092223
:102CD000AB01BC018C819D810E941A13B9CFDF9298
:102CE000EF92FF920F931F93CF93DF93CDB7DEB791
:102CF000A8970FB6F894DEBF0FBECDBF8C0164E974
:102D000076E087E89CE00E941C3BF8018481958175
:102D10000E94A013892B31F46DE776E087E89CE0F0
:102D20000E941C3BF801848195810E94A0130197A9
:102D300009F07FC066E676E087E89CE00E941C3BD5
:102D400068E576E084E29DE00E941C3B60E476E06A
:102D500084E29DE00E941C3B68E276E084E29DE014
:102D60000E941C3B60E176E084E29DE00E941C3BF7
:102D700068EF75E084E29DE00E941C3B60EE75E028
:102D800084E29DE00E941C3B68EC75E084E29DE0DB
:102D90000E941C3B6AEB75E084E29DE00E941C3BB4
:102DA0001AA219A28EEA93E098A38F8FCE01019602
:102DB0007C019CA38BA38EE190E098A78FA3CE010A
:102DC0004F960E94F21D6EEA75E0CE014F960E946A
:102DD000DA3AF801848195810E94AE13AB01BC01FF
:102DE0002AE030E0CE014F960E94AB3B66EA75E0E8
:102DF000CE014F960E94DA3AC7010E94560CD82E97
:102E0000FFE0F81728F060E3CE014F960E94013BE7
:102E100040E150E06D2DCE014F960E94343CB70149
:102E200084E29DE00E942E3BB70187E89CE00E946F
:102E30002E3BF801848195810E94A013029709F02E
:102E400055C06DE875E087E89CE00E941C3B6CE78C
:102E500075E084E29DE00E941C3B6AE475E084E238
:102E60009DE00E941C3B1AA219A28EEA93E098A34F
:102E70008F8FCE0101967C019CA38BA38EE190E005
:102E800098A78FA3CE014F960E94F21D60E475E0D3
:102E9000CE014F960E94DA3AF801848195810E9412
:102EA000AE13AB01BC012AE030E0CE014F960E9488
:102EB000AB3B66ED72E0CE014F960E94FF3AC70130
:102EC0000E94560C182F803128F460E3CE014F96F3
:102ED0000E94013B40E150E0612FCE014F960E94DD
:102EE000343CB70184E29DE00E942E3BA8960FB6C9
:102EF000F894DEBF0FBECDBFDF91CF911F910F9130
:102F0000FF90EF90DF90089510924B0B10924A0BB8
:102F10008EEA93E09093490B8093480B82E59BE007
:102F200090934D0B80934C0B88E290E09093510B63
:102F30008093500B88E49BE00C94F21DCF93DF93B9
:102F4000EC010E94B214CE010E946F1684E29DE053
:102F50000E948B3684E29DE00E94CC378C819D815B
:102F60000E94AE13AB01BC0126E084E29DE0DF913C
:102F7000CF910C946A37FC01E853FF4F1182108205
:102F800032961182108208950F931F93CF93DF938F
:102F9000DC01A853BF4F4D915C911197FC01E653A2
:102FA000FF4F4236510514F0118210826A3011F041
:102FB0006D3011F411821082643261F424E6EC0168
:102FC00019922A95E9F7EC01688381E090E08D93EE
:102FD0009C9345C02081318121303105E9F02CF4EA
:102FE0002115310509F442C03DC02230310561F19F
:102FF00023303105B9F5FC01E40FF51F60834E5F06
:103000005F4F4D935C931182BC018C599F4F0E947E
:10301000474921E030E02AC08A010F5F1F4F119617
:103020001C930E939C01240F351FE90168834E5FAA
:103030005F4FE801C80FD91F4D935C9368836A32D4
:1030400099F482E090E00BC09A012F5F3F4F2D93DF
:103050003C93DC01A40FB51F6C9383E090E0918357
:10306000808302C01182108220E030E0C901DF912C
:10307000CF911F910F9108958C599F4F0895862FDE
:103080000E942E3481E090E008950C94F1342EEFEC
:1030900033E0FC01318320830C94EA35CF93DF9336
:1030A000EC018EEF93E0998388830E94EA35CE018C
:1030B000DF91CF910C94483F9A01AB01CA01B9014D
:1030C00096958795779567957C5D8B409F4F0E947D
:1030D000B546CA01B9010C94DC330C942E3BCF9257
:1030E000DF92EF92FF920F931F93CF93DF93CDB7B1
:1030F000DEB72A970FB6F894DEBF0FBECDBF8C01A6
:103100007C018EE0E80EF11C1C821B828EEA93E0AB
:103110009A838983FE82ED828EE190E09A87898787
:10312000CE0101960E94F21D62E177E0CE01019688
:103130000E94DA3AF801848595850E947E124AE061
:1031400050E0BC01CE0101960E94F53B6CE077E0B7
:10315000CE0101960E94DA3AF801848595850E9495
:103160008412AB01BC0122E030E0CE0101960E9446
:103170003D3D66E077E0CE0101960E94DA3AC70154
:103180000E94560C6801F0E4CF0ED11CF60180833A
:10319000803128F460E3CE0101960E94013B40E1BA
:1031A00050E0F6016081CE0101960E94343CB701E7
:1031B00087E89CE00E942E3BB701C8010E942E3B8D
:1031C0002A960FB6F894DEBF0FBECDBFDF91CF9128
:1031D0001F910F91FF90EF90DF90CF900895AF92E5
:1031E000BF92CF92DF92EF92FF920F931F93CF93F4
:1031F000DF93CDB7DEB72A970FB6F894DEBF0FBEC8
:10320000CDBF8C01FC01848595850E94481220E089
:1032100030E0A9010E948242882309F470C058015D
:10322000FCE2AF0EB11C1C821B828EEA93E09A83F3
:103230008983BE82AD8284E190E09A878987CE013E
:1032400001960E94F21D6EEF76E0CE0101960E947B
:10325000DA3AF801848595850E9442126B017C015F
:10326000F801848595850E9448129B01AC01C70135
:10327000B6010E94BB41AB01BC0122E030E0CE01AF
:1032800001960E943D3D6AEF76E0CE0101960E94D4
:10329000DA3A7801F0E4EF0EF11CF701108281E0D8
:1032A00090E0F50101900020E9F7EA19FB09329757
:1032B0008E179F0750F4F801E80FF91F24A5F701B6
:1032C0003081232720830196ECCFF7018081803164
:1032D00028F460E3CE0101960E94013B40E150E0FA
:1032E000F7016081CE0101960E94343CB50187E868
:1032F0009CE00E942E3BB501C8010E942E3B2A96FD
:103300000FB6F894DEBF0FBECDBFDF91CF911F91F6
:103310000F91FF90EF90DF90CF90BF90AF90089506
:10332000FC01578B468B718F608F1182108208953C
:10333000FC01A081B181A80FB91F12966C93808106
:10334000918143972CF480819181019691838083B0
:103350000895CF93DF93EB01FC01718360830E949A
:10336000A03F6093AC0B7093AD0B8093AE0B90932A
:10337000AF0B4091AC0B5091AD0B6091AE0B7091C7
:10338000AF0B4093A80B5093A90B6093AA0B7093BB
:10339000AB0B1092940B1092950B1092960B10920F
:1033A000970B81E08093930B10927D0B10927E0B14
:1033B00080917A0B90917B0B20E030917C0B23174E
:1033C00060F4FC0134E0239FE00DF11D1124108214
:1033D0001182128213822F5FF0CFCE010E947812E9
:1033E000843691053CF063E670E0CE01DF91CF9129
:1033F0000C944F13DF91CF910895CF92DF92EF920B
:10340000FF920F931F93CF93CB01BA0197FF09C08F
:1034100090958095709561957F4F8F4F9F4FC0E03D
:1034200001C0C1E0683621E072078105910534F0E2
:1034300028E631E040E050E00E94D746653B710548
:103440008105910534F0645B71098109910921E0DE
:10345000C2276B3571058105910564F004EB10E01E
:1034600020E030E068017901C61AD70AE80AF90AB3
:10347000C701B601660F771FFB01EC50FD4F60815D
:103480007181CC2319F080E090E00CC0CB01A0E06A
:10349000B0E09C01AD0166277727CB01621B730B5F
:1034A000840B950BCF911F910F91FF90EF90DF90C0
:1034B000CF900895465A5F4F6F4F7F4F0C94FD1980
:1034C0004F925F926F927F928F929F92AF92BF9234
:1034D000CF92DF92EF92FF920F931F93CF93DF93E0
:1034E0008C0160907D0BC0917A0BD0917B0B712C7D
:1034F000C12CD12C7601812C912C54017614C1F071
:10350000488159816A817B81C8010E945A1A860EBE
:10351000971EA81EB91E4991599169917991C801C8
:103520000E94FD19C60ED71EE81EF91E7394E6CF41
:1035300081149104A104B10429F4C114D104E1045B
:10354000F104A1F1662D70E080E090E00E94244338
:103550002B013C01C501B4010E94244320E830E066
:1035600040E857E30E949044A30192010E948942DF
:103570004B015C01C701B6010E94244320E830E002
:1035800040E857E30E949044A30192010E948942BF
:10359000A50194010E942F4221EE3EE245E652E44D
:1035A0000E9490440E94F142CB0102C080E090E072
:1035B000DF91CF911F910F91FF90EF90DF90CF900F
:1035C000BF90AF909F908F907F906F905F904F9043
:1035D00008950F931F930E94943F0091B40B109194
:1035E000B50B2091B60B3091B70B601B710B820BA2
:1035F000930B603171058105910550F18091930B1A
:103600008823E1F08091AC0B9091AD0BA091AE0BB3
:10361000B091AF0B8093A80B9093A90BA093AA0B2A
:10362000B093AB0B0E94A03F6093AC0B7093AD0BBB
:103630008093AE0B9093AF0B1092930B0E94943F2C
:103640006093B40B7093B50B8093B60B9093B70B4C
:103650001F910F9108950F931F930E94943F009123
:10366000B00B1091B10B2091B20B3091B30B601BDA
:10367000710B820B930B603171058105910508F484
:103680004BC08091930B81113DC080919C0B909118
:103690009D0BA0919E0BB0919F0B8093980B9093E4
:1036A000990BA0939A0BB0939B0B0E94A03F609341
:1036B0009C0B70939D0B80939E0B90939F0B80911E
:1036C000A80B9091A90BA091AA0BB091AB0B809382
:1036D000A40B9093A50BA093A60BB093A70B80917E
:1036E000AC0B9091AD0BA091AE0BB091AF0B809352
:1036F000A00B9093A10BA093A20BB093A30B81E01E
:103700008093930B0E94943F6093B00B7093B10B26
:103710008093B20B9093B30B1F910F910895CF92AA
:10372000DF92EF92FF92F8948091A40B9091A50BF9
:10373000A091A60BB091A70BC090A00BD090A10BAD
:10374000E090A20BF090A30B4091980B5091990B35
:1037500060919A0B70919B0B78948C159D05AE052A
:10376000BF0508F066C0C81AD90AEA0AFB0A28E9A8
:10377000C2162AE3D206E104F10408F45AC0C0924A
:10378000940BD092950BE092960BF092970B9A01C6
:10379000AB01281B390B4A0B5B0B23333105410569
:1037A000510508F446C02C153D054E055F0508F08F
:1037B00040C0A8E6B1E00E94FC46A70196010E9425
:1037C000B546283681E038074105510590F58091CE
:1037D0007E0B8F5F80937E0B90917D0B60917C0BB5
:1037E000E0917A0BF0917B0B9617B0F481E0890F92
:1037F00080937D0B84E0989FE00DF11D11242083C0
:1038000031834283538380917E0B60917D0B0E94B4
:10381000954690937E0B0DC00E94954690937E0B2B
:1038200084E0989FE00DF11D1124208331834283B1
:103830005383FF90EF90DF90CF9008954F925F9267
:103840006F927F928F929F92AF92BF92CF92DF92B0
:10385000EF92FF92CF93DF93EC010E94943FC090D0
:10386000B40BD090B50BE090B60BF090B70B6C1585
:103870007D058E059F0550F40E94943F6093B40B24
:103880007093B50B8093B60B9093B70B0E94943F47
:10389000C090B00BD090B10BE090B20BF090B30B96
:1038A0006C157D058E059F0550F40E94943F609332
:1038B000B00B7093B10B8093B20B9093B30B0E943B
:1038C000943FAB01BC01888199810E9463130E94DF
:1038D000943FC090B40BD090B50BE090B60BF09035
:1038E000B70B6C197D098E099F09A880B980693BC7
:1038F0007B4081059105A0F040E050E0BA01C50190
:10390000DF91CF91FF90EF90DF90CF90BF90AF907D
:103910009F908F907F906F905F904F900C945B136F
:103920002091940B3091950B4091960B5091970BF1
:10393000211531054105510509F4B4C060E071EE6F
:1039400085EF95E00E94B54669017A01233481E054
:10395000380741055105F4F5AAE0B0E00E94FC46A5
:103960002B013C01C5010E948C124B015C01A3019B
:103970009201C301B2010E94854627E93FEF4FEF54
:103980005FEF0E94D74629013A01A701960168E23C
:1039900073EE83E090E00E94854624E630E040E04C
:1039A00050E00E94D746420E531E641E751E24EE40
:1039B000421A2FE2520A61087108C301B2010E9443
:1039C0002443A50194010E94894220E030E040E2B6
:1039D00051E460C02C3385E138074105510554F5A9
:1039E000C5010E948C122B013C01A7019601C70161
:1039F000B6010E9485462EEA38E040E050E00E9481
:103A0000D74649015A01ABE9BAE4A70196010E94E1
:103A1000FC4624E630E040E050E00E94D746820EAB
:103A2000931EA41EB51E26EA820E25E2921EA11C3C
:103A3000B11C2AC0C5010E948C122B013C01A701B8
:103A40009601C701B6010E94854622E134E040E0BC
:103A500050E00E94D746A4E6B0E00E94FC464B012D
:103A60005C01A701960164EB70E281E89FEF0E9480
:103A70008546860E971EA81EB91E84E4880E8DEB1F
:103A8000981E8BE2A81EB11CC501B4010E942443FC
:103A9000A30192010E948942AB01BC0188819981F6
:103AA0000E945B13888199810E9484126B017C01C2
:103AB000888199810E949412BC01882777FD8095A6
:103AC000982F0E9424439B01AC01C701B6010E94BC
:103AD0008544181654F4888199810E9484120E94AA
:103AE000F142888199810E949513CE010E94601A4B
:103AF0007C01888199810E947212B701680F791F39
:103B000077FF02C068597E4F88819981DF91CF91FC
:103B1000FF90EF90DF90CF90BF90AF909F908F90ED
:103B20007F906F905F904F900C9455138FE79BE0C0
:103B300090937B0B80937A0B85E080937C0B1092A3
:103B40007D0B10927E0B089561E085E30E94FF409B
:103B500061E085E30E94C6408CB580618CBD8CB568
:103B600080648CBD61E084E30E94C64061E083E331
:103B70000C94C640811103C08CB5806202C08CB524
:103B80008F7D8CBD08959CB5937F982B9CBD089527
:103B90002CB5982F93702C7F922B9CBD9DB582FBEA
:103BA000882780F99E7F982B9DBD0895FC01A681F2
:103BB000B7819D012F5F3F4F84819581408551855D
:103BC000840F951F2817390750F4378326836C9389
:103BD0000680F781E02D108281E090E0089580E07A
:103BE00090E00895FC01A481B581B783A683808508
:103BF0009185892B09F01C92089508952F923F9288
:103C00004F925F926F927F928F929F92AF92BF92EC
:103C1000CF92DF92EF92FF920F931F93CF93DF9398
:103C2000CDB7DEB72A970FB6F894DEBF0FBECDBF73
:103C30009A878987DC01D6968C91882309F4E5C0A0
:103C40000E94943F69837A838B839C83E985FA85FC
:103C500080A191A129813A81281B390B84A595A5C2
:103C6000281739070CF4D1C0028CF38DE02D808029
:103C70009180A280B380A985BA855E96ED91FC9172
:103C80005F97A501940160817181828193810E9477
:103C9000BB412B013C01E985FA85208931894289A4
:103CA00053890E949044A985BA8594962D913D919F
:103CB0004D915C9197970E94BC416B017C01E98515
:103CC000FA8564A375A386A397A312A903A934A8B0
:103CD00025A8212F302F432D522D0E9485441816E0
:103CE0002CF4812F902FA32DB22D18C0A985BA8551
:103CF0009E968D919D910D90BC91A02D8D839E835C
:103D0000AF83B8879C01AD01C701B6010E94824212
:103D100087FF0AC08D819E81AF81B885E985FA85CC
:103D200084A395A3A6A3B7A3A985BA851C962D91B4
:103D30003D914D915C911F97C301B2010E94904447
:103D4000E985FA8524A135A146A157A10E94BC416D
:103D50006B017C01A985BA8598962D913D914D9175
:103D60005C919B97C501B4010E94BB41E985FA852E
:103D700024893589468957890E9490449B01AC016A
:103D8000C701B6010E94BB416B017C01212F302F7E
:103D9000432D522D0E9485441816DCF0A985BA8562
:103DA0009E961C919E979F960C919F97D0963C90C3
:103DB000D097D1962C90212F302F432D522DB60124
:103DC000C7010E94824287FD04C01C2D0D2D3E2C90
:103DD0002F2CA985BA855C96ED91FC915D97812F7A
:103DE000902FA32DB22D80839183A283B383E98585
:103DF000FA8580A691A6A2A6B3A689819A81AB81F5
:103E0000BC8180A391A3A2A3B3A32A960FB6F89472
:103E1000DEBF0FBECDBFDF91CF911F910F91FF90FD
:103E2000EF90DF90CF90BF90AF909F908F907F905A
:103E30006F905F904F903F902F9008952F923F92F8
:103E40004F925F926F927F928F929F92AF92BF92AA
:103E5000CF92DF92EF92FF920F931F93CF93DF9356
:103E600000D01F92CDB7DEB71C012A013B014801EB
:103E7000590120E030E0A901C301B2010E94824251
:103E800087FD7AC020E030E0A901C501B4010E949D
:103E9000824287FD71C020E030E0A901C701B60170
:103EA0000E94824287FD68C0F10140825182628295
:103EB000738284829582A682B782C086D186E2868A
:103EC000F38664A575A5882777FD8095982F0E94B5
:103ED000244320E030E04AE754E40E9489426983A9
:103EE0007A838B839C83F101448655866686778628
:103EF0009B01AC01C501B4010E9490444B015C01DF
:103F0000F101608B718B828B938B29813A814B817C
:103F10005C81C701B6010E9489426B017C01F101FD
:103F2000648B758B868B978B808D918D019721F596
:103F3000A301920160E070E0CB010E94BB41F1015E
:103F40006487758786879787A501940160E070E094
:103F5000CB010E94BB41F101608B718B828B938BF3
:103F6000A701960160E070E0CB010E94BB41F10126
:103F7000648B758B868B978B0F900F900F900F90A3
:103F8000DF91CF911F910F91FF90EF90DF90CF9035
:103F9000BF90AF909F908F907F906F905F904F9069
:103FA0003F902F900895CF92DF92EF92FF920F9360
:103FB0001F93CF93DF93EC018B011616170694F530
:103FC000882777FD8095982F0E9424436B017C0100
:103FD0006CA57DA5882777FD8095982F0E942443A6
:103FE0009B01AC01C701B6010E9489426B017C01B3
:103FF0009B01AC01688979898A899B890E949044D8
:10400000688B798B8A8B9B8BA70196016C897D8944
:104010008E899F890E9489426C8B7D8B8E8B9F8BB2
:104020001DA70CA7DF91CF911F910F91FF90EF90EB
:10403000DF90CF9008952F923F924F925F926F92B0
:104040007F928F929F92AF92BF92CF92DF92EF9228
:10405000FF920F931F93CF93DF93EC016A017B01D3
:1040600048015901A9019801C701B6010E94854480
:1040700087FF4EC0CEA6DFA6E8AAF9AA8AAA9BAA05
:10408000ACAABDAA8EA9882309F442C02C8C3D8C11
:10409000F1014080518062807380A5019401C301C9
:1040A000B2010E948544181634F4F1018082918295
:1040B000A282B3820DC0A7019601C301B2010E9482
:1040C000824287FF05C0F101C082D182E282F38281
:1040D0008CA09DA0AEA0BFA0CAA8DBA8ECA8FDA89C
:1040E000A7019601C501B4010E948544181664F029
:1040F000CEA4DFA4E8A8F9A8A7019601C501B401E0
:104100000E94824287FF04C0CCA2DDA2EEA2FFA2E1
:10411000DF91CF911F910F91FF90EF90DF90CF90A3
:10412000BF90AF909F908F907F906F905F904F90D7
:104130003F902F9008958F929F92AF92BF92CF920F
:10414000DF92EF92FF92CF93DF93EC01EC8DFD8D28
:10415000C080D180E280F380CCA2DDA2EEA2FFA2DB
:10416000EA8DFB8D80819181A281B38188A799A777
:10417000AAA7BBA78AA89BA8ACA8BDA8A501940123
:10418000C701B6010E948544181664F08EA49FA44E
:10419000A8A8B9A8A5019401C701B6010E9482424E
:1041A00087FF04C08CA29DA2AEA2BFA2DF91CF91D7
:1041B000FF90EF90DF90CF90BF90AF909F908F9047
:1041C00008951F93CF93DF93EC0111E061307105E7
:1041D00009F010E08EA991E08927181303C0CE01E1
:1041E0000E949B201EABDF91CF911F9108950F93EA
:1041F0001F93CF93DF93EC018B018EA9882361F18C
:10420000888D998D6817790739F12C853D854E8504
:104210005F8560E070E0CB010E94BB416C877D87C9
:104220008E879F87288939894A895B8960E070E099
:10423000CB010E94BB41688B798B8A8B9B8B2C892D
:104240003D894E895F8960E070E0CB010E94BB41EF
:104250006C8B7D8B8E8B9F8B198F088FDF91CF910D
:104260001F910F9108952F923F924F925F926F92FC
:104270007F928F929F92AF92BF92CF92DF92EF92F6
:10428000FF920F931F93CF93DF93CDB7DEB728979D
:104290000FB6F894DEBF0FBECDBF4C017A836983A1
:1042A0001A013C832B8327013801AD82BE82CF8265
:1042B000D88600E010E02FE733E440E050E0BA0198
:1042C0000E941B2084E690E0F40195A784A76AA1D0
:1042D0007BA1C4010E94F720CE8CDF8CE8A0F9A05E
:1042E0000D811E812F813885B301A201C4010E9476
:1042F0001E1F0E94943FF40144A455A4662457FC59
:104300006094762C641975098609970960A371A3D6
:1043100082A393A316AA358E248E89819A81938FC6
:10432000828F8B819C81978F868F28960FB6F89409
:10433000DEBF0FBECDBFDF91CF911F910F91FF90D8
:10434000EF90DF90CF90BF90AF909F908F907F9035
:104350006F905F904F903F902F9008950F931F9311
:10436000CF93DF93FC0171836083128213821482E6
:10437000158286E58683178210861186128613863B
:104380001486158616861786108A118A128A138A51
:10439000148A158A168ADF01A754BF4F11961C9202
:1043A0001E92AE55BF4F11961C921E9214961196F6
:1043B0001C921E92129611961C921E9212961196A3
:1043C0001C921E92178AAC5AB1091D921C92EF01E1
:1043D00004E110E08FE090E00E942E47FE01E15ED4
:1043E000FE4F918380838FE090E00E942E47FE0174
:1043F000E558FF4F91838083FC0110820150110921
:1044000022960115110531F7DF91CF911F910F9180
:104410000895FC0162817381848195810895FC0176
:1044200086810895FC016781708581859285089554
:10443000FC0163857485858596850895CF92DF920A
:10444000EF92FF926A017B01FC0127853089418947
:104450005289C701B6010E949044FF90EF90DF900F
:10446000CF900895FC0163897489858996890895A0
:1044700047960895660F771F680F791FFB01E5586F
:10448000FF4F8081918108954F925F926F927F924A
:104490008F929F92AF92BF92CF92DF92EF92FF9254
:1044A0000F931F93CF93DF93FB0110811D3241F0D7
:1044B00031E020E01B3209F030E0832F922F02C060
:1044C00081E090E0EB01C80FD91F00E03DEC432EE6
:1044D0003CEC532E652C3DE3732E812C912C540122
:1044E000C12CD12C7601E991EE23E9F1EE32C9F12C
:1044F000FF27E7FDF095011113C0AAE0B0E0A70186
:1045000096010E94FC466B017C01CF01C097AA274F
:1045100097FDA095BA2FC80ED91EEA1EFB1EE3CF49
:10452000BF0160537109882777FD8095982F0E94FD
:1045300024439B01AC01C301B2010E9490449B0142
:10454000AC01C501B4010E94BC414B015C0120E0FB
:1045500030E040E251E4C301B2010E9489422B01E4
:104560003C0101E0C0CFC701B6010E9424439B017A
:10457000AC01C501B4010E94BC411D3239F49B015C
:10458000AC0160E070E0CB010E94BB41DF91CF91B4
:104590001F910F91FF90EF90DF90CF90BF90AF9061
:1045A0009F908F907F906F905F904F9008958F9223
:1045B0009F92AF92BF92CF92DF92EF92FF920F93B2
:1045C0001F93CF93DF93EC01AC01455A5E4FDA01A4
:1045D0002D913C911197FC01E15AFE4F2436310593
:1045E0006CF4A25AB1098D919C911197449734F4BF
:1045F000A655BF4F8D919C910F9714F01182108298
:104600006A3011F06D3011F4118210826432E1F4DD
:10461000DE01A35ABE4F11961C921E92149611965B
:104620001C921E92A85AB10911961C921E92A65570
:10463000BF4F1D921C92C554DF4F688381E090E00C
:10464000DA018D939C93E4C0808191818130910542
:1046500069F024F4009709F47AC272C2823091059D
:1046600009F492C0039709F4D6C06AC22730310515
:104670007CF4D901AE54BC4F8C91681309C0DE01A3
:10468000A35ABE4F8D919C91119701968D939C9347
:10469000C9010196DA018D939C932C0F3D1FD9011E
:1046A000A554BF4F6C93CE0187549F4F8E010D5977
:1046B0001E4F6A3249F1DE01AF59BE4FFC016C3228
:1046C00009F040C020813181A9014F5F5F4F5183C4
:1046D0004083C901880F991F8C0F9D1FEC01C15E9B
:1046E000DE4F0990D881C02DF80180819181C80FDB
:1046F000D91F1882118210828D919C911197FCE232
:104700008F278D939C931EC2DC012D913C911197B4
:10471000A9014F5F5F4F4D935C93C901880F991FAB
:104720008C0F9D1FEC01C15EDE4F0990D881C02D1A
:10473000D8018D919C911197C80FD91F18821D9295
:104740001C9263C080819181880F991F8C0F9D1FDF
:10475000EC01C15EDE4F0990D881C02DF801808147
:1047600091819C012F5F3F4F31832083C80FD91F58
:104770006883772767FD70958D919C9111976827C5
:1047800079276D937C93DEC1C9010196DA018D937F
:104790009C932C0F3D1FD901A554BF4F6C93DE0194
:1047A000A754BF4F8D919C91880F991F8C0F9D1F0F
:1047B000DC01A15EBE4F0D911C919E012D593E4F13
:1047C000D9018D919C911197AC014F5F5F4F4D9333
:1047D0005C93080F191FD8016C93CF59DE4F4881A5
:1047E0005981862F992787FD9095613414F0C797DA
:1047F00001C0C0979C01B4E0220F331FBA95E1F7C6
:10480000CA01821B930B99838883808191810196D1
:104810009183808397C1CE01820F931FDC01A55441
:10482000BF4F6C932E5F3F4FDA012D933C93DC0119
:10483000A454BF4F1C929E0127543F4FD9018D9124
:104840009C91880F991F8C0F9D1FDC01A15EBE4FAC
:104850008D919C916E01BDE9CB1ABEEFDB0AD601AA
:104860000D911C917801BFEFEB1AFB0AD601ED9276
:10487000FC92800F911FDC016C93D9018D919C916A
:1048800011978C010F5F1F4F0D931C93880F991F79
:104890008C0F9D1F815E9E4FDC018D919C91D601F6
:1048A0000D911C91800F911FDC011C9211821082CE
:1048B000FE01EF59FE4F80819181062F112707FDE0
:1048C0001095613424F0B8016753710903C0B80131
:1048D00060537109861B970B91838083009709F0C1
:1048E00031C168817981672B29F4FA016081718176
:1048F000CB010AC0FE01E35AFE4F60817181663030
:10490000710509F024C1F1CF019797FD0AC0FE019E
:10491000E80FF91F8F0105541F4FD8011C91178B09
:10492000F3CFFB013197CB0177FF02C080E090E02D
:10493000BF01681B790BDA016D937C93FE01E9548A
:10494000FF4F1182108240815181D9018D919C913C
:104950004817590784F5D6011D921C9280819181D8
:10496000D6014D915C91880F991F8C0F9D1FBC0142
:10497000615E7E4FDB016D917C91640F751FDB01E1
:104980006C9185589F4FDC018D919C91840F951FF0
:10499000DC01662349F06C93D6018D919C911197AF
:1049A00001968D939C93DACF1C9280819181019620
:1049B00091838083C8CFFE01E35AFE4F80819181AD
:1049C000069709F0C2C0FC9760817181CE010E94F8
:1049D00044226A837B838C839D83FE01ED5DFE4FC1
:1049E0000190F081E02D80818E83FE01EB5DFE4F12
:1049F00060817181CE010E94442220E030E048ECC9
:104A000052E40E9489424B015C010E945F436B01AA
:104A10007C018E010B591E4FF801608371838283E4
:104A200093839B01AC01C501B4010E94BB4120E00E
:104A300030E048EC52E40E94904420E030E040E74F
:104A400052E40E948942A70196010E94BC419B0149
:104A5000AC016F83788789879A87FE01E95DFE4FF5
:104A60000190F081E02D8081833549F460E070E0B1
:104A7000CB010E94BB416F83788789879A87FE01AB
:104A8000E75DFE4F60817181CE010E94442220E0EB
:104A900030E048EC52E40E9489424B015C010E94E4
:104AA0005F436B017C01D8016D937D938D939C9343
:104AB00013979B01AC01C501B4010E94BB4120E0EA
:104AC00030E048EC52E40E94904420E030E040E7BF
:104AD00052E40E948942A70196010E94BC419B01B9
:104AE000AC016B877C878D879E87FE01E55DFE4F5D
:104AF0000190F081E02D8081873549F460E070E01D
:104B0000CB010E94BB416B877C878D879E87FE010E
:104B1000E35DFE4F60817181CE010E9444226F8768
:104B2000788B898B9A8BFE01E15DFE4F60817181EC
:104B3000CE010E9444226B8B7C8B8D8B9E8B05C09B
:104B40001182108280E090E002C081E090E0DF916D
:104B5000CF911F910F91FF90EF90DF90CF90BF907A
:104B6000AF909F908F9008958EBD0DB407FEFDCF3E
:104B70008EB508950F931F93FC011382128208EEE5
:104B800013E020E030E004831583268337838EEB27
:104B900093E091838083648745871F910F910895E7
:104BA000EF92FF921F93CF93DF931F92CDB7DEB7A3
:104BB0007C01162F60E0FC01848549830E94FF4040
:104BC000F8E01F9FB0011124F7018585880F862B1F
:104BD0000E94B4254981842F0E94B42562E070E0D0
:104BE00080E090E00E94C33F61E0F70184850F9070
:104BF000DF91CF911F91FF90EF900C94FF40462FD3
:104C000060E00E94D02581E090E0089546E062E0F7
:104C10000C94D025CF92DF92EF92FF920F931F93C7
:104C2000CF93DF931F921F92CDB7DEB78C01F22E88
:104C300060E0FC01848549835A830E94FF404981DA
:104C4000E42EC42E5A81D52E8C2D8E198F1530F45A
:104C5000F60181916F010E94B425F6CF62E070E009
:104C600080E090E00E94C33F61E0F80184850F90EE
:104C70000F90DF91CF911F910F91FF90EF90DF90F8
:104C8000CF900C94FF40242FAB0160E00C940A26D7
:104C90001F93CF93DF93EC01162F60E08C850E9469
:104CA000FF4062E070E080E090E00E94C33F88E057
:104CB000189FB00111248D85880F862B80680E9473
:104CC000B42580E00E94B425182F62E070E080E0F7
:104CD00090E00E94C33F61E08C850E94FF40812FDD
:104CE000DF91CF911F91089560E00E94482690E0E7
:104CF000089569E00E94482690E0089569E00E94C6
:104D000048268FEF9FEF08951F93CF93DF93EC0119
:104D1000162F63E00E944826482F4C7F6BEF610FEF
:104D20006370462B63E0CE01DF91CF911F910C940D
:104D3000D0258F929F92AF92BF92CF92DF92EF9247
:104D4000FF920F931F93CF93DF93EC016A017B01D6
:104D50004801590167E477E087E89CE00E941C3B2A
:104D60000E94A41D6AE070E080E090E00E94C33FD2
:104D700081E00E94BA1D81E00E94C81D80E00E946F
:104D8000C31D6BE377E087E89CE00E941C3B8091A9
:104D90000A0290910B02019779F448E06EE0CE018F
:104DA0000E94D02510920B0210920A026CE277E06A
:104DB00087E89CE00E941C3B64E670E080E090E0A5
:104DC0000E94C33F40E863E0CE010E94D025C701A6
:104DD000B60123E0660F771F881F991F2A95D1F728
:104DE000680D791D8A1D9B1DA7019601E4E0220F25
:104DF000331F441F551FEA95D1F70E94B54669013C
:104E00007A01422F60E0CE010E94D0254D2D55271A
:104E100061E0CE010E94D02540E063E0CE010E9417
:104E2000D02568E0CE010E94842647E062E0CE01F2
:104E30000E94D0256AE177E087E89CE0DF91CF917E
:104E40001F910F91FF90EF90DF90CF90BF90AF90A8
:104E50009F908F900C941C3B0F931F9300E010E8E1
:104E600020E730E00E9499261F910F910895E0916C
:104E7000160FF091170F80E090E0309749F00296FE
:104E800020813181820F931F0280F381E02DF5CFC5
:104E900008950F931F93CF93DF931F921F92CDB767
:104EA000DEB78091140F9091150F8E010F5F1F4F89
:104EB000009729F408511F401A8309830AC0081B70
:104EC000190B1A8309830E943727800F911F9A8339
:104ED000898389819A810F900F90DF91CF911F91E3
:104EE0000F910895FC016F778081918186279183CE
:104EF000808347E020813181C9019695879520FF05
:104F000004C020EF822722E29227918380834150C0
:104F100089F70895EF92FF920F931F93CF93DF933A
:104F20007C018A01EB01060F171FC017D10729F07A
:104F30006991C7010E947227F8CFDF91CF911F912D
:104F40000F91FF90EF900895CF93DF931F921F92E0
:104F5000CDB7DEB7AB012FEF3FE33A832983BC0126
:104F6000CE0101960E948A2789819A8180952FE33C
:104F700092270F900F90DF91CF9108950F931F9379
:104F8000CF93DF931F92CDB7DEB78C01FC01718305
:104F90006083128223831486158616861786108AEC
:104FA000459649830E94782CF801178E10A24981FA
:104FB0008FE9840F8A3108F440528FEB840F8A31D5
:104FC00020F080ED840F8A3010F4F801428344E62B
:104FD00050E060E070E0F801448355836683778396
:104FE0004FEF5FEFBA01408751876287738711A245
:104FF0000F90DF91CF911F910F91089508959F9287
:10500000AF92BF92CF92DF92EF92FF920F931F93D6
:10501000CF93DF93CDB7DEB7A7970FB6F894DEBF77
:105020000FBECDBF6C017B01942E5901DB0114969C
:105030004D915D916D917C911797CE0180960E9464
:10504000712DCE0180960E94472D6894A4F8C80166
:105050000E941F2D882321F0C6010E947A2C6CC06B
:10506000CE0180960E941F2D8823A9F1CE01809643
:105070000E94652DF70184858F5F87FD81E0D70150
:105080001C968C93CE0101960E94A72AF70162819B
:10509000CE0101960E94AB2A6A2DCE0101960E9494
:1050A000AB2AD7011C966C91CE0101960E94AB2AC7
:1050B000692DCE0101960E94AB2AD701ED91FC919A
:1050C000119763A174A123E230E013964C91CE01B5
:1050D00001960E94832BF701808191810E94512CBF
:1050E000882309F4B4CFD701ED91FC9111979381F6
:1050F00013968C919813ABCF8481833409F0A7CF9A
:105100004081518145505109BF016A5F7F4FCE01F7
:1051100001960E94F02C8981882309F498CF9C8104
:10512000F7018485981393CF8AE0FE013196D6016A
:1051300001900D928A95E1F7C601A7960FB6F894F3
:10514000DEBF0FBECDBFDF91CF911F910F91FF90BA
:10515000EF90DF90CF90BF90AF909F9008959F9277
:10516000AF92BF92CF92DF92EF92FF920F931F9375
:10517000CF93DF93CDB7DEB76F970FB6F894DEBF4E
:105180000FBECDBF8C015B017A01922EDC01ED9147
:10519000FC91C3A0D4A0CE0101960E94A72AF801D9
:1051A0006281CE0101960E94AB2A692DCE01019643
:1051B0000E94AB2A96FE07C0D8015F966C91CE0183
:1051C00001960E94AB2AF70142815381B7016C5FBF
:1051D0007F4FCE0101960E94B72A9501D801139600
:1051E0004C91B601CE0101960E94832B6F960FB6AB
:1051F000F894DEBF0FBECDBFDF91CF911F910F910D
:10520000FF90EF90DF90CF90BF90AF909F90089568
:10521000CF92DF92EF92FF920F931F93CF93DF9382
:10522000CDB7DEB72A970FB6F894DEBF0FBECDBF5D
:105230007C016A01FC0180A1811123C08B0120E463
:1052400030E041E050E0B701CE0101960E94FF2717
:105250008AE0FE013196D60101900D928A95E1F720
:10526000F601828180FF04C08681978197FD07C087
:10527000F6018481F701878F81E080A302C081E07D
:1052800001C080E02A960FB6F894DEBF0FBECDBFF6
:10529000DF91CF911F910F91FF90EF90DF90CF9012
:1052A0000895DF92EF92FF920F931F93CF93DF93B6
:1052B000CDB7DEB72A970FB6F894DEBF0FBECDBFCD
:1052C0007C01D42EFC0123893489418952898B01C8
:1052D000BC01CE0101960E94FF278AE0FE013196B3
:1052E000D701559601900D928A95E1F7F7018789CC
:1052F00080FF04C0838D948D97FD0BC0F701818DD5
:10530000978D891731F0811106C081E0D11004C05A
:1053100002C081E001C080E02A960FB6F894DEBF9B
:105320000FBECDBFDF91CF911F910F91FF90EF90F6
:10533000DF9008958F929F92AF92BF92CF92DF92AB
:10534000EF92FF920F931F93CF93DF93CDB7DEB70A
:105350002E970FB6F894DEBF0FBECDBF7C016B0158
:105360005A014901FC0125853685478550892F5F03
:105370003F4F4F4F5F4F258736874787508BBC0184
:10538000CE0109960E94932BF70181A1882339F061
:105390009401A501B601C7010E94AF2830C0F701F2
:1053A0004085518562857385CE0101960E94712DDD
:1053B000A7014B5E5F4FBE016F5F7F4FC7010E9429
:1053C000082981111CC0689486F8F701128B018BA3
:1053D000948A838A878D8F5F87FD81E0F701878FAD
:1053E0009401A501B601C7010E94AF2840E0BE01AB
:1053F0006F5F7F4FC7010E945129882389F386E0A0
:10540000FE013996DE01119601900D928A95E1F721
:1054100029813A814B815C816D817E8180E090E0C1
:105420002E960FB6F894DEBF0FBECDBFDF91CF91A1
:105430001F910F91FF90EF90DF90CF90BF90AF90B2
:105440009F908F9008958F929F92AF92BF92CF922C
:10545000DF92EF92FF920F931F93CF93DF93CDB71D
:10546000DEB7AA970FB6F894DEBF0FBECDBF4C01D2
:10547000CE0101962FA338A749A75AA76EA30E9471
:10548000A72A6EA1CE0101960E94AB2A2FA138A5B2
:1054900049A55AA5BA01A901CE0101960E94CF2AB9
:1054A000F7FC0BC0602FCE0101960E94AB2AB7011A
:1054B000A601CE0101960E94CF2A01E010E09501DD
:1054C000AE014F5F5F4F64E270E0C4010E949A2911
:1054D00080E090E0AA960FB6F894DEBF0FBECDBF75
:1054E000DF91CF911F910F91FF90EF90DF90CF90C0
:1054F000BF90AF909F908F900895AF92BF92CF9240
:10550000DF92EF92FF920F931F93CF93DF9300D020
:1055100000D0CDB7DEB757016801790102E09A01EA
:10552000AB0161E00E94232A80E090E026960FB64E
:10553000F894DEBF0FBECDBFDF91CF911F910F91C9
:10554000FF90EF90DF90CF90BF90AF900895FC0157
:10555000138212820895FC0122813381A9014F5FD9
:105560005F4F53834283E20FF31F64830895CF9309
:10557000DF93FB01460F571FE417F50769F0A19170
:10558000EC012A813B81B9016F5F7F4F7B836A8386
:10559000C20FD31FAC83F0CFDF91CF9108950F934B
:1055A0001F9341305105610520EE72077CF08A019E
:1055B0009B0101151105210540E2340724F00FEF8E
:1055C0001FEF2FEF3FE137FF12C004C001E010E0F2
:1055D00020E030EE30952095109501951F4F2F4F0C
:1055E0003F4F000F111F221F331F016004C0000F27
:1055F000111F221F331FFC0142815381702F7F73C3
:10560000003411052105310510F060E401C060E0AF
:105610004F5F5F4FFC01E40FF51F672B638366E06C
:1056200036952795179507956A95D1F701151105B8
:105630002105310519F7FC01538342831F910F9116
:105640000895EF92FF920F931F93CF93DF93EC0196
:10565000688349830A83F901DC011396C901800F2D
:10566000911FE817F90719F021912D93FACF7801CE
:1056700083E0E80EF11CB701CE010E94A427FE01D1
:10568000EE0DFF1D282F2F772083C00FD11F880F0D
:10569000892F881F990B91958F778C83C801059668
:1056A000DF91CF911F910F91FF90EF900895EF92AE
:1056B000FF920F931F93CF93DF93CDB7DEB7A097E1
:1056C0000FB6F894DEBF0FBECDBF7C01CE010196B0
:1056D0000E94212BD701ED91FC910280F381E02DF6
:1056E000AC01BE016F5F7F4FC7011995A0960FB641
:1056F000F894DEBF0FBECDBFDF91CF911F910F9108
:10570000FF90EF9008950F931F93FC01CB01642F3E
:10571000A901028113819F012C5F3F4F0E94572BEB
:105720001F910F910895FC0171836083228333835D
:10573000448355830895FC0171836083460F571F8E
:10574000538342830895FC01A081B18182819381BA
:10575000A817B90739F08D91B183A083FB0180832D
:1057600081E0089580E00895AF92BF92CF92DF92DA
:10577000EF92FF920F931F93CF93DF931F92CDB7BA
:10578000DEB75C0100E010E0C12CD12C7601BE0137
:105790006F5F7F4FC5010E94A32B8823C9F0298129
:1057A000822F8F7390E0A0E0B0E0002E04C0880F3D
:1057B000991FAA1FBB1F0A94D2F7C82AD92AEA2A1E
:1057C000FB2A26FF05C00A5F1F4F0E311105F9F6AF
:1057D000D701C601B695A79597958795C0FE0AC0D3
:1057E0009C01AD0166277727CB01621B730B840BED
:1057F000950B02C0BC01CD010F90DF91CF911F919D
:105800000F91FF90EF90DF90CF90BF90AF900895F1
:10581000FC011182108212820895CF93DF93EC0174
:1058200067FD03C08A81882319F0198218821A82C1
:10583000888199818032910548F49C012F5F3F4F08
:1058400039832883FE01E80FF91F6383688179811A
:1058500065307105A0F08B8187FF11C08D8190E0CC
:105860009B01255031092817390749F4CE010396C9
:105870000E94A4278E37904311F481E08A83DF9140
:10588000CF9108950F931F93CF93DF93EC018B017A
:105890000E94082C1CA30BA3DF91CF911F910F91A5
:1058A0000895CF93DF93EC018BA19CA1DC01ED91D6
:1058B000FC910680F781E02D199597FD09C0682FAE
:1058C000CE010E940D2C8A81882371F381E001C0F2
:1058D00080E0DF91CF910895FC011082158214823F
:1058E0001382128211821682178210861186089501
:1058F0000C946C2CCF93DF93EC010E946C2C81E014
:1059000088838A834EEF5FEF6FEF7FEF4E835F8375
:1059100068877987CE01DF91CF9108950F931F9308
:10592000CF93DF9300D01F92CDB7DEB78C01CE01AD
:1059300001960E949B2BB8016F5F7F4FCE010196AD
:105940000E94A32B811102C080E041C0B8016E5FAC
:105950007F4FCE0101960E94A32B8823A9F3F80163
:10596000828184FD05C0F801828186FD0BC013C0D1
:10597000B8016D5F7F4FCE0101960E94A32B81116C
:10598000F2CFE2CFB8016C5F7F4FCE0101960E944B
:10599000A32B8823C9F2B8016B5F7F4FCE0101961C
:1059A0000E94A32B882381F2CE0101960E94B42B82
:1059B000F8016683778380879187228120FF06C064
:1059C00016161706180619060CF0BECF81E00F90C8
:1059D0000F900F900F90DF91CF911F910F9108952D
:1059E0000F931F93CF93DF9300D01F92CDB7DEB7F5
:1059F0008C014B835C8369837A830E946C2C4B817E
:105A00005C8169817A81C8010E948E2C882361F0B3
:105A100081E0F80180830F900F900F900F90DF913D
:105A2000CF911F910F910895C8010F900F900F9083
:105A30000F90DF91CF911F910F910C946C2C0F93CD
:105A40001F93CF93DF93EC014C815D816E817F8149
:105A500077FD17C00E94943F088119812A813B81FC
:105A6000601B710B820B930B41E00C811D812E8119
:105A70003F81601771078207930708F440E0842F85
:105A800001C080E0DF91CF911F910F9108950F9396
:105A90001F93CF93DF93EC014C815D816E817F81F9
:105AA00077FD0EC00E94943F0C811D812E813F81A5
:105AB000601B710B820B930B688379838A839B83B2
:105AC000DF91CF911F910F910895CF93DF93EC0158
:105AD0000E94943F688379838A839B83DF91CF916F
