:100000000C943F040C94FD3C0C942E3D0C945F3DED
:100010000C94903D0C94C13D0C94F23D0C94233E05
:100020000C94543E0C9470040C9470040C94700462
:100030000C9470040C9470040C9470040C94D232E0
:100040000C9470040C9470040C9470040C94700460
:100050000C9470040C9470040C9470040C94973EEF
:100060000C9470040C9447370C947D370C947004F6
:100070000C9470040C9470040C9470040C94700430
:100080000C9470040C9470040C9470040C94700420
:100090000C94F4370C942A380C9470040C9470046B
:1000A0000C9470040C9470040C9470040C94700400
:1000B0000C9470040C9470040C9455340C94C43358
:1000C0000C94B7340C9470040C9470040C94A13804
:1000D0000C94D7380C9470040C944E390C948439D9
:1000E0000C947004D73CA13CA93CB53CC23CE33C19
:1000F000F03CD83FDB3FCA3FCE3FD43F1240DF3F0A
:10010000E33FE93FED3FF13FF73FFB3FFF3F124049
:10011000054009400D40084AD73B3BCE016E84BCE8
:10012000BFFDC12F3D6C74319ABD56833DDA3D0051
:10013000C77F11BED9E4BB4C3E916BAAAABE00009A
:1001400000803F05A84CCDB2D44EB93836A9020C78
:1001500050B9918688083CA6AAAA2ABE0000008051
:100160003F000C9401390C94152A0C94CE3F0C944A
:10017000462A0C9478040C94561B0C9472040C942C
:10018000ED3F0C94FB3F0C94F73F0C9407330C9419
:10019000170F0C94D83F0C94F03C0C948C350C94B5
:1001A00088090C944D0F0C945E380C94B8390C945B
:1001B0000C360C94A13C0C94A7370C94FB390C948E
:1001C000BB170C94AF0E0C94F10E0C94C23C0C9423
:1001D00076310C9454380C9471360C94FF3F0C9487
:1001E00005400C94A93C0C946A350C9409400C947D
:1001F000191C0C94E93F0C94E33F0C945D350C946E
:10020000A8210C94B8050C940D400C942C330C943C
:100210001D330C94F13F0C9474090C94502A0C94E7
:1002200068210C944B2A0C947D310C94B53C0C94B1
:10023000B5170C94E33C0C94D8290C94060B0C9441
:100240000B390C94D73C0C94B2050C94171C0C94ED
:1002500078350C94EA350C94AE390C94B1370C9483
:1002600012400C940A0B0C94CA3F0C94D1290C94A4
:10027000DB3F0C94111C0C94DF3F0C940F100C947A
:100280009A100C94201C0C94D43F0C94ED0A496EE7
:100290006974206175746F70696C6F7420636F6D21
:1002A000706C65746500496E6974206175746F7057
:1002B000696C6F742E2E736574206C696D6974732C
:1002C0002E2E00496E6974206175746F70696C6FB1
:1002D000742E2E7374617274205049442E2E00497E
:1002E0006E6974206175746F70696C6F742E2E0066
:1002F000536574757020636F6D706C6574652E2E18
:100300000053746172742074696D65722E2E0053EF
:10031000746172742077696E642E2E00537461725A
:1003200074206E6D6561205478202D206F6E2070D2
:10033000696E732034362054782C2034382052785B
:1003400020617420005374617274206E6D656120A9
:1003500054782E2E005374617274206E6D65612086
:100360005278202D2073657269616C34206174208D
:100370000043535F50494E204F5554505554203D33
:1003800020484947480043535F50494E20736574E5
:1003900020746F204F55545055540053746172743B
:1003A000205350492075617274732E2E005374616E
:1003B0007274206E6D6561205278202D20736572F5
:1003C00069616C3320617420005374617274206E13
:1003D0006D6561205278202D2073657269616C32E1
:1003E00020617420005374617274207365617461BC
:1003F0006C6B202D2073657269616C3220617420F2
:100400003438303000537461727420475053205296
:1004100078202D2073657269616C31206174200031
:10042000496E697469616C697A696E672E2E002C59
:10043000002C4C4C333A002C4C55333A002C4C4C8D
:10044000323A002C4C55323A002C4C4C313A002CAC
:100450004C55313A002C53544B3A002C5342333A0A
:10046000002C5342323A002C5342313A002C534272
:10047000303A002C4750533A002C575A4A3A00550C
:1004800049443A4D4547412C4150583A00212156A4
:1004900045523A312E392C002C002C57534B3A0040
:1004A0002C5753583A002C4141443A002C414145C5
:1004B0003A002C41414E3A002C4141523A002C4125
:1004C00041583A002C4150523A002C4150433A00D6
:1004D0002C4150543A002C4150533A005549443A6B
:1004E0004D4547412C4150583A0021215645523A3A
:1004F000312E392C0024504D544B3235312C0024F0
:10050000504D544B3331342C302C312C302C312C79
:10051000312C312C302C302C302C302C302C302CF9
:10052000302C302C302C302C302C302C302A3238DF
:100530000024504D544B3232302C313030302A317F
:10054000460053657474696E672047505320746F7A
:10055000204D54454B5F33333239002C382C312C2D
:10056000302A0024505352463130302C312C002494
:10057000505352463130352C302A334600245053E4
:1005800052463130332C30342C30302C30312C303A
:10059000312A32310024505352463130332C30331B
:1005A0002C30302C32302C30312A3235002450534C
:1005B00052463130332C30322C30302C30352C3008
:1005C000312A32330024505352463130332C3030EC
:1005D0002C30302C30352C30312A3231002450531D
:1005E00052463130332C30312C30302C30302C30DE
:1005F000312A32350024505352463130332C3035B5
:100600002C30302C30302C30312A323100245053F1
:1006100052463130352C312A3345005365747469A4
:100620006E672047505320746F20454D5F3430363D
:10063000410053657474696E672047505320746F8E
:100640002047454E455249430053657474696E67AF
:100650002047505320636F6E6669672E2E2E002050
:10066000202064656661756C7420746F20343830A6
:10067000302E2E004641494C4544004F4B206174BA
:100680002000202020747279206175746F6261757A
:1006900064202E2E200020206465746563746564D8
:1006A0002070756C73652072617465203D20002C8C
:1006B000542A002448434844542C002C4E2C412AF0
:1006C000002E302C522C002457494D57562C0053E5
:1006D000504920696E697420636F6D706C65746534
:1006E000005350492055415254207265736574007F
:1006F0005350492073746172746564004D756C7455
:100700006953657269616C3A3A626567696E0000A7
:10071000000A0B02090C0D0E08070304010000007B
:1007200000000000000000000000000000000000C9
:100730000000000000000000000000121110000086
:1007400000000000000000000000000000000000A9
:1007500000000000000102102020080810204010B6
:100760002040800201020108040201010204081075
:100770002040808040201008040201800402018093
:1007800040201008040201080402010102040810BC
:10079000204080010204081020408005050505075F
:1007A0000508080808020202020A0A0808040404EC
:1007B0000401010101010101010303030303030318
:1007C00003040707070C0C0C0C0C0C0C0C020202A7
:1007D0000206060606060606060B0B0B0B0B0B0B9A
:1007E0000B000020002300260029002C002F0032DF
:1007F000000001000003010601090100002200259C
:100800000028002B002E00310034000201000005FA
:100810000108010B0100002100240027002A002DFF
:10082000003000330001010000040107010A014EFD
:10083000414E494E495459494E46CDCCCC3D0AD73C
:10084000233C17B7D13877CC2B329595E6241FB1CE
:100850004F0A000020410000C84200401C4620BC56
:10086000BE4CCA1B0E5AAEC59D7474090F10561BA0
:100870006821B1375E380B39B83988099A101124CC
:100880001FBECFEFD1E2DEBFCDBF00E00CBF14E052
:10089000A0E0B2E0E8EDF1E900E00BBF02C0079094
:1008A0000D92A430B107D9F72EE0A4E0B4E001C066
:1008B0001D92A63FB207E1F718E0CAE7D8E000E0D2
:1008C00006C022970109FE010BBF0E942945CA36C6
:1008D000D10780E00807A9F70E94863E0C94DA4809
:1008E0000C94000021E132E0FC0131832083089563
:1008F00021E132E0FC01318320830C94953EFC0120
:10090000CB0121E132E0318320837383628314823F
:1009100040E050E0BA010E94BE1561E088E10E940B
:10092000134061E08AE10E94134061E08CE10E9483
:10093000134061E08EE10E94134060E082E40C9479
:100940001340CF92DF92EF92FF92CF93DF93EC01AF
:100950008A819B810E940517882389F08A819B8167
:100960000E9482136B017C010E94E13E21E0C616C9
:10097000D706E806F90608F020E0822F01C080E0E3
:10098000DF91CF91FF90EF90DF90CF900895CF92BD
:10099000DF92EF92FF92CF93DF93EC010E94A104CC
:1009A0008823A9F10E94E13E6B017C018A819B8131
:1009B0000E947C13C61AD70AE80AF90A89EEC816FB
:1009C00083E0D806E104F104C0F16C8188E10E9463
:1009D0004C406C818AE10E944C406C818CE10E9409
:1009E0004C406C818EE10E944C408C8191E08927C3
:1009F0008C830E94E13EAB01BC018A819B81DF9127
:100A0000CF91FF90EF90DF90CF900C94BE1560E0F7
:100A100088E10E944C4060E08AE10E944C4060E026
:100A20008CE10E944C4060E08EE1DF91CF91FF901D
:100A3000EF90DF90CF900C944C40DF91CF91FF90DE
:100A4000EF90DF90CF900895CF92DF92EF92FF92D8
:100A5000CF93DF93EC018A819B810E94B915882393
:100A600011F18A819B810E948D1518161906DCF4FC
:100A70008A819B810E9499156B017C018A819B81EF
:100A80000E948D15BC01882777FD8095982F0E94C4
:100A900071429B01AC01C701B6010E94D2431816F6
:100AA00014F461E001C060E08A819B81DF91CF9105
:100AB000FF90EF90DF90CF900C9442170F931F930D
:100AC000CF93DF93EC0180E40E949A3F8C018A81EE
:100AD0009B810E945D15081719074CF08A819B8144
:100AE0000E9451158017910714F060E001C061E089
:100AF0008A819B810E94AB1681E40E949A3F8C01FF
:100B00008A819B810E946F15081719073CF08A8122
:100B10009B810E9463158017910714F461E001C066
:100B200060E08A819B810E94BA1682E40E949A3F0B
:100B30008C018A819B810E948115081719073CF05E
:100B40008A819B810E9475158017910714F461E0DA
:100B500001C060E08A819B81DF91CF911F910F914D
:100B60000C94C91629E132E0FC01318320830895F9
:100B700029E132E0FC01318320830C94953E2F92D1
:100B80003F924F925F926F927F928F929F92AF921D
:100B9000BF92CF92DF92EF92FF920F931F93CF936A
:100BA000DF93CDB7DEB728970FB6F894DEBF0FBE40
:100BB000CDBF1C016A017B0109831A832B833C830F
:100BC000FC01828193810E94B8139B01AC01C70193
:100BD000B6010E9409412B013C01F1018281938100
:100BE0000E94B8139B01AC01C701B6010E940841E5
:100BF0004B015C01F101828193810E94B8139B013A
:100C0000AC0169817A818B819C810E9409416B01D1
:100C10007C01F101828193810E94B8139B01AC0198
:100C200069817A818B819C810E94084169837A83E2
:100C30008B839C83F101828193810E94BE136D831B
:100C40007E838F83988724E83AEB4CE358E3C30113
:100C5000B2010E9408412D813E814F8158850E943A
:100C6000D24318166CF4F101828193810E94AA1379
:100C70009B01AC01C301B2010E94CF4187FD8CC032
:100C8000F101828193810E94AA132B013C0124E887
:100C90003AEB4CE358E3C501B4010E940941A301BA
:100CA00092010E94CF4187FF0EC0F10182819381A2
:100CB0000E94BE139B01AC01C501B4010E94D24346
:100CC00018160CF471C0F101828193810E94C41343
:100CD0004B015C0124E83AEB4CE358E3C701B60151
:100CE0000E940841A50194010E94D24318166CF499
:100CF000F101828193810E948E139B01AC01C70197
:100D0000B6010E94CF4187FD57C0F10182819381D6
:100D10000E948E136B017C0124E83AEB4CE358E30C
:100D200069817A818B819C810E940941A70196018A
:100D30000E94CF4187FF48C0F101828193810E94C8
:100D4000C4139B01AC0169817A818B819C810E94D3
:100D5000D2431816CCF549815A816B817C81F1010F
:100D60008281938128960FB6F894DEBF0FBECDBF67
:100D7000DF91CF911F910F91FF90EF90DF90CF9077
:100D8000BF90AF909F908F907F906F905F904F90AB
:100D90003F902F900C940E16B301A201F1018281B5
:100DA00093810E94F4156CCFB501A401F1018281F9
:100DB00093810E94081687CFB701A601F1018281B5
:100DC00093810E94D815A1CF28960FB6F894DEBF64
:100DD0000FBECDBFDF91CF911F910F91FF90EF908C
:100DE000DF90CF90BF90AF909F908F907F906F904B
:100DF0005F904F903F902F9008958F929F92AF9267
:100E0000BF92CF92DF92EF92FF920F931F93CF93F7
:100E1000DF93EC016A017B014801590140E050E099
:100E200064EB72E48A819B810E94F41540E050E0FB
:100E300064EB72EC8A819B810E94081640E050E0CE
:100E400064E373E48A819B810E94D81540E050E0FE
:100E500064E373EC8A819B810E940E168A819B81D8
:100E60000E94B0132DE93BEF46E157E30E94DD43BA
:100E7000AB01BC018A819B810E940216950184010D
:100E8000B701A601CE010E94BF05DF91CF911F914E
:100E90000F91FF90EF90DF90CF90BF90AF909F9019
:100EA0008F900895CF92DF92EF92FF920F931F934E
:100EB000CF93DF93EC018B0189E192E099838883E2
:100EC0007B836A83CB010E949C136B017C01C80168
:100ED0000E949413AB01BC0197018601CE010E94D0
:100EE000FD06DF91CF911F910F91FF90EF90DF9062
:100EF000CF9008954F925F926F927F928F929F92C0
:100F0000AF92BF92CF92DF92EF92FF920F931F9317
:100F1000CF93DF9300D01F92CDB7DEB74C01FC0119
:100F2000828193810E94AF15882309F4D2C00E9468
:100F3000E13E2B013C01F401828193810E94201546
:100F4000461A570A680A790AF1EE4F16F3E95F0666
:100F5000F4E06F06710438F0F401828193810E94FD
:100F6000AF1581118DC0F401828193810E944015DB
:100F7000882309F4AEC0F401828193810E94301568
:100F80005B016C01F401828193810E9428152B0181
:100F90003C01F401828193810E949C139B01AC016E
:100FA000F4018281938129833A834B835C830E947D
:100FB00094138301720129813A814B815C810E94E3
:100FC000D118AB01BC01F401828193810E94D2153A
:100FD000F401828193810E9488132B013C01F4016A
:100FE000828193810E94A4139B01AC01C301B201D1
:100FF0000E94D243181664F4F401828193810E9406
:101000008813AB01BC01F401828193810E94EE152B
:10101000F401828193810E9430152B013C01F4017F
:10102000828193810E942815AB01BC01930182014A
:10103000C4010E94BF05F401828193810E94AF1513
:10104000882369F1F401828193810E9488132B0126
:101050003C01F401828193810E94B0139B01AC0199
:10106000C301B2010E94D2431816CCF440E050E014
:10107000BA01F401828193810E94C41561E010C01D
:1010800040E050E0BA01F401828193810E94C415CE
:1010900061E0F401828193810E94CF1564CF60E00A
:1010A000F401828193810F900F900F900F90DF9148
:1010B000CF911F910F91FF90EF90DF90CF90BF9055
:1010C000AF909F908F907F906F905F904F900C9417
:1010D000CF150F900F900F900F90DF91CF911F9130
:1010E0000F91FF90EF90DF90CF90BF90AF909F90C7
:1010F0008F907F906F905F904F900895CF93DF9384
:10110000EC018A819B810E942815AB01BC018A8178
:101110009B810E94DE158A819B810E943015AB0164
:10112000BC018A819B810E94E61540E050E0BA0133
:101130008A819B81DF91CF910C94EE150F931F93C1
:10114000CF93DF93EC018B0181960E94CF2118A3EE
:101150000F8FDF91CF911F910F9108958F929F92E2
:10116000AF92BF92CF92DF92EF92FF920F931F93B5
:10117000CF93DF93CDB7DEB7E7970FB6F894DEBF16
:101180000FBECDBF4C01FC01168E158E148E138E32
:101190006FED72E083E69CE00E947B3AF401878D5C
:1011A00090A10E94A317AB01BC018DE494E00E94C2
:1011B000FE2A64E670E080E090E00E94103FF401B7
:1011C000878D90A10E94D01320E030E044E354E4E6
:1011D0000E9409416B017C01F40160837183828369
:1011E0009383878D90A10E94CB149B01AC01C70112
:1011F000B6010E940941F401648375838683978355
:10120000878D90A10E94CA13F4016087718782873D
:10121000938711E0108B63EC72E083E69CE00E9400
:101220007B3AA401485F5F4FB4016C5F7F4F1F9210
:101230001F938FE38F9385E08F938EE18F9388EBDD
:101240008F938AE0A82E87EDB82E83EAC82E8DE30F
:10125000D82E16E6E12EFE2C06EE1EE39401CE01FA
:1012600001960E94052587E3FE013196D4019196EF
:1012700001900D928A95E1F766EA72E083E69CE0C0
:101280000E947B3AF1E28F0E911C00E010E024E80E
:1012900032E440E050E0BA01C4010E94ED2364E66C
:1012A00070E0C4010E94A5236EE872E083E69CE032
:1012B0000E947B3A0F900F900F900F900F900F901D
:1012C000E7960FB6F894DEBF0FBECDBFDF91CF918A
:1012D0001F910F91FF90EF90DF90CF90BF90AF9054
:1012E0009F908F900895089540E063E48DE494E02A
:1012F0000E948C296DE474E088E294E00E9414302E
:1013000020E841E368E274E086E094E00C94902BDE
:1013100086E094E00C94D02B0F931F93CF93DF9330
:10132000EC018C010F5E1F4F8DE494E00E944B2A6C
:10133000892B21F18DE494E00E94462A2D8D3E8D6B
:10134000FE01E20FF31F818B2F5F3F4F3E8F2D8FEA
:101350008A3029F08D3019F0213331052CF3FE014C
:10136000E20FF31F118AB80183E69CE00E948D3AD8
:101370001E8E1D8EF80111821082D6CFDF91CF9183
:101380001F910F9108954F925F926F927F92AF924B
:10139000BF92CF92DF92EF92FF920F931F93CF9362
:1013A000DF9300D000D0CDB7DEB75C01FC01878DA4
:1013B00090A10E942C1785010F5D1F4F882309F40F
:1013C000DEC0C5010E948C0961E070E0C8010E9486
:1013D000B324F501878D90A10E94D01320E030E066
:1013E00044E354E40E9409416B017C01F5016083F0
:1013F000718382839383878D90A10E94CB149B017C
:10140000AC01C701B6010E940941F50164837583EF
:1014100086839783C8010E94D021F50124853585F4
:101420004685578560857185828593850E94084130
:101430006B017C0120E030E0A9010E94D243181624
:1014400024F0F7FAF094F7F8F094F501878D90A165
:101450000E940C15BC01882777FD8095982F0E946B
:1014600071429B01AC01C701B6010E94D24318161C
:101470000CF09EC0F5018089078D10A1C084D18435
:10148000E284F3844484558466847784A3019201C2
:10149000882309F1C701B6010E94D24318160CF146
:1014A000A3019201C701B6010E94CF4187FF3FC04F
:1014B000F501108AC8010E941215BC01882777FD2A
:1014C0008095982F0E9471429B01AC01C701B60123
:1014D0000E94084127C0C701B6010E94CF4187FF83
:1014E00006C0F501C486D586E686F78620C0A3012E
:1014F0009201C701B6010E94D2431816C4F481E0DC
:10150000F501808BC8010E941215BC01882777FD68
:101510008095982F0E9471429B01AC01C701B601D2
:101520000E940941F5016487758786879787F501D1
:101530004485558566857785878D90A10E944316E1
:10154000F501878D90A10E9418152B013C0120E028
:1015500030E048EC52E4F501648575858685978511
:101560000E94DD430E943E42AB01BC01E12CF12C04
:101570009301820186E094E00E944F2E19C060E042
:1015800070E0C80126960FB6F894DEBF0FBECDBF3F
:10159000DF91CF911F910F91FF90EF90DF90CF904F
:1015A000BF90AF907F906F905F904F900C94B3245A
:1015B00026960FB6F894DEBF0FBECDBFDF91CF9158
:1015C0001F910F91FF90EF90DF90CF90BF90AF9061
:1015D0007F906F905F904F90089581E08093230BF0
:1015E0008091210B9091220B01969093220B809376
:1015F000210B8091210B9091220B64E170E00E94FD
:10160000C3449093220B8093210B08958EE695E0BE
:101610000C94BB1E8EE695E00C94FD1E8FE49AE0C0
:101620000E9438138FE49AE00E945317AB01BC016B
:1016300026E083E69CE00E94C93660E274E083E61F
:101640009CE00E947B3A88E695E00E94701B65E072
:1016500074E083E69CE00E94393A8FE49AE00E94AD
:101660006317AB01BC012AE030E083E69CE00E94F6
:10167000623B8FE49AE00E946317AB01BC0126E055
:1016800080E09DE00E94C9368FE49AE00E94AB178B
:10169000882361F065EE73E083E69CE00E947B3A6C
:1016A00027E040EC52E160E070E019C069EC73E0C3
:1016B00083E69CE00E94393A8FE49AE00E94731717
:1016C000AB01BC012AE030E083E69CE00E94623B73
:1016D0008FE49AE00E947317AB01BC0126E08DE90C
:1016E0009DE00E94C9366DEA73E083E69CE00E94AB
:1016F000393A8FE49AE00E948317AB01BC012AE0DB
:1017000030E083E69CE00E94623B8FE49AE00E9416
:101710008317AB01BC0126E08AE39EE00E94C93634
:101720006BE973E083E69CE00E947B3A68EE73E02D
:1017300080E090E00E94103F61E083E40E9413404B
:1017400066E873E083E69CE00E947B3A64E670E022
:1017500080E090E00E94103F61E083E40E944C40F2
:1017600061E773E083E69CE00E947B3A65E573E005
:1017700083E69CE00E94393A8FE49AE00E94931736
:10178000AB01BC012AE030E083E69CE00E94623BB2
:101790008FE49AE00E949317AB01BC018AE595E0C3
:1017A0000E94FE2A64E670E080E090E00E94103F14
:1017B00065E473E083E69CE00E947B3A60E080E3AE
:1017C0000E94134061E08EE20E9413406CE173E0DE
:1017D00083E69CE00E94393A8FE49AE00E949B17CE
:1017E000AB01BC012AE030E083E69CE00E94623B52
:1017F0008FE49AE00E949B17AB01BC018EE09AE057
:101800000E942E1C82E095E00E94AE086FE073E01B
:1018100083E69CE00E947B3A60E083E00E941340F4
:1018200043E050E066E07BE081E00E948C3C60E0B9
:1018300082E00E94134043E050E06AE07BE080E0F9
:101840000E948C3C61E073E083E69CE00E947B3A5E
:101850004DEE5AE064E670E080E090E00E94653270
:101860000E94713260EF72E083E69CE00C947B3A58
:101870006F927F928F929F92AF92BF92CF92DF92A0
:10188000EF92FF920F931F93CF93DF9300D01F929D
:101890001F92CDB7DEB7ADB6BEB668EB73E00E945F
:1018A000C0467C01009709F428C2FC010190002089
:1018B000E9F78F0101501109081B190B04301105BC
:1018C00008F41BC2F7018081980124503109690195
:1018D0008DB69EB6833209F0ADC144E050E0B70149
:1018E000CE0101960E94DD461D82380135E0631A63
:1018F00071088DB79EB78C199D090FB6F8949EBFDD
:101900000FBE8DBF0DB71EB70F5F1F4FB7016B5FC7
:101910007F4FA301C8010E94C446F801E60DF71DE0
:1019200010826DE172E0CE0101960E94CD46892BB6
:10193000B1F4C8010E947B4661E0892B09F460E0A4
:101940008FE49AE00E94CA15C8010E947B46019765
:1019500009F0CEC18EEF94E00E947E08C9C162E218
:1019600072E0CE0101960E94CD46892BB1F48FE43E
:101970009AE00E94B0136B017C01C8010E94774677
:101980009B01AC01C701B6010E940941AB01BC013A
:101990008FE49AE00E94FA15ABC167E272E0CE01D3
:1019A00001960E94CD46892B51F4C8010E947746CA
:1019B000AB01BC018FE49AE00E94DE1599C16CE294
:1019C00072E0CE0101960E94CD46892B51F4C801E8
:1019D0000E947746AB01BC018FE49AE00E94E615B5
:1019E00087C161E372E0CE0101960E94CD46892B4A
:1019F00061F4C8010E947B4661E0892B09F460E034
:101A00008FE49AE00E942F1769C166E372E0CE016D
:101A100001960E94CD46892BC1F48FE49AE00E9482
:101A2000D0136B017C01C8010E9499460E9471424B
:101A30009B01AC01C701B6010E940941AB01BC0189
:101A40008FE49AE00E94491649C16BE372E0CE012F
:101A500001960E94CD46892B39F4F80160818FE40C
:101A60009AE00E9414163AC160E472E0CE01019639
:101A70000E94CD46892B61F4C8010E947B4661E03B
:101A8000892B09F460E08FE49AE00E94DE1630C1F1
:101A900065E472E0CE0101960E94CD46892B49F49F
:101AA000C8010E947B46BC018FE49AE00E94E316C5
:101AB0001FC16AE472E0CE0101960E94CD46892BD7
:101AC00049F4C8010E947B46BC018FE49AE00E9461
:101AD000D8160EC16FE472E0CE0101960E94CD4689
:101AE000892B49F4C8010E947B46BC018FE49AE02F
:101AF0000E945715FDC064E572E0CE0101960E9478
:101B0000CD46892B49F4C8010E947B46BC018FE475
:101B10009AE00E946915ECC069E572E0CE01019679
:101B20000E94CD46892B49F4C8010E947B46BC0126
:101B30008FE49AE00E947B15DBC06EE572E0CE0177
:101B400001960E94CD46892B39F463E67CE08FE450
:101B50009AE00E942212C2C063E672E0CE010196B2
:101B60000E94CD46892B49F4C8010E947B46BC01E6
:101B70008FE49AE00E944D17BBC068E672E0CE0188
:101B800001960E94CD46892B51F4C8010E949946C6
:101B9000AB01BC018FE49AE00E945B17A9C06DE61F
:101BA00072E0CE0101960E94CD46892B51F4C80106
:101BB0000E949946AB01BC018FE49AE00E946B172A
:101BC00097C062E772E0CE0101960E94CD46892B54
:101BD00051F4C8010E949946AB01BC018FE49AE020
:101BE0000E947B1785C067E772E0CE0101960E94D4
:101BF000CD46892B51F4C8010E949946AB01BC0126
:101C00008FE49AE00E948B1773C06CE772E0CE01FC
:101C100001960E94CD46892B09F060C0C8010E9440
:101C20007B4661E0892B09F460E08FE49AE00E9432
:101C3000B0175EC043E050E0B701CE0101960E94AC
:101C4000DD461C82035011092DB73EB7201B310B16
:101C50000FB6F8943EBF0FBE2DBF0DB71EB70F5F76
:101C60001F4FB7016C5F7F4FA601C8010E94C44699
:101C7000F801EC0DFD1D108261E872E0CE010196C5
:101C80000E94CD46892B49F4C8010E947746AB01DA
:101C9000BC018FE49AE00E949F1665E872E0CE01D5
:101CA00001960E94CD46892B49F4C8010E947746CF
:101CB000AB01BC018FE49AE00E94A51669E872E0CE
:101CC000CE0101960E94CD46892B41F4C8010E94A5
:101CD0007B46BC018FE49AE00E94EF160FB6F894A1
:101CE0009EBE0FBE8DBE68EB73E080E090E0D7CD66
:101CF0008FE49AE00E940913F1CF0FB6F894BEBEAC
:101D00000FBEADBE0F900F900F900F900F90DF9110
:101D1000CF911F910F91FF90EF90DF90CF90BF90E8
:101D2000AF909F908F907F906F900895CF93DF93A7
:101D3000DC01FC0101900020E9F7E81BF90B329768
:101D4000EC01219680E09E012A1B3B0B2E173F07DA
:101D500018F499918927F7CFDF91CF9108951F93B8
:101D6000CF93DF93C0E8D4E014E683E69CE00E94C2
:101D70005D35892B91F183E69CE00E9478352091B6
:101D80007E0430917F04F901E058FB4F80832F5F80
:101D90003F4F30937F0420937E048A3029F08D30AA
:101DA00019F0233631050CF3F901E058FB4F10828E
:101DB0006CE280E894E00E94380C60E874E083E60E
:101DC0009CE00E948D3A10927F0410927E04FE01E6
:101DD000812F11928A95E9F7C8CFDF91CF911F919A
:101DE000089580E09DE00E945D35892BF9F080E048
:101DF0009DE00E947835682F88E695E00E94B8192A
:101E000080937D04882369F385EA98E00E940A267E
:101E1000BC018EE09AE00E943F1C85EA98E00E9497
:101E20000A26BC0183E69CE00C948D3A08958DE966
:101E30009DE00E945D35892B79F18FE49AE00E9444
:101E4000AB17882351F08DE99DE00E947835682F0B
:101E500084EE94E00E946A1DEACF8DE99DE00E9425
:101E60007835682F8DE097E00E94961B80937C0464
:101E70008823E9F28DE097E00E940E1CBC018EE001
:101E80009AE00E943F1C8DE097E00E940E1CBC016E
:101E900083E69CE00C948D3A0895CF938AE39EE00C
:101EA0000E945D35892B41F18AE39EE00E947835DE
:101EB000C82F4AE050E0682F83E69CE00E94883BF0
:101EC0006C2F81E496E00E94961B80937B0488230C
:101ED00029F381E496E00E940E1CBC018EE09AE09A
:101EE0000E943F1C81E496E00E940E1CBC0183E628
:101EF0009CE0CF910C948D3ACF910895CF938AE5D1
:101F000095E00E944B2A892B41F18AE595E00E94D9
:101F1000462AC82F4AE050E0682F83E69CE00E94E2
:101F2000883B6C2F85E795E00E94961B80937A048E
:101F3000882329F385E795E00E940E1CBC018EE002
:101F40009AE00E943F1C85E795E00E940E1CBC01B0
:101F500083E69CE0CF910C948D3ACF9108958091C7
:101F6000230B882309F459C082E095E00E94C3093D
:101F70008091210B9091220B80FD04C08EE695E0AC
:101F80000E94611F8091210B9091220B62E370E00F
:101F90000E94C344892BB1F48EE695E00E94611F34
:101FA0008EE695E00E94F01F8EE09AE00E94411CB0
:101FB00080E795E00E94C70463E67CE08FE49AE046
:101FC0000E94EB138091210B9091220B64E670E04C
:101FD0000E94C344892BF9F46DE872E083E69CE02B
:101FE0000E945E3A0E941B2B4AE050E0BC0183E64F
:101FF0009CE00E944A3B8EEF94E00E947A0780E7C3
:1020000095E00E94240580E795E00E945E058EE041
:102010009AE00E94C11C1092230B0C947E0FCF9269
:10202000DF92EF92FF920F931F938FE49AE00E944A
:10203000B2101092110A1092100A88EE93E0A0E0FC
:10204000B0E08093120A9093130AA093140AB093FD
:10205000150A84EE92E090930F0A80930E0A8FE4A3
:102060009AE090931B0A80931A0A60E070E085EA78
:1020700098E00E94802560E070E089ED97E00E9482
:102080008D1B60E070E08DE097E00E948D1B60E0AA
:1020900070E081E496E00E948D1B60E070E085E7CF
:1020A00095E00E948D1B6FE47AE080E795E00E9446
:1020B0007F046FE47AE08EE695E00E947B1D4FE49A
:1020C0005AE065EA78E088E695E00E94C21741E0B0
:1020D00063E48AE595E00E948C296FE47AE082E06F
:1020E00095E00E949E086FE47AE08EEF94E00E94F3
:1020F00052074FE45AE06DE97DE084EE94E00E94DF
:10210000621D8EE1C82ED12C9FE0E92EF12C0CE04F
:1021100010E022E030E046E052E063E67CE08BE550
:1021200094E00E94DF311F910F91FF90EF90DF90BC
:10213000CF9008958BE594E00E9476318EEF94E085
:102140000E94B20582E095E00E94730988E695E05E
:102150000E94B51780E795E00E9472048EE09AE035
:102160000C94191CFC0110821182128213821482B9
:10217000158216821782108A118A128A138A148A8B
:10218000158A168A178A108E118E128E138E148E4F
:1021900040E050E064EB72E4458F568F678F70A388
:1021A00040E050E064EB72EC41A352A363A374A33C
:1021B00040E050E064E373E445A356A367A370A72F
:1021C00040E050E064E373EC41A752A763A774A713
:1021D00015A683E482AB13AA14AA15AA16AA40E096
:1021E00050E064E072E447AB50AF61AF72AF13AE42
:1021F00040E050E068EC72E444AF55AF66AF77AFB3
:10220000DF01A05CBF4F40E050E060E271E44D931D
:102210005D936D937C93139714964D935D936D939B
:102220007C931397149640E850E060E070E04D9383
:102230005D936D937C931397108611861286138697
:10224000148615861686178614961C9211961D9272
:102250001D921D921C92139714961D921D921D9211
:102260001C921397149686E58C9311961D921D92DD
:102270001D921C92139714961D921D921D921C92F2
:10228000139714961D921D921D921C9213971496EB
:102290001D921D921D921C92139714961C921196DA
:1022A0001C9211961C9211961C92A55ABF4F21E0C8
:1022B00034E011963C932E9312968FEF9FEF119678
:1022C0009C938E93AC55B1091C92A25ABF4F1196A4
:1022D0003C932E93129611969C938E93AF55B10911
:1022E0001C92AF59BF4F11963C932E9312961196A4
:1022F0009C938E93A256B1091D921D921D921C9221
:10230000139714961D921D921D921C92139714966A
:1023100011961C921E92129611961C921E92129663
:1023200011961C921E9212961C9211961D921D924D
:102330001D921C92139714961D921D921D921C9231
:102340001397149640E050E060E272E44D935D9381
:102350006D937C93139714961C9211961C92119670
:1023600011961C921E92129611961C921E9216960F
:1023700040E050E060E87FE34D935D936D937C9384
:10238000139714961C92119640EE53E964E070E0A6
:102390004D935D936D937C93139714961C921196B5
:1023A0001C92119683E690E011969C938E93129660
:1023B0001C92119640E050E46CE176E44D935D93FD
:1023C0006D937C931397149611961C921E921296FD
:1023D00081E090E011969C938E93129640E056E92E
:1023E00060E070E04D935D936D937C93139714962A
:1023F0004D935D936D937C931397149640E855E24B
:1024000060E070E04D935D936D937C931397149609
:102410004D935D936D937C93139714964D935D93B9
:102420006D937C93139718964D935D936D937C9366
:10243000139714961C92E053FF4F8DE090E0918328
:10244000808308950F931F93CF93DF938C01EB014B
:102450006DE874E0CE010E94393A6FE774E0CE0176
:102460000E94393A69E774E0CE010E94393AF801D6
:10247000ED55FF4F608171814AE050E0CE010E942E
:10248000423B63E774E0CE010E94393AF801EB5514
:10249000FF4F608171814AE050E0CE010E94423BD3
:1024A0006DE674E0CE010E94393AF801E955FF4F1C
:1024B00040815181628173812AE030E0CE010E9427
:1024C000F83A67E674E0CE010E94393AF801E55522
:1024D000FF4F40815181628173812AE030E0CE015B
:1024E0000E94F83A61E674E0CE010E94393AF801A0
:1024F000E155FF4F40815181628173812AE030E0D4
:10250000CE010E94F83A6BE574E0CE010E94393AA0
:10251000F801ED54FF4F40815181628173812AE0BF
:1025200030E0CE010E94F83A65E574E0CE010E94E9
:10253000393AF801ED53FF4F608170E04AE050E016
:10254000CE010E94423B6FE474E0CE010E94393A12
:10255000F801EC53FF4F608171814AE050E0CE01F9
:102560000E94423B69E474E0CE010E94393AF801CE
:10257000EA53FF4F608171814AE050E0CE010E9432
:10258000423B63E474E0CE010E94393AF801E8531B
:10259000FF4F608171814AE050E0CE010E94423BD2
:1025A0006DE374E0CE010E94393AF801E653FF4F23
:1025B000608171814AE050E0CE010E94423B67E3B6
:1025C00074E0CE010E94393AF801E453FF4F608174
:1025D00071814AE050E0CE010E94423B61E374E029
:1025E000CE010E94393AF801E253FF4F60817181B8
:1025F0004AE050E0CE010E94423B6FE274E0CE011F
:102600000E947B3A80E090E0DF91CF911F910F9183
:1026100008950F931F93CF93DF93EC01FC01E053D8
:10262000FF4F408160E070E081EA9BE00E9403334D
:10263000FE01EF52FF4F408161E070E081EA9BE0D4
:102640000E940333C558DF4F64E070E049918B016D
:102650000F5F1F4F81EA9BE00E940333093511058C
:1026600011F0B801F3CFDF91CF911F910F91089531
:10267000EF92FF920F931F93CF93DF931F921F92BE
:10268000CDB7DEB78C0160E070E081EA9BE00E948C
:102690000033898361E070E081EA9BE00E940033AF
:1026A0008A83F801E053FF4F29813A81808191812B
:1026B0002817390719F0C8010E94091305581F4F40
:1026C00064E070E07B018FEFE81AF80A81EA9BE092
:1026D0000E940033F80181938F01F9E5EF16F104B0
:1026E00011F0B701EFCF0F900F90DF91CF911F91B5
:1026F0000F91FF90EF900895FC01608171818281BC
:1027000093810895FC016481758186819781089584
:10271000FC0164897589868997890895FC0165A102
:1027200076A187A190A5089585589F4FFC016081EF
:10273000718182819381089581589F4FFC0160814E
:102740007181828193810895FC01608D718D828DEC
:10275000938D0895FC01658D768D878D90A10895E8
:102760008D579F4FFC016081718182819381089513
:10277000FC0160897189828993890895FC0161A1B6
:1027800072A183A194A10895FC0161A572A583A5FE
:1027900094A50895FC0167A970AD81AD92AD08952F
:1027A000FC0163A974A985A996A90895FC0122A931
:1027B000273559F4EA58FF4F60817181882777FDEA
:1027C0008095982F0E9471420895FC016085718563
:1027D000828593850895EF92FF920F931F93CF9375
:1027E000DF938C01EB016AEE74E0CE010E94393A6E
:1027F0006CED74E0CE010E94393AF80165A570E0F5
:102800004AE050E0CE010E94423B66ED74E0CE010A
:102810000E94393AF80162A9CE010E94603AF8019B
:1028200085A58823A9F160ED74E0CE010E94393AB4
:10283000F80143A954A965A976A922E030E0CE01A8
:102840000E948A3C6AEC74E0CE010E94393AC801C9
:102850000E94D613AB01BC0122E030E0CE010E9401
:102860008A3C64EC74E0CE010E94393A20E030E00A
:1028700044E052E4F80167A970AD81AD92AD0E94C9
:102880000841AB01BC0122E030E0CE010E948A3C4D
:102890006EEB74E0CE010E94393A7801F7E8EF0E52
:1028A000F11CF701608170E04AE050E0CE010E9427
:1028B000423B68EB74E0CE010E94393AF801ED57D3
:1028C000FF4F408151816281738122E030E0CE016F
:1028D0000E948A3CF7018081882389F162EB74E0D1
:1028E000CE010E94393AF801E558FF4F40815181ED
:1028F0006281738122E030E0CE010E948A3C6CEA62
:1029000074E0CE010E94393AF801E158FF4F40814E
:1029100051816281738122E030E0CE010E948A3CC5
:1029200066EA74E0CE010E94393AF801448955897B
:102930006689778922E030E0CE010E948A3C60EA15
:1029400074E0CE010E94393AF801E256FF4F6081EF
:1029500070E04AE050E0CE010E94423B6AE974E038
:10296000CE010E94393AF801E456FF4F608171812F
:102970004AE050E0CE010E94423B68E974E0CE019B
:102980000E947B3A80E090E0DF91CF911F910F9100
:10299000FF90EF900895CF92DF92EF92FF92CF9346
:1029A000DF93EC010E94D6139B01AC016BA97CA9BB
:1029B0008DA99EA90E9408416B017C0120E030E0B6
:1029C00044E353E40E94D24318167CF020E030E048
:1029D00044E353ECC701B6010E94CF4187FF0AC010
:1029E00020E030E044EB53E408C020E030E044EB6A
:1029F00053EC03C020E030E0A901C701B6010E94FA
:102A000009416EA77FA788AB99ABDF91CF91FF906B
:102A1000EF90DF90CF90089587579F4FFC01808102
:102A20009181089585579F4FFC0180819181089580
:102A300083579F4FFC01608171818281938108954A
:102A4000835B9F4FFC016081718182819381089536
:102A50008A5A9F4FFC016081718182819381089520
:102A6000865A9F4FFC016081718182819381089514
:102A70008F569F4FFC0160817181828193810895FF
:102A80008B5A9F4FFC0180810895FC016085718500
:102A9000828593850895FC01648575858685978573
:102AA00008958C539F4FFC018081918108958C5330
:102AB0009F4FFC017183608308958A539F4FFC01EF
:102AC00080819181089588539F4FFC01808191817D
:102AD000089588539F4FFC01718360830895865346
:102AE0009F4FFC0180819181089584539F4FFC0189
:102AF00080819181089584539F4FFC01718360838D
:102B0000089582539F4FFC018081918108958D55D6
:102B10009F4FFC0180819181089584569F4FFC0155
:102B20008081918108958A589F4FFC018081918115
:102B3000089580599F4FFC0160817181828193814A
:102B4000089581569F4FFC0160817181828193813C
:102B500008958C589F4FFC01808191810895895779
:102B60009F4FFC0180810895845B9F4FFC01808111
:102B7000089582569F4FFC0180810895FC01408397
:102B80005183628373830895FC0144835583668374
:102B90007783089589579F4FFC0160830895FC0156
:102BA000648F0895FC01448B558B668B778B089559
:102BB000FC0145A356A367A370A7089585589F4FAE
:102BC000FC014083518362837383089581589F4F32
:102BD000FC0140835183628373830895FC01408F1D
:102BE000518F628F738F0895FC01458F568F678FC9
:102BF00070A308958D579F4FFC01408351836283DA
:102C000073830895FC01408B518B628B738B089505
:102C1000FC0141A352A363A374A30895FC0141A73F
:102C200052A763A774A70895CF93DF93EC0167358C
:102C300011F0633429F56AAB673581F4FE01EA5877
:102C4000FF4F60817181882777FD8095982F0E94C2
:102C500071426BAB7CAB8DAB9EAB0AC0633441F46D
:102C6000488559856A857B854BAB5CAB6DAB7EAB8C
:102C700040E050E064E072E44FAB58AF69AF7AAF28
:102C8000DF91CF910895FC0147AB50AF61AF72AFB8
:102C90000895CF93DF93EC01CB01BA010E943E422D
:102CA000CB0188599E4F68E671E00E94C344BC0185
:102CB000882777FD8095982F0E9471426BAB7CAB83
:102CC0008DAB9EABDF91CF9108958E599F4FFC0144
:102CD00040835183628373830895845B9F4FFC011B
:102CE00060830895835B9F4FFC014083518362831F
:102CF000738308958A5A9F4FFC01408351836283F6
:102D000073830895865A9F4FFC01408351836283E9
:102D100073830895825A9F4FFC01408351836283DD
:102D2000738308958B5A9F4FFC01608308958F5AD7
:102D30009F4FFC0140835183628373830895FC019C
:102D400040875187628773870895FC0144875587C0
:102D5000668777870895CF93DF931F92CDB7DEB74D
:102D60006983298187599F4FFC0120830F90DF9150
:102D7000CF910895CF93DF931F92CDB7DEB76983CC
:102D8000298186599F4FFC0120830F90DF91CF91BD
:102D90000895CF93DF931F92CDB7DEB76983298162
:102DA00085599F4FFC0120830F90DF91CF910895AB
:102DB0008D559F4FFC0171836083089582569F4F0C
:102DC000FC016083089584569F4FFC0171836083EA
:102DD00008958A589F4FFC01718360830895885835
:102DE0009F4FFC0171836083089580599F4FFC01C0
:102DF0004083518362837383089584599F4FFC01FC
:102E000040835183628373830895FC01E658FF4F2A
:102E100020812223F9F0739720812223D9F0319762
:102E200020812223B9F0FC01248D222399F023ADC7
:102E3000222381F0E859FF4F2081222359F0319657
:102E40002081222339F031962081222319F03196F6
:102E50008081089580E00895FC0185A508951F9361
:102E6000CF93DF93EC01162F6AA90E9414161DA7B9
:102E7000DF91CF911F9108958C589F4FFC01718372
:102E80006083089586589F4FFC01608308958B5599
:102E90009F4FFC018081918108958B559F4FFC01CC
:102EA00071836083089589559F4FFC016081718112
:102EB00082819381089589559F4FFC0140835183FE
:102EC00062837383089585559F4FFC0160817181F2
:102ED00082819381089585559F4FFC0140835183E2
:102EE00062837383089581559F4FFC0160817181D6
:102EF00082819381089581559F4FFC0140835183C6
:102F00006283738308958D549F4FFC0160817181AA
:102F10008281938108958D549F4FFC01408351839A
:102F200062837383089589549F4FFC01608171818E
:102F300082819381089585549F4FFC016081718146
:102F400082819381089581549F4FFC01608171813A
:102F50008281938108958D539F4FFC018081089554
:102F60008D539F4FFC01608308952CED32E0FC01EE
:102F70003183208308952CED32E0FC0131832083DE
:102F80000C94953EFC018CED92E0918380835583F7
:102F90004483738362830895CF92DF92EF92FF920E
:102FA0001F93CF93DF93162F60E0812F0E94134071
:102FB00061E0812F0E944C40C0E0D4E080E1C82E47
:102FC00087E2D82EE12CF12C28E438EE41E050E0E5
:102FD00060E0812F0E948240161617061806190617
:102FE0003CF46C157D058E059F0514F46B017C0186
:102FF000219751F766E976E083E69CE00E94393A32
:103000002AE030E0B701A60183E69CE00E94623B23
:103010008CE0C816D104E104F104F4F184E1C8168F
:10302000D104E104F104ECF18EE1C816D104E1040D
:10303000F104E4F188E2C816D104E104F104DCF102
:103040008CE3C816D104E104F104D4F180E5C8167C
:10305000D104E104F104CCF186E9C816D104E104FD
:10306000F104C4F18CE2C81681E0D806E104F10451
:10307000B4F188E5C81682E0D806E104F104A4F1B1
:1030800080EBC81684E0D806E104F10494F560EB07
:1030900074E080E090E030C060E072EC81E090E0AD
:1030A0002BC060E071EE80E090E026C060E076E941
:1030B00080E090E021C060E870E780E090E01CC014
:1030C00060E07BE480E090E017C060E478E380E0BB
:1030D00090E012C060E875E280E090E00DC060EC26
:1030E00072E180E090E008C060E679E080E090E086
:1030F00003C060E070E0CB01DF91CF911F91FF90A2
:10310000EF90DF90CF900895CF92DF92EF92FF92F1
:103110007C0162E876E083E69CE00E94393A63E154
:1031200070E0C7010E94CC176B017C0116161706D0
:1031300018061906C4F46BE776E083E69CE00E946B
:10314000393A2AE030E0B701A60183E69CE00E940C
:10315000623B26E0B701A60180E09DE00E94C936EF
:10316000B601C70119C064E776E083E69CE00E94DF
:10317000393A6FE576E083E69CE00E947B3A26E0F0
:1031800040EC52E160E070E080E09DE00E94C936D2
:1031900060EC72E180E090E0FF90EF90DF90CF90E4
:1031A00008954F925F926F927F928F929F92AF920B
:1031B000BF92CF92DF92EF92FF920F931F93CF9324
:1031C000DF93CDB7DEB760970FB6F894DEBF0FBEC2
:1031D000CDBF69837A838B839C83CA01B9012701A0
:1031E0003801A60195010E94084125E33AEF4EE817
:1031F0005CE30E94DD436B017C010E9440446D87CB
:103200007E878F87988BC701B6010E94D3416D835B
:103210007E838F83988725E33AEF4EE85CE36981EC
:103220007A818B819C810E94DD436B017C0125E3C7
:103230003AEF4EE85CE3C301B2010E94DD432B018B
:103240003C01C701B6010E9440444B015C01C7012B
:10325000B6010E94D34169837A838B839C83C30127
:10326000B2010E94404469877A878B879C87C3019B
:10327000B2010E94D3416B017C0129853A854B85BF
:103280005C8569817A818B819C810E94DD432B0161
:103290003C01A7019601C501B4010E94DD432D81C7
:1032A0003E814F8158850E94DD439B01AC01C301E3
:1032B000B2010E9408419B01AC010E94DD432B0139
:1032C0003C012D853E854F855889C701B6010E9476
:1032D000DD439B01AC010E94DD439B01AC01C301B6
:1032E000B2010E9409410E944A442B013C012985F8
:1032F0003A854B855C85C501B4010E94DD434B01D5
:103300005C01A701960169817A818B819C810E9471
:10331000DD432D813E814F8158850E94DD439B0115
:10332000AC01C501B4010E9409419B01AC01C3017C
:10333000B2010E947C4126E73BE742EC5AE40E943E
:10334000DD4360960FB6F894DEBF0FBECDBFDF91B0
:10335000CF911F910F91FF90EF90DF90CF90BF9092
:10336000AF909F908F907F906F905F904F90089557
:10337000CF93DF93EC018A819B810E94A92661E0B3
:10338000892B09F460E08C819D810E946D168C81EF
:103390009D810E94B415882369F18A819B810E94D6
:1033A000E125682F8C819D810E9492168A819B81E4
:1033B0000E94E1258134F1F460E070E08A819B8114
:1033C0000E940C26FC0182818235A1F060E070E051
:1033D0008A819B810E940C26FC0183818D3451F0EF
:1033E00060E070E08A819B810E940C26FC01848150
:1033F000833431F48C819D81DF91CF910C94B4158D
:103400000E94E13EAB01BC018C819D810E9472163D
:103410008A819B810E940426AB01BC018C819D8125
:103420000E9465168A819B810E94E425AB01BC0144
:103430008C819D810E947A168A819B810E94EA2557
:10344000AB01BC018C819D810E9482168C819D8183
:103450000E943815AB01BC018A819B810E94F02536
:10346000AB01BC018C819D810E948A168A819B815F
:103470000E94DB25AB01BC018C819D810E949716C7
:10348000B9CFDF92EF92FF920F931F93CF93DF9309
:10349000CDB7DEB7A8970FB6F894DEBF0FBECDBF8D
:1034A0008C0169E476E083E69CE00E947B3AF801B7
:1034B000848195810E944717892B31F462E376E07D
:1034C00083E69CE00E947B3AF801848195810E940A
:1034D0004717019709F07FC06BE176E083E69CE037
:1034E0000E947B3A6DE076E080E09DE00E947B3AAE
:1034F00065EF75E080E09DE00E947B3A6DED75E040
:1035000080E09DE00E947B3A65EC75E080E09DE004
:103510000E947B3A6DEA75E080E09DE00E947B3A74
:1035200065E975E080E09DE00E947B3A6DE775E01B
:1035300080E09DE00E947B3A6FE675E080E09DE0D0
:103540000E947B3A1AA219A28EEA93E098A38F8F69
:10355000CE0101967C019CA38BA38EE190E098A7FD
:103560008FA3CE014F960E94C42163E675E0CE0181
:103570004F960E94393AF801848195810E94631721
:10358000AB01BC012AE030E0CE014F960E94F83A30
:103590006BE575E0CE014F960E94393AC7010E9453
:1035A000960ED82EFFE0F81728F060E3CE014F9674
:1035B0000E94603A40E150E06D2DCE014F960E948E
:1035C000813BB70180E09DE00E948D3AB70183E620
:1035D0009CE00E948D3AF801848195810E944717F2
:1035E000029709F055C062E475E083E69CE00E9412
:1035F0007B3A61E375E080E09DE00E947B3A6FEFEB
:1036000074E080E09DE00E947B3A1AA219A28EEA43
:1036100093E098A38F8FCE0101967C019CA38BA38E
:103620008EE190E098A78FA3CE014F960E94C4210F
:1036300065EF74E0CE014F960E94393AF80184811B
:1036400095810E946317AB01BC012AE030E0CE01F6
:103650004F960E94F83A66ED72E0CE014F960E94B6
:103660005E3AC7010E94960E182F803128F460E35D
:10367000CE014F960E94603A40E150E0612FCE01AA
:103680004F960E94813BB70180E09DE00E948D3AF9
:10369000A8960FB6F894DEBF0FBECDBFDF91CF91D5
:1036A0001F910F91FF90EF90DF9008951092270BDC
:1036B0001092260B8EEA93E09093250B8093240BB7
:1036C0008EE29BE09093290B8093280B88E290E098
:1036D00090932D0B80932C0B84E29BE00C94C421DF
:1036E000CF93DF93EC010E948418CE010E94411A0F
:1036F00080E09DE00E94EA3580E09DE00E942B374B
:103700008C819D810E946317AB01BC0126E080E0A3
:103710009DE0DF91CF910C94C936FC01E853FF4F37
:103720001182108232961182108208950F931F9396
:10373000CF93DF93DC01A853BF4F4D915C9111975C
:10374000FC01E653FF4F4236510514F011821082FE
:103750006A3011F06D3011F411821082643261F41C
:1037600024E6EC0119922A95E9F7EC01688381E0DF
:1037700090E08D939C9345C02081318121303105AB
:10378000E9F02CF42115310509F442C03DC0223086
:10379000310561F123303105B9F5FC01E40FF51F66
:1037A00060834E5F5F4F4D935C931182BC018C59D7
:1037B0009F4F0E94D64621E030E02AC08A010F5F69
:1037C0001F4F11961C930E939C01240F351FE90186
:1037D00068834E5F5F4FE801C80FD91F4D935C931C
:1037E00068836A3299F482E090E00BC09A012F5FFF
:1037F0003F4F2D933C93DC01A40FB51F6C9383E0E6
:1038000090E09183808302C01182108220E030E03A
:10381000C901DF91CF911F910F9108958C599F4F4E
:103820000895862F0E948D3381E090E008950C94D6
:10383000503428ED33E0FC01318320830C9449356A
:10384000CF93DF93EC0188ED93E0998388830E9406
:103850004935CE01DF91CF910C94953E9A01AB0191
:10386000CA01B90196958795779567957C5D8B40E0
:103870009F4F0E94D744CA01B9010C943B330C946A
:103880008D3ACF92DF92EF92FF920F931F93CF93D7
:10389000DF93CDB7DEB72A970FB6F894DEBF0FBE21
:1038A000CDBF8C017C018EE0E80EF11C1C821B82D6
:1038B0008EEA93E09A838983FE82ED828EE190E026
:1038C0009A878987CE0101960E94C42167EC76E031
:1038D000CE0101960E94393AF801848595850E94AF
:1038E00093154AE050E0BC01CE0101960E94423B94
:1038F00061EC76E0CE0101960E94393AF8018485A8
:1039000095850E949915AB01BC0122E030E0CE0103
:1039100001960E948A3C6BEB76E0CE0101960E94F4
:10392000393AC7010E94960E6801F0E4CF0ED11C0F
:10393000F6018083803128F460E3CE0101960E9475
:10394000603A40E150E0F6016081CE0101960E94AC
:10395000813BB70183E69CE00E948D3AB701C80124
:103960000E948D3A2A960FB6F894DEBF0FBECDBFE7
:10397000DF91CF911F910F91FF90EF90DF90CF904B
:103980000895AF92BF92CF92DF92EF92FF920F9382
:103990001F93CF93DF93CDB7DEB72A970FB6F89476
:1039A000DEBF0FBECDBF8C01FC01848595850E94D2
:1039B0004B1520E030E0A9010E94CF41882309F493
:1039C00070C05801FCE2AF0EB11C1C821B828EEA53
:1039D00093E09A838983BE82AD8284E190E09A87E6
:1039E0008987CE0101960E94C42163EB76E0CE0167
:1039F00001960E94393AF801848595850E94451503
:103A00006B017C01F801848595850E944B159B0113
:103A1000AC01C701B6010E940841AB01BC0122E024
:103A200030E0CE0101960E948A3C6FEA76E0CE013A
:103A300001960E94393A7801F0E4EF0EF11CF7018B
:103A4000108281E090E0F50101900020E9F7EA1989
:103A5000FB0932978E179F0750F4F801E80FF91F02
:103A600024A5F7013081232720830196ECCFF701AD
:103A70008081803128F460E3CE0101960E94603A93
:103A800040E150E0F7016081CE0101960E94813B48
:103A9000B50183E69CE00E948D3AB501C8010E9401
:103AA0008D3A2A960FB6F894DEBF0FBECDBFDF91D8
:103AB000CF911F910F91FF90EF90DF90CF90BF902B
:103AC000AF900895FC01578B468B718F608F1182E8
:103AD00010820895FC01A081B181A80FB91F129630
:103AE0006C938081918143972CF480819181019620
:103AF000918380830895CF93DF93EB01FC01718361
:103B000060830E94ED3E6093880B7093890B8093D5
:103B10008A0B90938B0B4091880B5091890B60918D
:103B20008A0B70918B0B4093840B5093850B6093A1
:103B3000860B7093870B1092700B1092710B109282
:103B4000720B1092730B81E080936F0B1092590BE4
:103B500010925A0B8091560B9091570B20E03091A8
:103B6000580B231760F4FC0134E0239FE00DF11D96
:103B7000112410821182128213822F5FF0CFCE01A6
:103B80000E948D15843691053CF063E670E0CE010D
:103B9000DF91CF910C94E316DF91CF910895CF92EE
:103BA000DF92EF92FF920F931F93CF93CB01BA0155
:103BB00097FF09C090958095709561957F4F8F4FC5
:103BC0009F4FC0E001C0C1E0683621E07207810567
:103BD000910534F028E631E040E050E00E94F944DD
:103BE000653B71058105910534F0645B71098109BC
:103BF000910921E0C2276B3571058105910564F0BB
:103C000004EB10E020E030E068017901C61AD70A21
:103C1000E80AF90AC701B601660F771FFB01EC50ED
:103C2000FD4F60817181CC2319F080E090E00CC0E1
:103C3000CB01A0E0B0E09C01AD0166277727CB0166
:103C4000621B730B840B950BCF911F910F91FF900B
:103C5000EF90DF90CF900895465A5F4F6F4F7F4FA0
:103C60000C94CF1D4F925F926F927F928F929F9292
:103C7000AF92BF92CF92DF92EF92FF920F931F937A
:103C8000CF93DF938C016090590BC091560BD0916C
:103C9000570B712CC12CD12C7601812C912C540105
:103CA0007614C1F0488159816A817B81C8010E94E4
:103CB0002C1E860E971EA81EB91E49915991699116
:103CC0007991C8010E94CF1DC60ED71EE81EF91EAD
:103CD0007394E6CF81149104A104B10429F4C114B2
:103CE000D104E104F104A1F1662D70E080E090E0E0
:103CF0000E9471422B013C01C501B4010E94714236
:103D000020E830E040E857E30E94DD43A301920140
:103D10000E94D6414B015C01C701B6010E9471426D
:103D200020E830E040E857E30E94DD43A301920120
:103D30000E94D641A50194010E947C4121EE3EE201
:103D400045E652E40E94DD430E943E42CB0102C0A0
:103D500080E090E0DF91CF911F910F91FF90EF9065
:103D6000DF90CF90BF90AF909F908F907F906F909B
:103D70005F904F9008950F931F930E94E13E009132
:103D8000900B1091910B2091920B3091930B601B33
:103D9000710B820B930B603171058105910550F118
:103DA00080916F0B8823E1F08091880B9091890BB3
:103DB000A0918A0BB0918B0B8093840B9093850B11
:103DC000A093860BB093870B0E94ED3E6093880B07
:103DD0007093890B80938A0B90938B0B10926F0BCF
:103DE0000E94E13E6093900B7093910B8093920B35
:103DF0009093930B1F910F9108950F931F930E941F
:103E0000E13E00918C0B10918D0B20918E0B309127
:103E10008F0B601B710B820B930B60317105810559
:103E2000910508F44BC080916F0B81113DC08091CA
:103E3000780B9091790BA0917A0BB0917B0B8093CA
:103E4000740B9093750BA093760BB093770B0E9435
:103E5000ED3E6093780B7093790B80937A0B90937F
:103E60007B0B8091840B9091850BA091860BB09178
:103E7000870B8093800B9093810BA093820BB09360
:103E8000830B8091880B9091890BA0918A0BB09144
:103E90008B0B80937C0B90937D0BA0937E0BB09348
:103EA0007F0B81E080936F0B0E94E13E60938C0B4F
:103EB00070938D0B80938E0B90938F0B1F910F91AE
:103EC0000895CF92DF92EF92FF92F8948091800B49
:103ED0009091810BA091820BB091830BC0907C0BD1
:103EE000D0907D0BE0907E0BF0907F0B4091740B97
:103EF0005091750B6091760B7091770B78948C15BF
:103F00009D05AE05BF0508F066C0C81AD90AEA0AC1
:103F1000FB0A28E9C2162AE3D206E104F10408F4F8
:103F20005AC0C092700BD092710BE092720BF0925B
:103F3000730B9A01AB01281B390B4A0B5B0B233324
:103F400031054105510508F446C02C153D054E05C7
:103F50005F0508F040C0A8E6B1E00E941E45A70139
:103F600096010E94D744283681E038074105510563
:103F700090F580915A0B8F5F80935A0B9091590B5B
:103F80006091580BE091560BF091570B9617B0F4D7
:103F900081E0890F8093590B84E0989FE00DF11D1B
:103FA0001124208331834283538380915A0B609183
:103FB000590B0E94B74490935A0B0DC00E94B7440E
:103FC00090935A0B84E0989FE00DF11D11242083FB
:103FD000318342835383FF90EF90DF90CF90089519
:103FE0004F925F926F927F928F929F92AF92BF9209
:103FF000CF92DF92EF92FF92CF93DF93EC010E947A
:10400000E13EC090900BD090910BE090920BF0901D
:10401000930B6C157D058E059F0550F40E94E13EC3
:104020006093900B7093910B8093920B9093930BF2
:104030000E94E13EC0908C0BD0908D0BE0908E0BD7
:10404000F0908F0B6C157D058E059F0550F40E9436
:10405000E13E60938C0B70938D0B80938E0B90934D
:104060008F0B0E94E13EAB01BC01888199810E94C7
:10407000FD160E94E13EC090900BD090910BE09015
:10408000920BF090930B6C197D098E099F09A88003
:10409000B980693B7B4081059105A0F040E050E08C
:1040A000BA01C501DF91CF91FF90EF90DF90CF90E3
:1040B000BF90AF909F908F907F906F905F904F9048
:1040C0000C94F5162091700B3091710B4091720B8E
:1040D0005091730B211531054105510509F4B4C008
:1040E00060E071EE85EF95E00E94D74469017A01A6
:1040F000233481E0380741055105F4F5AAE0B0E02A
:104100000E941E452B013C01C5010E94A1154B01D7
:104110005C01A3019201C301B2010E94A74427E9F7
:104120003FEF4FEF5FEF0E94F94429013A01A701E9
:10413000960168E273EE83E090E00E94A74424E6D3
:1041400030E040E050E00E94F944420E531E641EED
:10415000751E24EE421A2FE2520A61087108C3014B
:10416000B2010E947142A50194010E94D64120E053
:1041700030E040E251E460C02C3385E1380741056E
:10418000510554F5C5010E94A1152B013C01A70161
:104190009601C701B6010E94A7442EEA38E040E02C
:1041A00050E00E94F94449015A01ABE9BAE4A70181
:1041B00096010E941E4524E630E040E050E00E9457
:1041C000F944820E931EA41EB51E26EA820E25E235
:1041D000921EA11CB11C2AC0C5010E94A1152B0171
:1041E0003C01A7019601C701B6010E94A74422E144
:1041F00034E040E050E00E94F944A4E6B0E00E94C0
:104200001E454B015C01A701960164EB70E281E859
:104210009FEF0E94A744860E971EA81EB91E84E435
:10422000880E8DEB981E8BE2A81EB11CC501B4014F
:104230000E947142A30192010E94D641AB01BC01D0
:10424000888199810E94F516888199810E9499152B
:104250006B017C01888199810E94A915BC01882786
:1042600077FD8095982F0E9471429B01AC01C70198
:10427000B6010E94D243181654F4888199810E9495
:1042800099150E943E42888199810E943C17CE0177
:104290000E94321E7C01888199810E948715B70196
:1042A000680F791F77FF02C068597E4F8881998116
:1042B000DF91CF91FF90EF90DF90CF90BF90AF90C4
:1042C0009F908F907F906F905F904F900C94E91625
:1042D0008BE59BE09093570B8093560B85E0809382
:1042E000580B1092590B10925A0B089561E085E318
:1042F0000E944C4061E085E30E9413408CB58061D0
:104300008CBD8CB580648CBD61E084E30E94134059
:1043100061E083E30C941340811103C08CB580628B
:1043200002C08CB58F7D8CBD08959CB5937F982B72
:104330009CBD08952CB5982F93702C7F922B9CBD1B
:104340009DB582FB882780F99E7F982B9DBD08959F
:10435000FC01A681B7819D012F5F3F4F848195812C
:1043600040855185840F951F2817390750F43783EE
:1043700026836C930680F781E02D108281E090E027
:10438000089580E090E00895FC01A481B581B78391
:10439000A68380859185892B09F01C920895089544
:1043A0002F923F924F925F926F927F928F929F9245
:1043B000AF92BF92CF92DF92EF92FF920F931F9333
:1043C000CF93DF93CDB7DEB72A970FB6F894DEBF51
:1043D0000FBECDBF9A878987DC01D6968C91882342
:1043E00009F4E5C00E94E13E69837A838B839C8354
:1043F000E985FA8580A191A129813A81281B390B91
:1044000084A595A5281739070CF4D1C0028CF38D2B
:10441000E02D80809180A280B380A985BA855E96C8
:10442000ED91FC915F97A50194016081718182817A
:1044300093810E9408412B013C01E985FA8520897E
:104440003189428953890E94DD43A985BA859496B2
:104450002D913D914D915C9197970E9409416B017F
:104460007C01E985FA8564A375A386A397A312A9A5
:1044700003A934A825A8212F302F432D522D0E94A7
:10448000D24318162CF4812F902FA32DB22D18C0D3
:10449000A985BA859E968D919D910D90BC91A02D78
:1044A0008D839E83AF83B8879C01AD01C701B601A0
:1044B0000E94CF4187FF0AC08D819E81AF81B88560
:1044C000E985FA8584A395A3A6A3B7A3A985BA8590
:1044D0001C962D913D914D915C911F97C301B201A6
:1044E0000E94DD43E985FA8524A135A146A157A1A3
:1044F0000E9409416B017C01A985BA8598962D918E
:104500003D914D915C919B97C501B4010E9408417A
:10451000E985FA8524893589468957890E94DD43D2
:104520009B01AC01C701B6010E9408416B017C01EF
:10453000212F302F432D522D0E94D2431816DCF02C
:10454000A985BA859E961C919E979F960C919F97E0
:10455000D0963C90D097D1962C90212F302F432D80
:10456000522DB601C7010E94CF4187FD04C01C2D0A
:104570000D2D3E2C2F2CA985BA855C96ED91FC91D2
:104580005D97812F902FA32DB22D80839183A283DD
:10459000B383E985FA8580A691A6A2A6B3A68981F0
:1045A0009A81AB81BC8180A391A3A2A3B3A32A96D5
:1045B0000FB6F894DEBF0FBECDBFDF91CF911F9134
:1045C0000F91FF90EF90DF90CF90BF90AF909F90B2
:1045D0008F907F906F905F904F903F902F900895B5
:1045E0002F923F924F925F926F927F928F929F9203
:1045F000AF92BF92CF92DF92EF92FF920F931F93F1
:10460000CF93DF9300D01F92CDB7DEB71C012A01F4
:104610003B014801590120E030E0A901C301B2018A
:104620000E94CF4187FD7AC020E030E0A901C5019A
:10463000B4010E94CF4187FD71C020E030E0A901A4
:10464000C701B6010E94CF4187FD68C0F1014082D9
:1046500051826282738284829582A682B782C086EA
:10466000D186E286F38664A575A5882777FD8095B7
:10467000982F0E94714220E030E04AE754E40E9403
:10468000D64169837A838B839C83F1014486558666
:10469000668677869B01AC01C501B4010E94DD43AB
:1046A0004B015C01F101608B718B828B938B2981B3
:1046B0003A814B815C81C701B6010E94D6416B01F2
:1046C0007C01F101648B758B868B978B808D918D2E
:1046D000019721F5A301920160E070E0CB010E94F7
:1046E0000841F1016487758786879787A501940142
:1046F00060E070E0CB010E940841F101608B718B9A
:10470000828B938BA701960160E070E0CB010E9441
:104710000841F101648B758B868B978B0F900F90FE
:104720000F900F90DF91CF911F910F91FF90EF901D
:10473000DF90CF90BF90AF909F908F907F906F90C1
:104740005F904F903F902F900895CF92DF92EF921D
:10475000FF920F931F93CF93DF93EC018B011616FB
:10476000170694F5882777FD8095982F0E9471424F
:104770006B017C016CA57DA5882777FD8095982F1E
:104780000E9471429B01AC01C701B6010E94D64153
:104790006B017C019B01AC01688979898A899B89BD
:1047A0000E94DD43688B798B8A8B9B8BA7019601D6
:1047B0006C897D898E899F890E94D6416C8B7D8B07
:1047C0008E8B9F8B1DA70CA7DF91CF911F910F910F
:1047D000FF90EF90DF90CF9008952F923F924F92ED
:1047E0005F926F927F928F929F92AF92BF92CF9281
:1047F000DF92EF92FF920F931F93CF93DF93EC0121
:104800006A017B0148015901A9019801C701B6015C
:104810000E94D24387FF4EC0CEA6DFA6E8AAF9AA1F
:104820008AAA9BAAACAABDAA8EA9882309F442C071
:104830002C8C3D8CF1014080518062807380A501F9
:104840009401C301B2010E94D243181634F4F1015D
:1048500080829182A282B3820DC0A7019601C3011A
:10486000B2010E94CF4187FF05C0F101C082D18211
:10487000E282F3828CA09DA0AEA0BFA0CAA8DBA854
:10488000ECA8FDA8A7019601C501B4010E94D2437E
:10489000181664F0CEA4DFA4E8A8F9A8A701960131
:1048A000C501B4010E94CF4187FF04C0CCA2DDA2A4
:1048B000EEA2FFA2DF91CF911F910F91FF90EF9099
:1048C000DF90CF90BF90AF909F908F907F906F9030
:1048D0005F904F903F902F9008958F929F92AF924C
:1048E000BF92CF92DF92EF92FF92CF93DF93EC01D2
:1048F000EC8DFD8DC080D180E280F380CCA2DDA262
:10490000EEA2FFA2EA8DFB8D80819181A281B3810D
:1049100088A799A7AAA7BBA78AA89BA8ACA8BDA847
:10492000A5019401C701B6010E94D243181664F094
:104930008EA49FA4A8A8B9A8A5019401C701B60197
:104940000E94CF4187FF04C08CA29DA2AEA2BFA24D
:10495000DF91CF91FF90EF90DF90CF90BF90AF901D
:104960009F908F9008951F93CF93DF93EC0111E0F8
:104970006130710509F010E08EA991E089271813C4
:1049800003C0CE010E946D241EABDF91CF911F9119
:1049900008950F931F93CF93DF93EC018B018EA9A2
:1049A000882361F1888D998D6817790739F12C85F5
:1049B0003D854E855F8560E070E0CB010E94084137
:1049C0006C877D878E879F87288939894A895B898B
:1049D00060E070E0CB010E940841688B798B8A8B84
:1049E0009B8B2C893D894E895F8960E070E0CB010B
:1049F0000E9408416C8B7D8B8E8B9F8B198F088F4B
:104A0000DF91CF911F910F9108952F923F924F9276
:104A10005F926F927F928F929F92AF92BF92CF924E
:104A2000DF92EF92FF920F931F93CF93DF93CDB757
:104A3000DEB728970FB6F894DEBF0FBECDBF4C018E
:104A40007A8369831A013C832B8327013801AD8265
:104A5000BE82CF82D88600E010E02FE733E440E04A
:104A600050E0BA010E94ED2384E690E0F40195A79E
:104A700084A76AA17BA1C4010E94C924CE8CDF8CCB
:104A8000E8A0F9A00D811E812F813885B301A20114
:104A9000C4010E94F0220E94E13EF40144A455A406
:104AA000662457FC6094762C641975098609970969
:104AB00060A371A382A393A316AA358E248E898145
:104AC0009A81938F828F8B819C81978F868F289676
:104AD0000FB6F894DEBF0FBECDBFDF91CF911F910F
:104AE0000F91FF90EF90DF90CF90BF90AF909F908D
:104AF0008F907F906F905F904F903F902F90089590
:104B00000F931F93CF93DF93FC0171836083128215
:104B100013821482158286E5868317821086118699
:104B2000128613861486158616861786108A118AB1
:104B3000128A138A148A158A168ADF01A754BF4F76
:104B400011961C921E92AE55BF4F11961C921E924A
:104B5000149611961C921E92129611961C921E92F9
:104B6000129611961C921E92178AAC5AB1091D9288
:104B70001C92EF0104E110E08FE090E00E945045AC
:104B8000FE01E15EFE4F918380838FE090E00E9402
:104B90005045FE01E558FF4F91838083FC01108250
:104BA0000150110922960115110531F7DF91CF91BE
:104BB0001F910F910895FC01628173818481958119
:104BC0000895FC0186810895FC01678170858185C7
:104BD00092850895FC016385748585859685089581
:104BE000CF92DF92EF92FF926A017B01FC01278551
:104BF000308941895289C701B6010E94DD43FF9087
:104C0000EF90DF90CF900895FC01638974898589C6
:104C10009689089547960895660F771F680F791F44
:104C2000FB01E558FF4F8081918108954F925F927B
:104C30006F927F928F929F92AF92BF92CF92DF92AC
:104C4000EF92FF920F931F93CF93DF93FB0110819D
:104C50001D3241F031E020E01B3209F030E0832FBB
:104C6000922F02C081E090E0EB01C80FD91F00E055
:104C70003DEC432E3CEC532E652C3DE3732E812CF2
:104C8000912C5401C12CD12C7601E991EE23E9F14C
:104C9000EE32C9F1FF27E7FDF095011113C0AAE03C
:104CA000B0E0A70196010E941E456B017C01CF0177
:104CB000C097AA2797FDA095BA2FC80ED91EEA1E45
:104CC000FB1EE3CFBF0160537109882777FD8095F4
:104CD000982F0E9471429B01AC01C301B2010E9456
:104CE000DD439B01AC01C501B4010E9409414B01A8
:104CF0005C0120E030E040E251E4C301B2010E94D7
:104D0000D6412B013C0101E0C0CFC701B6010E9492
:104D100071429B01AC01C501B4010E9409411D32E1
:104D200039F49B01AC0160E070E0CB010E940841C6
:104D3000DF91CF911F910F91FF90EF90DF90CF9077
:104D4000BF90AF909F908F907F906F905F904F90AB
:104D500008958F929F92AF92BF92CF92DF92EF927F
:104D6000FF920F931F93CF93DF93EC01AC01455A51
:104D70005E4FDA012D913C911197FC01E15AFE4FF3
:104D8000243631056CF4A25AB1098D919C9111978A
:104D9000449734F4A655BF4F8D919C910F9714F012
:104DA000118210826A3011F06D3011F4118210827C
:104DB0006432E1F4DE01A35ABE4F11961C921E929A
:104DC000149611961C921E92A85AB10911961C9223
:104DD0001E92A655BF4F1D921C92C554DF4F68838B
:104DE00081E090E0DA018D939C93E4C08081918111
:104DF0008130910569F024F4009709F47AC272C2F7
:104E00008230910509F492C0039709F4D6C06AC2B2
:104E1000273031057CF4D901AE54BC4F8C91681316
:104E200009C0DE01A35ABE4F8D919C911197019646
:104E30008D939C93C9010196DA018D939C932C0F5D
:104E40003D1FD901A554BF4F6C93CE0187549F4F8E
:104E50008E010D591E4F6A3249F1DE01AF59BE4F26
:104E6000FC016C3209F040C020813181A9014F5F03
:104E70005F4F51834083C901880F991F8C0F9D1F7D
:104E8000EC01C15EDE4F0990D881C02DF801808110
:104E90009181C80FD91F1882118210828D919C9127
:104EA0001197FCE28F278D939C931EC2DC012D91FC
:104EB0003C911197A9014F5F5F4F4D935C93C901DE
:104EC000880F991F8C0F9D1FEC01C15EDE4F09906A
:104ED000D881C02DD8018D919C911197C80FD91FF1
:104EE00018821D921C9263C080819181880F991F46
:104EF0008C0F9D1FEC01C15EDE4F0990D881C02D43
:104F0000F801808191819C012F5F3F4F3183208385
:104F1000C80FD91F6883772767FD70958D919C9185
:104F20001197682779276D937C93DEC1C90101969B
:104F3000DA018D939C932C0F3D1FD901A554BF4FCF
:104F40006C93DE01A754BF4F8D919C91880F991FE0
:104F50008C0F9D1FDC01A15EBE4F0D911C919E0127
:104F60002D593E4FD9018D919C911197AC014F5F06
:104F70005F4F4D935C93080F191FD8016C93CF5965
:104F8000DE4F48815981862F992787FD909561349E
:104F900014F0C79701C0C0979C01B4E0220F331FE3
:104FA000BA95E1F7CA01821B930B998388838081AC
:104FB000918101969183808397C1CE01820F931FC7
:104FC000DC01A554BF4F6C932E5F3F4FDA012D9348
:104FD0003C93DC01A454BF4F1C929E0127543F4FC9
:104FE000D9018D919C91880F991F8C0F9D1FDC0119
:104FF000A15EBE4F8D919C916E01BDE9CB1ABEEFB3
:10500000DB0AD6010D911C917801BFEFEB1AFB0A68
:10501000D601ED92FC92800F911FDC016C93D901B7
:105020008D919C9111978C010F5F1F4F0D931C93D5
:10503000880F991F8C0F9D1F815E9E4FDC018D9103
:105040009C91D6010D911C91800F911FDC011C9247
:1050500011821082FE01EF59FE4F80819181062F4F
:10506000112707FD1095613424F0B80167537109C9
:1050700003C0B80160537109861B970B918380832D
:10508000009709F031C168817981672B29F4FA0111
:1050900060817181CB010AC0FE01E35AFE4F60813D
:1050A00071816630710509F024C1F1CF019797FD38
:1050B0000AC0FE01E80FF91F8F0105541F4FD801E8
:1050C0001C91178BF3CFFB013197CB0177FF02C007
:1050D00080E090E0BF01681B790BDA016D937C934F
:1050E000FE01E954FF4F1182108240815181D901A4
:1050F0008D919C914817590784F5D6011D921C92F9
:1051000080819181D6014D915C91880F991F8C0F00
:105110009D1FBC01615E7E4FDB016D917C91640F30
:10512000751FDB016C9185589F4FDC018D919C911F
:10513000840F951FDC01662349F06C93D6018D9195
:105140009C91119701968D939C93DACF1C9280814C
:105150009181019691838083C8CFFE01E35AFE4F6F
:1051600080819181069709F0C2C0FC9760817181AE
:10517000CE010E9416266A837B838C839D83FE0169
:10518000ED5DFE4F0190F081E02D80818E83FE0168
:10519000EB5DFE4F60817181CE010E94162620E0FA
:1051A00030E048EC52E40E94D6414B015C010E9481
:1051B000AC426B017C018E010B591E4FF8016083DC
:1051C0007183828393839B01AC01C501B4010E946A
:1051D000084120E030E048EC52E40E94DD4320E04A
:1051E00030E040E752E40E94D641A70196010E94B8
:1051F00009419B01AC016F83788789879A87FE01FB
:10520000E95DFE4F0190F081E02D8081833549F406
:1052100060E070E0CB010E9408416F837887898746
:105220009A87FE01E75DFE4F60817181CE010E9489
:10523000162620E030E048EC52E40E94D6414B01B3
:105240005C010E94AC426B017C01D8016D937D939F
:105250008D939C9313979B01AC01C501B4010E94EF
:10526000084120E030E048EC52E40E94DD4320E0B9
:1052700030E040E752E40E94D641A70196010E9427
:1052800009419B01AC016B877C878D879E87FE015E
:10529000E55DFE4F0190F081E02D8081873549F476
:1052A00060E070E0CB010E9408416B877C878D87AE
:1052B0009E87FE01E35DFE4F60817181CE010E94F9
:1052C00016266F87788B898B9A8BFE01E15DFE4FE6
:1052D00060817181CE010E9416266B8B7C8B8D8B39
:1052E0009E8B05C01182108280E090E002C081E0B8
:1052F00090E0DF91CF911F910F91FF90EF90DF90A1
:10530000CF90BF90AF909F908F9008958EBD0DB4B9
:1053100007FEFDCF8EB508950F931F93FC011382F6
:10532000128208EE13E020E030E004831583268328
:1053300037838EEB93E091838083648745871F9149
:105340000F910895EF92FF921F93CF93DF931F92D7
:10535000CDB7DEB77C01162F60E0FC018485498360
:105360000E944C40F8E01F9FB0011124F701858591
:10537000880F862B0E9486294981842F0E948629C6
:1053800062E070E080E090E00E94103F61E0F70191
:1053900084850F90DF91CF911F91FF90EF900C9437
:1053A0004C40462F60E00E94A22981E090E00895E1
:1053B00046E062E00C94A229CF92DF92EF92FF9236
:1053C0000F931F93CF93DF931F921F92CDB7DEB73A
:1053D0008C01F22E60E0FC01848549835A830E948F
:1053E0004C404981E42EC42E5A81D52E8C2D8E1925
:1053F0008F1530F4F60181916F010E948629F6CF56
:1054000062E070E080E090E00E94103F61E0F8010F
:1054100084850F900F90DF91CF911F910F91FF9096
:10542000EF90DF90CF900C944C40242FAB0160E0C4
:105430000C94DC291F93CF93DF93EC01162F60E0CF
:105440008C850E944C4062E070E080E090E00E9419
:10545000103F88E0189FB00111248D85880F862B9E
:1054600080680E94862980E00E948629182F62E0C9
:1054700070E080E090E00E94103F61E08C850E9427
:105480004C40812FDF91CF911F91089560E00E94E1
:105490001A2A90E0089569E00E941A2A90E008957F
:1054A00069E00E941A2A8FEF9FEF08951F93CF9310
:1054B000DF93EC01162F63E00E941A2A482F4C7FDD
:1054C0006BEF610F6370462B63E0CE01DF91CF91EC
:1054D0001F910C94A2298F929F92AF92BF92CF926C
:1054E000DF92EF92FF920F931F93CF93DF93EC0124
:1054F0006A017B01480159016CEF76E083E69CE08C
:105500000E947B3A0E9476216AE070E080E090E0A1
:105510000E94103F81E00E948C2181E00E949A212C
:1055200080E00E94952160EF76E083E69CE00E9497
:105530007B3A80910A0290910B02019779F448E03E
:105540006EE0CE010E94A22910920B0210920A0274
:1055500061EE76E083E69CE00E947B3A64E670E0D0
:1055600080E090E00E94103F40E863E0CE010E949E
:10557000A229C701B60123E0660F771F881F991F74
:105580002A95D1F7680D791D8A1D9B1DA7019601EB
:10559000E4E0220F331F441F551FEA95D1F70E9404
:1055A000D74469017A01422F60E0CE010E94A2290E
:1055B0004D2D552761E0CE010E94A22940E063E015
:1055C000CE010E94A22968E0CE010E94562A47E03F
:1055D00062E0CE010E94A2296FEC76E083E69CE0B7
:1055E000DF91CF911F910F91FF90EF90DF90CF90BF
:1055F000BF90AF909F908F900C947B3A0F931F9326
:1056000000E010E820E730E00E946B2A1F910F9124
:105610000895E091F20EF091F30E80E090E0309763
:1056200049F0029620813181820F931F0280F3811D
:10563000E02DF5CF08950F931F93CF93DF931F9223
:105640001F92CDB7DEB78091F00E9091F10E8E01D2
:105650000F5F1F4F009729F4065F1E401A830983CE
:105660000AC0081B190B1A8309830E94092B800F9B
:10567000911F9A83898389819A810F900F90DF917E
:10568000CF911F910F910895FC016F7780819181D7
:1056900086279183808347E020813181C9019695D7
:1056A000879520FF04C020EF822722E29227918372
:1056B0008083415089F70895EF92FF920F931F93D3
:1056C000CF93DF937C018A01EB01060F171FC017F0
:1056D000D10729F06991C7010E94442BF8CFDF91CF
:1056E000CF911F910F91FF90EF900895CF93DF938B
:1056F0001F921F92CDB7DEB7AB012FEF3FE33A8386
:105700002983BC01CE0101960E945C2B89819A817C
:1057100080952FE392270F900F90DF91CF910895FE
:105720000F931F93CF93DF931F92CDB7DEB78C01FA
:10573000FC0171836083128223831486158616868A
:105740001786108A459649830E944A30F801178EC1
:1057500010A249818FE9840F8A3108F440528FEBFF
:10576000840F8A3120F080ED840F8A3010F4F80124
:10577000428344E650E060E070E0F80144835583E2
:10578000668377834FEF5FEFBA0140875187628767
:10579000738711A20F90DF91CF911F910F91089500
:1057A00008959F92AF92BF92CF92DF92EF92FF92B5
:1057B0000F931F93CF93DF93CDB7DEB7A7970FB6A5
:1057C000F894DEBF0FBECDBF6C017B01942E590152
:1057D000DB0114964D915D916D917C911797CE01EF
:1057E00080960E944331CE0180960E9419316894C0
:1057F000A4F8C8010E94F130882321F0C6010E945C
:105800004C306CC0CE0180960E94F1308823A9F103
:10581000CE0180960E943731F70184858F5F87FD26
:1058200081E0D7011C968C93CE0101960E94792EBF
:10583000F7016281CE0101960E947D2E6A2DCE0174
:1058400001960E947D2ED7011C966C91CE01019687
:105850000E947D2E692DCE0101960E947D2ED701DA
:10586000ED91FC91119763A174A123E230E01396AE
:105870004C91CE0101960E94552FF70180819181B4
:105880000E942330882309F4B4CFD701ED91FC9115
:105890001197938113968C919813ABCF84818334A5
:1058A00009F0A7CF4081518145505109BF016A5F7E
:1058B0007F4FCE0101960E94C2308981882309F46E
:1058C00098CF9C81F7018485981393CF8AE0FE01DD
:1058D0003196D60101900D928A95E1F7C601A796FF
:1058E0000FB6F894DEBF0FBECDBFDF91CF911F91F1
:1058F0000F91FF90EF90DF90CF90BF90AF909F906F
:1059000008959F92AF92BF92CF92DF92EF92FF9253
:105910000F931F93CF93DF93CDB7DEB76F970FB67B
:10592000F894DEBF0FBECDBF8C015B017A01922ED1
:10593000DC01ED91FC91C3A0D4A0CE0101960E94A0
:10594000792EF8016281CE0101960E947D2E692D8B
:10595000CE0101960E947D2E96FE07C0D8015F966B
:105960006C91CE0101960E947D2EF70142815381F8
:10597000B7016C5F7F4FCE0101960E94892E950181
:10598000D80113964C91B601CE0101960E94552F75
:105990006F960FB6F894DEBF0FBECDBFDF91CF91EB
:1059A0001F910F91FF90EF90DF90CF90BF90AF903D
:1059B0009F900895CF92DF92EF92FF920F931F93E3
:1059C000CF93DF93CDB7DEB72A970FB6F894DEBF3B
:1059D0000FBECDBF7C016A01FC0180A1811123C0F3
:1059E0008B0120E430E041E050E0B701CE010196A8
:1059F0000E94D12B8AE0FE013196D60101900D92D2
:105A00008A95E1F7F601828180FF04C08681978143
:105A100097FD07C0F6018481F701878F81E080A39D
:105A200002C081E001C080E02A960FB6F894DEBF84
:105A30000FBECDBFDF91CF911F910F91FF90EF90DF
:105A4000DF90CF900895DF92EF92FF920F931F9314
:105A5000CF93DF93CDB7DEB72A970FB6F894DEBFAA
:105A60000FBECDBF7C01D42EFC012389348941892E
:105A700052898B01BC01CE0101960E94D12B8AE094
:105A8000FE013196D701559601900D928A95E1F766
:105A9000F701878980FF04C0838D948D97FD0BC02B
:105AA000F701818D978D891731F0811106C081E052
:105AB000D11004C002C081E001C080E02A960FB678
:105AC000F894DEBF0FBECDBFDF91CF911F910F9134
:105AD000FF90EF90DF9008958F929F92AF92BF92C8
