:100000000C9490040C94E9460C941A470C944B47BA
:100010000C947C470C94AD470C94DE470C940F482D
:100020000C9440480C94C1040C94C1040C94C10479
:100030000C94C1040C94C1040C94C1040C94FB36C0
:100040000C94C1040C94C1040C94C1040C94C1041C
:100050000C94C1040C94C1040C94C1040C94834806
:100060000C94C1040C943A410C9470410C94C1045A
:100070000C94C1040C94C1040C94C1040C94C104EC
:100080000C94C1040C94C1040C94C1040C94C104DC
:100090000C94E7410C941D420C94C1040C94C104CF
:1000A0000C94C1040C94C1040C94C1040C94C104BC
:1000B0000C94C1040C94C1040C94BF3D0C94333DCA
:1000C0000C94213E0C94C1040C94C1040C949442F1
:1000D0000C94CA420C94C1040C9441430C94774391
:1000E0000C94C104C3468D469546A146AE46CF4604
:1000F000DC469F49A249914995499B49D949A6495E
:10010000AA49B049B449B849BE49C249C649D949C2
:10011000CC49D049D449084AD73B3BCE016E84BC78
:10012000BFFDC12F3D6C74319ABD56833DDA3D0051
:10013000C77F11BED9E4BB4C3E916BAAAABE00009A
:1001400000803F05A84CCDB2D44EB93836A9020C78
:1001500050B9918688083CA6AAAA2ABE0000008051
:100160003F000C94692D0C94D9490C94AE3E0C942C
:10017000E0040C94DC040C94F4420C94C3040C943E
:1001800095460C94CC490C94A1460C949B3F0C943E
:10019000B0490C9447420C94FE420C946A340C947F
:1001A000B8490C94EE430C949C070C9444070C94AF
:1001B00035220C94A1430C9451420C94C6490C94E2
:1001C000CF460C949B490C94CB240C94AE460C94D3
:1001D000D4490C94F42C0C946C3F0C94AD390C94D1
:1001E00095490C9425380C949A410C943B220C941C
:1001F000C3460C949F490C9470340C94793F0C9432
:10020000A4410C94382D0C94AB430C9415360C94EB
:10021000732D0C941B400C9448060C94DC460C94F3
:10022000D0490C946E2D0C94AA490C94B43E0C94B5
:10023000A6490C94BE490C9480400C9465060C941D
:10024000C2490C94B4490C94A2490C94FB2C0C9414
:10025000D50C0C94873F0C94A7390C9496060C94FB
:100260008D460C9439380C94F93F0C942E060C945E
:100270009149536574757020636F6D706C6574651A
:100280002E2E0053746172742074696D65722E2E67
:100290000053746172742077696E642E2E0053745B
:1002A000617274206E6D6561205478202D206F6E10
:1002B0002070696E732034362054782C2034382016
:1002C000527820617420005374617274206E6D65E1
:1002D000612054782E2E005374617274206E6D6507
:1002E00061205278202D2073657269616C34206121
:1002F00074200043535F50494E204F55545055547D
:10030000203D20484947480043535F50494E2073E1
:10031000657420746F204F555450555400537461C8
:100320007274205350492075617274732E2E0053DD
:1003300074617274206E6D6561205278202D207377
:10034000657269616C33206174200053746172744A
:10035000206E6D6561205278202D20736572696171
:100360006C32206174200053746172742073656173
:1003700074616C6B202D2073657269616C32206131
:1003800074203438303000537461727420475053F5
:10039000205278202D2073657269616C3120617460
:1003A0002000496E697469616C697A696E672E2EE6
:1003B0000077696E64416C61726D5374617465009D
:1003C00077696E64416C61726D4D6574686F64002D
:1003D00077696E6400776174657254656D7000743E
:1003E000617267657448656164696E674E6F7274A7
:1003F000680074617267657448656164696E674D11
:1004000061676E65746963007374656572696E67B0
:100410000073746174650073746172626F617264F9
:100420004C6F636B0073706565645472756500731F
:10043000706565645468726F75676857617465723A
:100440000073706565644F76657247726F756E6490
:100450000073706565644170706172656E740073DD
:1004600070656564416C61726D0073696C656E7472
:10047000496E74657276616C007275646465724170
:100480006E676C655461726765740072756464654B
:1004900072416E676C6500726F6C6C00726174659E
:1004A0004F665475726E007261646172416C617264
:1004B0006D5374617465007261646172416C617244
:1004C0006D4D6574686F6400706F776572416C6123
:1004D000726D537461746500706F776572416C6101
:1004E000726D4D6574686F6400706F736974696FC5
:1004F0006E00706F72744C6F636B00706974636828
:100500000070616E70616E416C61726D53746174E4
:10051000650070616E70616E416C61726D4D6574E5
:10052000686F64006E617669676174696F6E006DF3
:100530006F6465006D6F62416C61726D53746174BC
:1005400065006D6F62416C61726D4D6574686F64BA
:10055000006D6179646179416C61726D537461748D
:1005600065006D6179646179416C61726D4D65748E
:10057000686F64006D6178526164697573006D61C4
:1005800078447269766552617465006D6178447271
:10059000697665416D7073006D61676E657469633E
:1005A000566172696174696F6E006C6F6E67697411
:1005B000756465006C617469747564650068656173
:1005C00064696E67547275650068656164696E6719
:1005D000536F757263650068656164696E674D612C
:1005E000676E6574696300677073416C61726D5307
:1005F0007461746500677073416C61726D4D6574F0
:10060000686F640067656E65726963416C61726DE5
:1006100053746174650067656E65726963416C61EE
:10062000726D4D6574686F6400676173416C6172CF
:100630006D537461746500676173416C61726D4DD7
:100640006574686F64006761696E00666972654110
:100650006C61726D53746174650066697265416C9A
:1006600061726D4D6574686F6400656E7669726F56
:100670006E6D656E7400656E67696E65416C617262
:100680006D537461746500656E67696E65416C6178
:10069000726D4D6574686F64006469726563746936
:1006A0006F6E5472756500646972656374696F6E0C
:1006B0004368616E6765416C61726D006469726563
:1006C0006374696F6E4170706172656E7400646509
:1006D00061645A6F6E6500636F757273654F7665FE
:1006E0007247726F756E645472756500636F7572D0
:1006F00073654F76657247726F756E644D61676E94
:1007000065746963006261636B6C61736800617535
:10071000746F70696C6F74416C61726D5374617445
:1007200065006175746F70696C6F74416C61726D96
:100730004D6574686F64006175746F70696C6F7477
:1007400000616E63686F72416C61726D53746174A5
:100750006500616E63686F72416C61726D4D6574A6
:10076000686F6400616E63686F7200616C746974B5
:1007700075646500616C61726D52616469757300C6
:10078000616C61726D48656164696E67587465007B
:10079000616C61726D00616972507265737375721C
:1007A000654368616E676552617465416C61726D25
:1007B0000061697250726573737572650073656C60
:1007C000660076657373656C730000000A0B02099E
:1007D0000C0D0E08070304010000000000000000DB
:1007E0000000000000000000000000000000000009
:1007F00000000000000012111000000000000000C6
:1008000000000000000000000000000000000000E8
:100810000102102020080810204010204080020112
:1008200002010804020101020408102040808040F7
:1008300020100804020180040201804020100804F6
:100840000201080402010102040810204080010294
:10085000040810204080050505050705080808085C
:10086000020202020A0A0808040404040101010148
:100870000101010103030303030303030407070743
:100880000C0C0C0C0C0C0C0C0202020206060606E8
:10089000060606060B0B0B0B0B0B0B0B00002200C6
:1008A000250028002B002E0031003400020100003A
:1008B000050108010B0100002100240027002A0087
:1008C0002D003000330001010000040107010A017E
:1008D0004E414E494E495459494E46CDCCCC3D0A25
:1008E000D7233C17B7D13877CC2B329595E6241F08
:1008F000B14F0A000020410000C84200401C4620C1
:10090000BCBE4CCA1B0E5AAEC59D74004407D50C24
:1009100015362538A4415142FE42AB439C07393875
:1009200011241FBECFEFD1E2DEBFCDBF00E00CBF70
:1009300015E0A0E0B2E0EAE5F5EA00E00BBF02C096
:1009400007900D92A637B107D9F721E1A6E7B5E0E8
:1009500001C01D92AE38B207E1F719E0CCE1D9E051
:1009600000E006C022970109FE010BBF0E946B4EFA
:10097000CC30D10780E00807A9F70E9472480C9498
:100980009B520C94000081E08093670D8091650D6F
:100990009091660D01969093660D8093650D809100
:1009A000650D9091660D64E170E00E94054E909394
:1009B000660D8093650D08958DE796E00C94880987
:1009C0008DE796E00C94CA094EE157E566EA7BE6AE
:1009D0008CE39BE00E94A115AB01BC0126E08BEFEC
:1009E0009EE00E94D84062EA73E08BEF9EE00E9496
:1009F0006E4467E873E08BEF9EE00E942C444FE169
:100A000057E566EA7BE68CE39BE00E94A115AB010B
:100A1000BC012AE030E08BEF9EE00E9479454FE177
:100A200057E566EA7BE68CE39BE00E94A115AB01EB
:100A3000BC0126E088E99FE00E94D84049EC56E0DE
:100A400061E073ED8CE39BE00E948915882361F0DF
:100A500067E673E08BEF9EE00E946E4427E040EC77
:100A600052E160E070E021C06BE473E08BEF9EE048
:100A70000E942C4440E257E566EA7BE68CE39BE06B
:100A80000E94A115AB01BC012AE030E08BEF9EE093
:100A90000E94794540E257E566EA7BE68CE39BE0FD
:100AA0000E94A115AB01BC0126E085E390E10E9404
:100AB000D8406FE273E08BEF9EE00E942C4441E24D
:100AC00057E566EA7BE68CE39BE00E94A115AB014B
:100AD000BC012AE030E08BEF9EE00E94794541E2C4
:100AE00057E566EA7BE68CE39BE00E94A115AB012B
:100AF000BC0126E082ED90E10E94D8406DE173E0F8
:100B00008BEF9EE00E946E4468EE73E080E090E020
:100B10000E94FC4861E083E40E94DA4968E073E0E7
:100B20008BEF9EE00E946E4464E670E080E090E00F
:100B30000E94FC4861E083E40E94134A63EF72E084
:100B40008BEF9EE00E946E4467ED72E08BEF9EE0BB
:100B50000E942C4442E257E566EA7BE68CE39BE088
:100B60000E94A115AB01BC012AE030E08BEF9EE0B2
:100B70000E94794542E257E566EA7BE68CE39BE01A
:100B80000E94A115AB01BC0189E696E00E941E2ED1
:100B900064E670E080E090E00E94FC4867EC72E060
:100BA0008BEF9EE00E946E4460E080E30E94DA4991
:100BB00061E08EE20E94DA496EE972E08BEF9EE01E
:100BC0000E942C4443E257E566EA7BE68CE39BE017
:100BD0000E94A115AB01BC012AE030E08BEF9EE042
:100BE0000E94794581E196E00E944F3761E972E009
:100BF0008BEF9EE00E946E4460E083E00E94DA4941
:100C000043E050E06CED74E081E00E94784660E0E3
:100C100082E00E94DA4943E050E060EE74E080E058
:100C20000E94784663E872E08BEF9EE00E946E447B
:100C300043EC54E064E670E080E090E00E948E3681
:100C40000E949A3662E772E08BEF9EE00E946E444B
:100C50006BEF7EE08CE39BE00C94D2218BEF9EE067
:100C60000E946C3F02979CF08BEF9EE00E94873FB2
:100C7000682F86E795E00E948D231816190674F7F1
:100C800060E472E08BEF9EE00E948044E7CF08951D
:100C900088E99FE00E946C3F892BB1F088E99FE0D2
:100CA0000E94873F682F87E796E00E94683580930F
:100CB000F205882369F383ED99E00E942D29BC0198
:100CC0008BEF9EE00C948044089585E390E10E94B0
:100CD0006C3F892B51F149EC56E061E073ED8CE3F8
:100CE0009BE00E948915882351F085E390E10E94E2
:100CF000873F682F83EF95E00E949624E6CF85E337
:100D000090E10E94873F682F8BE398E00E94B9072B
:100D10008093F1058823C9F28BE398E00E943108A3
:100D2000BC018BEF9EE00C9480440895CF9382ED3C
:100D300090E10E946C3F892BF9F082ED90E10E94D6
:100D4000873FC82F4AE050E0682F8BEF9EE00E945B
:100D500062456C2F8FE697E00E94B9078093F005FB
:100D6000882329F38FE697E00E943108BC018BEFBE
:100D70009EE0CF910C948044CF910895CF9389E663
:100D800096E00E946E2D892BF9F089E696E00E948C
:100D9000692DC82F4AE050E0682F8BEF9EE00E943B
:100DA00062456C2F83EA96E00E94B9078093EF05B5
:100DB000882329F383EA96E00E943108BC018BEF77
:100DC0009EE0CF910C948044CF9108958091670D5F
:100DD000882309F457C081E196E00E94743880911D
:100DE000650D9091660D80FD04C08DE796E00E9430
:100DF0002E0A8091650D9091660D62E370E00E946D
:100E0000054E892B21F48DE796E00E94BD0A809162
:100E1000650D9091660D64E670E00E94054E892B89
:100E200061F48DE096E00E94B83B8DE796E00E9469
:100E30007A0C8EE996E00E94063F8091650D9091B4
:100E4000660D60E971E00E94054E892BC9F46BEFD5
:100E50007EE08CE39BE00E94D22186E795E00E9431
:100E60005C2266E472E08BEF9EE00E9451440E9497
:100E70003B2E4AE050E0BC018BEF9EE00E943D45D6
:100E80001092670D0C94BE068CE39BE00E94580FF5
:100E900060E070E083ED99E00E94A32860E070E0DC
:100EA00087E099E00E94B00760E070E08BE398E093
:100EB0000E94B00760E070E08FE697E00E94B00704
:100EC00060E070E083EA96E00E94B0076CE37BE0AC
:100ED0008EE996E00E94BB3E6CE37BE08DE796E0F6
:100EE0000E9434084CE35BE063ED79E087E796E02D
:100EF0000E94773441E063E489E696E00E94AF2CDB
:100F00006CE37BE081E196E00E9429376CE37BE0B3
:100F10008DE096E00E94883B4CE35BE065E370E186
:100F200083EF95E00E948E244CE35BE06BEF7EE064
:100F300086E795E00C944D2286E795E00E943522E5
:100F40008DE096E00E94A73981E196E00E94243866
:100F500087E796E00E946A348EE996E00C94AE3EF4
:100F6000FC01E853FF4F11821082329611821082E9
:100F700008950F931F93CF93DF93DC01A853BF4FC6
:100F80004D915C911197FC01E653FF4F423651059C
:100F900014F0118210826A3011F06D3011F4118258
:100FA0001082643261F424E6EC0119922A95E9F783
:100FB000EC01688381E090E08D939C9345C0208193
:100FC000318121303105E9F02CF42115310509F486
:100FD00042C03DC02230310561F123303105B9F501
:100FE000FC01E40FF51F60834E5F5F4F4D935C93F0
:100FF0001182BC018C599F4F0E94005121E030E0CA
:101000002AC08A010F5F1F4F11961C930E939C01FB
:10101000240F351FE90168834E5F5F4FE801C80F59
:10102000D91F4D935C9368836A3299F482E090E013
:101030000BC09A012F5F3F4F2D933C93DC01A40F0F
:10104000B51F6C9383E090E09183808302C011828E
:10105000108220E030E0C901DF91CF911F910F9104
:1010600008958C599F4F08950F931F93CF93DF934B
:101070008C01EB01FC0170A3678F0E94D94860933B
:101080009A0D70939B0D80939C0D90939D0D4091B4
:101090009A0D50919B0D60919C0D70919D0D409308
:1010A000960D5093970D6093980D7093990D109233
:1010B000820D1092830D1092840D1092850D81E0A7
:1010C0008093810D10926B0D10926C0D8091680DC4
:1010D0009091690D20E030916A0D231760F4FC01B6
:1010E00034E0239FE00DF11D112410821182128241
:1010F00013822F5FF0CFF801168E46EE50E269E8BA
:1011000078E9CE010E94561620E030E046EC52E429
:101110000E94144D18165CF400E010E026EC32E456
:1011200046EE50E269E878E9CE010E940813DF91AB
:10113000CF911F910F910895CF92DF92EF92FF927E
:101140000F931F93CF93CB01BA0197FF09C09095DE
:101150008095709561957F4F8F4F9F4FC0E001C084
:10116000C1E0683621E072078105910534F028E678
:1011700031E040E050E00E943B4E653B7105810547
:10118000910534F0645B71098109910921E0C2275E
:101190006B3571058105910564F004EB10E020E0EA
:1011A00030E068017901C61AD70AE80AF90AC701CE
:1011B000B601660F771FFB01EC5AFD4F608171810C
:1011C000CC2319F080E090E00CC0CB01A0E0B0E0AF
:1011D0009C01AD0166277727CB01621B730B840B43
:1011E000950BCF911F910F91FF90EF90DF90CF90D3
:1011F0000895465A5F4F6F4F7F4F0C949C084F9253
:101200005F926F927F928F929F92AF92BF92CF9296
:10121000DF92EF92FF920F931F93CF93DF938C0196
:1012200060906B0DC091680DD091690D712CC12C2F
:10123000D12C7601812C912C54017614C1F0488177
:1012400059816A817B81C8010E94F908860E971E28
:10125000A81EB91E4991599169917991C8010E94BE
:101260009C08C60ED71EE81EF91E7394E6CF8114A3
:101270009104A104B10429F4C114D104E104F104DE
:10128000A1F1662D70E080E090E00E94B34B2B014D
:101290003C01C501B4010E94B34B20E830E040E8B6
:1012A00057E30E941F4DA30192010E94184B4B016E
:1012B0005C01C701B6010E94B34B20E830E040E872
:1012C00057E30E941F4DA30192010E94184BA501F4
:1012D00094010E94BE4A21EE3EE245E652E40E949D
:1012E0001F4D0E94804BCB0102C080E090E0DF9157
:1012F000CF911F910F91FF90EF90DF90CF90BF9013
:10130000AF909F908F907F906F905F904F900895D7
:101310000F931F930E94CD480091A20D1091A30D31
:101320002091A40D3091A50D601B710B820B930BC6
:10133000603171058105910550F18091810D8823FF
:10134000E1F080919A0D90919B0DA0919C0DB09130
:101350009D0D8093960D9093970DA093980DB0934B
:10136000990D0E94D94860939A0D70939B0D8093BC
:101370009C0D90939D0D1092810D0E94CD4860931D
:10138000A20D7093A30D8093A40D9093A50D1F91B2
:101390000F9108950F931F930E94CD4800919E0DC9
:1013A00010919F0D2091A00D3091A10D601B710B2C
:1013B000820B930B603171058105910508F44BC0D8
:1013C0008091810D81113DC080918A0D90918B0D8E
:1013D000A0918C0DB0918D0D8093860D9093870D0B
:1013E000A093880DB093890D0E94D94860938A0D0F
:1013F00070938B0D80938C0D90938D0D8091960D35
:101400009091970DA091980DB091990D8093920DA8
:101410009093930DA093940DB093950D80919A0D98
:1014200090919B0DA0919C0DB0919D0D80938E0D80
:1014300090938F0DA093900DB093910D81E08093C8
:10144000810D0E94CD4860939E0D70939F0D8093F7
:10145000A00D9093A10D1F910F910895CF92DF924F
:10146000EF92FF92F8948091920D9091930DA0913C
:10147000940DB091950DC0908E0DD0908F0DE09091
:10148000900DF090910D4091860D5091870D6091D7
:10149000880D7091890D78948C159D05AE05BF055A
:1014A00008F066C0C81AD90AEA0AFB0A28E9C21677
:1014B0002AE3D206E104F10408F45AC0C092820D76
:1014C000D092830DE092840DF092850D9A01AB01CC
:1014D000281B390B4A0B5B0B2333310541055105A2
:1014E00008F446C02C153D054E055F0508F040C0C8
:1014F000A8E6B1E00E94604EA70196010E94194E35
:10150000283681E038074105510590F580916C0D32
:101510008F5F80936C0D90916B0D60916A0DE091DF
:10152000680DF091690D9617B0F481E0890F8093F2
:101530006B0D84E0989FE00DF11D11242083318311
:101540004283538380916C0D60916B0D0E94F94D25
:1015500090936C0D0DC00E94F94D90936C0D84E03A
:10156000989FE00DF11D1124208331834283538322
:10157000FF90EF90DF90CF9008952F923F924F927F
:101580005F926F927F928F929F92AF92BF92CF9213
:10159000DF92EF92FF920F931F93CF93DF9300D0D0
:1015A0001F92CDB7DEB71C010E94CD480091A20D5D
:1015B0001091A30D2091A40D3091A50D6017710716
:1015C0008207930750F40E94CD486093A20D709358
:1015D000A30D8093A40D9093A50D0E94CD4800917A
:1015E0009E0D10919F0D2091A00D3091A10D6017BF
:1015F00071078207930750F40E94CD4860939E0DB7
:1016000070939F0D8093A00D9093A10D0E94CD48E3
:101610008B019C014BE15DE563E27AECF101878D82
:1016200090A10E9462120E94CD480091A20D1091DB
:10163000A30D2091A40D3091A50D601B710B820BA1
:10164000930BF101A78CB0A0693B7B40810591050C
:1016500040F020E030E04FEB57ED62EA76E3C50161
:1016600031C12091820D3091830D4091840D5091B4
:10167000850D211531054105510509F4C5C060E00E
:1016800071EE85EF95E00E94194E69017A0123E41D
:10169000C21621E0D206E104F1040CF044C0AAE035
:1016A000B0E0A70196010E94604E2B013C0143E48B
:1016B0005EE065EC7DECC5010E9456164B015C01B5
:1016C000A3019201C301B2010E94E94D27E93FEF56
:1016D0004FEF5FEF0E943B4E29013A01A7019601AF
:1016E00068E273EE83E090E00E94E94D24E630E08A
:1016F00040E050E00E943B4E420E531E641E751E99
:1017000084EE481A8FE2580A61087108C301B201D9
:101710000E94B34BA50194010E94184B20E030E0D9
:1017200040E251E464C043E45EE065EC7DECC50159
:10173000FCE3CF16F5E1DF06E104F1044CF50E946D
:1017400056162B013C01A7019601C701B6010E9464
:10175000E94D2EEA38E040E050E00E943B4E49015E
:101760005A01ABE9BAE4A70196010E94604E24E653
:1017700030E040E050E00E943B4E820E931EA41EDB
:10178000B51E26EA820E25E2921EA11CB11C29C0BC
:101790000E9456162B013C01A7019601C701B60114
:1017A0000E94E94D22E134E040E050E00E943B4ECF
:1017B000A4E6B0E00E94604E4B015C01A7019601D7
:1017C00064EB70E281E89FEF0E94E94D860E971E60
:1017D000A81EB91EF4E48F0EFDEB9F1EFBE2AF1EA8
:1017E000B11CC501B4010E94B34BA30192010E9438
:1017F000184B8B019C014FEB57ED62EA76E3F10148
:10180000878D90A10E9408134FEB57ED62EA76E3B3
:10181000F101878D90A10E9456166B017C014AEA66
:101820005AEB67E275E3F101878D90A10E9456168D
:101830009B01AC01C701B6010E94144D1816A4F417
:101840004FEB57ED62EA76E3F101878D90A10E949C
:1018500056168B019C014AEA5AEB67E275E3F101E7
:10186000878D90A10E940813C1010E94FF088C017E
:101870004BEE56E861ED78E5F101878D90A10E946D
:1018800056169B01AC01B801882777FD8095982FEB
:1018900029833A834B835C830E94B34B29813A812D
:1018A0004B815C810E944B4A0E94804B9B0177FFD9
:1018B00002C028593E4F44E257E962EC72ECF10154
:1018C000878D90A10F900F900F900F90DF91CF9187
:1018D0001F910F91FF90EF90DF90CF90BF90AF904E
:1018E0009F908F907F906F905F904F903F902F9040
:1018F0000C94F711CF92DF92EF92FF92CF93DF9388
:10190000EC0143E95EE665E97DEC8F8D98A10E94CC
:101910004619882309F442C046EE50E269E878E9A6
:101920008F8D98A10E94561620E030E0A9010E94F8
:10193000144D181624F54FEB57ED62EA76E38F8DC0
:1019400098A10E9456166B017C0146EE50E269E8B0
:1019500078E98F8D98A10E9456169B01AC01C701B2
:10196000B6010E94144D181654F443E95EE665E989
:101970007DEC8F8D98A10E94461981110FC021E046
:1019800043E95EE665E97DEC8F8D98A1DF91CF910B
:10199000FF90EF90DF90CF900C94C511DF91CF9125
:1019A000FF90EF90DF90CF9008958DE69DE09093AB
:1019B000690D8093680D85E080936A0D10926B0D20
:1019C00010926C0D08950895CF92DF92EF92FF92DE
:1019D0000F931F93FB0165E075E180E090E0C190FB
:1019E000CC20B9F08B019C0145E0000F111F221F94
:1019F000331F4A95D1F7DD24C7FCD094ED2CFD2C84
:101A00000C0D1D1D2E1D3F1D600F711F821F931F8A
:101A1000E6CF1F910F91FF90EF90DF90CF90089548
:101A2000CB016EE073E00C945144CB016AE073E0AB
:101A30000C9480440F931F93CF93DF931F92CDB7E5
:101A4000DEB78B016AE073E0C80149830E9451440C
:101A5000498141110AC069E874E0C8010F90DF9123
:101A6000CF911F910F910C9451440F90DF91CF9122
:101A70001F910F9108950F931F93CF93DF93EB0165
:101A8000FA0164918A010F5F1F4F662349F0E881D4
:101A9000F9810190F081E02DCE011995A801F0CFD8
:101AA000DF91CF911F910F910895EF92FF920F93C5
:101AB0001F93CF93DF931F921F92CDB7DEB78C0198
:101AC0007B0165E273E0C70149835A830E94514458
:101AD00049815A81B701C8010E943B0D6CE073E057
:101AE000C7010F900F90DF91CF911F910F91FF9041
:101AF000EF900C9451446F927F928F929F92AF928D
:101B0000BF92CF92DF92EF920F931F93CF93DF9309
:101B10001F921F92CDB7DEB76C013B0148015901FE
:101B200065E273E0C30149835A830E9451444981AD
:101B30005A81B301C6010E943B0D60E173E0C3010D
:101B40000E945144A5019401C501B4010E94114BAA
:101B5000882331F063E173E0C3010E94514407C060
:101B60002AE030E0B501A401C3010E947646E110ED
:101B700014C069E874E0C3010F900F90DF91CF911A
:101B80001F910F91EF90DF90CF90BF90AF909F90FB
:101B90008F907F906F900C9451440F900F90DF9135
:101BA000CF911F910F91EF90DF90CF90BF90AF90AA
:101BB0009F908F907F906F900895AF92BF92CF9239
:101BC000DF92EF92FF920F93CF93DF931F921F92BA
:101BD000CDB7DEB76C015B01790165E273E0C50149
:101BE00049835A830E94514449815A81B501C601F3
:101BF0000E943B0D60E173E0C5010E9451448FEFEC
:101C0000E816F80631F463E173E0C5010E9451441F
:101C100006C04AE050E0B701C5010E9435450111F8
:101C200010C069E874E0C5010F900F90DF91CF916B
:101C30000F91FF90EF90DF90CF90BF90AF900C94FA
:101C400051440F900F90DF91CF910F91FF90EF9043
:101C5000DF90CF90BF90AF9008956F927F928F9258
:101C60009F92AF92BF92CF92DF92EF920F931F930A
:101C7000CF93DF931F921F92CDB7DEB76C013B016C
:101C80004801590165E273E0C30149835A830E9408
:101C9000514449815A81B301C6010E943B0D60E164
:101CA00073E0C3010E9451448FEF88169806A8067E
:101CB000B80631F463E173E0C3010E94514407C0E8
:101CC0002AE030E0B501A401C3010E94EB44E11019
:101CD00014C069E874E0C3010F900F90DF91CF91B9
:101CE0001F910F91EF90DF90CF90BF90AF909F909A
:101CF0008F907F906F900C9451440F900F90DF91D4
:101D0000CF911F910F91EF90DF90CF90BF90AF9048
:101D10009F908F907F906F900895AF92BF92CF92D7
:101D2000DF92EF92FF920F93CF93DF931F921F9258
:101D3000CDB7DEB77C015B01690165E273E0C501E7
:101D400049835A830E94514449815A81B501C70190
:101D50000E943B0D63E273E0C5010E945144B6014D
:101D6000C5010E94514465E273E0C5010E945144DF
:101D7000011110C069E874E0C5010F900F90DF9168
:101D8000CF910F91FF90EF90DF90CF90BF90AF90E9
:101D90000C9451440F900F90DF91CF910F91FF90D1
:101DA000EF90DF90CF90BF90AF9008954D3F84E0CB
:101DB00058078FE0680784E8780709F467C090F552
:101DC000403487E0580782EB68078EE0780709F413
:101DD00066C080F44D3383E358078BE9680786E0DB
:101DE000780709F453C0483B514D61497C4009F4E0
:101DF00053C058C0473E88EB58078DE4680785E11B
:101E0000780709F452C0483489E958078EE068071A
:101E100082E57807D9F14D305B4966487F4009F487
:101E200044C040C04F378CE658078AEA680782ED05
:101E3000780791F1B0F4423A8EEA580787E76807CD
:101E400084EC780791F14B318DE5580783E2680700
:101E50008AEC7807D9F04B3B5F486446714A11F52C
:101E600015C0403887E3580786EA68078AEE780786
:101E700081F04D3E8DEE580789E868078BEE7807B4
:101E800029F0433F57416C46774E61F483E090E080
:101E9000089581E090E0089584E090E0089586E060
:101EA00090E0089580E090E0089582E090E0089549
:101EB0000F931F93CF93DF93EC010E94E30C8EE608
:101EC00094E09983888380E090E0AAEBB2E48A836F
:101ED0009B83AC83BD831E821F82188619861A8657
:101EE0001B861C861D861E861F86188A198A1A8ADA
:101EF0001B8A1C8A1D8A1E8A1F8A188E198E87E2E9
:101F000093E09B8F8A8F1C8E1D8E1E8E1F8E18A2B3
:101F100019A21AA21BA218AE19AE1AAE1BAEFE0170
:101F2000E05BFF4F1082118212821382349610827E
:101F300011821282138234961082118212821382CD
:101F4000349610821182128213823496108211828A
:101F50001282138234961082118212821382349676
:101F600010821182128213823496108211821282A0
:101F70001382349610821182128213823496108258
:101F8000118212821382349610821182128213827D
:101F9000349610821182128213823496108211823A
:101FA0001282138234961082118212821382349626
:101FB0001082118212821382349610821182128250
:101FC0001382349610821182128213823496108208
:101FD000118212821382349689E090E0918380838B
:101FE0003E961082118212821382349610821182E0
:101FF00012821382349610821182128213823C97CD
:1020000010821182128213823497108211821282FE
:102010001382349710821182128213827896108272
:1020200011821282138234961082118212821382DC
:102030003496118210823496108211821282138299
:102040003496108211821282138234961082118289
:10205000128213823496118210823296108211827B
:102060001282138234961082118212821382349665
:10207000118210823296108211821282138234965B
:10208000108211821282138234961082118212827F
:10209000138234961082118212821382349681E068
:1020A00090E09183808332961182108232969183E0
:1020B0008083329611821082329691838083329689
:1020C000118210823296918380833296118210821F
:1020D0003296918380833296118210823296918358
:1020E0008083329611821082329691838083329659
:1020F00011821082329691838083329611821082EF
:1021000032969183808332961182108232962CE22D
:1021100031E031832083329691838083329611821D
:102120001082329691838083329611821082329689
:1021300091838083329611821082329691838083BC
:10214000329611821082EE5BFF4F10821182128252
:102150001382349680E090E0A0E8B4E48083918319
:10216000A283B38334961082118212821382349632
:10217000108211821282138234961082118212828E
:10218000138270961082118212821382349610820A
:10219000118212821382349610821182128213826B
:1021A0003496108211821282138234961082118228
:1021B000128213827C9710821182128213823496CB
:1021C00010821182128213827C96108211821282F6
:1021D00013823496108211821282138234961082F6
:1021E000118212821382349610821182128213821B
:1021F00034961082118212821382B8971082118253
:1022000012821382BC96108211821282138234963B
:1022100010821182128213823496108211821282ED
:1022200013823496108211821282138234961082A5
:1022300011821282138234961082118212821382CA
:10224000EC5FF10911821082F395108231961182B0
:10225000108232961082118212821382349610827A
:10226000118212821382349686E58083319640E093
:1022700056E960E070E04083518362837383349653
:102280004083518362837383349600E815E220E033
:1022900030E00083118322833383349600831183DB
:1022A00022833383349640835183628373833496CD
:1022B00080EC92E1A0E0B0E080839183A283B383BD
:1022C00034961182108234961182108234961182D3
:1022D00010823697118210823496118210823496C1
:1022E00011821082329610821182128213823496E9
:1022F000108211821282138234961082118212820D
:1023000013823496108211821282138234961082C4
:1023100011821282138234961082118212821382E9
:102320003496108211821282138234961082319672
:1023300010821182128213823496108211821282CC
:102340001382349610821182128213823496108284
:1023500011821282138234961082118212821382A9
:102360003496108211821282138234961082118266
:1023700012821382CB5DDD4F188219821A821B8272
:10238000DF91CF911F910F910895493C36E053079B
:1023900031E0630733ED730731F040385743664A45
:1023A0007A4E29F00895FC01E85FFD4F03C0FC015F
:1023B000E454FE4F2083089540345740624B7E40E2
:1023C00021F4FC01E953FE4F208308950F931F93DE
:1023D0004F375C466A4A724D39F4FC01EF5DFD4FA0
:1023E00000831183228333831F910F9108954F330C
:1023F000EDE35E07E4ED6E07ECE77E0709F44CC001
:10240000F0F4473EE8EB5E07EDE46E07E5E17E079A
:10241000D9F130F44D305B4966487F4069F1089549
:10242000413CE6EB5E07E8EC6E07E6E17E0709F467
:1024300043C0443E51406C467741D1F10895423A41
:10244000EEEA5E07E7E76E07E4EC7E07C9F030F4DA
:102450004236584867477D47D9F008954115EAE765
:102460005E07EEEC6E07E9EC7E07F1F04332554C67
:1024700061477A4CA9F00895FC01E354FE4F1FC058
:10248000FC01EC52FF4F1BC0FC01E65FFE4F17C082
:10249000FC01E052FE4F13C0FC01EE51FE4F0FC095
:1024A000FC01EC51FE4F0BC0FC01EA51FE4F07C08E
:1024B000FC01E851FE4F03C0FC01E651FE4F3183A1
:1024C000208308950F931F934232E7E55E07E6EA03
:1024D0006E07EBE67E0709F484C078F54E31E7E538
:1024E0005E07E6EA6E07EBE67E0709F46EC0B0F41D
:1024F0004D33E3E35E07EBE96E07E6E07E0709F4A0
:1025000058C04834E9E95E07EEE06E07E2E57E0771
:1025100009F079C0FC01ED53FE4F6EC04032E7E593
:102520005E07E6EA6E07EBE67E0709F452C008F0A4
:1025300054C0FC01E453FE4F5FC04B3BEFE85E0725
:10254000E4E66E07E1EA7E0709F453C0B0F44332D3
:10255000E7E55E07E6EA6E07EBE67E0709F445C0AD
:102560004D3FE4E05E07EFE06E07E4E87E0709F028
:102570004AC0FC01E451FE4F3FC0433FE7E15E0724
:10258000ECE66E07E7EE7E07E1F04D3EEDEE5E070E
:10259000E9E86E07EBEE7E0781F04B31EDE55E0773
:1025A000E3E26E07EAEC7E0771F5FC01E75FFD4FA1
:1025B00023C0FC01E154FE4F1FC0FC01E85AFF4F4D
:1025C0001BC0FC01E051FE4F17C0FC01E853FE4F59
:1025D00013C0FC01E053FE4F0FC0FC01EC52FE4F54
:1025E0000BC0FC01E852FE4F07C0FC01E452FE4F55
:1025F00003C0FC01E35EFD4F00831183228333831C
:102600001F910F91089598011F910F910C94F7114C
:102610000F931F934A33E6EA5E07EBEE6E07E4E89A
:102620007E0709F429C208F0F1C0433DEFEB5E07D5
:10263000EEE46E07E3E47E0709F4EEC108F073C030
:102640004536E4E85E07EBE26E07EAE17E0709F44F
:102650004FC280F54E3BE0EF5E07E5EF6E07EEE020
:102660007E0709F4D1C198F4473EE3E75E07E6E947
:102670006E07EAE07E0709F4B7C1483B514D614956
:102680007C4009F043C2FC01EB5DFD4F3BC24B3B7C
:10269000E7E95E07E9E46E07E7E17E0709F4B8C100
:1026A000413F5049684A794109F030C2FC01E25289
:1026B000FF4F28C24C3BECEE5E07E5E16E07E3E21C
:1026C0007E0709F4BDC198F44433EDE65E07EAEAFB
:1026D0006E07EFE17E0709F4F7C1423A514E6545B6
:1026E000704209F013C2FC01EE53FF4F0BC24F3B87
:1026F000E7ED5E07E2EA6E07E6E37E0709F4F4C160
:102700004D32F7EB5F07F1EB6F07FEE37F0709F44C
:1027100093C14A3A5A4B6742754309F0F7C1FC012D
:10272000EB5EFD4FEFC1453EF2EB5F07F3E26F0753
:10273000F9E67F0709F4B0C180F54F3FF5E65F0782
:10274000FCE16F07F9E57F0709F454C198F4413CB7
:10275000FBED5F07FAE46F07F2E57F0709F4C0C1FC
:102760004B3E5648614D784509F0D0C1FC01E75E0B
:10277000FD4FC8C14832F5EC5F07FFEB6F07FEE580
:102780007F0709F481C149385E4A6547784609F0F8
:10279000BDC1FC01E455FE4FB5C14839FCE85F07F7
:1027A000F1EE6F07F7E77F0709F452C198F4413E55
:1027B000FBE35F07F3E86F07F9E67F0709F460C101
:1027C00049395C4F6444714709F0A0C1FC01EC54E5
:1027D000FE4F98C14733FEE85F07F9E46F07F0E862
:1027E0007F0709F441C14137E0E45E07E5EA6E077F
:1027F000E4E87E0709F454C14F3A554A664D7B47D9
:1028000009F084C1FC01E05AFF4F7CC14F32E7E17F
:102810005E07E4E76E07EFEB7E0709F44DC108F0B1
:1028200073C04D35E5EE5E07E6E16E07E9E97E0728
:1028300009F452C180F54234EFE05E07E5ED6E0722
:10284000EAE87E0709F4F0C098F44C35EBE95E073E
:10285000ECEF6E07E4E87E0709F43AC14B335A42C5
:102860006C4A754809F052C1FC01E058FF4F4AC15B
:102870004B3AEBE95E07EDEE6E07EEE87E0709F4F2
:10288000F7C0463E50426948784909F03FC1FC0113
:10289000E055FE4F37C1403AE4E95E07E3E66E07D4
:1028A000E4EB7E0709F428C198F4423EE5E85E07B0
:1028B000E1EC6E07E2EB7E0709F4BAC048355D40F3
:1028C0006940744B09F022C1FC01E850FE4F1AC167
:1028D0004132E7EA5E07E3E06E07EFEB7E0709F4BB
:1028E000BBC04435F7EF5F07FAE66F07FFEB7F07E2
:1028F00009F4DEC04B3452416A4D764B09F006C1F3
:10290000FC01EE55FF4FFEC04C3BFEEA5F07F0EDC9
:102910006F07F4ED7F0709F4C7C078F54432F7E993
:102920005F07F2EC6F077F0709F4CAC098F44A31D9
:10293000F4E05F07FEE96F07FFEB7F0709F4E0C0F3
:10294000403F534F674A7F4B09F0E0C0FC01EC5F0A
:10295000FD4FD8C04F39FAE95F07F3E36F07F9EC91
:102960007F0709F471C043345E40654C7D4C09F02B
:10297000CDC0FC01EF5EFD4FC5C04837F1E25F07F7
:10298000FCE86F07FEED7F07D9F198F44A3FF1E4C8
:102990005F07FFED6F07FBED7F0709F461C04D3C5A
:1029A0005A4A6A407C4D09F0B1C0FC01E453FF4F24
:1029B000A9C04E3EF0E15F07FDE96F07FBEF7F071F
:1029C00009F466C0413BECE85E07E1EC6E07EDEF11
:1029D0007E0731F14C335446634E7A4F09F096C06E
:1029E000FC01E855FE4F8EC0FC0102831383248353
:1029F00035838CC0FC01068317832087318786C00E
:102A0000FC01EC5AFF4F7EC0FC01E45AFF4F7AC034
:102A1000FC01E459FF4F76C0FC01E059FF4F72C042
:102A2000FC01EC58FF4F6EC0FC01E858FF4F6AC034
:102A3000FC01E458FF4F66C0FC01EC57FF4F62C039
:102A4000FC01E857FF4F5EC0FC01E057FF4F5AC042
:102A5000FC01EC56FF4F56C0FC01EA55FF4F52C037
:102A6000FC01E655FF4F4EC0FC01E255FF4F4AC046
:102A7000FC01E256FF4F46C0FC01E656FF4F42C044
:102A8000FC01EE54FF4F3EC0FC01EA54FF4F3AC038
:102A9000FC01EE51FF4F36C0FC01E254FF4F32C043
:102AA000FC01EA53FF4F2EC0FC01E053FF4F2AC048
:102AB000FC01EA52FF4F26C0FC01E652FF4F22C044
:102AC000FC01EC55FE4F1EC0FC01E854FE4F1AC03D
:102AD000FC01E45AFE4F16C0FC01E05AFE4F12C042
:102AE000FC01E858FE4F0EC0FC01E35FFD4F0AC039
:102AF000FC01EC50FE4F06C0FC01E450FE4F02C04A
:102B0000FC01FE5F00831183228333831F910F91A9
:102B10000895493C26E0520721E0620723ED720741
:102B200049F040385743664A7A4E49F4FC01E45470
:102B3000FE4F03C0FC01E85FFD4F8081089580E0F7
:102B40000895423227E5520726EA62072BE672070C
:102B500009F47EC060F54E3127E5520726EA620788
:102B60002BE6720709F468C098F44D3323E352074B
:102B70002BE9620726E0720709F44EC04834594930
:102B80006E40724509F070C0FC01ED53FE4F67C006
:102B9000403227E5520726EA62072BE6720709F45E
:102BA0004FC008F051C0FC01E453FE4F58C04B3BEE
:102BB0002FE8520724E6620721EA720789F198F4A8
:102BC000433227E5520726EA62072BE6720709F42B
:102BD00043C04D3F54406F40744809F045C0FC016C
:102BE000E451FE4F3CC0433F27E152072CE6620709
:102BF00027EE7207C9F04D3E2DEE520729E8620715
:102C00002BEE7207A9F04B315D4563427A4C61F5BA
:102C1000FC01E75FFD4F23C0FC01E154FE4F1FC0E4
:102C2000FC01E35EFD4F1BC0FC01E051FE4F17C0ED
:102C3000FC01E85AFF4F13C0FC01E853FE4F0FC0E0
:102C4000FC01E053FE4F0BC0FC01EC52FE4F07C0ED
:102C5000FC01E852FE4F03C0FC01E452FE4F6081CC
:102C600071818281938108956FEF7FEFCB01089589
:102C7000483B21ED520721E962072CE0720749F039
:102C80004F375C466A4A724D61F4FC01EF5DFD4FBF
:102C900003C0FC01EB5DFD4F6081718182819381F6
:102CA000089560E070E080E89FE408954A3326EAE2
:102CB00052072BEE620724E8720709F429C208F0D4
:102CC000F1C0433DFFEB5F07FEE46F07F3E47F07CE
:102CD00009F4EEC108F073C04536E4E85E07EBE2A4
:102CE0006E07EAE17E0709F44FC280F54E3B20EF04
:102CF000520725EF62072EE0720709F4D1C198F45C
:102D0000473EF3E75F07F6E96F07FAE07F0709F44C
:102D1000B7C1483B514D61497C4009F044C2FC01B8
:102D2000EB5DFD4F3BC24B3BE7E95E07E9E46E0715
:102D3000E7E17E0709F4B8C1413F5049684A79414B
:102D400009F031C2FC01E252FF4F28C24C3B2CEE8D
:102D5000520725E1620723E2720709F4BDC198F426
:102D60004433FDE65F07FAEA6F07FFE17F0709F4E6
:102D7000F7C1423A514E6545704209F014C2FC0158
:102D8000EE53FF4F0BC24F3BE7ED5E07E2EA6E07E3
:102D9000E6E37E0709F4F4C14D32F7EB5F07F1EB90
:102DA0006F07FEE37F0709F493C14A3A5A4B674223
:102DB000754309F0F8C1FC01EB5EFD4FEFC1453EE4
:102DC000E2EB5E07E3E26E07E9E67E0709F4B0C1D5
:102DD00080F54F3F25E652072CE1620729E572078F
:102DE00009F454C198F4413CFBED5F07FAE46F0726
:102DF000F2E57F0709F4C0C14B3E5648614D784566
:102E000009F0D1C1FC01E75EFD4FC8C14832E5ECD5
:102E10005E07EFEB6E07EEE57E0709F481C14938E6
:102E20005E4A6547784609F0BEC1FC01E455FE4F95
:102E3000B5C148392CE8520721EE620727E772072F
:102E400009F452C198F4413EFBE35F07F3E86F07D2
:102E5000F9E67F0709F460C149395C4F6444714762
:102E600009F0A1C1FC01EC54FE4F98C14733EEE8D4
:102E70005E07E9E46E07E0E87E0709F441C14137E7
:102E8000F0E45F07F5EA6F07F4E87F0709F454C13F
:102E90004F3A554A664D7B4709F085C1FC01E05A1F
:102EA000FF4F7CC14F32E7E15E07E4E76E07EFEBCF
:102EB0007E0709F44DC108F073C04D3525EE520769
:102EC00026E1620729E9720709F452C180F542340C
:102ED000FFE05F07F5ED6F07FAE87F0709F4F0C040
:102EE00098F44C35EBE95E07ECEF6E07E4E87E07FB
:102EF00009F43AC14B335A426C4A754809F053C140
:102F0000FC01E058FF4F4AC14B3A2BE952072DEE26
:102F100062072EE8720709F4F7C0463E504269483E
:102F2000784909F040C1FC01E055FE4F37C1403AF5
:102F3000F4E95F07F3E66F07F4EB7F0709F428C1B4
:102F400098F4423EE5E85E07E1EC6E07E2EB7E07AF
:102F500009F4BAC048355D406940744B09F023C19B
:102F6000FC01E850FE4F1AC1413227EA520723E024
:102F700062072FEB720709F4BBC04435E7EF5E0729
:102F8000EAE66E07EFEB7E0709F4DEC04B345241F0
:102F90006A4D764B09F007C1FC01EE55FF4FFEC0AC
:102FA0004C3B2EEA520720ED620724ED720709F42C
:102FB000C7C078F54432F7E95F07F2EC6F077F0787
:102FC00009F4CAC098F44A31E4E05E07EEE96E07FE
:102FD000EFEB7E0709F4E0C0403F534F674A7F4B59
:102FE00009F0E1C0FC01EC5FFD4FD8C04F392AE980
:102FF000520723E3620729EC720709F471C04334D6
:103000005E40654C7D4C09F0CEC0FC01EF5EFD4F8B
:10301000C5C04837F1E25F07FCE86F07FEED7F07A8
:10302000D9F198F44A3FE1E45E07EFED6E07EBED6E
:103030007E0709F461C04D3C5A4A6A407C4D09F054
:10304000B2C0FC01E453FF4FA9C04E3E20E152073D
:103050002DE962072BEF720709F466C0413BECE8EB
:103060005E07E1EC6E07EDEF7E0731F14C3354461D
:10307000634E7A4F09F097C0FC01E855FE4F8EC0B1
:10308000FC0162817381848195810895FC016681D0
:103090007781808591850895FC01EC5AFF4F7EC0B1
:1030A000FC01E45AFF4F7AC0FC01E459FF4F76C09F
:1030B000FC01E059FF4F72C0FC01EC58FF4F6EC09D
:1030C000FC01E858FF4F6AC0FC01E458FF4F66C09E
:1030D000FC01EC57FF4F62C0FC01E857FF4F5EC098
:1030E000FC01E057FF4F5AC0FC01EC56FF4F56C0A1
:1030F000FC01EA55FF4F52C0FC01E655FF4F4EC0A0
:10310000FC01E255FF4F4AC0FC01E256FF4F46C0AA
:10311000FC01E656FF4F42C0FC01EE54FF4F3EC09B
:10312000FC01EA54FF4F3AC0FC01EE51FF4F36C09C
:10313000FC01E254FF4F32C0FC01EA53FF4F2EC0A6
:10314000FC01E053FF4F2AC0FC01EA52FF4F26C0AA
:10315000FC01E652FF4F22C0FC01EC55FE4F1EC0A1
:10316000FC01E854FE4F1AC0FC01E45AFE4F16C0A1
:10317000FC01E05AFE4F12C0FC01E858FE4F0EC0A1
:10318000FC01E35FFD4F0AC0FC01EC50FE4F06C09E
:10319000FC01E450FE4F02C0FC01FE5F60817181C2
:1031A00082819381089560E070E080EC9FE708954C
:1031B00040345740624B7E4029F4FC01E953FE4FF6
:1031C0008081089580E30895FC01E654FF4F81E07B
:1031D00020813181232B09F480E00895FC01E25F16
:1031E000FE4F20813181223031050CF04DC07297A5
:1031F00020813181223031050CF046C03497208186
:103200003181223031050CF03FC07097208131812F
:1032100022303105CCF534962081318122303105C0
:103220009CF5349620813181223031056CF5709601
:1032300020813181223031053CF534962081318165
:10324000223031050CF53496208131812230310550
:10325000DCF474972081318122303105ACF47E9604
:1032600020813181223031057CF4349620813181F6
:10327000223031054CF4349681E0208131812230B6
:1032800031051CF480E0089581E008954F332BE36D
:1032900052072FED620727E7720709F480C078F51F
:1032A0004E382AE952072BE462072DE4720709F42D
:1032B0006AC098F4473A25EC52072BE7620727E2E9
:1032C000720709F454C04C355741694C7B4309F0EF
:1032D0006FC0FC01E851FF4F65C04E3D26E8520724
:1032E0002AEC620724E5720709F455C04636524FAE
:1032F000684E754509F05CC0FC01F39553C0473337
:103300002DE0520725E5620722EB720761F190F488
:103310004B3E28E6520720EC620727EA720759F174
:103320004B3255426C477E4A09F042C0FC01EA5ECE
:10333000FE4F38C043392EE6520725E962072DECCF
:10334000720729F14F3522E952072EE362072CEE6E
:103350007207A9F04C33504F6D47794C49F5FC0189
:10336000E850FF4F1FC0FC01E051FF4F1BC0FC01A4
:10337000EC50FF4F17C0FC01E450FF4F13C0FC019D
:10338000EC5FFE4F0FC0FC01E85FFE4F0BC0FC017D
:10339000E25FFE4F07C0FC01EE5EFE4F03C0FC0182
:1033A000E65EFE4F81E020813181223031050CF450
:1033B00080E008954F332BE352072FED620727E794
:1033C000720709F480C078F54E382AE952072BE4D9
:1033D00062072DE4720709F46AC098F4473A25ECB5
:1033E00052072BE7620727E2720709F454C04C35F5
:1033F0005741694C7B4309F06FC0FC01E851FF4F16
:1034000065C04E3D26E852072AEC620724E57207A4
:1034100009F455C04636524F684E754509F05CC0F8
:10342000FC01F39553C047332DE0520725E56207B1
:1034300022EB720761F190F44B3E28E6520720EC34
:10344000620727EA720759F14B3255426C477E4AB0
:1034500009F042C0FC01EA5EFE4F38C043392EE657
:10346000520725E962072DEC720729F14F3522E951
:1034700052072EE362072CEE7207A9F04C33504F2F
:103480006D47794C49F5FC01E850FF4F1FC0FC0126
:10349000E051FF4F1BC0FC01EC50FF4F17C0FC0177
:1034A000E450FF4F13C0FC01EC5FFE4F0FC0FC0166
:1034B000E85FFE4F0BC0FC01E25FFE4F07C0FC015E
:1034C000EE5EFE4F03C0FC01E65EFE4F81E0208110
:1034D0003181121613060CF080E00895EF92FF92EE
:1034E0000F931F93CF93DF93EC017B01142FE8819F
:1034F000F98136978081918140E957E08C0F9D1FBB
:103500000E94550DFE01EA51FF4F0190F081E02D20
:10351000EE0FFF1FEC5CFD4F20813181E881F981C6
:1035200036978081918100E042E557E0B7018C0F2A
:103530009D1F0E948D0EFE01E851FF4F0190F0810A
:10354000E02DEE0FFF1FE45DFD4F20813181E8810A
:10355000F98136978081918141E457E0B7018C0F62
:103560009D1F0E948D0EFE01E651FF4F0190F081DC
:10357000E02DEE0FFF1FEC5CFD4F20813181E881D3
:10358000F98136978081918142E257E0B7018C0F33
:103590009D1F0E948D0EFE01E451FF4F0190F081AE
:1035A000E02DEE0FFF1FE45DFD4F20813181E881AA
:1035B000F9813697808191814EE057E0B7018C0FF9
:1035C0009D1F0E948D0EFE01E251FF4F0190F08180
:1035D000E02DEE0FFF1FEC5CFD4F20813181E88173
:1035E000F98136978081918147E856E0B7018C0FC9
:1035F0009D1F0E948D0EFE01E051FF4F0190F08152
:10360000E02DEE0FFF1FE45DFD4F20813181E88149
:10361000F98136978081918146E756E0B7018C0F9A
:103620009D1F0E948D0EFE01EE50FF4F0190F08114
:10363000E02DEE0FFF1FEC5CFD4F20813181E88112
:10364000F9813697808191814AE556E0B7018C0F68
:103650009D1F0E948D0EFE01EC50FF4F0190F081E6
:10366000E02DEE0FFF1FE45DFD4F20813181E881E9
:10367000F9813697808191814BE456E0B7018C0F38
:103680009D1F0E948D0EFE01EA50FF4F0190F081B8
:10369000E02DEE0FFF1FEC5CFD4F20813181E881B2
:1036A000F98136978081918147E356E0B7018C0F0D
:1036B0009D1F0E948D0EFE01E850FF4F0190F0818A
:1036C000E02DEE0FFF1FE45DFD4F20813181E88189
:1036D000F98136978081918149E256E0B7018C0FDC
:1036E0009D1F0E948D0EFE01E650FF4F0190F0815C
:1036F000E02DEE0FFF1FEC5CFD4F20813181E88152
:10370000F98136978081918145EF55E0B7018C0FA3
:103710009D1F0E948D0EFE01E450FF4F0190F0812D
:10372000E02DEE0FFF1FE45DFD4F20813181E88128
:10373000F98136978081918147EE55E0B7018C0F72
:103740009D1F0E948D0EFE01E250FF4F0190F081FF
:10375000E02DEE0FFF1FEC5CFD4F20813181E881F1
:10376000F98136978081918142E655E0B7018C0F4F
:103770009D1F0E948D0EFE01F3950190F081E02DBA
:10378000EE0FFF1FE45DFD4F20813181E881F9815B
:1037900036978081918141E555E0B7018C0F9D1FDF
:1037A0000E948D0EFE01EE5FFE4F0190F081E02D34
:1037B000EE0FFF1FEC5CFD4F20813181E881F98124
:1037C00036978081918142E155E0B7018C0F9D1FB2
:1037D0000E948D0EFE01EC5FFE4F0190F081E02D06
:1037E000EE0FFF1FE45DFD4F20813181E881F981FB
:1037F00036978081918141E055E0B7018C0F9D1F84
:103800000E948D0EFE01EA5FFE4F0190F081E02DD7
:10381000EE0FFF1FEC5CFD4F20813181E881F981C3
:1038200036978081918148ED54E0B7018C0F9D1F40
:103830000E948D0EFE01E85FFE4F0190F081E02DA9
:10384000EE0FFF1FE45DFD4F20813181E881F9819A
:1038500036978081918148EC54E0B7018C0F9D1F11
:103860000E948D0EFE01E65FFE4F20813181E881CE
:10387000F9813697808191814AE654E0B7018C0F37
:103880009D1F0E94DD0DFE01E45FFE4F0190F0815F
:10389000E02DEE0FFF1FEC5CFD4F20813181E881B0
:1038A000F98136978081918140EC53E0B7018C0F0C
:1038B0009D1F0E948D0EFE01E25FFE4F0190F08180
:1038C000E02DEE0FFF1FE45DFD4F20813181E88187
:1038D000F98136978081918141EB53E0B7018C0FDC
:1038E0009D1F0E948D0EFE01E05FFE4F0190F08152
:1038F000E02DEE0FFF1FEC5CFD4F20813181E88150
:10390000F98136978081918146E156E0B7018C0FAD
:103910009D1F0E948D0EFE01EE5EFE4F0190F08114
:10392000E02DEE0FFF1FE45DFD4F20813181E88126
:10393000F98136978081918144E056E0B7018C0F80
:103940009D1F0E948D0EFE01EC5EFE4F0190F081E6
:10395000E02DEE0FFF1FEC5CFD4F20813181E881EF
:10396000F98136978081918147EB54E0B7018C0F44
:103970009D1F0E948D0EFE01EA5EFE4F0190F081B8
:10398000E02DEE0FFF1FE45DFD4F20813181E881C6
:10399000F98136978081918147EA54E0B7018C0F15
:1039A0009D1F0E948D0EFE01E85EFE4F0190F0818A
:1039B000E02DEE0FFF1FEC5CFD4F20813181E8818F
:1039C000F98136978081918142E455E0B7018C0FEF
:1039D0009D1F0E948D0EFE01E65EFE4F0190F0815C
:1039E000E02DEE0FFF1FE45DFD4F20813181E88166
:1039F000F98136978081918101E044E355E0B70178
:103A00008C0F9D1F0E948D0EE881F9813697808171
:103A10009181412F6BEF7EE08C0F9D1FDF91CF9145
:103A20001F910F91FF90EF900C941A0DCF92DF929F
:103A3000EF92FF920F931F93CF93DF93EC016B01F3
:103A4000F42EE881F98136978081918144E657E030
:103A50008C0F9D1F0E94550DFE01EA55FF4F0081FE
:103A6000118122813381E881F981369780819181AA
:103A7000E12C44E757E0B6018C0F9D1F0E947B0D9F
:103A8000FE01E655FF4F0081118122813381E881DB
:103A9000F98136978081918144E755E0B6018C0F1A
:103AA0009D1F0E947B0DE881F9813697808191816D
:103AB00049EE54E0B6018C0F9D1F0E94550DFE018A
:103AC000E858FF4F0081118122813381E881F9811B
:103AD00036978081918144EB55E0B6018C0F9D1F94
:103AE0000E947B0DFE01EC58FF4F00811181228165
:103AF0003381E881F9813697808191814AEA55E0E6
:103B0000B6018C0F9D1F0E947B0DFE01E458FF4FF4
:103B10000081118122813381E881F981369780818A
:103B20009181EE24E3944BE657E0B6018C0F9D1F84
:103B30000E947B0DE881F98136978081918141E077
:103B40006BEF7EE08C0F9D1F0E941A0DE881F981BA
:103B50003697808191814F2D6BEF7EE08C0F9D1FFA
:103B6000DF91CF911F910F91FF90EF90DF90CF9059
:103B70000C941A0DCF92DF92EF92FF920F931F9346
:103B8000CF93DF93EC016B01F42EE881F981369736
:103B90008081918149EE54E08C0F9D1F0E94550D4C
:103BA000FE01E858FF4F0081118122813381E881B5
:103BB000F981369780819181E12C44EB55E0B60183
:103BC0008C0F9D1F0E947B0DFE01EC58FF4F008162
:103BD000118122813381E881F98136978081918139
:103BE0004AEA55E0B6018C0F9D1F0E947B0DFE0135
:103BF000E458FF4F0081118122813381E881F981EE
:103C0000369780819181EE24E3944BE657E0B6012C
:103C10008C0F9D1F0E947B0DE881F9813697808172
:103C200091814F2D6BEF7EE08C0F9D1FDF91CF9127
:103C30001F910F91FF90EF90DF90CF900C941A0D91
:103C4000CF92DF92EF92FF920F931F93CF93DF9368
:103C5000EC016B01F42EE881F98136978081918126
:103C600047E357E08C0F9D1F0E94550DFE01E6545F
:103C7000FF4F0190F081E02DEE0FFF1FEA5DFD4F39
:103C800020813181E881F98136978081918100E03E
:103C900041E154E0B6018C0F9D1F0E948D0EFE0184
:103CA000E454FF4F0190F081E02DEE0FFF1FE05E26
:103CB000FD4F20813181E881F981369780819181A2
:103CC0004FE255E0B6018C0F9D1F0E948D0EFE0144
:103CD000E254FF4F0081118122813381E881F98113
:103CE000369780819181E12C4FED53E0B6018C0F26
:103CF0009D1F0E947B0DFE01EE53FF4F008111813D
:103D000022813381E881F98136978081918142EF68
:103D100053E0B6018C0F9D1F0E947B0DFE01EA53FC
:103D2000FF4F0081118122813381E881F98136972B
:103D30008081918140E857E0B6018C0F9D1F0E9461
:103D40007B0DFE01E653FF4F0190F081E02DEE0F59
:103D5000FF1FEA5FFD4F20813181E881F9813697AD
:103D60008081918100E049EC55E0B6018C0F9D1FE8
:103D70000E948D0EFE01E453FF4F008111812281CC
:103D80003381E881F9813697808191814EEC56E04C
:103D9000B6018C0F9D1F0E947B0DFE01E053FF4F6B
:103DA0000081118122813381E881F98136978081F8
:103DB000918145E057E0B6018C0F9D1F0E947B0D5D
:103DC000FE01EC52FF4F00811181222717FD209543
:103DD000322FE881F98136978081918146E456E05F
:103DE000B6018C0F9D1F0E942D0EFE01EA52FF4F5F
:103DF0000081118122813381E881F98136978081A8
:103E000091814BE855E0B6018C0F9D1F0E947B0D00
:103E1000FE01E652FF4F0081118122813381E8814A
:103E2000F9813697808191814EE755E0B6018C0F7C
:103E30009D1F0E947B0DFE01E252FF4F0081118108
:103E400022813381E881F98136978081918142EF27
:103E500054E0B6018C0F9D1F0E947B0DFE01EE51B8
:103E6000FF4F0081118122813381E881F9813697EA
:103E700080819181EE24E39447E154E0B6018C0FF8
:103E80009D1F0E947B0DE881F98136978081918189
:103E90004F2D6BEF7EE08C0F9D1FDF91CF911F9117
:103EA0000F91FF90EF90DF90CF900C941A0DCF926E
:103EB000DF92EF92FF920F931F93CF93DF93EC016A
:103EC0006B01F42EE881F98136978081918140ED74
:103ED00053E08C0F9D1F0E94550DFE01E055FE4FD3
:103EE0000081118122813381E881F98136978081B7
:103EF0009181E12C4FE554E0B6018C0F9D1F0E948B
:103F00007B0DFE01E855FE4F008111812281338136
:103F1000E881F98136978081918147EA56E0B601C0
:103F20008C0F9D1F0E947B0DFE01EC55FE4F008102
:103F3000118122813381E881F981369780819181D5
:103F40004CEB56E0B6018C0F9D1F0E947B0DFE01CD
:103F5000E455FE4F0081118122813381E881F9818E
:103F600036978081918149E956E0B6018C0F9D1FFB
:103F70000E947B0DFE01E854FE4F008111812281D9
:103F80003381E881F98136978081918141E554E060
:103F9000B6018C0F9D1F0E947B0DFE01EC54FE4F5D
:103FA0000081118122813381E881F98136978081F6
:103FB0009181EE24E39445E254E0B6018C0F9D1FFD
:103FC0000E947B0DE881F9813697808191814F2D88
:103FD0006BEF7EE08C0F9D1FDF91CF911F910F91B2
:103FE000FF90EF90DF90CF900C941A0DCF92DF925C
:103FF000EF92FF920F931F93CF93DF93EC016B012E
:10400000F42EE881F98136978081918144E255E070
:104010006BEF7EE08C0F9D1F0E94550D0E811F815E
:1040200028853985E881F981369780819181E12C55
:1040300047ED56E06BEF7EE08C0F9D1F0E947B0DDD
:104040000A811B812C813D81E881F981369780812D
:1040500091814CEE56E06BEF7EE08C0F9D1F0E942D
:104060007B0DFE01E459FF4F0081118122813381D4
:10407000E881F98136978081918147ED55E06BEFBA
:104080007EE08C0F9D1F0E947B0DFE01EC5AFF4FBE
:104090000081118122813381E881F9813697808105
:1040A000918148E955E06BEF7EE08C0F9D1F0E94E7
:1040B0007B0DFE01E059FF4F008111812281338188
:1040C000E881F9813697808191814DEB55E06BEF66
:1040D0007EE08C0F9D1F0E947B0DFE01E058FF4F7C
:1040E0000081118122813381E881F98136978081B5
:1040F00091814BEF54E06BEF7EE08C0F9D1F0E948F
:104100007B0DFE01EC57FF4F00811181228133812D
:10411000E881F9813697808191814CE954E06BEF19
:104120007EE08C0F9D1F0E947B0DFE01E857FF4F24
:104130000081118122813381E881F9813697808164
:10414000918147E954E06BEF7EE08C0F9D1F0E9448
:104150007B0DFE01E057FF4F0081118122813381E9
:10416000E881F98136978081918141E454E06BEFD9
:104170007EE08C0F9D1F0E947B0DFE01EC56FF4FD1
:104180000081118122813381E881F9813697808114
:1041900091814FE254E06BEF7EE08C0F9D1F0E94F7
:1041A0007B0DFE01E856FF4F0190F081E02DEE0FF0
:1041B000FF1FE45FFD4F20813181E881F98136974F
:1041C0008081918100E041E154E06BEF7EE08C0F53
:1041D0009D1F0E948D0E40E0B601CE010E94161D6B
:1041E00041E06BEF7EE0CE010E94BA1DE881F981CB
:1041F0003697808191814F2D6BEF7EE08C0F9D1F54
:10420000DF91CF911F910F91FF90EF90DF90CF90B2
:104210000C941A0DCF92DF92EF92FF920F931F939F
:10422000CF93DF93EC016B01F42EE881F98136978F
:10423000808191814AE656E06BEF7EE08C0F9D1FF6
:104240000E94550DFE01E45AFE4F0081118122812A
:104250003381E881F981369780819181E12C46E9AB
:1042600057E06BEF7EE08C0F9D1F0E947B0DFE01DF
:10427000E05AFE4F0081118122813381E881F9816A
:1042800036978081918141EB57E06BEF7EE08C0F98
:104290009D1F0E947B0DFE01E858FE4F0081118199
:1042A00022813381E881F98136978081918145EDC2
:1042B00053E06BEF7EE08C0F9D1F0E947B0D41E071
:1042C000B601CE010E94571FE881F981369780819F
:1042D00091814F2D6BEF7EE08C0F9D1FDF91CF9171
:1042E0001F910F91FF90EF90DF90CF900C941A0DDB
:1042F000CF92DF92EF92FF920F931F93CF93DF93B2
:10430000EC016B01F42EE881F9813697808191816F
:1043100048E054E06BEF7EE08C0F9D1F0E94550D2E
:10432000FE01EE54FF4F0081118122813381E8812B
:10433000F981369780819181E12C4BE854E06BEF55
:104340007EE08C0F9D1F0E947B0DFE01EA54FF4F03
:104350000081118122813381E881F9813697808142
:10436000918149E754E06BEF7EE08C0F9D1F0E9426
:104370007B0D41E0B601CE010E94201EE881F9814B
:104380003697808191814F2D6BEF7EE08C0F9D1FC2
:10439000DF91CF911F910F91FF90EF90DF90CF9021
:1043A0000C941A0D0F931F93CF93DF93EC018B01A5
:1043B000E881F9813697808191816BEF7EE08C0FE7
:1043C0009D1F0E94100DE881F981369780819181AF
:1043D00042EC57E06BEF7EE08C0F9D1F0E94550D65
:1043E000E881F9813697808191814DEB57E06BEF41
:1043F0007EE08C0F9D1F0E94550D40E0B801CE015C
:104400000E94F61F40E0B801CE010E946E1A40E003
:10441000B801CE010E94782141E0B801CE010E948E
:104420000A21E881F98136978081918141E0B801C4
:104430008C0F9D1F0E941A0DE881F98136978081AB
:10444000918141E0B8018C0F9D1F0E941A0DE881F7
:10445000F981369780819181B8018C0F9D1FDF9182
:10446000CF911F910F910C94150D27E734E0FC01BB
:1044700031832083089527E734E0FC0131832083D2
:104480000C948148FC01178216821186108610A6B2
:104490001286EA5BFF4F1082089527E734E0FC01A3
:1044A00031832083E858FF4F1082FC0173836283BD
:1044B000558344830C944222FC01178216820C948B
:1044C0004222CF92DF92EF92FF920F931F93CF93EE
:1044D000DF93EC018B01AC81BD81BC016D5A7F4F34
:1044E000ED91FC9111973697808191818A0F9B1FE6
:1044F0000E94E40C6B017C018885998582309105CE
:1045000061F08330910509F465C0019709F079C025
:1045100021E0012B09F067C065C0B80183E193E099
:104520000E94F750892B09F46CC0AC81BD81ED91DC
:10453000FC911197369780819181B701A6018A0F6E
:104540009B1F0E94D60E8230910591F17CF4892B3D
:1045500009F057C0C8010E94CD508B019C01B701E2
:10456000A6018C819D810E9408134BC08330910568
:1045700079F0049709F045C0C8010E94CD508B0125
:104580009C01B701A6018C819D810E94E61139C072
:104590004AE050E060E070E0C8010E94B94F8B0132
:1045A0009C01B701A6018C819D810E94621229C0E5
:1045B000C8010E94D1509C01B701A6018C819D8148
:1045C000DF91CF911F910F91FF90EF90DF90CF90EF
:1045D0000C94F71168E173E0C8010E94F75021E0E4
:1045E000892B09F020E0B701A6018C819D81DF9124
:1045F000CF911F910F91FF90EF90DF90CF900C948F
:10460000C511DF91CF911F910F91FF90EF90DF9037
:10461000CF900895CF93DF93DC01AA5BBF4FFD01DC
:1046200001900020E9F7EA1BFB0B3297F7FD0CC065
:10463000EC01CE0FDF1FCA5BDF4F28812E3211F451
:10464000188203C03197F2CF1C92FC01E858FF4F4B
:104650001082DF91CF910895FB0101900020E9F7CE
:1046600031974083118281E00895462FBC016A5B37
:104670007F4F22E330E00C942C23EF92FF920F93B4
:104680001F93CF93DF938C01EB018881882371F115
:10469000D801AA5BBF4FFD0101900020E9F73197D7
:1046A000EA1BFB0B1E161F0614F07E0107C06EE20C
:1046B000C8010E9435238111F8CF18C0FE01019076
:1046C0000020E9F73197EC1BFD0BC7018C1B9D0BFC
:1046D0008E179F0738F4F70161917F01C8010E948E
:1046E0003523ECCFF801E858FF4F1082DF91CF91CE
:1046F0001F910F91FF90EF900895462FBC01685DC8
:104700007F4F2EE130E00C942C23462FBC01665FD6
:104710007F4F2EE130E00C942C23CF92DF92EF926A
:10472000FF920F931F93CF93DF931F921F92CDB7EA
:10473000DEB76C01262F7C0188E2E80EF11C04E054
:1047400010E0E62FEF7DE983F601868197818230C4
:10475000910509F4BFC034F4009761F0019709F4A2
:1047600062C0CCC08430910509F49AC0069709F460
:10477000ABC0C4C02D3559F154F42232F9F02B35B9
:10478000D1F561E774E0C6010E943D23B7C024372C
:1047900039F12B3769F0263671F581E090E0F601AA
:1047A0009783868383E090E09187808766E632C0B6
:1047B00081E090E0F6019783868383C081E090E0FA
:1047C000F601978386839187808710A697C0C601DC
:1047D0000E940A2384E090E0F601978386838EC0CE
:1047E00081E090E0F6019783868383E090E09187F3
:1047F000808764E70FC080ED820F8A3078F481E013
:1048000090E0F6019783868382E090E0918780872D
:1048100010A6622FC6010E947D2370C02D3279F34D
:104820002E3669F36EC0F601808591858130910541
:10483000E9F01CF4892B39F061C082309105C9F090
:10484000039741F15BC02D3741F461E774E0C60185
:104850002A830E943D23F60115C0223209F051C07F
:1048600082E090E0F6019783868347C0223219F0F8
:10487000D0CF2C3259F4B701C6012A830E9461229D
:10488000F60110A6178306832A815ECFF981FD35D4
:1048900091F3BFCF2C3279F389818D3561F3B9CF94
:1048A000822F8F7D8D3549F02C3211F0223271F438
:1048B00081E090E0F60197838683C6010E940A2377
:1048C000F601118610861AC02A33D9F4F601178230
:1048D000168214C0223229F0622FC6010E9485235D
:1048E0000DC086E090E0F60197838683B601665F8F
:1048F0007F4FC6010E943D23F601128680E090E0C2
:1049000002C08FEF9FEF0F900F90DF91CF911F911B
:104910000F91FF90EF90DF90CF900895FC01578B9F
:10492000468B718F608F118210820895FC01A081E7
:10493000B181A80FB91F12966C9380819181439722
:104940002CF480819181019691838083089561E0A8
:1049500085E30E94134A61E085E30E94DA498CB541
:1049600080618CBD8CB580648CBD61E084E30E9465
:10497000DA4961E083E30C94DA49811103C08CB514
:10498000806202C08CB58F7D8CBD08959CB5937FED
:10499000982B9CBD0895FC01A681B7819D012F5FD6
:1049A0003F4F8481958140855185840F951F28173D
:1049B000390750F4378326836C930680F781E02D06
:1049C000108281E090E0089580E090E00895FC017D
:1049D000A481B581B783A68380859185892B09F051
:1049E0001C92089508952F923F924F925F926F927A
:1049F0007F928F929F92AF92BF92CF92DF92EF926F
:104A0000FF920F931F93CF93DF93CDB7DEB72A9713
:104A10000FB6F894DEBF0FBECDBF9A878987DC0141
:104A2000D6968C91882309F4E5C00E94CD4869830D
:104A30007A838B839C83E985FA8580A191A1298162
:104A40003A81281B390B84A595A5281739070CF442
:104A5000D1C0028CF38DE02D80809180A280B38044
:104A6000A985BA855E96ED91FC915F97A5019401A9
:104A700060817181828193810E944A4A2B013C01AD
:104A8000E985FA8520893189428953890E941F4D21
:104A9000A985BA8594962D913D914D915C919797FA
:104AA0000E944B4A6B017C01E985FA8564A375A3DA
:104AB00086A397A312A903A934A825A8212F302FD4
:104AC000432D522D0E94144D18162CF4812F902F37
:104AD000A32DB22D18C0A985BA859E968D919D9162
:104AE0000D90BC91A02D8D839E83AF83B8879C01D0
:104AF000AD01C701B6010E94114B87FF0AC08D812D
:104B00009E81AF81B885E985FA8584A395A3A6A384
:104B1000B7A3A985BA851C962D913D914D915C91C5
:104B20001F97C301B2010E941F4DE985FA8524A198
:104B300035A146A157A10E944B4A6B017C01A98572
:104B4000BA8598962D913D914D915C919B97C501A9
:104B5000B4010E944A4AE985FA8524893589468943
:104B600057890E941F4D9B01AC01C701B6010E94ED
:104B70004A4A6B017C01212F302F432D522D0E9478
:104B8000144D1816DCF0A985BA859E961C919E9747
:104B90009F960C919F97D0963C90D097D1962C9051
:104BA000212F302F432D522DB601C7010E94114BEA
:104BB00087FD04C01C2D0D2D3E2C2F2CA985BA85F8
:104BC0005C96ED91FC915D97812F902FA32DB22DD6
:104BD00080839183A283B383E985FA8580A691A619
:104BE000A2A6B3A689819A81AB81BC8180A391A33F
:104BF000A2A3B3A32A960FB6F894DEBF0FBECDBF13
:104C0000DF91CF911F910F91FF90EF90DF90CF90A8
:104C1000BF90AF909F908F907F906F905F904F90DC
:104C20003F902F9008952F923F924F925F926F92F4
:104C30007F928F929F92AF92BF92CF92DF92EF922C
:104C4000FF920F931F93CF93DF9300D01F92CDB7A6
:104C5000DEB71C012A013B014801590120E030E088
:104C6000A901C301B2010E94114B87FD7AC020E067
:104C700030E0A901C501B4010E94114B87FD71C04C
:104C800020E030E0A901C701B6010E94114B87FD69
:104C900068C0F1014082518262827382848295826F
:104CA000A682B782C086D186E286F38664A575A502
:104CB000882777FD8095982F0E94B34B20E030E045
:104CC0004AE754E40E94184B69837A838B839C8360
:104CD000F10144865586668677869B01AC01C50145
:104CE000B4010E941F4D4B015C01F101608B718B7F
:104CF000828B938B29813A814B815C81C701B601FC
:104D00000E94184B6B017C01F101648B758B868BC3
:104D1000978B808D918D019721F5A301920160E021
:104D200070E0CB010E944A4AF1016487758786874B
:104D30009787A501940160E070E0CB010E944A4A88
:104D4000F101608B718B828B938BA701960160E0E0
:104D500070E0CB010E944A4AF101648B758B868B0F
:104D6000978B0F900F900F900F90DF91CF911F9125
:104D70000F91FF90EF90DF90CF90BF90AF909F90FA
:104D80008F907F906F905F904F903F902F900895FD
:104D9000CF92DF92EF92FF920F931F93CF93DF9307
:104DA000EC018B011616170694F5882777FD809580
:104DB000982F0E94B34B6B017C016CA57DA58827C1
:104DC00077FD8095982F0E94B34B9B01AC01C701E2
:104DD000B6010E94184B6B017C019B01AC016889F4
:104DE00079898A899B890E941F4D688B798B8A8B70
:104DF0009B8BA70196016C897D898E899F890E9472
:104E0000184B6C8B7D8B8E8B9F8B1DA70CA7DF9116
:104E1000CF911F910F91FF90EF90DF90CF90089569
:104E20002F923F924F925F926F927F928F929F92BA
:104E3000AF92BF92CF92DF92EF92FF920F931F93A8
:104E4000CF93DF93EC016A017B0148015901A9016D
:104E50009801C701B6010E94144D87FF4EC0CEA62F
:104E6000DFA6E8AAF9AA8AAA9BAAACAABDAA8EA91B
:104E7000882309F442C02C8C3D8CF1014080518084
:104E800062807380A5019401C301B2010E94144D98
:104E9000181634F4F10180829182A282B3820DC08F
:104EA000A7019601C301B2010E94114B87FF05C003
:104EB000F101C082D182E282F3828CA09DA0AEA0DB
:104EC000BFA0CAA8DBA8ECA8FDA8A7019601C50150
:104ED000B4010E94144D181664F0CEA4DFA4E8A813
:104EE000F9A8A7019601C501B4010E94114B87FFE3
:104EF00004C0CCA2DDA2EEA2FFA2DF91CF911F9150
:104F00000F91FF90EF90DF90CF90BF90AF909F9068
:104F10008F907F906F905F904F903F902F9008956B
:104F20008F929F92AF92BF92CF92DF92EF92FF92B9
:104F3000CF93DF93EC01EC8DFD8DC080D180E280BA
:104F4000F380CCA2DDA2EEA2FFA2EA8DFB8D8081D0
:104F50009181A281B38188A799A7AAA7BBA78AA894
:104F60009BA8ACA8BDA8A5019401C701B6010E94E9
:104F7000144D181664F08EA49FA4A8A8B9A8A50182
:104F80009401C701B6010E94114B87FF04C08CA297
:104F90009DA2AEA2BFA2DF91CF91FF90EF90DF90D4
:104FA000CF90BF90AF909F908F9008951F93CF9315
:104FB000DF93EC0111E06130710509F010E08EA97A
:104FC00091E08927181303C0CE010E9490271EABE1
:104FD000DF91CF911F9108950F931F93CF93DF938C
:104FE000EC018B018EA9882361F1888D998D68175A
:104FF000790739F12C853D854E855F8560E070E04D
:10500000CB010E944A4A6C877D878E879F872889BB
:1050100039894A895B8960E070E0CB010E944A4A85
:10502000688B798B8A8B9B8B2C893D894E895F8914
:1050300060E070E0CB010E944A4A6C8B7D8B8E8BC6
:105040009F8B198F088FDF91CF911F910F9108953A
:105050002F923F924F925F926F927F928F929F9288
:10506000AF92BF92CF92DF92EF92FF920F931F9376
:10507000CF93DF93CDB7DEB728970FB6F894DEBF96
:105080000FBECDBF4C017A8369831A013C832B8309
:1050900027013801AD82BE82CF82D88600E010E0C1
:1050A0002FE733E440E050E0BA010E94102784E685
:1050B00090E0F40195A784A76AA17BA1C4010E9496
:1050C000EC27CE8CDF8CE8A0F9A00D811E812F810A
:1050D0003885B301A201C4010E9413260E94CD4865
:1050E000F40144A455A4662457FC6094762C6419FA
:1050F00075098609970960A371A382A393A316AAD1
:10510000358E248E89819A81938F828F8B819C81A9
:10511000978F868F28960FB6F894DEBF0FBECDBF4F
:10512000DF91CF911F910F91FF90EF90DF90CF9083
:10513000BF90AF909F908F907F906F905F904F90B7
:105140003F902F9008950F931F93CF93DF93FC010F
:1051500071836083128213821482158286E58683AE
:105160001782108611861286138614861586168677
:105170001786108A118A128A138A148A158A168A47
:10518000DF01A754BF4F11961C921E92AE55BF4F20
:1051900011961C921E92149611961C921E921296B3
:1051A00011961C921E92129611961C921E92178AAC
:1051B000AC5AB1091D921C92EF0104E110E08FE09E
:1051C00090E00E94924EFE01E15EFE4F918380834B
:1051D0008FE090E00E94924EFE01E558FF4F9183D0
:1051E0008083FC01108201501109229601151105DE
:1051F00031F7DF91CF911F910F910895FC016281EA
:105200007381848195810895FC0186810895FC0154
:1052100067817085818592850895FC016385748519
:10522000858596850895CF92DF92EF92FF926A016D
:105230007B01FC012785308941895289C701B6016C
:105240000E941F4DFF90EF90DF90CF900895FC01DA
:105250006389748985899689089547960895660FAC
:10526000771F680F791FFB01E558FF4F80819181FF
:1052700008954F925F926F927F928F929F92AF921A
:10528000BF92CF92DF92EF92FF920F931F93CF9333
:10529000DF93FB0110811D3241F031E020E01B3231
:1052A00009F030E0832F922F02C081E090E0EB0103
:1052B000C80FD91F00E03DEC432E3CEC532E652C6B
:1052C0003DE3732E812C912C5401C12CD12C7601FD
:1052D000E991EE23E9F1EE32C9F1FF27E7FDF09500
:1052E000011113C0AAE0B0E0A70196010E94604E30
:1052F0006B017C01CF01C097AA2797FDA095BA2F1B
:10530000C80ED91EEA1EFB1EE3CFBF016053710910
:10531000882777FD8095982F0E94B34B9B01AC01A5
:10532000C301B2010E941F4D9B01AC01C501B40134
:105330000E944B4A4B015C0120E030E040E251E426
:10534000C301B2010E94184B2B013C0101E0C0CF08
:10535000C701B6010E94B34B9B01AC01C501B4016A
:105360000E944B4A1D3239F49B01AC0160E070E0B1
:10537000CB010E944A4ADF91CF911F910F91FF907C
:10538000EF90DF90CF90BF90AF909F908F907F90E5
:105390006F905F904F9008958F929F92AF92BF92BF
:1053A000CF92DF92EF92FF920F931F93CF93DF93F1
:1053B000EC01AC01455A5E4FDA012D913C911197F9
:1053C000FC01E15AFE4F243631056CF4A25AB109B2
:1053D0008D919C911197449734F4A655BF4F8D91B0
:1053E0009C910F9714F0118210826A3011F06D3089
:1053F00011F4118210826432E1F4DE01A35ABE4F2F
:1054000011961C921E92149611961C921E92A85AE6
:10541000B10911961C921E92A655BF4F1D921C9267
:10542000C554DF4F688381E090E0DA018D939C934F
:10543000E4C0808191818130910569F024F4009766
:1054400009F47AC272C28230910509F492C00397BE
:1054500009F4D6C06AC2273031057CF4D901AD57B2
:10546000BB4F8C91681309C0DE01A35ABE4F8D91CA
:105470009C91119701968D939C93C9010196DA0135
:105480008D939C932C0F3D1FD901A554BF4F6C9356
:10549000CE0187549F4F8E010D591E4F6A3249F13C
:1054A000DE01AF59BE4FFC016C3209F040C02081D3
:1054B0003181A9014F5F5F4F51834083C901880F3C
:1054C000991F8C0F9D1FEC01C15EDE4F0990D881A2
:1054D000C02DF80180819181C80FD91F18821182D7
:1054E00010828D919C911197FCE28F278D939C9354
:1054F0001EC2DC012D913C911197A9014F5F5F4FB6
:105500004D935C93C901880F991F8C0F9D1FEC016F
:10551000C15EDE4F0990D881C02DD8018D919C913C
:105520001197C80FD91F18821D921C9263C08081E9
:105530009181880F991F8C0F9D1FEC01C15EDE4F7A
:105540000990D881C02DF801808191819C012F5F45
:105550003F4F31832083C80FD91F6883772767FDAA
:1055600070958D919C911197682779276D937C9305
:10557000DEC1C9010196DA018D939C932C0F3D1F6A
:10558000D901A554BF4F6C93DE01A754BF4F8D9135
:105590009C91880F991F8C0F9D1FDC01A15EBE4F4F
:1055A0000D911C919E012D593E4FD9018D919C91D9
:1055B0001197AC014F5F5F4F4D935C93080F191F1C
:1055C000D8016C93CF59DE4F48815981862F992796
:1055D00087FD9095613414F0C79701C0C0979C0176
:1055E000B4E0220F331FBA95E1F7CA01821B930B77
:1055F000998388838081918101969183808397C16B
:10560000CE01820F931FDC01A554BF4F6C932E5F18
:105610003F4FDA012D933C93DC01A454BF4F1C9201
:105620009E0127543F4FD9018D919C91880F991F5E
:105630008C0F9D1FDC01A15EBE4F8D919C916E0170
:10564000BDE9CB1ABEEFDB0AD6010D911C917801A2
:10565000BFEFEB1AFB0AD601ED92FC92800F911F6F
:10566000DC016C93D9018D919C9111978C010F5F96
:105670001F4F0D931C93880F991F8C0F9D1F815EE8
:105680009E4FDC018D919C91D6010D911C91800F54
:10569000911FDC011C9211821082FE01EF59FE4F16
:1056A00080819181062F112707FD1095613424F028
:1056B000B8016753710903C0B80160537109861BB3
:1056C000970B91838083009709F031C168817981BC
:1056D000672B29F4FA0160817181CB010AC0FE01B8
:1056E000E35AFE4F608171816630710509F024C173
:1056F000F1CF019797FD0AC0FE01E80FF91F8F0156
:1057000005541F4FD8011C91178BF3CFFB01319724
:10571000CB0177FF02C080E090E0BF01681B790BEE
:10572000DA016D937C93FE01E954FF4F11821082E0
:1057300040815181D9018D919C914817590784F579
:10574000D6011D921C9280819181D6014D915C9170
:10575000880F991F8C0F9D1FBC01615E7E4FDB017E
:105760006D917C91640F751FDB016C9185589F4F83
:10577000DC018D919C91840F951FDC01662349F01B
:105780006C93D6018D919C91119701968D939C936A
:10579000DACF1C9280819181019691838083C8CF5A
:1057A000FE01E35AFE4F80819181069709F0C2C045
:1057B000FC9760817181CE010E9439296A837B83C5
:1057C0008C839D83FE01ED5DFE4F0190F081E02D05
:1057D00080818E83FE01EB5DFE4F60817181CE0181
:1057E0000E94392920E030E048EC52E40E94184B36
:1057F0004B015C010E94EE4B6B017C018E010B5949
:105800001E4FF80160837183828393839B01AC01F7
:10581000C501B4010E944A4A20E030E048EC52E45D
:105820000E941F4D20E030E040E752E40E94184BF8
:10583000A70196010E944B4A9B01AC016F837887B8
:1058400089879A87FE01E95DFE4F0190F081E02D86
:105850008081833549F460E070E0CB010E944A4AC0
:105860006F83788789879A87FE01E75DFE4F6081A5
:105870007181CE010E94392920E030E048EC52E4E9
:105880000E94184B4B015C010E94EE4B6B017C01A6
:10589000D8016D937D938D939C9313979B01AC01DD
:1058A000C501B4010E944A4A20E030E048EC52E4CD
:1058B0000E941F4D20E030E040E752E40E94184B68
:1058C000A70196010E944B4A9B01AC016B877C8724
:1058D0008D879E87FE01E55DFE4F0190F081E02DF2
:1058E0008081873549F460E070E0CB010E944A4A2C
:1058F0006B877C878D879E87FE01E35DFE4F60810D
:105900007181CE010E9439296F87788B898B9A8BA0
:10591000FE01E15DFE4F60817181CE010E94392957
:105920006B8B7C8B8D8B9E8B05C01182108280E0EF
:1059300090E002C081E090E0DF91CF911F910F9144
:10594000FF90EF90DF90CF90BF90AF909F908F909F
:1059500008958EBD0DB407FEFDCF8EB508950F934B
:105960001F93FC011382128208EE13E020E030E066
:1059700004831583268337838FEC94E0918380839F
:10598000648745871F910F910895EF92FF921F93AF
:10599000CF93DF931F92CDB7DEB77C01162F60E067
:1059A000FC01848549830E94134AF8E01F9FB001DF
:1059B0001124F7018585880F862B0E94A92C498127
:1059C000842F0E94A92C62E070E080E090E00E94A9
:1059D000FC4861E0F70184850F90DF91CF911F9122
:1059E000FF90EF900C94134A462F60E00E94C52C64
:1059F00081E090E0089546E062E00C94C52CCF92DF
:105A0000DF92EF92FF920F931F93CF93DF931F923A
:105A10001F92CDB7DEB78C01F22E60E0FC018485C9
:105A200049835A830E94134A4981E42EC42E5A8125
:105A3000D52E8C2D8E198F1530F4F60181916F01C2
:105A40000E94A92CF6CF62E070E080E090E00E9416
:105A5000FC4861E0F80184850F900F90DF91CF91B1
:105A60001F910F91FF90EF90DF90CF900C94134A0D
:105A7000242FAB0160E00C94FF2C1F93CF93DF9396
:105A8000EC01162F60E08C850E94134A62E070E002
:105A900080E090E00E94FC4888E0189FB00111244B
:105AA0008D85880F862B80680E94A92C80E00E943B
:105AB000A92C182F62E070E080E090E00E94FC4882
:105AC00061E08C850E94134A812FDF91CF911F9155
:105AD000089560E00E943D2D90E0089569E00E94E5
