:100000000C9408040C9457460C9488460C94B946FA
:100010000C94EA460C941B470C944C470C947D4777
:100020000C94AE470C9437040C9437040C943704AA
:100030000C9437040C9437040C9437040C946936F0
:100040000C9437040C9437040C9437040C94370444
:100050000C9437040C9437040C9437040C94F14737
:100060000C9437040C94A8400C94DE400C94370494
:100070000C9437040C9437040C9437040C94370414
:100080000C9437040C9437040C9437040C94370404
:100090000C9455410C948B410C9437040C94370408
:1000A0000C9437040C9437040C9437040C943704E4
:1000B0000C9437040C9437040C942E3D0C94A23C01
:1000C0000C94903D0C9437040C9437040C94024229
:1000D0000C9438420C9437040C94AF420C94E542D3
:1000E0000C9437043146FB4503460F461C463D46FB
:1000F0004A460D491049FF480349094947491449EF
:1001000018491E49224926492C4930493449474952
:100110003A493E494249084AD73B3BCE016E84BC2E
:10012000BFFDC12F3D6C74319ABD56833DDA3D0051
:10013000C77F11BED9E4BB4C3E916BAAAABE00009A
:1001400000803F05A84CCDB2D44EB93836A9020C78
:1001500050B9918688083CA6AAAA2ABE0000008051
:100160003F00536574757020636F6D706C657465C6
:100170002E2E0053746172742074696D65722E2E78
:100180000053746172742077696E642E2E0053746C
:10019000617274206E6D6561205478202D206F6E21
:1001A0002070696E732034362054782C2034382027
:1001B000527820617420005374617274206E6D65F2
:1001C000612054782E2E005374617274206E6D6518
:1001D00061205278202D2073657269616C34206132
:1001E00074200043535F50494E204F55545055548E
:1001F000203D20484947480043535F50494E2073F3
:10020000657420746F204F555450555400537461D9
:100210007274205350492075617274732E2E0053EE
:1002200074617274206E6D6561205278202D207388
:10023000657269616C33206174200053746172745B
:10024000206E6D6561205278202D20736572696182
:100250006C32206174200053746172742073656184
:1002600074616C6B202D2073657269616C32206142
:100270007420343830300053746172742047505306
:10028000205278202D2073657269616C3120617471
:100290002000496E697469616C697A696E672E2EF7
:1002A0000077696E64416C61726D537461746500AE
:1002B00077696E64416C61726D4D6574686F64003E
:1002C00077696E6400776174657254656D7000744F
:1002D000617267657448656164696E674E6F7274B8
:1002E000680074617267657448656164696E674D22
:1002F00061676E65746963007374656572696E67C2
:100300000073746174650073746172626F6172640A
:100310004C6F636B00737065656454727565007330
:10032000706565645468726F75676857617465724B
:100330000073706565644F76657247726F756E64A1
:100340000073706565644170706172656E740073EE
:1003500070656564416C61726D0073696C656E7483
:10036000496E74657276616C007275646465724181
:100370006E676C655461726765740072756464655C
:1003800072416E676C6500726F6C6C0072617465AF
:100390004F665475726E007261646172416C617275
:1003A0006D5374617465007261646172416C617255
:1003B0006D4D6574686F6400706F776572416C6134
:1003C000726D537461746500706F776572416C6112
:1003D000726D4D6574686F6400706F736974696FD6
:1003E0006E00706F72744C6F636B00706974636839
:1003F0000070616E70616E416C61726D53746174F6
:10040000650070616E70616E416C61726D4D6574F6
:10041000686F64006E617669676174696F6E006D04
:100420006F6465006D6F62416C61726D53746174CD
:1004300065006D6F62416C61726D4D6574686F64CB
:10044000006D6179646179416C61726D537461749E
:1004500065006D6179646179416C61726D4D65749F
:10046000686F64006D6178526164697573006D61D5
:1004700078447269766552617465006D6178447282
:10048000697665416D7073006D61676E657469634F
:10049000566172696174696F6E006C6F6E67697422
:1004A000756465006C617469747564650068656184
:1004B00064696E67547275650068656164696E672A
:1004C000536F757263650068656164696E674D613D
:1004D000676E6574696300677073416C61726D5318
:1004E0007461746500677073416C61726D4D657401
:1004F000686F640067656E65726963416C61726DF7
:1005000053746174650067656E65726963416C61FF
:10051000726D4D6574686F6400676173416C6172E0
:100520006D537461746500676173416C61726D4DE8
:100530006574686F64006761696E00666972654121
:100540006C61726D53746174650066697265416CAB
:1005500061726D4D6574686F6400656E7669726F67
:100560006E6D656E7400656E67696E65416C617273
:100570006D537461746500656E67696E65416C6189
:10058000726D4D6574686F64006469726563746947
:100590006F6E5472756500646972656374696F6E1D
:1005A0004368616E6765416C61726D006469726574
:1005B0006374696F6E4170706172656E740064651A
:1005C00061645A6F6E6500636F757273654F76650F
:1005D0007247726F756E645472756500636F7572E1
:1005E00073654F76657247726F756E644D61676EA5
:1005F00065746963006261636B6C61736800617547
:10060000746F70696C6F74416C61726D5374617456
:1006100065006175746F70696C6F74416C61726DA7
:100620004D6574686F64006175746F70696C6F7488
:1006300000616E63686F72416C61726D53746174B6
:100640006500616E63686F72416C61726D4D6574B7
:10065000686F6400616E63686F7200616C746974C6
:1006600075646500616C61726D52616469757300D7
:10067000616C61726D48656164696E67587465008C
:10068000616C61726D00616972507265737375722D
:10069000654368616E676552617465416C61726D36
:1006A0000061697250726573737572650073656C71
:1006B000660076657373656C730000000A0B0209AF
:1006C0000C0D0E08070304010000000000000000EC
:1006D000000000000000000000000000000000001A
:1006E00000000000000012111000000000000000D7
:1006F00000000000000000000000000000000000FA
:100700000102102020080810204010204080020123
:100710000201080402010102040810204080804008
:100720002010080402018004020180402010080407
:1007300002010804020101020408102040800102A5
:10074000040810204080050505050705080808086D
:10075000020202020A0A0808040404040101010159
:100760000101010103030303030303030407070754
:100770000C0C0C0C0C0C0C0C0202020206060606F9
:10078000060606060B0B0B0B0B0B0B0B00002200D7
:10079000250028002B002E0031003400020100004B
:1007A000050108010B0100002100240027002A0098
:1007B0002D003000330001010000040107010A018F
:1007C0004E414E494E495459494E46CDCCCC3D0A36
:1007D000D7233C17B7D13877CC2B329595E6241F19
:1007E000B14F0A000020410000C84200401C4620D2
:1007F000BCBE4CCA1B0E5AAEC59D7400BA064B0C4B
:10080000833593371241BF416C4219431207A73712
:1008100011241FBECFEFD1E2DEBFCDBF15E0A0E0B7
:10082000B2E0E6E3F4EA00E00BBF02C007900D92ED
:10083000A637B107D9F721E1A6E7B5E001C01D92BF
:10084000AE38B207E1F717E0CCE0D8E000E006C030
:1008500022970109FE010BBF0E94D94DCC3FD10761
:1008600080E00807A9F70E94E0470C9409520C9415
:10087000000081E08093670D8091650D9091660D79
:1008800001969093660D8093650D8091650D909112
:10089000660D64E170E00E94734D9093660D809345
:1008A000650D08958DE796E00C94FE088DE796E0BF
:1008B0000C9440094EE157E566EA7BE68CE39BE049
:1008C0000E941215AB01BC0126E08BEF9EE00E9456
:1008D000464062E972E08BEF9EE00E94DC4367E7EE
:1008E00072E08BEF9EE00E949A434FE157E566EA83
:1008F0007BE68CE39BE00E941215AB01BC012AE071
:1009000030E08BEF9EE00E94E7444FE157E566EA56
:100910007BE68CE39BE00E941215AB01BC0126E054
:1009200088E99FE00E94464049EC56E061E073EDA3
:100930008CE39BE00E94FA14882361F067E572E083
:100940008BEF9EE00E94DC4327E040EC52E160E048
:1009500070E021C06BE372E08BEF9EE00E949A434F
:1009600040E257E566EA7BE68CE39BE00E941215C5
:10097000AB01BC012AE030E08BEF9EE00E94E7442F
:1009800040E257E566EA7BE68CE39BE00E941215A5
:10099000AB01BC0126E085E390E10E9446406FE197
:1009A00072E08BEF9EE00E949A4341E257E566EACF
:1009B0007BE68CE39BE00E941215AB01BC012AE0B0
:1009C00030E08BEF9EE00E94E74441E257E566EAA3
:1009D0007BE68CE39BE00E941215AB01BC0126E094
:1009E00082ED90E10E9446406DE072E08BEF9EE068
:1009F0000E94DC4368EE73E080E090E00E946A4869
:100A000061E083E40E94484968EF71E08BEF9EE06B
:100A10000E94DC4364E670E080E090E00E946A4857
:100A200061E083E40E94814963EE71E08BEF9EE018
:100A30000E94DC4367EC71E08BEF9EE00E949A43DA
:100A400042E257E566EA7BE68CE39BE00E941215E2
:100A5000AB01BC012AE030E08BEF9EE00E94E7444E
:100A600042E257E566EA7BE68CE39BE00E941215C2
:100A7000AB01BC0189E696E00E948D2D64E670E032
:100A800080E090E00E946A4867EB71E08BEF9EE0A7
:100A90000E94DC4360E080E30E94484961E08EE20E
:100AA0000E9448496EE871E08BEF9EE00E949A43F5
:100AB00043E257E566EA7BE68CE39BE00E94121571
:100AC000AB01BC012AE030E08BEF9EE00E94E744DE
:100AD00081E196E00E94BD3661E871E08BEF9EE017
:100AE0000E94DC4360E083E00E94484943E050E01C
:100AF00062E574E081E00E94E64560E082E00E94E9
:100B0000484943E050E066E574E080E00E94E64535
:100B100063E771E08BEF9EE00E94DC4349E354E021
:100B200064E670E080E090E00E94FC350E940836A8
:100B300062E671E08BEF9EE00E94DC436BEF7EE0AB
:100B40008CE39BE00C9443218BEF9EE00E94DB3E04
:100B500002979CF08BEF9EE00E94F63E682F86E79E
:100B600095E00E94FE221816190674F760E472E000
:100B70008BEF9EE00E94EE43E7CF089588E99FE067
:100B80000E94DB3E892BB1F088E99FE00E94F63E8F
:100B9000682F87E796E00E94D6348093F205882379
:100BA00069F383ED99E00E949D28BC018BEF9EE0E4
:100BB0000C94EE43089585E390E10E94DB3E892B7F
:100BC00051F149EC56E061E073ED8CE39BE00E944B
:100BD000FA14882351F085E390E10E94F63E682FD5
:100BE00083EF95E00E940624E6CF85E390E10E9422
:100BF000F63E682F8BE398E00E942F078093F10563
:100C00008823C9F28BE398E00E94A707BC018BEF11
:100C10009EE00C94EE430895CF9382ED90E10E9404
:100C2000DB3E892BF9F082ED90E10E94F63EC82F61
:100C30004AE050E0682F8BEF9EE00E94D0446C2F7A
:100C40008FE697E00E942F078093F005882329F311
:100C50008FE697E00E94A707BC018BEF9EE0CF9143
:100C60000C94EE43CF910895CF9389E696E00E94CD
:100C7000DD2C892BF9F089E696E00E94D82CC82F4C
:100C80004AE050E0682F8BEF9EE00E94D0446C2F2A
:100C900083EA96E00E942F078093EF05882329F3CB
:100CA00083EA96E00E94A707BC018BEF9EE0CF91FC
:100CB0000C94EE43CF9108958091670D882309F439
:100CC00057C081E196E00E94E2378091650D9091D6
:100CD000660D80FD04C08DE796E00E94A409809116
:100CE000650D9091660D62E370E00E94734D892B53
:100CF00021F48DE796E00E94330A8091650D909172
:100D0000660D64E670E00E94734D892B61F48DE0FE
:100D100096E00E94273B8DE796E00E94F00B8EE95B
:100D200096E00E94753E8091650D9091660D60E998
:100D300071E00E94734D892BC9F46BEF7EE08CE368
:100D40009BE00E94432186E795E00E94CD2166E466
:100D500072E08BEF9EE00E94BF430E94AA2D4AE002
:100D600050E0BC018BEF9EE00E94AB441092670DF7
:100D70000C9434068CE39BE00E94C90E60E070E0A6
:100D800083ED99E00E94132860E070E087E099E02D
:100D90000E94260760E070E08BE398E00E9426073F
:100DA00060E070E08FE697E00E94260760E070E068
:100DB00083EA96E00E9426076CE37BE08EE996E0EA
:100DC0000E942A3E6CE37BE08DE796E00E94AA0732
:100DD0004CE35BE063ED79E087E796E00E94E53362
:100DE00041E063E489E696E00E941F2C6CE37BE01F
:100DF00081E196E00E9497366CE37BE08DE096E01F
:100E00000E94F73A4CE35BE065E370E183EF95E025
:100E10000E94FE234CE35BE06BEF7EE086E795E00B
:100E20000C94BE2186E795E00E94A6218DE096E015
:100E30000E94163981E196E00E94923787E796E09A
:100E40000E94D8338EE996E00C941D3EFC01E853D5
:100E5000FF4F1182108232961182108208950F93F3
:100E60001F93CF93DF93DC01A853BF4F4D915C914B
:100E70001197FC01E653FF4F4236510514F01182E1
:100E800010826A3011F06D3011F4118210826432D8
:100E900061F424E6EC0119922A95E9F7EC016883E4
:100EA00081E090E08D939C9345C020813181213079
:100EB0003105E9F02CF42115310509F442C03DC09B
:100EC0002230310561F123303105B9F5FC01E40F21
:100ED000F51F60834E5F5F4F4D935C931182BC01A1
:100EE0008C599F4F0E946E5021E030E02AC08A0149
:100EF0000F5F1F4F11961C930E939C01240F351FFB
:100F0000E90168834E5F5F4FE801C80FD91F4D9319
:100F10005C9368836A3299F482E090E00BC09A0196
:100F20002F5F3F4F2D933C93DC01A40FB51F6C93B3
:100F300083E090E09183808302C01182108220E0E0
:100F400030E0C901DF91CF911F910F9108958C5925
:100F50009F4F08950F931F93CF93DF938C01EB0165
:100F6000FC0170A3678F0E94474860939A0D7093AD
:100F70009B0D80939C0D90939D0D40919A0D5091E7
:100F80009B0D60919C0D70919D0D4093960D50931B
:100F9000970D6093980D7093990D1092820D109299
:100FA000830D1092840D1092850D81E08093810D48
:100FB00010926B0D10926C0D8091680D9091690DDF
:100FC00020E030916A0D231760F4FC0134E0239F88
:100FD000E00DF11D112410821182128213822F5F05
:100FE000F0CFF801168E46EE50E269E878E9CE01BE
:100FF0000E94C71520E030E046EC52E40E94824C8B
:1010000018165CF400E010E026EC32E446EE50E204
:1010100069E878E9CE010E947912DF91CF911F91A2
:101020000F910895CF92DF92EF92FF920F931F934B
:10103000CF93CB01BA0197FF09C090958095709529
:1010400061957F4F8F4F9F4FC0E001C0C1E0683670
:1010500021E072078105910534F028E631E040E097
:1010600050E00E94A94D653B71058105910534F062
:10107000645B71098109910921E0C2276B35710513
:101080008105910564F004EB10E020E030E0680198
:101090007901C61AD70AE80AF90AC701B601660F2C
:1010A000771FFB01EC5AFD4F60817181CC2319F051
:1010B00080E090E00CC0CB01A0E0B0E09C01AD016D
:1010C00066277727CB01621B730B840B950BCF919F
:1010D0001F910F91FF90EF90DF90CF900895465AA7
:1010E0005F4F6F4F7F4F0C9412084F925F926F9239
:1010F0007F928F929F92AF92BF92CF92DF92EF92A8
:10110000FF920F931F93CF93DF938C0160906B0D31
:10111000C091680DD091690D712CC12CD12C760134
:10112000812C912C54017614C1F0488159816A8137
:101130007B81C8010E946F08860E971EA81EB91EEB
:101140004991599169917991C8010E941208C60E7E
:10115000D71EE81EF91E7394E6CF81149104A104F2
:10116000B10429F4C114D104E104F104A1F1662D04
:1011700070E080E090E00E94214B2B013C01C50112
:10118000B4010E94214B20E830E040E857E30E9480
:101190008D4CA30192010E94864A4B015C01C7015C
:1011A000B6010E94214B20E830E040E857E30E945E
:1011B0008D4CA30192010E94864AA50194010E94D0
:1011C0002C4A21EE3EE245E652E40E948D4C0E94FC
:1011D000EE4ACB0102C080E090E0DF91CF911F91F9
:1011E0000F91FF90EF90DF90CF90BF90AF909F90C6
:1011F0008F907F906F905F904F9008950F931F9303
:101200000E943B480091A20D1091A30D2091A40DC6
:101210003091A50D601B710B820B930B6031710532
:101220008105910550F18091810D8823E1F0809135
:101230009A0D90919B0DA0919C0DB0919D0D809366
:10124000960D9093970DA093980DB093990D0E94D1
:10125000474860939A0D70939B0D80939C0D9093DB
:101260009D0D1092810D0E943B486093A20D7093DA
:10127000A30D8093A40D9093A50D1F910F91089538
:101280000F931F930E943B4800919E0D10919F0D5C
:101290002091A00D3091A10D601B710B820B930B5F
:1012A000603171058105910508F44BC08091810D75
:1012B00081113DC080918A0D90918B0DA0918C0D74
:1012C000B0918D0D8093860D9093870DA093880D1E
:1012D000B093890D0E94474860938A0D70938B0DDF
:1012E00080938C0D90938D0D8091960D9091970D1C
:1012F000A091980DB091990D8093920D9093930DBC
:10130000A093940DB093950D80919A0D90919B0DA3
:10131000A0919C0DB0919D0D80938E0D90938F0D9B
:10132000A093900DB093910D81E08093810D0E9468
:101330003B4860939E0D70939F0D8093A00D9093FA
:10134000A10D1F910F910895CF92DF92EF92FF921E
:10135000F8948091920D9091930DA091940DB0917D
:10136000950DC0908E0DD0908F0DE090900DF09067
:10137000910D4091860D5091870D6091880D70916F
:10138000890D78948C159D05AE05BF0508F066C0E3
:10139000C81AD90AEA0AFB0A28E9C2162AE3D206C1
:1013A000E104F10408F45AC0C092820DD092830D7A
:1013B000E092840DF092850D9A01AB01281B390B48
:1013C0004A0B5B0B233331054105510508F446C038
:1013D0002C153D054E055F0508F040C0A8E6B1E0BC
:1013E0000E94CE4DA70196010E94874D283681E0CC
:1013F00038074105510590F580916C0D8F5F809302
:101400006C0D90916B0D60916A0DE091680DF091FB
:10141000690D9617B0F481E0890F80936B0D84E01D
:10142000989FE00DF11D1124208331834283538363
:1014300080916C0D60916B0D0E94674D90936C0DC7
:101440000DC00E94674D90936C0D84E0989FE00D55
:10145000F11D11242083318342835383FF90EF9049
:10146000DF90CF9008952F923F924F925F926F92AC
:101470007F928F929F92AF92BF92CF92DF92EF9224
:10148000FF920F931F93CF93DF9300D000D0CDB77F
:10149000DEB71C010E943B480091A20D1091A30DE4
:1014A0002091A40D3091A50D601771078207930755
:1014B00050F40E943B486093A20D7093A30D80935B
:1014C000A40D9093A50D0E943B4800919E0D109194
:1014D0009F0D2091A00D3091A10D6017710782071B
:1014E000930750F40E943B4860939E0D70939F0DAC
:1014F0008093A00D9093A10D0E943B488B019C010D
:101500004BE15DE563E27AECF101878D90A10E94E9
:10151000D3110E943B480091A20D1091A30D209180
:10152000A40D3091A50D601B710B820B930BF10183
:10153000A78CB0A0693B7B408105910540F020E07D
:1015400030E04FEB57ED62EA76E3C50131C12091FF
:10155000820D3091830D4091840D5091850D2115A0
:1015600031054105510509F4C5C060E071EE85EF14
:1015700095E00E94874D69017A0123E4C21621E0BB
:10158000D206E104F1040CF044C0AAE0B0E0A701E7
:1015900096010E94CE4D2B013C0143E45EE065ECD8
:1015A0007DECC5010E94C7154B015C01A3019201AE
:1015B000C301B2010E94574D27E93FEF4FEF5FEFA4
:1015C0000E94A94D29013A01A701960168E273EE34
:1015D00083E090E00E94574D24E630E040E050E088
:1015E0000E94A94D420E531E641E751E84EE481AB9
:1015F0008FE2580A61087108C301B2010E94214BB1
:10160000A50194010E94864A20E030E040E251E4C6
:1016100064C043E45EE065EC7DECC501FCE3CF16FD
:10162000F5E1DF06E104F1044CF50E94C7152B013A
:101630003C01A7019601C701B6010E94574D2EEA51
:1016400038E040E050E00E94A94D49015A01ABE961
:10165000BAE4A70196010E94CE4D24E630E040E0B6
:1016600050E00E94A94D820E931EA41EB51E26EACC
:10167000820E25E2921EA11CB11C29C00E94C71532
:101680002B013C01A7019601C701B6010E94574DED
:1016900022E134E040E050E00E94A94DA4E6B0E031
:1016A0000E94CE4D4B015C01A701960164EB70E2F4
:1016B00081E89FEF0E94574D860E971EA81EB91E07
:1016C000F4E48F0EFDEB9F1EFBE2AF1EB11CC501C3
:1016D000B4010E94214BA30192010E94864A8B0112
:1016E0009C014FEB57ED62EA76E3F101878D90A103
:1016F0000E9479124FEB57ED62EA76E3F101878D94
:1017000090A10E94C7156B017C014AEA5AEB67E27F
:1017100075E3F101878D90A10E94C7159B01AC0173
:10172000C701B6010E94824C1816A4F44FEB57ED86
:1017300062EA76E3F101878D90A10E94C7158B01C3
:101740009C014AEA5AEB67E275E3F101878D90A1AB
:101750000E947912C1010E9475088C014BEE56E877
:1017600061ED78E5F101878D90A10E94C7159B017D
:10177000AC01B801882777FD8095982F29833A839B
:101780004B835C830E94214B29813A814B815C8190
:101790000E94B9490E94EE4A9B0177FF02C0285976
:1017A0003E4F44E257E962EC72ECF101878D90A163
:1017B0000F900F900F900F90DF91CF911F910F918D
:1017C000FF90EF90DF90CF90BF90AF909F908F9061
:1017D0007F906F905F904F903F902F900C94681186
:1017E000CF92DF92EF92FF92CF93DF93EC0143E928
:1017F0005EE665E97DEC8F8D98A10E94B71888237D
:1018000009F442C046EE50E269E878E98F8D98A16C
:101810000E94C71520E030E0A9010E94824C1816F2
:1018200024F54FEB57ED62EA76E38F8D98A10E9485
:10183000C7156B017C0146EE50E269E878E98F8DAF
:1018400098A10E94C7159B01AC01C701B6010E9477
:10185000824C181654F443E95EE665E97DEC8F8D01
:1018600098A10E94B71881110FC021E043E95EE6FC
:1018700065E97DEC8F8D98A1DF91CF91FF90EF907E
:10188000DF90CF900C943611DF91CF91FF90EF90C5
:10189000DF90CF9008958DE69DE09093690D809341
:1018A000680D85E080936A0D10926B0D10926C0D9F
:1018B00008950895CF92DF92EF92FF920F931F93B6
:1018C000FB0165E075E180E090E0C190CC20B9F0CB
:1018D0008B019C0145E0000F111F221F331F4A9509
:1018E000D1F7DD24C7FCD094ED2CFD2C0C0D1D1D73
:1018F0002E1D3F1D600F711F821F931FE6CF1F918A
:101900000F91FF90EF90DF90CF900895CB016EE0A4
:1019100073E00C94BF43CB016AE073E00C94EE4398
:101920000F931F93CF93DF931F92CDB7DEB78B0139
:101930006AE073E0C80149830E94BF4349814111B5
:101940000AC069E874E0C8010F90DF91CF911F9140
:101950000F910C94BF430F90DF91CF911F910F9186
:1019600008950F931F93CF93DF93EB01FA016491D6
:101970008A010F5F1F4F662349F0E881F9810190CA
:10198000F081E02DCE010995A801F0CFDF91CF9134
:101990001F910F910895EF92FF920F931F93CF9392
:1019A000DF9300D0CDB7DEB78C017B0165E273E039
:1019B000C70149835A830E94BF4349815A81B701B5
:1019C000C8010E94B10C6CE073E0C7010F900F904A
:1019D000DF91CF911F910F91FF90EF900C94BF4337
:1019E0006F927F928F929F92AF92BF92CF92DF922F
:1019F000EF920F931F93CF93DF9300D0CDB7DEB755
:101A00006C013B014801590165E273E0C301498360
:101A10005A830E94BF4349815A81B301C6010E9483
:101A2000B10C60E173E0C3010E94BF43A5019401C2
:101A3000C501B4010E947F4A882331F063E173E05D
:101A4000C3010E94BF4307C02AE030E0B501A401F2
:101A5000C3010E94E445E11014C069E874E0C301C9
:101A60000F900F90DF91CF911F910F91EF90DF902A
:101A7000CF90BF90AF909F908F907F906F900C947D
:101A8000BF430F900F90DF91CF911F910F91EF9077
:101A9000DF90CF90BF90AF909F908F907F906F908E
:101AA0000895AF92BF92CF92DF92EF92FF920F9381
:101AB000CF93DF9300D0CDB7DEB76C015B01790126
:101AC00065E273E0C50149835A830E94BF4349819F
:101AD0005A81B501C6010E94B10C60E173E0C501F5
:101AE0000E94BF438FEFE816F80631F463E173E01C
:101AF000C5010E94BF4306C04AE050E0B701C501DE
:101B00000E94A344011110C069E874E0C5010F9060
:101B10000F90DF91CF910F91FF90EF90DF90CF90DA
:101B2000BF90AF900C94BF430F900F90DF91CF9177
:101B30000F91FF90EF90DF90CF90BF90AF900895FE
:101B40006F927F928F929F92AF92BF92CF92DF92CD
:101B5000EF920F931F93CF93DF9300D0CDB7DEB7F3
:101B60006C013B014801590165E273E0C3014983FF
:101B70005A830E94BF4349815A81B301C6010E9422
:101B8000B10C60E173E0C3010E94BF438FEF881680
:101B90009806A806B80631F463E173E0C3010E9419
:101BA000BF4307C02AE030E0B501A401C3010E9491
:101BB0005944E11014C069E874E0C3010F900F901C
:101BC000DF91CF911F910F91EF90DF90CF90BF9059
:101BD000AF909F908F907F906F900C94BF430F9029
:101BE0000F90DF91CF911F910F91EF90DF90CF90E9
:101BF000BF90AF909F908F907F906F900895AF921D
:101C0000BF92CF92DF92EF92FF920F93CF93DF9329
:101C100000D0CDB7DEB77C015B01690165E273E0FE
:101C2000C50149835A830E94BF4349815A81B50146
:101C3000C7010E94B10C63E273E0C5010E94BF437B
:101C4000B601C5010E94BF4365E273E0C5010E9471
:101C5000BF43011110C069E874E0C5010F900F90F7
:101C6000DF91CF910F91FF90EF90DF90CF90BF90D9
:101C7000AF900C94BF430F900F90DF91CF910F91D5
:101C8000FF90EF90DF90CF90BF90AF9008954D3FC1
:101C900084E058078FE0680784E8780709F467C094
:101CA00090F5403487E0580782EB68078EE07807AC
:101CB00009F466C080F44D3383E358078BE9680765
:101CC00086E0780709F453C0483B514D61497C4098
:101CD00009F453C058C0473E88EB58078DE46807A5
:101CE00085E1780709F452C0483489E958078EE045
:101CF000680782E57807D9F14D305B4966487F4037
:101D000009F444C040C04F378CE658078AEA680798
:101D100082ED780791F1B0F4423A8EEA580787E7EE
:101D2000680784EC780791F14B318DE5580783E221
:101D300068078AEC7807D9F04B3B5F486446714AE4
:101D400011F515C0403887E3580786EA68078AEE20
:101D5000780781F04D3E8DEE580789E868078BEED5
:101D6000780729F0433F57416C46774E61F483E092
:101D700090E0089581E090E0089584E090E0089577
:101D800086E090E0089580E090E0089582E090E0A1
:101D900008950F931F93CF93DF93EC010E94590C8A
:101DA0008EE694E09983888380E090E0AAEBB2E429
:101DB0008A839B83AC83BD831E821F82188619860B
:101DC0001A861B861C861D861E861F86188A198AFF
:101DD0001A8A1B8A1C8A1D8A1E8A1F8A188E198ECF
:101DE00087E293E09B8F8A8F1C8E1D8E1E8E1F8E26
:101DF00018A219A21AA21BA218AE19AE1AAE1BAED7
:101E0000FE01E05BFF4F1082118212821382349632
:101E100010821182128213823496108211821282F1
:101E200013823496108211821282138234961082A9
:101E300011821282138234961082118212821382CE
:101E4000349610821182128213823496108211828B
:101E50001282138234961082118212821382349677
:101E600010821182128213823496108211821282A1
:101E70001382349610821182128213823496108259
:101E8000118212821382349610821182128213827E
:101E9000349610821182128213823496108211823B
:101EA0001282138234961082118212821382349627
:101EB0001082118212821382349689E090E091831D
:101EC00080833E9610821182128213823496108291
:101ED000118212821382349610821182128213822E
:101EE0003C971082118212821382349710821182E1
:101EF0001282138234971082118212821382789692
:101F00001082118212821382349610821182128200
:101F100013823496118210823496108211821282BA
:101F200013823496108211821282138234961082A8
:101F3000118212821382349611821082329610829C
:101F400011821282138234961082118212821382BD
:101F5000349611821082329610821182128213827C
:101F6000349610821182128213823496108211826A
:101F70001282138234961082118212821382349656
:101F800081E090E0918380833296118210823296B4
:101F9000918380833296118210823296918380835E
:101FA000329611821082329691838083329611820A
:101FB00010823296918380833296118210823296FB
:101FC000918380833296118210823296918380832E
:101FD00032961182108232969183808332961182DA
:101FE00010823296918380833296118210823296CB
:101FF0002CE231E0318320833296918380833296C4
:1020000011821082329691838083329611821082DF
:102010003296918380833296118210823296918318
:102020008083329611821082EE5BFF4F1082118204
:1020300012821382349680E090E0A0E8B4E48083BA
:102040009183A283B3833496108211821282138209
:102050003496108211821282138234961082118279
:102060001282138270961082118212821382349629
:10207000108211821282138234961082118212828F
:102080001382349610821182128213823496108247
:102090001182128213827C97108211821282138223
:1020A000349610821182128213827C9610821182E1
:1020B0001282138234961082118212821382349615
:1020C000108211821282138234961082118212823F
:1020D000138234961082118212821382B897108272
:1020E000118212821382BC96108211821282138294
:1020F00034961082118212821382349610821182D9
:1021000012821382349610821182128213823496C4
:1021100010821182128213823496108211821282EE
:102120001382EC5FF10911821082F39510823196CF
:10213000118210823296108211821282138234969A
:102140001082118212821382349686E58083319642
:1021500040E056E960E070E040835183628373831E
:1021600034964083518362837383349600E815E28A
:1021700020E030E000831183228333833496008390
:102180001183228333833496408351836283738324
:10219000349680EC92E1A0E0B0E080839183A2834A
:1021A000B383349611821082349611821082349651
:1021B0001182108236971182108234961182108219
:1021C000349611821082329610821182128213820A
:1021D00034961082118212821382349610821182F8
:1021E00012821382349610821182128213823496E4
:1021F000108211821282138234961082118212820E
:1022000013823496108211821282138234961082C5
:1022100031961082118212821382349610821182BA
:1022200012821382349610821182128213823496A3
:1022300010821182128213823496108211821282CD
:102240001382349610821182128213823496108285
:10225000118212821382CB5DDD4F188219821A829D
:102260001B82DF91CF911F910F910895493C36E079
:10227000530731E0630733ED730731F040385743BC
:10228000664A7A4E29F00895FC01E85FFD4F03C0CD
:10229000FC01E454FE4F2083089540345740624BC4
:1022A0007E4021F4FC01E953FE4F208308950F93F3
:1022B0001F934F375C466A4A724D39F4FC01EF5D5B
:1022C000FD4F00831183228333831F910F91089563
:1022D0004F33EDE35E07E4ED6E07ECE77E0709F4AC
:1022E0004CC0F0F4473EE8EB5E07EDE46E07E5E135
:1022F0007E07D9F130F44D305B4966487F4069F183
:102300000895413CE6EB5E07E8EC6E07E6E17E07E8
:1023100009F443C0443E51406C467741D1F10895E1
:10232000423AEEEA5E07E7E76E07E4EC7E07C9F0A3
:1023300030F44236584867477D47D9F00895411533
:10234000EAE75E07EEEC6E07E9EC7E07F1F0433258
:10235000554C61477A4CA9F00895FC01E354FE4FB7
:102360001FC0FC01EC52FF4F1BC0FC01E65FFE4F9B
:1023700017C0FC01E052FE4F13C0FC01EE51FE4FAE
:102380000FC0FC01EC51FE4F0BC0FC01EA51FE4FA7
:1023900007C0FC01E851FE4F03C0FC01E651FE4FAF
:1023A0003183208308950F931F934232E7E55E0740
:1023B000E6EA6E07EBE67E0709F484C078F54E3155
:1023C000E7E55E07E6EA6E07EBE67E0709F46EC016
:1023D000B0F44D33E3E35E07EBE96E07E6E07E071A
:1023E00009F458C04834E9E95E07EEE06E07E2E51B
:1023F0007E0709F079C0FC01ED53FE4F6EC04032FC
:10240000E7E55E07E6EA6E07EBE67E0709F452C0F1
:1024100008F054C0FC01E453FE4F5FC04B3BEFE8B3
:102420005E07E4E66E07E1EA7E0709F453C0B0F404
:102430004332E7E55E07E6EA6E07EBE67E0709F45E
:1024400045C04D3FE4E05E07EFE06E07E4E87E073D
:1024500009F04AC0FC01E451FE4F3FC0433FE7E1B1
:102460005E07ECE66E07E7EE7E07E1F04D3EEDEE2F
:102470005E07E9E86E07EBEE7E0781F04B31EDE594
:102480005E07E3E26E07EAEC7E0771F5FC01E75FA9
:10249000FD4F23C0FC01E154FE4F1FC0FC01E85A70
:1024A000FF4F1BC0FC01E051FE4F17C0FC01E85379
:1024B000FE4F13C0FC01E053FE4F0FC0FC01EC5275
:1024C000FE4F0BC0FC01E852FE4F07C0FC01E45276
:1024D000FE4F03C0FC01E35EFD4F008311832283A6
:1024E00033831F910F91089598011F910F910C94C0
:1024F00068110F931F934A33E6EA5E07EBEE6E070F
:10250000E4E87E0709F429C208F0F1C0433DEFEB8F
:102510005E07EEE46E07E3E47E0709F4EEC108F01F
:1025200073C04536E4E85E07EBE26E07EAE17E073A
:1025300009F44FC280F54E3BE0EF5E07E5EF6E0712
:10254000EEE07E0709F4D1C198F4473EE3E75E0769
:10255000E6E96E07EAE07E0709F4B7C1483B514D52
:1025600061497C4009F043C2FC01EB5DFD4F3BC279
:102570004B3BE7E95E07E9E46E07E7E17E0709F414
:10258000B8C1413F5049684A794109F030C2FC0165
:10259000E252FF4F28C24C3BECEE5E07E5E16E07CE
:1025A000E3E27E0709F4BDC198F44433EDE65E072B
:1025B000EAEA6E07EFE17E0709F4F7C1423A514EAD
:1025C0006545704209F013C2FC01EE53FF4F0BC288
:1025D0004F3BE7ED5E07E2EA6E07E6E37E0709F4AC
:1025E000F4C14D32F7EB5F07F1EB6F07FEE37F07B6
:1025F00009F493C14A3A5A4B6742754309F0F7C14F
:10260000FC01EB5EFD4FEFC1453EF2EB5F07F3E2ED
:102610006F07F9E67F0709F4B0C180F54F3FF5E693
:102620005F07FCE16F07F9E57F0709F454C198F4EF
:10263000413CFBED5F07FAE46F07F2E57F0709F421
:10264000C0C14B3E5648614D784509F0D0C1FC01F0
:10265000E75EFD4FC8C14832F5EC5F07FFEB6F073F
:10266000FEE57F0709F481C149385E4A654778462F
:1026700009F0BDC1FC01E455FE4FB5C14839FCE885
:102680005F07F1EE6F07F7E77F0709F452C198F48F
:10269000413EFBE35F07F3E86F07F9E67F0709F4C4
:1026A00060C149395C4F6444714709F0A0C1FC0125
:1026B000EC54FE4F98C14733FEE85F07F9E46F071B
:1026C000F0E87F0709F441C14137E0E45E07E5EA3D
:1026D0006E07E4E87E0709F454C14F3A554A664D47
:1026E0007B4709F084C1FC01E05AFF4F7CC14F32A7
:1026F000E7E15E07E4E76E07EFEB7E0709F44DC103
:1027000008F073C04D35E5EE5E07E6E16E07E9E9D6
:102710007E0709F452C180F54234EFE05E07E5ED33
:102720006E07EAE87E0709F4F0C098F44C35EBE94F
:102730005E07ECEF6E07E4E87E0709F43AC14B331D
:102740005A426C4A754809F052C1FC01E058FF4FEB
:102750004AC14B3AEBE95E07EDEE6E07EEE87E0705
:1027600009F4F7C0463E50426948784909F03FC134
:10277000FC01E055FE4F37C1403AE4E95E07E3E66D
:102780006E07E4EB7E0709F428C198F4423EE5E8C1
:102790005E07E1EC6E07E2EB7E0709F4BAC048354C
:1027A0005D406940744B09F022C1FC01E850FE4FC6
:1027B0001AC14132E7EA5E07E3E06E07EFEB7E07FE
:1027C00009F4BBC04435F7EF5F07FAE66F07FFEB8C
:1027D0007F0709F4DEC04B3452416A4D764B09F055
:1027E00006C1FC01EE55FF4FFEC04C3BFEEA5F0701
:1027F000F0ED6F07F4ED7F0709F4C7C078F54432B8
:10280000F7E95F07F2EC6F077F0709F4CAC098F495
:102810004A31F4E05F07FEE96F07FFEB7F0709F439
:10282000E0C0403F534F674A7F4B09F0E0C0FC01D6
:10283000EC5FFD4FD8C04F39FAE95F07F3E36F074C
:10284000F9EC7F0709F471C043345E40654C7D4C60
:1028500009F0CDC0FC01EF5EFD4FC5C04837F1E285
:102860005F07FCE86F07FEED7F07D9F198F44A3F58
:10287000F1E45F07FFED6F07FBED7F0709F461C02F
:102880004D3C5A4A6A407C4D09F0B1C0FC01E4530A
:10289000FF4FA9C04E3EF0E15F07FDE96F07FBEF78
:1028A0007F0709F466C0413BECE85E07E1EC6E0788
:1028B000EDEF7E0731F14C335446634E7A4F09F009
:1028C00096C0FC01E855FE4F8EC0FC0102831383C5
:1028D000248335838CC0FC010683178320873187CE
:1028E00086C0FC01EC5AFF4F7EC0FC01E45AFF4F4A
:1028F0007AC0FC01E459FF4F76C0FC01E059FF4F5C
:1029000072C0FC01EC58FF4F6EC0FC01E858FF4F4D
:102910006AC0FC01E458FF4F66C0FC01EC57FF4F52
:1029200062C0FC01E857FF4F5EC0FC01E057FF4F5B
:102930005AC0FC01EC56FF4F56C0FC01EA55FF4F50
:1029400052C0FC01E655FF4F4EC0FC01E255FF4F5F
:102950004AC0FC01E256FF4F46C0FC01E656FF4F5D
:1029600042C0FC01EE54FF4F3EC0FC01EA54FF4F51
:102970003AC0FC01EE51FF4F36C0FC01E254FF4F5C
:1029800032C0FC01EA53FF4F2EC0FC01E053FF4F61
:102990002AC0FC01EA52FF4F26C0FC01E652FF4F5D
:1029A00022C0FC01EC55FE4F1EC0FC01E854FE4F56
:1029B0001AC0FC01E45AFE4F16C0FC01E05AFE4F5B
:1029C00012C0FC01E858FE4F0EC0FC01E35FFD4F52
:1029D0000AC0FC01EC50FE4F06C0FC01E450FE4F63
:1029E00002C0FC01FE5F00831183228333831F91A9
:1029F0000F910895493C26E0520721E0620723ED3C
:102A0000720749F040385743664A7A4E49F4FC0150
:102A1000E454FE4F03C0FC01E85FFD4F8081089540
:102A200080E00895423227E5520726EA62072BE646
:102A3000720709F47EC060F54E3127E5520726EA99
:102A400062072BE6720709F468C098F44D3323E35C
:102A500052072BE9620726E0720709F44EC048349A
:102A600059496E40724509F070C0FC01ED53FE4FAC
:102A700067C0403227E5520726EA62072BE6720755
:102A800009F44FC008F051C0FC01E453FE4F58C098
:102A90004B3B2FE8520724E6620721EA720789F1CF
:102AA00098F4433227E5520726EA62072BE67207BD
:102AB00009F443C04D3F54406F40744809F045C08D
:102AC000FC01E451FE4F3CC0433F27E152072CE696
:102AD000620727EE7207C9F04D3E2DEE520729E836
:102AE00062072BEE7207A9F04B315D4563427A4CC9
:102AF00061F5FC01E75FFD4F23C0FC01E154FE4F8F
:102B00001FC0FC01E35EFD4F1BC0FC01E051FE4F06
:102B100017C0FC01E85AFF4F13C0FC01E853FE4FF9
:102B20000FC0FC01E053FE4F0BC0FC01EC52FE4F06
:102B300007C0FC01E852FE4F03C0FC01E452FE4F07
:102B4000608171818281938108956FEF7FEFCB0166
:102B50000895483B21ED520721E962072CE07207F6
:102B600049F04F375C466A4A724D61F4FC01EF5DF3
:102B7000FD4F03C0FC01EB5DFD4F608171818281DF
:102B80009381089560E070E080E89FE408954A33FF
:102B900026EA52072BEE620724E8720709F429C2DD
:102BA00008F0F1C0433DFFEB5F07FEE46F07F3E47D
:102BB0007F0709F4EEC108F073C04536E4E85E070C
:102BC000EBE26E07EAE17E0709F44FC280F54E3B67
:102BD00020EF520725EF62072EE0720709F4D1C1FA
:102BE00098F4473EF3E75F07F6E96F07FAE07F07DF
:102BF00009F4B7C1483B514D61497C4009F044C2DA
:102C0000FC01EB5DFD4F3BC24B3BE7E95E07E9E4AE
:102C10006E07E7E17E0709F4B8C1413F5049684AB1
:102C2000794109F031C2FC01E252FF4F28C24C3B0E
:102C30002CEE520725E1620723E2720709F4BDC1B9
:102C400098F44433FDE65F07FAEA6F07FFE17F0778
:102C500009F4F7C1423A514E6545704209F014C279
:102C6000FC01EE53FF4F0BC24F3BE7ED5E07E2EA7C
:102C70006E07E6E37E0709F4F4C14D32F7EB5F0718
:102C8000F1EB6F07FEE37F0709F493C14A3A5A4B11
:102C90006742754309F0F8C1FC01EB5EFD4FEFC1DF
:102CA000453EE2EB5E07E3E26E07E9E67E0709F4E4
:102CB000B0C180F54F3F25E652072CE1620729E5B8
:102CC000720709F454C198F4413CFBED5F07FAE444
:102CD0006F07F2E57F0709F4C0C14B3E5648614DCE
:102CE000784509F0D1C1FC01E75EFD4FC8C148320B
:102CF000E5EC5E07EFEB6E07EEE57E0709F481C1B8
:102D000049385E4A6547784609F0BEC1FC01E45582
:102D1000FE4FB5C148392CE8520721EE620727E77C
:102D2000720709F452C198F4413EFBE35F07F3E8F0
:102D30006F07F9E67F0709F460C149395C4F6444C5
:102D4000714709F0A1C1FC01EC54FE4F98C1473313
:102D5000EEE85E07E9E46E07E0E87E0709F441C1AA
:102D60004137F0E45F07F5EA6F07F4E87F0709F4FD
:102D700054C14F3A554A664D7B4709F085C1FC0165
:102D8000E05AFF4F7CC14F32E7E15E07E4E76E0790
:102D9000EFEB7E0709F44DC108F073C04D3525EE09
:102DA000520726E1620729E9720709F452C180F54A
:102DB0004234FFE05F07F5ED6F07FAE87F0709F49B
:102DC000F0C098F44C35EBE95E07ECEF6E07E4E8F1
:102DD0007E0709F43AC14B335A426C4A754809F0F0
:102DE00053C1FC01E058FF4F4AC14B3A2BE952074F
:102DF0002DEE62072EE8720709F4F7C0463E5042F6
:102E00006948784909F040C1FC01E055FE4F37C1DF
:102E1000403AF4E95F07F3E66F07F4EB7F0709F444
:102E200028C198F4423EE5E85E07E1EC6E07E2EB6C
:102E30007E0709F4BAC048355D406940744B09F01B
:102E400023C1FC01E850FE4F1AC1413227EA520764
:102E500023E062072FEB720709F4BBC04435E7EFAC
:102E60005E07EAE66E07EFEB7E0709F4DEC04B343F
:102E700052416A4D764B09F007C1FC01EE55FF4FF8
:102E8000FEC04C3B2EEA520720ED620724ED72078C
:102E900009F4C7C078F54432F7E95F07F2EC6F0731
:102EA0007F0709F4CAC098F44A31E4E05E07EEE90E
:102EB0006E07EFEB7E0709F4E0C0403F534F674ACF
:102EC0007F4B09F0E1C0FC01EC5FFD4FD8C04F39EA
:102ED0002AE9520723E3620729EC720709F471C05B
:102EE00043345E40654C7D4C09F0CEC0FC01EF5E82
:102EF000FD4FC5C04837F1E25F07FCE86F07FEED04
:102F00007F07D9F198F44A3FE1E45E07EFED6E07E1
:102F1000EBED7E0709F461C04D3C5A4A6A407C4D96
:102F200009F0B2C0FC01E453FF4FA9C04E3E20E1BE
:102F300052072DE962072BEF720709F466C0413B87
:102F4000ECE85E07E1EC6E07EDEF7E0731F14C3304
:102F50005446634E7A4F09F097C0FC01E855FE4F86
:102F60008EC0FC0162817381848195810895FC018A
:102F700066817781808591850895FC01EC5AFF4F29
:102F80007EC0FC01E45AFF4F7AC0FC01E459FF4FB8
:102F900076C0FC01E059FF4F72C0FC01EC58FF4FB6
:102FA0006EC0FC01E858FF4F6AC0FC01E458FF4FB7
:102FB00066C0FC01EC57FF4F62C0FC01E857FF4FB1
:102FC0005EC0FC01E057FF4F5AC0FC01EC56FF4FBA
:102FD00056C0FC01EA55FF4F52C0FC01E655FF4FB9
:102FE0004EC0FC01E255FF4F4AC0FC01E256FF4FC4
:102FF00046C0FC01E656FF4F42C0FC01EE54FF4FB5
:103000003EC0FC01EA54FF4F3AC0FC01EE51FF4FB5
:1030100036C0FC01E254FF4F32C0FC01EA53FF4FBF
:103020002EC0FC01E053FF4F2AC0FC01EA52FF4FC3
:1030300026C0FC01E652FF4F22C0FC01EC55FE4FBA
:103040001EC0FC01E854FE4F1AC0FC01E45AFE4FBA
:1030500016C0FC01E05AFE4F12C0FC01E858FE4FBA
:103060000EC0FC01E35FFD4F0AC0FC01EC50FE4FB7
:1030700006C0FC01E450FE4F02C0FC01FE5F60810F
:10308000718182819381089560E070E080EC9FE718
:10309000089540345740624B7E4029F4FC01E953C7
:1030A000FE4F8081089580E30895FC01E654FF4FB0
:1030B00081E020813181232B09F480E00895FC0117
:1030C000E25FFE4F20813181223031050CF04DC08E
:1030D000729720813181223031050CF046C034973F
:1030E00020813181223031050CF03FC07097208162
:1030F000318122303105CCF5349620813181223066
:1031000031059CF5349620813181223031056CF5F2
:10311000709620813181223031053CF53496208132
:103120003181223031050CF53496208131812230F5
:103130003105DCF474972081318122303105ACF403
:103140007E9620813181223031057CF434962081B5
:103150003181223031054CF4349681E02081318177
:10316000223031051CF480E0089581E008954F334A
:103170002BE352072FED620727E7720709F480C09F
:1031800078F54E382AE952072BE462072DE47207DE
:1031900009F46AC098F4473A25EC52072BE7620716
:1031A00027E2720709F454C04C355741694C7B4300
:1031B00009F06FC0FC01E851FF4F65C04E3D26E8A5
:1031C00052072AEC620724E5720709F455C0463617
:1031D000524F684E754509F05CC0FC01F39553C031
:1031E00047332DE0520725E5620722EB720761F1B4
:1031F00090F44B3E28E6520720EC620727EA72075C
:1032000059F14B3255426C477E4A09F042C0FC01ED
:10321000EA5EFE4F38C043392EE6520725E96207C1
:103220002DEC720729F14F3522E952072EE3620790
:103230002CEE7207A9F04C33504F6D47794C49F58D
:10324000FC01E850FF4F1FC0FC01E051FF4F1BC0C5
:10325000FC01EC50FF4F17C0FC01E450FF4F13C0BE
:10326000FC01EC5FFE4F0FC0FC01E85FFE4F0BC09E
:10327000FC01E25FFE4F07C0FC01EE5EFE4F03C0A3
:10328000FC01E65EFE4F81E0208131812230310574
:103290000CF480E008954F332BE352072FED6207C3
:1032A00027E7720709F480C078F54E382AE95207FB
:1032B0002BE462072DE4720709F46AC098F4473AD8
:1032C00025EC52072BE7620727E2720709F454C086
:1032D0004C355741694C7B4309F06FC0FC01E85104
:1032E000FF4F65C04E3D26E852072AEC620724E5F1
:1032F000720709F455C04636524F684E754509F0BD
:103300005CC0FC01F39553C047332DE0520725E51F
:10331000620722EB720761F190F44B3E28E65207F8
:1033200020EC620727EA720759F14B3255426C478D
:103330007E4A09F042C0FC01EA5EFE4F38C04339C4
:103340002EE6520725E962072DEC720729F14F3569
:1033500022E952072EE362072CEE7207A9F04C33E4
:10336000504F6D47794C49F5FC01E850FF4F1FC0A5
:10337000FC01E051FF4F1BC0FC01EC50FF4F17C098
:10338000FC01E450FF4F13C0FC01EC5FFE4F0FC087
:10339000FC01E85FFE4F0BC0FC01E25FFE4F07C07F
:1033A000FC01EE5EFE4F03C0FC01E65EFE4F81E0D5
:1033B00020813181121613060CF080E00895EF92FF
:1033C000FF920F931F93CF93DF93EC017B01142F98
:1033D000E881F98136978081918140E856E08C0F31
:1033E0009D1F0E94CB0CFE01EA51FF4F0190F0811E
:1033F000E02DEE0FFF1FEC5CFD4F20813181E88155
:10340000F98136978081918100E042E456E0B7016E
:103410008C0F9D1F0E94FF0DFE01E851FF4F019090
:10342000F081E02DEE0FFF1FE45DFD4F2081318123
:10343000E881F98136978081918141E356E0B701B7
:103440008C0F9D1F0E94FF0DFE01E651FF4F019062
:10345000F081E02DEE0FFF1FEC5CFD4F20813181EC
:10346000E881F98136978081918142E156E0B70188
:103470008C0F9D1F0E94FF0DFE01E451FF4F019034
:10348000F081E02DEE0FFF1FE45DFD4F20813181C3
:10349000E881F9813697808191814EEF55E0B7013F
:1034A0008C0F9D1F0E94FF0DFE01E251FF4F019006
:1034B000F081E02DEE0FFF1FEC5CFD4F208131818C
:1034C000E881F98136978081918147E755E0B7011E
:1034D0008C0F9D1F0E94FF0DFE01E051FF4F0190D8
:1034E000F081E02DEE0FFF1FE45DFD4F2081318163
:1034F000E881F98136978081918146E655E0B701F0
:103500008C0F9D1F0E94FF0DFE01EE50FF4F01909A
:10351000F081E02DEE0FFF1FEC5CFD4F208131812B
:10352000E881F9813697808191814AE455E0B701BD
:103530008C0F9D1F0E94FF0DFE01EC50FF4F01906C
:10354000F081E02DEE0FFF1FE45DFD4F2081318102
:10355000E881F9813697808191814BE355E0B7018D
:103560008C0F9D1F0E94FF0DFE01EA50FF4F01903E
:10357000F081E02DEE0FFF1FEC5CFD4F20813181CB
:10358000E881F98136978081918147E255E0B70162
:103590008C0F9D1F0E94FF0DFE01E850FF4F019010
:1035A000F081E02DEE0FFF1FE45DFD4F20813181A2
:1035B000E881F98136978081918149E155E0B70131
:1035C0008C0F9D1F0E94FF0DFE01E650FF4F0190E2
:1035D000F081E02DEE0FFF1FEC5CFD4F208131816B
:1035E000E881F98136978081918145EE54E0B701F9
:1035F0008C0F9D1F0E94FF0DFE01E450FF4F0190B4
:10360000F081E02DEE0FFF1FE45DFD4F2081318141
:10361000E881F98136978081918147ED54E0B701C7
:103620008C0F9D1F0E94FF0DFE01E250FF4F019085
:10363000F081E02DEE0FFF1FEC5CFD4F208131810A
:10364000E881F98136978081918142E554E0B701A4
:103650008C0F9D1F0E94FF0DFE01F3950190F081DC
:10366000E02DEE0FFF1FE45DFD4F20813181E881E9
:10367000F98136978081918141E454E0B7018C0F44
:103680009D1F0E94FF0DFE01EE5FFE4F0190F08135
:10369000E02DEE0FFF1FEC5CFD4F20813181E881B2
:1036A000F98136978081918142E054E0B7018C0F17
:1036B0009D1F0E94FF0DFE01EC5FFE4F0190F08107
:1036C000E02DEE0FFF1FE45DFD4F20813181E88189
:1036D000F98136978081918141EF53E0B7018C0FDA
:1036E0009D1F0E94FF0DFE01EA5FFE4F0190F081D9
:1036F000E02DEE0FFF1FEC5CFD4F20813181E88152
:10370000F98136978081918148EC53E0B7018C0FA5
:103710009D1F0E94FF0DFE01E85FFE4F0190F081AA
:10372000E02DEE0FFF1FE45DFD4F20813181E88128
:10373000F98136978081918148EB53E0B7018C0F76
:103740009D1F0E94FF0DFE01E65FFE4F208131812B
:10375000E881F9813697808191814AE553E0B7018C
:103760008C0F9D1F0E94510DFE01E45FFE4F0190E2
:10377000F081E02DEE0FFF1FEC5CFD4F20813181C9
:10378000E881F98136978081918140EB52E0B70161
:103790008C0F9D1F0E94FF0DFE01E25FFE4F019006
:1037A000F081E02DEE0FFF1FE45DFD4F20813181A0
:1037B000E881F98136978081918141EA52E0B70131
:1037C0008C0F9D1F0E94FF0DFE01E05FFE4F0190D8
:1037D000F081E02DEE0FFF1FEC5CFD4F2081318169
:1037E000E881F98136978081918146E055E0B70103
:1037F0008C0F9D1F0E94FF0DFE01EE5EFE4F01909B
:10380000F081E02DEE0FFF1FE45DFD4F208131813F
:10381000E881F98136978081918144EF54E0B701C6
:103820008C0F9D1F0E94FF0DFE01EC5EFE4F01906C
:10383000F081E02DEE0FFF1FEC5CFD4F2081318108
:10384000E881F98136978081918147EA53E0B70199
:103850008C0F9D1F0E94FF0DFE01EA5EFE4F01903E
:10386000F081E02DEE0FFF1FE45DFD4F20813181DF
:10387000E881F98136978081918147E953E0B7016A
:103880008C0F9D1F0E94FF0DFE01E85EFE4F019010
:10389000F081E02DEE0FFF1FEC5CFD4F20813181A8
:1038A000E881F98136978081918142E354E0B70144
:1038B0008C0F9D1F0E94FF0DFE01E65EFE4F0190E2
:1038C000F081E02DEE0FFF1FE45DFD4F208131817F
:1038D000E881F98136978081918101E044E254E0EA
:1038E000B7018C0F9D1F0E94FF0DE881F98136976B
:1038F00080819181412F6BEF7EE08C0F9D1FDF91C6
:10390000CF911F910F91FF90EF900C94900CCF925C
:10391000DF92EF92FF920F931F93CF93DF93EC010F
:103920006B01F42EE881F98136978081918144E51D
:1039300056E08C0F9D1F0E94CB0CFE01EA55FF4FF5
:103940000081118122813381E881F981369780815C
:103950009181E12C44E656E0B6018C0F9D1F0E9438
:10396000F00CFE01E655FF4F008111812281338169
:10397000E881F98136978081918144E654E0B6016F
:103980008C0F9D1F0E94F00CE881F9813697808191
:10399000918149ED53E0B6018C0F9D1F0E94CB0C25
:1039A000FE01E858FF4F0081118122813381E881B7
:1039B000F98136978081918144EA54E0B6018C0FF9
:1039C0009D1F0E94F00CFE01EC58FF4F00811181F9
:1039D00022813381E881F9813697808191814AE99A
:1039E00054E0B6018C0F9D1F0E94F00CFE01E458BC
:1039F000FF4F0081118122813381E881F98136975F
:103A000080819181EE24E3944BE556E0B6018C0F62
:103A10009D1F0E94F00CE881F98136978081918189
:103A200041E06BEF7EE08C0F9D1F0E94900CE881BF
:103A3000F9813697808191814F2D6BEF7EE08C0F5D
:103A40009D1FDF91CF911F910F91FF90EF90DF901D
:103A5000CF900C94900CCF92DF92EF92FF920F9345
:103A60001F93CF93DF93EC016B01F42EE881F98172
:103A700036978081918149ED53E08C0F9D1F0E9404
:103A8000CB0CFE01E858FF4F008111812281338168
:103A9000E881F981369780819181E12C44EA54E0F4
:103AA000B6018C0F9D1F0E94F00CFE01EC58FF4FD9
:103AB0000081118122813381E881F98136978081EB
:103AC00091814AE954E0B6018C0F9D1F0E94F00CD1
:103AD000FE01E458FF4F0081118122813381E8818A
:103AE000F981369780819181EE24E3944BE556E08D
:103AF000B6018C0F9D1F0E94F00CE881F98136976A
:103B0000808191814F2D6BEF7EE08C0F9D1FDF91A7
:103B1000CF911F910F91FF90EF90DF90CF900C9479
:103B2000900CCF92DF92EF92FF920F931F93CF935F
:103B3000DF93EC016B01F42EE881F98136978081E7
:103B4000918147E256E08C0F9D1F0E94CB0CFE0135
:103B5000E654FF4F0190F081E02DEE0FFF1FEA5D6C
:103B6000FD4F20813181E881F981369780819181F3
:103B700000E041E053E0B6018C0F9D1F0E94FF0D55
:103B8000FE01E454FF4F0190F081E02DEE0FFF1F86
:103B9000E05EFD4F20813181E881F9813697808197
:103BA00091814FE154E0B6018C0F9D1F0E94FF0DE3
:103BB000FE01E254FF4F0081118122813381E881AF
:103BC000F981369780819181E12C4FEC52E0B6016A
:103BD0008C0F9D1F0E94F00CFE01EE53FF4F0081E1
:103BE000118122813381E881F98136978081918129
:103BF00042EE52E0B6018C0F9D1F0E94F00CFE01B8
:103C0000EA53FF4F0081118122813381E881F981DC
:103C100036978081918140E756E0B6018C0F9D1F59
:103C20000E94F00CFE01E653FF4F0190F081E02D61
:103C3000EE0FFF1FEA5FFD4F20813181E881F9819E
:103C400036978081918100E049EB54E0B6018C0FFA
:103C50009D1F0E94FF0DFE01E453FF4F0081118163
:103C600022813381E881F9813697808191814EEB01
:103C700055E0B6018C0F9D1F0E94F00CFE01E05331
:103C8000FF4F0081118122813381E881F9813697CC
:103C90008081918145EF55E0B6018C0F9D1F0E94F8
:103CA000F00CFE01EC52FF4F00811181222717FD1D
:103CB0002095322FE881F98136978081918146E302
:103CC00055E0B6018C0F9D1F0E94A00DFE01EA5227
:103CD000FF4F0081118122813381E881F98136977C
:103CE000808191814BE754E0B6018C0F9D1F0E94AB
:103CF000F00CFE01E652FF4F0081118122813381D9
:103D0000E881F9813697808191814EE654E0B601D1
:103D10008C0F9D1F0E94F00CFE01E252FF4F0081AC
:103D2000118122813381E881F981369780819181E7
:103D300042EE53E0B6018C0F9D1F0E94F00CFE0175
:103D4000EE51FF4F0081118122813381E881F98199
:103D5000369780819181EE24E39447E053E0B601E9
:103D60008C0F9D1F0E94F00CE881F98136978081AD
:103D700091814F2D6BEF7EE08C0F9D1FDF91CF91D6
:103D80001F910F91FF90EF90DF90CF900C94900CCB
:103D9000CF92DF92EF92FF920F931F93CF93DF9317
:103DA000EC016B01F42EE881F981369780819181D5
:103DB00040EC52E08C0F9D1F0E94CB0CFE01E055A1
:103DC000FE4F0081118122813381E881F98136978C
:103DD00080819181E12C4FE453E0B6018C0F9D1F4F
:103DE0000E94F00CFE01E855FE4F008111812281F6
:103DF0003381E881F98136978081918147E955E0E7
:103E0000B6018C0F9D1F0E94F00CFE01EC55FE4F79
:103E10000081118122813381E881F9813697808187
:103E200091814CEA55E0B6018C0F9D1F0E94F00C69
:103E3000FE01E455FE4F0081118122813381E8812A
:103E4000F98136978081918149E855E0B6018C0F60
:103E50009D1F0E94F00CFE01E854FE4F008111816D
:103E600022813381E881F98136978081918141E413
:103E700053E0B6018C0F9D1F0E94F00CFE01EC5424
:103E8000FE4F0081118122813381E881F9813697CB
:103E900080819181EE24E39445E153E0B6018C0FDB
:103EA0009D1F0E94F00CE881F981369780819181F5
:103EB0004F2D6BEF7EE08C0F9D1FDF91CF911F91F7
:103EC0000F91FF90EF90DF90CF900C94900CCF92D9
:103ED000DF92EF92FF920F931F93CF93DF93EC014A
:103EE0006B01F42EE881F98136978081918144E15C
:103EF00054E06BEF7EE08C0F9D1F0E94CB0C0E8177
:103F00001F8128853985E881F981369780819181E3
:103F1000E12C47EC55E06BEF7EE08C0F9D1F0E947B
:103F2000F00C0A811B812C813D81E881F981369753
:103F3000808191814CED55E06BEF7EE08C0F9D1FF1
:103F40000E94F00CFE01E459FF4F00811181228193
:103F50003381E881F98136978081918147EC54E083
:103F60006BEF7EE08C0F9D1F0E94F00CFE01EC5A5F
:103F7000FF4F0081118122813381E881F9813697D9
:103F80008081918148E854E06BEF7EE08C0F9D1FAB
:103F90000E94F00CFE01E059FF4F00811181228147
:103FA0003381E881F9813697808191814DEA54E02F
:103FB0006BEF7EE08C0F9D1F0E94F00CFE01E0581D
:103FC000FF4F0081118122813381E881F981369789
:103FD000808191814BEE53E06BEF7EE08C0F9D1F53
:103FE0000E94F00CFE01EC57FF4F008111812281ED
:103FF0003381E881F9813697808191814CE853E0E3
:104000006BEF7EE08C0F9D1F0E94F00CFE01E857C5
:10401000FF4F0081118122813381E881F981369738
:104020008081918147E853E06BEF7EE08C0F9D1F0C
:104030000E94F00CFE01E057FF4F008111812281A8
:104040003381E881F98136978081918141E353E0A2
:104050006BEF7EE08C0F9D1F0E94F00CFE01EC5672
:10406000FF4F0081118122813381E881F9813697E8
:10407000808191814FE153E06BEF7EE08C0F9D1FBB
:104080000E94F00CFE01E856FF4F0190F081E02DF8
:10409000EE0FFF1FE45FFD4F20813181E881F98140
:1040A00036978081918100E041E053E06BEF7EE044
:1040B0008C0F9D1F0E94FF0D40E0B601CE010E94B3
:1040C000871C41E06BEF7EE0CE010E942B1DE88152
:1040D000F9813697808191814F2D6BEF7EE08C0FB7
:1040E0009D1FDF91CF911F910F91FF90EF90DF9077
:1040F000CF900C94900CCF92DF92EF92FF920F939F
:104100001F93CF93DF93EC016B01F42EE881F981CB
:104110003697808191814AE555E06BEF7EE08C0F08
:104120009D1F0E94CB0CFE01E45AFE4F00811181BD
:1041300022813381E881F981369780819181E12C58
:1041400046E856E06BEF7EE08C0F9D1F0E94F00C5E
:10415000FE01E05AFE4F0081118122813381E88106
:10416000F98136978081918141EA56E06BEF7EE0DC
:104170008C0F9D1F0E94F00CFE01E858FE4F00813D
:10418000118122813381E881F98136978081918183
:1041900045EC52E06BEF7EE08C0F9D1F0E94F00C0F
:1041A00041E0B601CE010E94C81EE881F981369730
:1041B000808191814F2D6BEF7EE08C0F9D1FDF91F1
:1041C000CF911F910F91FF90EF90DF90CF900C94C3
:1041D000900CCF92DF92EF92FF920F931F93CF93A9
:1041E000DF93EC016B01F42EE881F9813697808131
:1041F000918148EF52E06BEF7EE08C0F9D1F0E9493
:10420000CB0CFE01EE54FF4F0081118122813381DE
:10421000E881F981369780819181E12C4BE753E069
:104220006BEF7EE08C0F9D1F0E94F00CFE01EA54A4
:10423000FF4F0081118122813381E881F981369716
:104240008081918149E653E06BEF7EE08C0F9D1FEA
:104250000E94F00C41E0B601CE010E94911DE88160
:10426000F9813697808191814F2D6BEF7EE08C0F25
:104270009D1FDF91CF911F910F91FF90EF90DF90E5
:10428000CF900C94900C0F931F93CF93DF93EC017E
:104290008B01E881F9813697808191816BEF7EE017
:1042A0008C0F9D1F0E94860CE881F98136978081D2
:1042B000918142EB56E06BEF7EE08C0F9D1F0E94D8
:1042C000CB0CE881F9813697808191814DEA56E0E7
:1042D0006BEF7EE08C0F9D1F0E94CB0C40E0B8017D
:1042E000CE010E94671F40E0B801CE010E94DF1995
:1042F00040E0B801CE010E94E92041E0B801CE01C2
:104300000E947B20E881F98136978081918141E08C
:10431000B8018C0F9D1F0E94900CE881F98136979F
:104320008081918141E0B8018C0F9D1F0E94900C0B
:10433000E881F981369780819181B8018C0F9D1FAA
:10434000DF91CF911F910F910C948B0C27E734E0F4
:10435000FC0131832083089527E734E0FC01318399
:1043600020830C94EF47FC01178216821186108679
:1043700010A61286EA5BFF4F1082089527E734E00B
:10438000FC0131832083E858FF4F1082FC017383C6
:104390006283558344830C94B321FC0117821682F7
:1043A0000C94B321CF92DF92EF92FF920F931F9361
:1043B000CF93DF93EC018B01AC81BD81BC016D5AC1
:1043C0007F4FED91FC9111973697808191818A0FF3
:1043D0009B1F0E945A0C6B017C0188859985823055
:1043E000910561F08330910509F465C0019709F0EA
:1043F00079C021E0012B09F067C065C0B80183E1F5
:1044000093E00E946550892B09F46CC0AC81BD819A
:10441000ED91FC911197369780819181B701A601AA
:104420008A0F9B1F0E94470E8230910591F17CF408
:10443000892B09F057C0C8010E943B508B019C0199
:10444000B701A6018C819D810E9479124BC08330F7
:10445000910579F0049709F045C0C8010E943B50CE
:104460008B019C01B701A6018C819D810E9457118F
:1044700039C04AE050E060E070E0C8010E94274F78
:104480008B019C01B701A6018C819D810E94D311F3
:1044900029C0C8010E943F509C01B701A6018C8130
:1044A0009D81DF91CF911F910F91FF90EF90DF9051
:1044B000CF900C94681168E173E0C8010E946550C8
:1044C00021E0892B09F020E0B701A6018C819D81B4
:1044D000DF91CF911F910F91FF90EF90DF90CF90E0
:1044E0000C943611DF91CF911F910F91FF90EF90B7
:1044F000DF90CF900895CF93DF93DC01AA5BBF4F8D
:10450000FD0101900020E9F7EA1BFB0B3297F7FD54
:104510000CC0EC01CE0FDF1FCA5BDF4F28812E32AB
:1045200011F4188203C03197F2CF1C92FC01E858B5
:10453000FF4F1082DF91CF910895FB010190002081
:10454000E9F731974083118281E00895462FBC013D
:104550006A5B7F4F22E330E00C949D22EF92FF9242
:104560000F931F93CF93DF938C01EB0188818823F6
:1045700071F1D801AA5BBF4FFD0101900020E9F75E
:104580003197EA1BFB0B1E161F0614F07E0107C0B5
:104590006EE2C8010E94A6228111F8CF18C0FE0168
:1045A00001900020E9F73197EC1BFD0BC7018C1B34
:1045B0009D0B8E179F0738F4F70161917F01C801A9
:1045C0000E94A622ECCFF801E858FF4F1082DF913D
:1045D000CF911F910F91FF90EF900895462FBC014E
:1045E000685D7F4F2EE130E00C949D22462FBC0188
:1045F000665F7F4F2EE130E00C949D22CF92DF92D8
:10460000EF92FF920F931F93CF93DF9300D0CDB71C
:10461000DEB76C01262F7C0188E2E80EF11C04E075
:1046200010E0E62FEF7DE983F601868197818230E5
:10463000910509F4BFC034F4009761F0019709F4C3
:1046400062C0CCC08430910509F49AC0069709F481
:10465000ABC0C4C02D3559F154F42232F9F02B35DA
:10466000D1F561E774E0C6010E94AE22B7C02437DD
:1046700039F12B3769F0263671F581E090E0F601CB
:104680009783868383E090E09187808766E632C0D7
:1046900081E090E0F6019783868383C081E090E01B
:1046A000F601978386839187808710A697C0C601FD
:1046B0000E947B2284E090E0F601978386838EC07F
:1046C00081E090E0F6019783868383E090E0918714
:1046D000808764E70FC080ED820F8A3078F481E034
:1046E00090E0F6019783868382E090E0918780874F
:1046F00010A6622FC6010E94EE2270C02D3279F3FF
:104700002E3669F36EC0F601808591858130910562
:10471000E9F01CF4892B39F061C082309105C9F0B1
:10472000039741F15BC02D3741F461E774E0C601A6
:104730002A830E94AE22F60115C0223209F051C030
:1047400082E090E0F6019783868347C0223219F019
:10475000D0CF2C3259F4B701C6012A830E94D2214E
:10476000F60110A6178306832A815ECFF981FD35F5
:1047700091F3BFCF2C3279F389818D3561F3B9CFB5
:10478000822F8F7D8D3549F02C3211F0223271F459
:1047900081E090E0F60197838683C6010E947B2228
:1047A000F601118610861AC02A33D9F4F601178251
:1047B000168214C0223229F0622FC6010E94F6220E
:1047C0000DC086E090E0F60197838683B601665FB0
:1047D0007F4FC6010E94AE22F601128680E090E073
:1047E00002C08FEF9FEF0F900F90DF91CF911F913D
:1047F0000F91FF90EF90DF90CF900895FC01578BC1
:10480000468B718F608F118210820895FC01A08108
:10481000B181A80FB91F12966C9380819181439743
:104820002CF480819181019691838083089561E0C9
:1048300085E30E94814961E085E30E9448498CB587
:1048400080618CBD8CB580648CBD61E084E30E9486
:10485000484961E083E30C944849811103C08CB559
:10486000806202C08CB58F7D8CBD08959CB5937F0E
:10487000982B9CBD0895FC01A681B7819D012F5FF7
:104880003F4F8481958140855185840F951F28175E
:10489000390750F4378326836C930680F781E02D27
:1048A000108281E090E0089580E090E00895FC019E
:1048B000A481B581B783A68380859185892B09F072
:1048C0001C92089508952F923F924F925F926F929B
:1048D0007F928F929F92AF92BF92CF92DF92EF9290
:1048E000FF920F931F93CF93DF93CDB7DEB72A9735
:1048F0000FB6F894DEBF0FBECDBF9A878987DC0163
:10490000D6968C91882309F4E5C00E943B486983C0
:104910007A838B839C83E985FA8580A191A1298183
:104920003A81281B390B84A595A5281739070CF463
:10493000D1C0028CF38DE02D80809180A280B38065
:10494000A985BA855E96ED91FC915F97A5019401CA
:1049500060817181828193810E94B8492B013C0161
:10496000E985FA8520893189428953890E948D4CD5
:10497000A985BA8594962D913D914D915C9197971B
:104980000E94B9496B017C01E985FA8564A375A38E
:1049900086A397A312A903A934A825A8212F302FF5
:1049A000432D522D0E94824C18162CF4812F902FEB
:1049B000A32DB22D18C0A985BA859E968D919D9183
:1049C0000D90BC91A02D8D839E83AF83B8879C01F1
:1049D000AD01C701B6010E947F4A87FF0AC08D81E1
:1049E0009E81AF81B885E985FA8584A395A3A6A3A6
:1049F000B7A3A985BA851C962D913D914D915C91E7
:104A00001F97C301B2010E948D4CE985FA8524A14C
:104A100035A146A157A10E94B9496B017C01A98526
:104A2000BA8598962D913D914D915C919B97C501CA
:104A3000B4010E94B849E985FA85248935894689F7
:104A400057890E948D4C9B01AC01C701B6010E94A1
:104A5000B8496B017C01212F302F432D522D0E942C
:104A6000824C1816DCF0A985BA859E961C919E97FB
:104A70009F960C919F97D0963C90D097D1962C9072
:104A8000212F302F432D522DB601C7010E947F4A9E
:104A900087FD04C01C2D0D2D3E2C2F2CA985BA8519
:104AA0005C96ED91FC915D97812F902FA32DB22DF7
:104AB00080839183A283B383E985FA8580A691A63A
:104AC000A2A6B3A689819A81AB81BC8180A391A360
:104AD000A2A3B3A32A960FB6F894DEBF0FBECDBF34
:104AE000DF91CF911F910F91FF90EF90DF90CF90CA
:104AF000BF90AF909F908F907F906F905F904F90FE
:104B00003F902F9008952F923F924F925F926F9215
:104B10007F928F929F92AF92BF92CF92DF92EF924D
:104B2000FF920F931F93CF93DF9300D000D0CDB7A8
:104B3000DEB71C012A013B014801590120E030E0A9
:104B4000A901C301B2010E947F4A87FD7AC020E01B
:104B500030E0A901C501B4010E947F4A87FD71C000
:104B600020E030E0A901C701B6010E947F4A87FD1D
:104B700068C0F10140825182628273828482958290
:104B8000A682B782C086D186E286F38664A575A523
:104B9000882777FD8095982F0E94214B20E030E0F8
:104BA0004AE754E40E94864A69837A838B839C8314
:104BB000F10144865586668677869B01AC01C50166
:104BC000B4010E948D4C4B015C01F101608B718B33
:104BD000828B938B29813A814B815C81C701B6011D
:104BE0000E94864A6B017C01F101648B758B868B78
:104BF000978B808D918D019721F5A301920160E043
:104C000070E0CB010E94B849F101648775878687FF
:104C10009787A501940160E070E0CB010E94B8493C
:104C2000F101608B718B828B938BA701960160E001
:104C300070E0CB010E94B849F101648B758B868BC3
:104C4000978B0F900F900F900F90DF91CF911F9146
:104C50000F91FF90EF90DF90CF90BF90AF909F901B
:104C60008F907F906F905F904F903F902F9008951E
:104C7000CF92DF92EF92FF920F931F93CF93DF9328
:104C8000EC018B011616170694F5882777FD8095A1
:104C9000982F0E94214B6B017C016CA57DA5882774
:104CA00077FD8095982F0E94214B9B01AC01C70195
:104CB000B6010E94864A6B017C019B01AC016889A8
:104CC00079898A899B890E948D4C688B798B8A8B24
:104CD0009B8BA70196016C897D898E899F890E9493
:104CE000864A6C8B7D8B8E8B9F8B1DA70CA7DF91CB
:104CF000CF911F910F91FF90EF90DF90CF9008958B
:104D00002F923F924F925F926F927F928F929F92DB
:104D1000AF92BF92CF92DF92EF92FF920F931F93C9
:104D2000CF93DF93EC016A017B0148015901A9018E
:104D30009801C701B6010E94824C87FF4EC0CEA6E3
:104D4000DFA6E8AAF9AA8AAA9BAAACAABDAA8EA93C
:104D5000882309F442C02C8C3D8CF10140805180A5
:104D600062807380A5019401C301B2010E94824C4C
:104D7000181634F4F10180829182A282B3820DC0B0
:104D8000A7019601C301B2010E947F4A87FF05C0B7
:104D9000F101C082D182E282F3828CA09DA0AEA0FC
:104DA000BFA0CAA8DBA8ECA8FDA8A7019601C50171
:104DB000B4010E94824C181664F0CEA4DFA4E8A8C7
:104DC000F9A8A7019601C501B4010E947F4A87FF97
:104DD00004C0CCA2DDA2EEA2FFA2DF91CF911F9171
:104DE0000F91FF90EF90DF90CF90BF90AF909F908A
:104DF0008F907F906F905F904F903F902F9008958D
:104E00008F929F92AF92BF92CF92DF92EF92FF92DA
:104E1000CF93DF93EC01EC8DFD8DC080D180E280DB
:104E2000F380CCA2DDA2EEA2FFA2EA8DFB8D8081F1
:104E30009181A281B38188A799A7AAA7BBA78AA8B5
:104E40009BA8ACA8BDA8A5019401C701B6010E940A
:104E5000824C181664F08EA49FA4A8A8B9A8A50136
:104E60009401C701B6010E947F4A87FF04C08CA24B
:104E70009DA2AEA2BFA2DF91CF91FF90EF90DF90F5
:104E8000CF90BF90AF909F908F9008951F93CF9336
:104E9000DF93EC0111E06130710509F010E08EA99B
:104EA00091E08927181303C0CE010E9400271EAB92
:104EB000DF91CF911F9108950F931F93CF93DF93AD
:104EC000EC018B018EA9882361F1888D998D68177B
:104ED000790739F12C853D854E855F8560E070E06E
:104EE000CB010E94B8496C877D878E879F87288970
:104EF00039894A895B8960E070E0CB010E94B8493A
:104F0000688B798B8A8B9B8B2C893D894E895F8935
:104F100060E070E0CB010E94B8496C8B7D8B8E8B7A
:104F20009F8B198F088FDF91CF911F910F9108955B
:104F30002F923F924F925F926F927F928F929F92A9
:104F4000AF92BF92CF92DF92EF92FF920F931F9397
:104F5000CF93DF93CDB7DEB728970FB6F894DEBFB7
:104F60000FBECDBF4C017A8369831A013C832B832A
:104F700027013801AD82BE82CF82D88600E010E0E2
:104F80002FE733E440E050E0BA010E94802684E637
:104F900090E0F40195A784A769A17AA1C4010E94B9
:104FA0005C27CD8CDE8CEF8CF8A00D811E812F81CB
:104FB0003885B301A201C4010E9483250E943B48A9
:104FC000F40144A455A4662457FC6094762C64191B
:104FD00075098609970960A371A382A393A316AAF2
:104FE000358E248E89819A81938F828F8B819C81CB
:104FF000978F868F28960FB6F894DEBF0FBECDBF71
:10500000DF91CF911F910F91FF90EF90DF90CF90A4
:10501000BF90AF909F908F907F906F905F904F90D8
:105020003F902F9008950F931F93CF93DF93FC0130
:1050300071836083128213821482158286E58683CF
:105040001782108611861286138614861586168698
:105050001786108A118A128A138A148A158A168A68
:10506000DF01A754BF4F11961C921E92AE55BF4F41
:1050700011961C921E92149611961C921E921296D4
:1050800011961C921E92129611961C921E92178ACD
:10509000AC5AB1091D921C92EF0104E110E08FE0BF
:1050A00090E00E94004EFE01E15EFE4F91838083FE
:1050B0008FE090E00E94004EFE01E558FF4F918383
:1050C0008083FC01108201501109229601151105FF
:1050D00031F7DF91CF911F910F910895FC0162810B
:1050E0007381848195810895FC0186810895FC0176
:1050F00067817085818592850895FC01638574853B
:10510000858596850895CF92DF92EF92FF926A018E
:105110007B01FC012785308941895289C701B6018D
:105120000E948D4CFF90EF90DF90CF900895FC018E
:105130006389748985899689089547960895660FCD
:10514000771F680F791FFB01E558FF4F8081918120
:1051500008954F925F926F927F928F929F92AF923B
:10516000BF92CF92DF92EF92FF920F931F93CF9354
:10517000DF93FB0110811D3241F031E020E01B3252
:1051800009F030E0832F922F02C081E090E0EB0124
:10519000C80FD91F00E03DEC432E3CEC532E652C8C
:1051A0003DE3732E812C912C5401C12CD12C76011E
:1051B000E991EE23E9F1EE32C9F1FF27E7FDF09521
:1051C000011113C0AAE0B0E0A70196010E94CE4DE4
:1051D0006B017C01CF01C097AA2797FDA095BA2F3C
:1051E000C80ED91EEA1EFB1EE3CFBF016053710932
:1051F000882777FD8095982F0E94214B9B01AC0159
:10520000C301B2010E948D4C9B01AC01C501B401E8
:105210000E94B9494B015C0120E030E040E251E4DA
:10522000C301B2010E94864A2B013C0101E0C0CFBC
:10523000C701B6010E94214B9B01AC01C501B4011D
:105240000E94B9491D3239F49B01AC0160E070E065
:10525000CB010E94B849DF91CF911F910F91FF9030
:10526000EF90DF90CF90BF90AF909F908F907F9006
:105270006F905F904F9008958F929F92AF92BF92E0
:10528000CF92DF92EF92FF920F931F93CF93DF9312
:10529000EC01AC01455A5E4FDA012D913C9111971A
:1052A000FC01E15AFE4F243631056CF4A25AB109D3
:1052B0008D919C911197449734F4A655BF4F8D91D1
:1052C0009C910F9714F0118210826A3011F06D30AA
:1052D00011F4118210826432E1F4DE01A35ABE4F50
:1052E00011961C921E92149611961C921E92A85A08
:1052F000B10911961C921E92A655BF4F1D921C9289
:10530000C554DF4F688381E090E0DA018D939C9370
:10531000E4C0808191818130910569F024F4009787
:1053200009F47AC272C28230910509F492C00397DF
:1053300009F4D6C06AC2273031057CF4D901AD57D3
:10534000BB4F8C91681309C0DE01A35ABE4F8D91EB
:105350009C91119701968D939C93C9010196DA0156
:105360008D939C932C0F3D1FD901A554BF4F6C9377
:10537000CE0187549F4F8E010D591E4F6A3249F15D
:10538000DE01AF59BE4FFC016C3209F040C02081F4
:105390003181A9014F5F5F4F51834083C901880F5D
:1053A000991F8C0F9D1FEC01C15EDE4F0990D881C3
:1053B000C02DF80180819181C80FD91F18821182F8
:1053C00010828D919C911197FCE28F278D939C9375
:1053D0001EC2DC012D913C911197A9014F5F5F4FD7
:1053E0004D935C93C901880F991F8C0F9D1FEC0191
:1053F000C15EDE4F0990D881C02DD8018D919C915E
:105400001197C80FD91F18821D921C9263C080810A
:105410009181880F991F8C0F9D1FEC01C15EDE4F9B
:105420000990D881C02DF801808191819C012F5F66
:105430003F4F31832083C80FD91F6883772767FDCB
:1054400070958D919C911197682779276D937C9326
:10545000DEC1C9010196DA018D939C932C0F3D1F8B
:10546000D901A554BF4F6C93DE01A754BF4F8D9156
:105470009C91880F991F8C0F9D1FDC01A15EBE4F70
:105480000D911C919E012D593E4FD9018D919C91FA
:105490001197AC014F5F5F4F4D935C93080F191F3D
:1054A000D8016C93CF59DE4F48815981862F9927B7
:1054B00087FD9095613414F0C79701C0C0979C0197
:1054C000B4E0220F331FBA95E1F7CA01821B930B98
:1054D000998388838081918101969183808397C18C
:1054E000CE01820F931FDC01A554BF4F6C932E5F3A
:1054F0003F4FDA012D933C93DC01A454BF4F1C9223
:105500009E0127543F4FD9018D919C91880F991F7F
:105510008C0F9D1FDC01A15EBE4F8D919C916E0191
:10552000BDE9CB1ABEEFDB0AD6010D911C917801C3
:10553000BFEFEB1AFB0AD601ED92FC92800F911F90
:10554000DC016C93D9018D919C9111978C010F5FB7
:105550001F4F0D931C93880F991F8C0F9D1F815E09
:105560009E4FDC018D919C91D6010D911C91800F75
:10557000911FDC011C9211821082FE01EF59FE4F37
:1055800080819181062F112707FD1095613424F049
:10559000B8016753710903C0B80160537109861BD4
:1055A000970B91838083009709F031C168817981DD
:1055B000672B29F4FA0160817181CB010AC0FE01D9
:1055C000E35AFE4F608171816630710509F024C194
:1055D000F1CF019797FD0AC0FE01E80FF91F8F0177
:1055E00005541F4FD8011C91178BF3CFFB01319746
:1055F000CB0177FF02C080E090E0BF01681B790B10
:10560000DA016D937C93FE01E954FF4F1182108201
:1056100040815181D9018D919C914817590784F59A
:10562000D6011D921C9280819181D6014D915C9191
:10563000880F991F8C0F9D1FBC01615E7E4FDB019F
:105640006D917C91640F751FDB016C9185589F4FA4
:10565000DC018D919C91840F951FDC01662349F03C
:105660006C93D6018D919C91119701968D939C938B
:10567000DACF1C9280819181019691838083C8CF7B
:10568000FE01E35AFE4F80819181069709F0C2C066
:10569000FC9760817181CE010E94A9286A837B8377
:1056A0008C839D83FE01ED5DFE4F0190F081E02D26
:1056B00080818E83FE01EB5DFE4F60817181CE01A2
:1056C0000E94A92820E030E048EC52E40E94864A7B
:1056D0004B015C010E945C4B6B017C018E010B59FC
:1056E0001E4FF80160837183828393839B01AC0119
:1056F000C501B4010E94B84920E030E048EC52E412
:105700000E948D4C20E030E040E752E40E94864A3F
:10571000A70196010E94B9499B01AC016F8378876C
:1057200089879A87FE01E95DFE4F0190F081E02DA7
:105730008081833549F460E070E0CB010E94B84974
:105740006F83788789879A87FE01E75DFE4F6081C6
:105750007181CE010E94A92820E030E048EC52E49B
:105760000E94864A4B015C010E945C4B6B017C01EC
:10577000D8016D937D938D939C9313979B01AC01FE
:10578000C501B4010E94B84920E030E048EC52E481
:105790000E948D4C20E030E040E752E40E94864AAF
:1057A000A70196010E94B9499B01AC016B877C87D8
:1057B0008D879E87FE01E55DFE4F0190F081E02D13
:1057C0008081873549F460E070E0CB010E94B849E0
:1057D0006B877C878D879E87FE01E35DFE4F60812E
:1057E0007181CE010E94A9286F87788B898B9A8B53
:1057F000FE01E15DFE4F60817181CE010E94A9280A
:105800006B8B7C8B8D8B9E8B05C01182108280E010
:1058100090E002C081E090E0DF91CF911F910F9165
:10582000FF90EF90DF90CF90BF90AF909F908F90C0
:1058300008958EBD0DB407FEFDCF8EB508950F936C
:105840001F93FC011382128208EE13E020E030E087
:1058500004831583268337838FEC94E091838083C0
:10586000648745871F910F910895EF92FF921F93D0
:10587000CF93DF931F92CDB7DEB77C01162F60E088
:10588000FC01848549830E948149F8E01F9FB00193
:105890001124F7018585880F862B0E94192C4981D8
:1058A000842F0E94192C62E070E080E090E00E945A
:1058B0006A4861E0F70184850F90DF91CF911F91D5
:1058C000FF90EF900C948149462F60E00E94352CA8
:1058D00081E090E0089546E062E00C94352CCF9290
:1058E000DF92EF92FF920F931F93CF93DF9300D03D
:1058F000CDB7DEB78C01F22E60E0FC0184854983D0
:105900005A830E9481494981E42EC42E5A81D52EA2
:105910008C2D8E198F1530F4F60181916F010E9444
:10592000192CF6CF62E070E080E090E00E946A48B7
:1059300061E0F80184850F900F90DF91CF911F9166
:105940000F91FF90EF90DF90CF900C948149242F1E
:10595000AB0160E00C946F2C1F93CF93DF93EC01AD
:10596000162F60E08C850E94814962E070E080E043
:1059700090E00E946A4888E0189FB00111248D854C
:10598000880F862B80680E94192C80E00E94192CB9
:10599000182F62E070E080E090E00E946A4861E0C9
:1059A0008C850E948149812FDF91CF911F910895AD
:1059B00060E00E94AC2C90E0089569E00E94AC2C5D
:1059C00090E0089569E00E94AC2C8FEF9FEF08955E
:1059D0001F93CF93DF93EC01162F63E00E94AC2C52
:1059E000482F4C7F6BEF610F6370462B63E0CE0155
:1059F000DF91CF911F910C94352C8F929F92AF9293
:105A0000BF92CF92DF92EF92FF920F931F93CF93AB
:105A1000DF93EC016A017B01480159016BE874E0F6
:105A20008BEF9EE00E94EE430E9417246AE070E034
:105A300080E090E00E946A4881E00E942D2480E08E
:105A40000E9436246EE974E08BEF9EE00E94EE43E4
:105A500080913E0290913F02019779F448E06EE018
:105A6000CE010E94352C10923F0210923E026AEA4B
:105A700074E08BEF9EE00E94EE4364E670E080E00D
:105A800090E00E946A4840E863E0CE010E94352C15
:105A9000C701B60123E0660F771F881F991F2A955B
:105AA000D1F7680D791D8A1D9B1DA7019601E4E0C1
:105AB000220F331F441F551FEA95D1F70E94874DCF
:105AC00069017A01422F60E0CE010E94352C4D2DF4
:105AD000552761E0CE010E94352C40E063E0CE0105
