:100000000C94A9030C94623C0C94933C0C94C43C57
:100010000C94F53C0C94263D0C94573D0C94883D73
:100020000C94B93D0C94D8030C94D8030C94D803C9
:100030000C94D8030C94D8030C94D8030C94383245
:100040000C94D8030C94D8030C94D8030C94D803C4
:100050000C94D8030C94D8030C94D8030C94FC3D56
:100060000C94D8030C94AC360C94E2360C94D80360
:100070000C94D8030C94D8030C94D8030C94D80394
:100080000C94D8030C94D8030C94D8030C94D80384
:100090000C9459370C948F370C94D8030C94D803D4
:1000A0000C94D8030C94D8030C94D8030C94D80364
:1000B0000C94D8030C94D8030C94BB330C942A33BF
:1000C0000C941D340C94D8030C94D8030C9406386B
:1000D0000C943C380C94D8030C94B3380C94E93845
:1000E0000C94D8033C3C063C0E3C1A3C273C483C54
:1000F000553C3D3F403F2F3F333F393F773F443FE3
:10010000483F4E3F523F563F5C3F603F643F773F22
:100110006A3F6E3F723F084AD73B3BCE016E84BCBC
:10012000BFFDC12F3D6C74319ABD56833DDA3D0051
:10013000C77F11BED9E4BB4C3E916BAAAABE00009A
:1001400000803F05A84CCDB2D44EB93836A9020C78
:1001500050B9918688083CA6AAAA2ABE0000008051
:100160003F00496E6974206175746F70696C6F74BB
:1001700020636F6D706C65746500496E69742061F1
:1001800075746F70696C6F742E2E736574206C6952
:100190006D6974732E2E00496E6974206175746FD9
:1001A00070696C6F742E2E737461727420504944A0
:1001B0002E2E00496E6974206175746F70696C6FC2
:1001C000742E2E00536574757020636F6D706C65AE
:1001D00074652E2E0053746172742074696D65729B
:1001E0002E2E0053746172742077696E642E2E0077
:1001F0005374617274206E6D6561205478202D20D7
:100200006F6E2070696E732034362054782C203441
:100210003820527820617420005374617274206E0B
:100220006D65612054782E2E005374617274206EB7
:100230006D6561205278202D2073657269616C3480
:10024000206174200043535F50494E204F55545055
:100250005554203D20484947480043535F50494E7C
:100260002073657420746F204F55545055540053BB
:1002700074617274205350492075617274732E2E0C
:10028000005374617274206E6D6561205278202D68
:100290002073657269616C3320617420005374614E
:1002A0007274206E6D6561205278202D2073657206
:1002B00069616C3220617420005374617274207320
:1002C000656174616C6B202D2073657269616C329D
:1002D00020617420343830300053746172742047C8
:1002E0005053205278202D2073657269616C312043
:1002F00061742000496E697469616C697A696E671E
:100300002E2E002C002C4C4C333A002C4C55333AFA
:10031000002C4C4C323A002C4C55323A002C4C4CB0
:10032000313A002C4C55313A002C53544B3A002CA6
:100330005342333A002C5342323A002C5342313A62
:10034000002C5342303A002C4750533A002C575A55
:100350004A3A005549443A4D4547412C4150583A94
:100360000021215645523A312E392C002C002C57B1
:10037000534B3A002C5753583A002C4141443A0011
:100380002C4141453A002C41414E3A002C4141520A
:100390003A002C4141583A002C4150523A002C412D
:1003A00050433A002C4150543A002C4150533A00EB
:1003B0005549443A4D4547412C4150583A00212176
:1003C0005645523A312E392C0024504D544B32357B
:1003D000312C0024504D544B3331342C302C312CE3
:1003E000302C312C312C312C302C302C302C302C2A
:1003F000302C302C302C302C302C302C302C302C1D
:10040000302A32380024504D544B3232302C3130A7
:1004100030302A31460053657474696E6720475046
:100420005320746F204D54454B5F33333239002CC9
:10043000382C312C302A0024505352463130302C85
:10044000312C0024505352463130352C302A33465B
:100450000024505352463130332C30342C30302C61
:1004600030312C30312A3231002450535246313051
:10047000332C30332C30302C32302C30312A323582
:100480000024505352463130332C30322C30302C33
:1004900030352C30312A323300245053524631301B
:1004A000332C30302C30302C30352C30312A323156
:1004B0000024505352463130332C30312C30302C04
:1004C00030302C30312A32350024505352463130EE
:1004D000332C30352C30302C30302C30312A323126
:1004E0000024505352463130352C312A33450053C5
:1004F000657474696E672047505320746F20454DB2
:100500005F343036410053657474696E672047501C
:100510005320746F2047454E45524943005365743C
:1005200074696E672047505320636F6E6669672E4B
:100530002E2E0020202064656661756C7420746F17
:1005400020343830302E2E004641494C4544004F6F
:100550004B20617420002020207472792061757412
:100560006F62617564202E2E200020206465746502
:10057000637465642070756C7365207261746520A6
:100580003D20002C542A002448434844542C002C7D
:100590004E2C412A002E302C522C002457494D5706
:1005A000562C0053504920696E697420636F6D703A
:1005B0006C65746500535049205541525420726552
:1005C00073657400535049207374617274656400DC
:1005D0004D756C746953657269616C3A3A6265670E
:1005E000696E0000000A0B02090C0D0E08070304D7
:1005F00001000000000000000000000000000000FA
:1006000000000000000000000000000000000012D8
:1006100011100000000000000000000000000000B9
:100620000000000000000000000102102020080867
:100630001020401020408002010201080402010144
:10064000020408102040808040201008040201802D
:100650000402018040201008040201080402010184
:100660000204081020408001020408102040800588
:10067000050505070508080808020202020A0A081B
:100680000804040404010101010101010103030341
:100690000303030303040707070C0C0C0C0C0C0CDE
:1006A0000C0202020206060606060606060B0B0BE5
:1006B0000B0B0B0B0B000020002300260029002C45
:1006C000002F0032000001000003010601090100B3
:1006D000002200250028002B002E003100340002EB
:1006E000010000050108010B010000210024002782
:1006F000002A002D00300033000101000004010732
:10070000010A014E414E494E495459494E46CDCCFD
:10071000CC3D0AD7233C17B7D13877CC2B329595EF
:10072000E6241FB14F0A000020410000C8420040EB
:100730001C4620BCBE4CCA1B0E5AAEC59D74DC08BC
:10074000780FBE1AD0201637C33770381D39F0081D
:10075000031011241FBECFEFD1E2DEBFCDBF14E0E6
:10076000A0E0B2E0E2EAF0E900E00BBF02C00790CF
:100770000D92A430B107D9F72EE0A4E0B4E001C097
:100780001D92A63FB207E1F717E0CEE4D7E000E004
:1007900006C022970109FE010BBF0E948E44CE3392
:1007A000D10780E00807A9F70E94EB3D0C943F4871
:1007B0000C94000021E132E0FC0131832083089594
:1007C00021E132E0FC01318320830C94FA3DFC01ED
:1007D000CB0121E132E03183208373836283148271
:1007E00040E050E0BA010E94261561E088E10E94D5
:1007F000783F61E08AE10E94783F61E08CE10E94ED
:10080000783F61E08EE10E94783F60E082E40C94E2
:10081000783FCF92DF92EF92FF92CF93DF93EC017C
:100820008A819B810E946D16882389F08A819B8131
:100830000E94EA126B017C010E94463E21E0C6162E
:10084000D706E806F90608F020E0822F01C080E014
:10085000DF91CF91FF90EF90DF90CF900895CF92EE
:10086000DF92EF92FF92CF93DF93EC010E94090495
:100870008823A9F10E94463E6B017C018A819B81FD
:100880000E94E412C61AD70AE80AF90A89EEC816C5
:1008900083E0D806E104F104C0F16C8188E10E9494
:1008A000B13F6C818AE10E94B13F6C818CE10E9472
:1008B000B13F6C818EE10E94B13F8C8191E089272C
:1008C0008C830E94463EAB01BC018A819B81DF91F3
:1008D000CF91FF90EF90DF90CF900C94261560E0C1
:1008E00088E10E94B13F60E08AE10E94B13F60E090
:1008F0008CE10E94B13F60E08EE1DF91CF91FF90EB
:10090000EF90DF90CF900C94B13FDF91CF91FF90AB
:10091000EF90DF90CF900895CF92DF92EF92FF9209
:10092000CF93DF93EC018A819B810E94211588235C
:1009300011F18A819B810E94F51418161906DCF4C6
:100940008A819B810E9401156B017C018A819B81B8
:100950000E94F514BC01882777FD8095982F0E948E
:10096000D6419B01AC01C701B6010E94374318165E
:1009700014F461E001C060E08A819B81DF91CF9136
:10098000FF90EF90DF90CF900C94AA160F931F93D7
:10099000CF93DF93EC0180E40E94FF3E8C018A81BB
:1009A0009B810E94C514081719074CF08A819B810E
:1009B0000E94B9148017910714F060E001C061E053
:1009C0008A819B810E94131681E40E94FF3E8C0164
:1009D0008A819B810E94D714081719073CF08A81ED
:1009E0009B810E94CB148017910714F461E001C031
:1009F00060E08A819B810E94221682E40E94FF3E71
:100A00008C018A819B810E94E914081719073CF028
:100A10008A819B810E94DD148017910714F461E0A4
:100A200001C060E08A819B81DF91CF911F910F917E
:100A30000C94311629E132E0FC01318320830895C2
:100A400029E132E0FC01318320830C94FA3D2F929E
:100A50003F924F925F926F927F928F929F92AF924E
:100A6000BF92CF92DF92EF92FF920F931F93CF939B
:100A7000DF93CDB7DEB728970FB6F894DEBF0FBE71
:100A8000CDBF1C016A017B0109831A832B833C8340
:100A9000FC01828193810E9420139B01AC01C7015C
:100AA000B6010E946E402B013C01F10182819381CD
:100AB0000E9420139B01AC01C701B6010E946D404A
:100AC0004B015C01F101828193810E9420139B0103
:100AD000AC0169817A818B819C810E946E406B019F
:100AE0007C01F101828193810E9420139B01AC0162
:100AF00069817A818B819C810E946D4069837A83B0
:100B00008B839C83F101828193810E9426136D83E4
:100B10007E838F83988724E83AEB4CE358E3C30144
:100B2000B2010E946D402D813E814F8158850E9407
:100B3000374318166CF4F101828193810E941213DD
:100B40009B01AC01C301B2010E94344187FD8CC0FE
:100B5000F101828193810E9412132B013C0124E850
:100B60003AEB4CE358E3C501B4010E946E40A30187
:100B700092010E94344187FF0EC0F101828193816E
:100B80000E9426139B01AC01C501B4010E943743AA
:100B900018160CF471C0F101828193810E942C130C
:100BA0004B015C0124E83AEB4CE358E3C701B60182
:100BB0000E946D40A50194010E94374318166CF401
:100BC000F101828193810E94F6129B01AC01C70161
:100BD000B6010E94344187FD57C0F10182819381A3
:100BE0000E94F6126B017C0124E83AEB4CE358E3D7
:100BF00069817A818B819C810E946E40A701960158
:100C00000E94344187FF48C0F101828193810E9494
:100C10002C139B01AC0169817A818B819C810E949C
:100C200037431816CCF549815A816B817C81F101DB
:100C30008281938128960FB6F894DEBF0FBECDBF98
:100C4000DF91CF911F910F91FF90EF90DF90CF90A8
:100C5000BF90AF909F908F907F906F905F904F90DC
:100C60003F902F900C947615B301A201F10182817F
:100C700093810E945C156CCFB501A401F1018281C2
:100C800093810E94701587CFB701A601F10182817F
:100C900093810E944015A1CF28960FB6F894DEBF2D
:100CA0000FBECDBFDF91CF911F910F91FF90EF90BD
:100CB000DF90CF90BF90AF909F908F907F906F907C
:100CC0005F904F903F902F9008958F929F92AF9298
:100CD000BF92CF92DF92EF92FF920F931F93CF9329
:100CE000DF93EC016A017B014801590140E050E0CB
:100CF00064EB72E48A819B810E945C1540E050E0C5
:100D000064EB72EC8A819B810E94701540E050E098
:100D100064E373E48A819B810E94401540E050E0C7
:100D200064E373EC8A819B810E9476158A819B81A2
:100D30000E9418132DE93BEF46E157E30E9442431E
:100D4000AB01BC018A819B810E946A1595018401D7
:100D5000B701A601CE010E942705DF91CF911F9117
:100D60000F91FF90EF90DF90CF90BF90AF909F904A
:100D70008F900895CF92DF92EF92FF920F931F937F
:100D8000CF93DF93EC018B0189E192E09983888313
:100D90007B836A83CB010E9404136B017C01C80131
:100DA0000E94FC12AB01BC0197018601CE010E949A
:100DB0006506DF91CF911F910F91FF90EF90DF902B
:100DC000CF9008954F925F926F927F928F929F92F1
:100DD000AF92BF92CF92DF92EF92FF920F931F9349
:100DE000CF93DF9300D000D0CDB7DEB74C01FC012C
:100DF000828193810E941715882309F4D2C00E9432
:100E0000463E2B013C01F401828193810E948814AB
:100E1000461A570A680A790AF1EE4F16F3E95F0697
:100E2000F4E06F06710438F0F401828193810E942E
:100E3000171581118DC0F401828193810E94A8143D
:100E4000882309F4AEC0F401828193810E94981432
:100E50005B016C01F401828193810E9490142B014B
:100E60003C01F401828193810E9404139B01AC0137
:100E7000F4018281938129833A834B835C830E94AE
:100E8000FC128301720129813A814B815C810E94AD
:100E90003918AB01BC01F401828193810E943A159B
:100EA000F401828193810E94F0122B013C01F40134
:100EB000828193810E940C139B01AC01C301B2019A
:100EC0000E943743181664F4F401828193810E94D2
:100ED000F012AB01BC01F401828193810E9456158E
:100EE000F401828193810E9498142B013C01F4014A
:100EF000828193810E949014AB01BC019301820115
:100F0000C4010E942705F401828193810E94171574
:100F1000882369F1F401828193810E94F0122B01F0
:100F20003C01F401828193810E9418139B01AC0162
:100F3000C301B2010E9437431816CCF440E050E0E0
:100F4000BA01F401828193810E942C1561E010C0E6
:100F500040E050E0BA01F401828193810E942C1597
:100F600061E0F401828193810E94371564CF60E0D3
:100F7000F401828193810F900F900F900F90DF9179
:100F8000CF911F910F91FF90EF90DF90CF90BF9086
:100F9000AF909F908F907F906F905F904F900C9448
:100FA00037150F900F900F900F90DF91CF911F91F9
:100FB0000F91FF90EF90DF90CF90BF90AF909F90F8
:100FC0008F907F906F905F904F900895CF93DF93B5
:100FD000EC018A819B810E949014AB01BC018A8143
:100FE0009B810E9446158A819B810E949814AB01C7
:100FF000BC018A819B810E944E1540E050E0BA01FD
:101000008A819B81DF91CF910C9456150F931F938A
:10101000CF93DF93EC018B0181960E94372118A3B7
:101020000F8FDF91CF911F910F9108958F929F9213
:10103000AF92BF92CF92DF92EF92FF920F931F93E6
:10104000CF93DF93CDB7DEB7E7970FB6F894DEBF47
:101050000FBECDBF4C01FC01168E158E148E138E63
:1010600063EB71E083E69CE00E94E039F401878D38
:1010700090A10E940B17AB01BC018DE494E00E948B
:10108000652A64E670E080E090E00E94753EF4011D
:10109000878D90A10E94381320E030E044E354E4AF
:1010A0000E946E406B017C01F40160837183828336
:1010B0009383878D90A10E9433149B01AC01C701DB
:1010C000B6010E946E40F401648375838683978322
:1010D000878D90A10E943213F40160877187828707
:1010E000938711E0108B67E971E083E69CE00E9432
:1010F000E039A401485F5F4FB4016C5F7F4F1F92DE
:101100001F938FE38F9385E08F938EE18F9388EB0E
:101110008F938AE0A82E87EDB82E83EAC82E8DE340
:10112000D82E16E6E12EFE2C06EE1EE39401CE012B
:1011300001960E946D2487E3FE013196D4019196B9
:1011400001900D928A95E1F76AE771E083E69CE0F1
:101150000E94E039F1E28F0E911C00E010E024E8DB
:1011600032E440E050E0BA01C4010E94552364E635
:1011700070E0C4010E940D2362E671E083E69CE00A
:101180000E94E0390F900F900F900F900F900F90EA
:10119000E7960FB6F894DEBF0FBECDBFDF91CF91BB
:1011A0001F910F91FF90EF90DF90CF90BF90AF9085
:1011B0009F908F900895089540E063E48DE494E05B
:1011C0000E94F4286DE474E088E294E00E947A2F93
:1011D00020E841E368E274E086E094E00C94F52AAC
:1011E00086E094E00C94352B0F931F93CF93DF93FD
:1011F000EC018C010F5E1F4F8DE494E00E94B22938
:10120000892B21F18DE494E00E94AD292D8D3E8D36
:10121000FE01E20FF31F818B2F5F3F4F3E8F2D8F1B
:101220008A3029F08D3019F0213331052CF3FE017D
:10123000E20FF31F118AB80183E69CE00E94F239A5
:101240001E8E1D8EF80111821082D6CFDF91CF91B4
:101250001F910F9108954F925F926F927F92AF927C
:10126000BF92CF92DF92EF92FF920F931F93CF9393
:10127000DF9300D000D000D0CDB7DEB75C01FC0119
:10128000878D90A10E94941685010F5D1F4F8823C2
:1012900009F4DEC0C5010E94F40861E070E0C801F5
:1012A0000E941B24F501878D90A10E94381320E035
:1012B00030E044E354E40E946E406B017C01F50190
:1012C0006083718382839383878D90A10E943314FE
:1012D0009B01AC01C701B6010E946E40F501648319
:1012E000758386839783C8010E943821F501248580
:1012F00035854685578560857185828593850E94F1
:101300006D406B017C0120E030E0A9010E94374371
:10131000181624F0F7FAF094F7F8F094F501878D99
:1013200090A10E947414BC01882777FD8095982FA6
:101330000E94D6419B01AC01C701B6010E94374310
:1013400018160CF09EC0F5018089078D10A1C0848D
:10135000D184E284F3844484558466847784A30131
:101360009201882309F1C701B6010E94374318167C
:101370000CF1A3019201C701B6010E94344187FF1D
:101380003FC0F501108AC8010E947A14BC01882769
:1013900077FD8095982F0E94D6419B01AC01C70133
:1013A000B6010E946D4027C0C701B6010E943441BA
:1013B00087FF06C0F501C486D586E686F78620C07D
:1013C000A3019201C701B6010E9437431816C4F465
:1013D00081E0F501808BC8010E947A14BC01882746
:1013E00077FD8095982F0E94D6419B01AC01C701E3
:1013F000B6010E946E40F5016487758786879787DE
:10140000F5014485558566857785878D90A10E9475
:10141000AB15F501878D90A10E9480142B013C0132
:1014200020E030E048EC52E4F5016485758586855E
:1014300097850E9442430E94A341AB01BC01E12C6D
:10144000F12C9301820186E094E00E94B42D19C032
:1014500060E070E0C80126960FB6F894DEBF0FBEBC
:10146000CDBFDF91CF911F910F91FF90EF90DF9053
:10147000CF90BF90AF907F906F905F904F900C9403
:101480001B2426960FB6F894DEBF0FBECDBFDF91AA
:10149000CF911F910F91FF90EF90DF90CF90BF9071
:1014A000AF907F906F905F904F90089581E0809310
:1014B000230B8091210B9091220B01969093220B8C
:1014C0008093210B8091210B9091220B64E170E0BD
:1014D0000E9428449093220B8093210B08958EE65E
:1014E00095E00C94231E8EE695E00C94651E8FE427
:1014F0009AE00E94A1128FE49AE00E94BB16AB0111
:10150000BC0126E083E69CE00E942E3664EF72E088
:1015100083E69CE00E94E03988E695E00E94D81AB4
:1015200069ED72E083E69CE00E949E398FE49AE0C8
:101530000E94CB16AB01BC012AE030E083E69CE0C0
:101540000E94C73A8FE49AE00E94CB16AB01BC011F
:1015500026E080E09DE00E942E368FE49AE00E9413
:101560001317882361F069EB72E083E69CE00E9428
:10157000E03927E040EC52E160E070E019C06DE92D
:1015800072E083E69CE00E949E398FE49AE00E941C
:10159000DB16AB01BC012AE030E083E69CE00E9450
:1015A000C73A8FE49AE00E94DB16AB01BC0126E04B
:1015B0008DE99DE00E942E3661E872E083E69CE0B2
:1015C0000E949E398FE49AE00E94EB16AB01BC01A9
:1015D0002AE030E083E69CE00E94C73A8FE49AE07C
:1015E0000E94EB16AB01BC0126E08AE39EE00E945C
:1015F0002E366FE672E083E69CE00E94E03968EEEA
:1016000073E080E090E00E94753E61E083E40E9418
:10161000783F6AE572E083E69CE00E94E03964E688
:1016200070E080E090E00E94753E61E083E40E94FB
:10163000B13F65E472E083E69CE00E94E03969E234
:1016400072E083E69CE00E949E398FE49AE00E945B
:10165000FB16AB01BC012AE030E083E69CE00E946F
:10166000C73A8FE49AE00E94FB16AB01BC018AE501
:1016700095E00E94652A64E670E080E090E00E94B8
:10168000753E69E172E083E69CE00E94E03960E02B
:1016900080E30E94783F61E08EE20E94783F60EF35
:1016A00071E083E69CE00E949E398FE49AE00E94FC
:1016B0000317AB01BC012AE030E083E69CE00E9406
:1016C000C73A8FE49AE00E940317AB01BC018EE099
:1016D0009AE00E94961B82E095E00E94160863EE55
:1016E00071E083E69CE00E94E03960E083E00E94C4
:1016F000783F43E050E06FE67AE081E00E94F13B02
:1017000060E082E00E94783F43E050E063E77AE0E7
:1017100080E00E94F13B65ED71E083E69CE00E9471
:10172000E03946E55AE064E670E080E090E00E942F
:10173000CB310E94D73164EC71E083E69CE00C94DD
:10174000E0396F927F928F929F92AF92BF92CF9229
:10175000DF92EF92FF920F931F93CF93DF9300D00E
:1017600000D01F92CDB7DEB7ADB6BEB668EB73E062
:101770000E9425467C01009709F428C2FC010190D3
:101780000020E9F78F0101501109081B190B0430E3
:10179000110508F41BC2F70180819801245031091A
:1017A00069018DB69EB6833209F0ADC144E050E0C8
:1017B000B701CE0101960E9442461D82380135E0F4
:1017C000631A71088DB79EB78C199D090FB6F894EE
:1017D0009EBF0FBE8DBF0DB71EB70F5F1F4FB70166
:1017E0006B5F7F4FA301C8010E942946F801E60DF7
:1017F000F71D10826DE172E0CE0101960E94324623
:10180000892BB1F4C8010E94E04561E0892B09F4FD
:1018100060E08FE49AE00E943215C8010E94E04522
:10182000019709F0CEC18EEF94E00E94E607C9C18E
:1018300062E272E0CE0101960E943246892BB1F439
:101840008FE49AE00E9418136B017C01C8010E948A
:10185000DC459B01AC01C701B6010E946E40AB01A3
:10186000BC018FE49AE00E946215ABC167E272E0AE
:10187000CE0101960E943246892B51F4C8010E9484
:10188000DC45AB01BC018FE49AE00E94461599C18A
:101890006CE272E0CE0101960E943246892B51F42F
:1018A000C8010E94DC45AB01BC018FE49AE00E94B4
:1018B0004E1587C161E372E0CE0101960E94324667
:1018C000892B61F4C8010E94E04561E0892B09F48D
:1018D00060E08FE49AE00E94971669C166E372E0C7
:1018E000CE0101960E943246892BC1F48FE49AE022
:1018F0000E9438136B017C01C8010E94FE450E94C2
:10190000D6419B01AC01C701B6010E946E40AB01FC
:10191000BC018FE49AE00E94B11549C16BE372E00B
:10192000CE0101960E943246892B39F4F80160817C
:101930008FE49AE00E947C153AC160E472E0CE0127
:1019400001960E943246892B61F4C8010E94E0454D
:1019500061E0892B09F460E08FE49AE00E9446166A
:1019600030C165E472E0CE0101960E943246892BB7
:1019700049F4C8010E94E045BC018FE49AE00E944E
:101980004B161FC16AE472E0CE0101960E943246F6
:10199000892B49F4C8010E94E045BC018FE49AE01C
:1019A0000E9440160EC16FE472E0CE0101960E94C3
:1019B0003246892B49F4C8010E94E045BC018FE4FE
:1019C0009AE00E94BF14FDC064E572E0CE0101966A
:1019D0000E943246892B49F4C8010E94E045BC01AF
:1019E0008FE49AE00E94D114ECC069E572E0CE0168
:1019F00001960E943246892B49F4C8010E94E045B5
:101A0000BC018FE49AE00E94E314DBC06EE572E053
:101A1000CE0101960E943246892B39F463E67CE0C0
:101A20008FE49AE00E948B11C2C063E672E0CE019F
:101A300001960E943246892B49F4C8010E94E04574
:101A4000BC018FE49AE00E94B516BBC068E672E064
:101A5000CE0101960E943246892B51F4C8010E94A2
:101A6000FE45AB01BC018FE49AE00E94C316A9C0F9
:101A70006DE672E0CE0101960E943246892B51F448
:101A8000C8010E94FE45AB01BC018FE49AE00E94B0
:101A9000D31697C062E772E0CE0101960E943246EB
:101AA000892B51F4C8010E94FE45AB01BC018FE4B3
:101AB0009AE00E94E31685C067E772E0CE010196C6
:101AC0000E943246892B51F4C8010E94FE45AB01A9
:101AD000BC018FE49AE00E94F31673C06CE772E0D9
:101AE000CE0101960E943246892B09F060C0C801E0
:101AF0000E94E04561E0892B09F460E08FE49AE000
:101B00000E9418175EC043E050E0B701CE01019675
:101B10000E9442461C82035011092DB73EB7201B7C
:101B2000310B0FB6F8943EBF0FBE2DBF0DB71EB7D9
:101B30000F5F1F4FB7016C5F7F4FA601C8010E9466
:101B40002946F801EC0DFD1D108261E872E0CE011E
:101B500001960E943246892B49F4C8010E94DC4557
:101B6000AB01BC018FE49AE00E94071665E872E0C1
:101B7000CE0101960E943246892B49F4C8010E9489
:101B8000DC45AB01BC018FE49AE00E940D1669E8C8
:101B900072E0CE0101960E943246892B41F4C801C1
:101BA0000E94E045BC018FE49AE00E9457160FB6F0
:101BB000F8949EBE0FBE8DBE68EB73E080E090E0AF
:101BC000D7CD8FE49AE00E947212F1CF0FB6F8944D
:101BD000BEBE0FBEADBE0F900F900F900F900F9036
:101BE000DF91CF911F910F91FF90EF90DF90CF90F9
:101BF000BF90AF909F908F907F906F900895CF93FC
:101C0000DF93DC01FC0101900020E9F7E81BF90BF0
:101C10003297EC01219680E09E012A1B3B0B2E1788
:101C20003F0718F499918927F7CFDF91CF91089555
:101C30001F93CF93DF93C0E8D4E014E683E69CE0E3
:101C40000E94C334892B91F183E69CE00E94DE342C
:101C500020917E0430917F04F901E058FB4F80838E
:101C60002F5F3F4F30937F0420937E048A3029F00A
:101C70008D3019F0233631050CF3F901E058FB4F94
:101C800010826CE280E894E00E94A10B60E874E0AE
:101C900083E69CE00E94F23910927F0410927E0449
:101CA000FE01812F11928A95E9F7C8CFDF91CF917C
:101CB0001F91089580E09DE00E94C334892BF9F0C4
:101CC00080E09DE00E94DE34682F88E695E00E9467
:101CD000201980937D04882369F385EA98E00E94A7
:101CE0007225BC018EE09AE00E94A71B85EA98E06D
:101CF0000E947225BC0183E69CE00C94F2390895A1
:101D00008DE99DE00E94C334892B79F18FE49AE03C
:101D10000E941317882351F08DE99DE00E94DE3464
:101D2000682F84EE94E00E94D21CEACF8DE99DE0FA
:101D30000E94DE34682F8DE097E00E94FE1A8093A7
:101D40007C048823E9F28DE097E00E94761BBC01B9
:101D50008EE09AE00E94A71B8DE097E00E94761B20
:101D6000BC0183E69CE00C94F2390895CF938AE39A
:101D70009EE00E94C334892B41F18AE39EE00E94D9
:101D8000DE34C82F4AE050E0682F83E69CE00E94D2
:101D9000ED3A6C2F81E496E00E94FE1A80937B045A
:101DA000882329F381E496E00E94761BBC018EE033
:101DB0009AE00E94A71B81E496E00E94761BBC017A
:101DC00083E69CE0CF910C94F239CF910895CF93A4
:101DD0008AE595E00E94B229892B41F18AE595E0D8
:101DE0000E94AD29C82F4AE050E0682F83E69CE0AE
:101DF0000E94ED3A6C2F85E795E00E94FE1A8093D1
:101E00007A04882329F385E795E00E94761BBC01BC
:101E10008EE09AE00E94A71B85E795E00E94761B62
:101E2000BC0183E69CE0CF910C94F239CF910895E8
:101E30008091230B882309F459C082E095E00E9429
:101E40002B098091210B9091220B80FD04C08EE61E
:101E500095E00E94C91E8091210B9091220B62E3B4
:101E600070E00E942844892BB1F48EE695E00E9430
:101E7000C91E8EE695E00E94581F8EE09AE00E94EF
:101E8000A91B80E795E00E942F0463E67CE08FE4C5
:101E90009AE00E9453138091210B9091220B64E6EB
:101EA00070E00E942844892BF9F46DE872E083E623
:101EB0009CE00E94C3390E94822A4AE050E0BC01A3
:101EC00083E69CE00E94AF3A8EEF94E00E94E20627
:101ED00080E795E00E948C0480E795E00E94C604AC
:101EE0008EE09AE00E94291C1092230B0C94E70EBE
:101EF000CF92DF92EF92FF920F931F938FE49AE0BD
:101F00000E941B101092110A1092100A88EE93E0A2
:101F1000A0E0B0E08093120A9093130AA093140AF1
:101F2000B093150A84EE92E090930F0A80930E0A04
:101F30008FE49AE090931B0A80931A0A60E070E0A5
:101F400085EA98E00E94E82460E070E089ED97E07F
:101F50000E94F51A60E070E08DE097E00E94F51AAB
:101F600060E070E081E496E00E94F51A60E070E0C5
:101F700085E795E00E94F51A6FE47AE080E795E046
:101F80000E94E7036FE47AE08EE695E00E94E31C8E
:101F90004FE45AE065EA78E088E695E00E942A1767
:101FA00041E063E48AE595E00E94F4286FE47AE07A
:101FB00082E095E00E9406086FE47AE08EEF94E0FC
:101FC0000E94BA064FE45AE06DE97DE084EE94E0A9
:101FD0000E94CA1C8EE1C82ED12C9FE0E92EF12C64
:101FE0000CE010E022E030E046E052E063E67CE006
:101FF0008BE594E00E9445311F910F91FF90EF9087
:10200000DF90CF9008958BE594E00E94DC308EEF56
:1020100094E00E941A0582E095E00E94DB0888E6C1
:1020200095E00E941D1780E795E00E94DA038EE09C
:102030009AE00C94811BFC0110821182128213829F
:102040001482158216821782108A118A128A138AC4
:10205000148A158A168A178A108E118E128E138E84
:10206000148E40E050E064EB72E4458F568F678F2A
:1020700070A340E050E064EB72EC41A352A363A371
:1020800074A340E050E064E373E445A356A367A360
:1020900070A740E050E064E373EC41A752A763A748
:1020A00074A715A683E482AB13AA14AA15AA16AACC
:1020B00040E050E064E072E447AB50AF61AF72AF14
:1020C00013AE40E050E068EC72E444AF55AF66AF49
:1020D00077AFDF01A05CBF4F40E050E060E271E409
:1020E0004D935D936D937C93139714964D935D93ED
:1020F0006D937C931397149640E850E060E070E095
:102100004D935D936D937C93139710861186128681
:102110001386148615861686178614961C921196B9
:102120001D921D921D921C92139714961D921D9242
:102130001D921C921397149686E58C9311961D920E
:102140001D921D921C92139714961D921D921D9222
:102150001C92139714961D921D921D921C92139718
:1021600014961D921D921D921C92139714961C9208
:1021700011961C9211961C9211961C92A55ABF4F53
:1021800021E034E011963C932E9312968FEF9FEF4F
:1021900011969C938E93AC55B1091C92A25ABF4FD5
:1021A00011963C932E93129611969C938E93AF5555
:1021B000B1091C92AF59BF4F11963C932E931296C2
:1021C00011969C938E93A256B1091D921D921D9259
:1021D0001C92139714961D921D921D921C92139798
:1021E000149611961C921E92129611961C921E9293
:1021F000129611961C921E9212961C9211961D9286
:102200001D921D921C92139714961D921D921D9261
:102210001C921397149640E050E060E272E44D93F4
:102220005D936D937C93139714961C9211961C9258
:10223000119611961C921E92129611961C921E9245
:10224000169640E050E060E87FE34D935D936D9318
:102250007C93139714961C92119640EE53E964E018
:1022600070E04D935D936D937C93139714961C923D
:1022700011961C92119683E690E011969C938E9392
:1022800012961C92119640E050E46CE176E44D9376
:102290005D936D937C931397149611961C921E92E6
:1022A000129681E090E011969C938E93129640E0F6
:1022B00056E960E070E04D935D936D937C931397C6
:1022C00014964D935D936D937C931397149640E809
:1022D00055E260E070E04D935D936D937C931397AE
:1022E00014964D935D936D937C93139714964D9331
:1022F0005D936D937C93139718964D935D936D93B7
:102300007C93139714961C92E053FF4F8DE090E05E
:102310009183808308950F931F93CF93DF938C0154
:10232000EB0161E673E0CE010E949E3963E573E044
:10233000CE010E949E396DE473E0CE010E949E3969
:10234000F801ED55FF4F608171814AE050E0CE0108
:102350000E94A73A67E473E0CE010E949E39F8011B
:10236000EB55FF4F608171814AE050E0CE010E9441
:10237000A73A61E473E0CE010E949E39F801E95565
:10238000FF4F40815181628173812AE030E0CE01AC
:102390000E945D3A6BE373E0CE010E949E39F80122
:1023A000E555FF4F40815181628173812AE030E021
:1023B000CE010E945D3A65E373E0CE010E949E3932
:1023C000F801E155FF4F40815181628173812AE01C
:1023D00030E0CE010E945D3A6FE273E0CE010E94D0
:1023E0009E39F801ED54FF4F408151816281738124
:1023F0002AE030E0CE010E945D3A69E273E0CE014E
:102400000E949E39F801ED53FF4F608170E04AE071
:1024100050E0CE010E94A73A63E273E0CE010E9431
:102420009E39F801EC53FF4F608171814AE050E022
:10243000CE010E94A73A6DE173E0CE010E949E3961
:10244000F801EA53FF4F608171814AE050E0CE010C
:102450000E94A73A67E173E0CE010E949E39F8011D
:10246000E853FF4F608171814AE050E0CE010E9445
:10247000A73A61E173E0CE010E949E39F801E6536C
:10248000FF4F608171814AE050E0CE010E94A73A7F
:102490006BE073E0CE010E949E39F801E453FF4FD8
:1024A000608171814AE050E0CE010E94A73A65E068
:1024B00073E0CE010E949E39F801E253FF4F608124
:1024C00071814AE050E0CE010E94A73A63E073E0D8
:1024D000CE010E94E03980E090E0DF91CF911F9122
:1024E0000F9108950F931F93CF93DF93EC01FC019D
:1024F000E053FF4F408160E070E081EA9BE00E9482
:102500006932FE01EF52FF4F408161E070E081EAE5
:102510009BE00E946932C558DF4F64E070E049914A
:102520008B010F5F1F4F81EA9BE00E9469320935E2
:10253000110511F0B801F3CFDF91CF911F910F91E9
:102540000895EF92FF920F931F93CF93DF9300D0E4
:10255000CDB7DEB78C0160E070E081EA9BE00E94BD
:102560006632898361E070E081EA9BE00E94663216
:102570008A83F801E053FF4F29813A81808191815C
:102580002817390719F0C8010E94721205581F4F09
:1025900064E070E07B018FEFE81AF80A81EA9BE0C3
:1025A0000E946632F80181938F01F9E5EF16F1047C
:1025B00011F0B701EFCF0F900F90DF91CF911F91E6
:1025C0000F91FF90EF900895FC01608171818281ED
:1025D00093810895FC0164817581868197810895B6
:1025E000FC0164897589868997890895FC0165A134
:1025F00076A187A190A5089585589F4FFC01608121
:10260000718182819381089581589F4FFC0160817F
:102610007181828193810895FC01608D718D828D1D
:10262000938D0895FC01658D768D878D90A1089519
:102630008D579F4FFC016081718182819381089544
:10264000FC0160897189828993890895FC0161A1E7
:1026500072A183A194A10895FC0161A572A583A52F
:1026600094A50895FC0167A970AD81AD92AD089560
:10267000FC0163A974A985A996A90895FC0122A962
:10268000273559F4EA58FF4F60817181882777FD1B
:102690008095982F0E94D6410895FC016085718530
:1026A000828593850895EF92FF920F931F93CF93A6
:1026B000DF938C01EB016EEB73E0CE010E949E393B
:1026C00060EB73E0CE010E949E39F80165A570E0D1
:1026D0004AE050E0CE010E94A73A6AEA73E0CE01D8
:1026E0000E949E39F80162A9CE010E94C539F80105
:1026F00085A58823A9F164EA73E0CE010E949E3982
:10270000F80143A954A965A976A922E030E0CE01D9
:102710000E94EF3B6EE973E0CE010E949E39C80132
:102720000E943E13AB01BC0122E030E0CE010E94CA
:10273000EF3B68E973E0CE010E949E3920E030E073
:1027400044E052E4F80167A970AD81AD92AD0E94FA
:102750006D40AB01BC0122E030E0CE010E94EF3BB6
:1027600062E973E0CE010E949E397801F7E8EF0E2E
:10277000F11CF701608170E04AE050E0CE010E9458
:10278000A73A6CE873E0CE010E949E39F801ED573C
:10279000FF4F408151816281738122E030E0CE01A0
:1027A0000E94EF3BF7018081882389F166E873E09E
:1027B000CE010E949E39F801E558FF4F40815181BA
:1027C0006281738122E030E0CE010E94EF3B60E83D
:1027D00073E0CE010E949E39F801E158FF4F40811D
:1027E00051816281738122E030E0CE010E94EF3B93
:1027F0006AE773E0CE010E949E39F8014489558949
:102800006689778922E030E0CE010E94EF3B64E7E1
:1028100073E0CE010E949E39F801E256FF4F6081BD
:1028200070E04AE050E0CE010E94A73A6EE673E005
:10283000CE010E949E39F801E456FF4F60817181FC
:102840004AE050E0CE010E94A73A6CE673E0CE0168
:102850000E94E03980E090E0DF91CF911F910F91CD
:10286000FF90EF900895CF92DF92EF92FF92CF9377
:10287000DF93EC010E943E139B01AC016BA97CA984
:102880008DA99EA90E946D406B017C0120E030E083
:1028900044E353E40E94374318167CF020E030E014
:1028A00044E353ECC701B6010E94344187FF0AC0DC
:1028B00020E030E044EB53E408C020E030E044EB9B
:1028C00053EC03C020E030E0A901C701B6010E942B
:1028D0006E406EA77FA788AB99ABDF91CF91FF9039
:1028E000EF90DF90CF90089587579F4FFC01808134
:1028F0009181089585579F4FFC01808191810895B2
:1029000083579F4FFC01608171818281938108957B
:10291000835B9F4FFC016081718182819381089567
:102920008A5A9F4FFC016081718182819381089551
:10293000865A9F4FFC016081718182819381089545
:102940008F569F4FFC016081718182819381089530
:102950008B5A9F4FFC0180810895FC016085718531
:10296000828593850895FC016485758586859785A4
:1029700008958C539F4FFC018081918108958C5361
:102980009F4FFC017183608308958A539F4FFC0120
:1029900080819181089588539F4FFC0180819181AE
:1029A000089588539F4FFC01718360830895865377
:1029B0009F4FFC0180819181089584539F4FFC01BA
:1029C00080819181089584539F4FFC0171836083BE
:1029D000089582539F4FFC018081918108958D5508
:1029E0009F4FFC0180819181089584569F4FFC0187
:1029F0008081918108958A589F4FFC018081918147
:102A0000089580599F4FFC0160817181828193817B
:102A1000089581569F4FFC0160817181828193816D
:102A200008958C589F4FFC018081918108958957AA
:102A30009F4FFC0180810895845B9F4FFC01808142
:102A4000089582569F4FFC0180810895FC014083C8
:102A50005183628373830895FC01448355836683A5
:102A60007783089589579F4FFC0160830895FC0187
:102A7000648F0895FC01448B558B668B778B08958A
:102A8000FC0145A356A367A370A7089585589F4FDF
:102A9000FC014083518362837383089581589F4F63
:102AA000FC0140835183628373830895FC01408F4E
:102AB000518F628F738F0895FC01458F568F678FFA
:102AC00070A308958D579F4FFC014083518362830B
:102AD00073830895FC01408B518B628B738B089537
:102AE000FC0141A352A363A374A30895FC0141A771
:102AF00052A763A774A70895CF93DF93EC016735BE
:102B000011F0633429F56AAB673581F4FE01EA58A8
:102B1000FF4F60817181882777FD8095982F0E94F3
:102B2000D6416BAB7CAB8DAB9EAB0AC0633441F43A
:102B3000488559856A857B854BAB5CAB6DAB7EABBD
:102B400040E050E064E072E44FAB58AF69AF7AAF59
:102B5000DF91CF910895FC0147AB50AF61AF72AFE9
:102B60000895CF93DF93EC01CB01BA010E94A341FA
:102B7000CB0188599E4F68E671E00E942844BC0151
:102B8000882777FD8095982F0E94D6416BAB7CAB50
:102B90008DAB9EABDF91CF9108958E599F4FFC0175
:102BA00040835183628373830895845B9F4FFC014C
:102BB00060830895835B9F4FFC0140835183628350
:102BC000738308958A5A9F4FFC0140835183628327
:102BD00073830895865A9F4FFC014083518362831B
:102BE00073830895825A9F4FFC014083518362830F
:102BF000738308958B5A9F4FFC01608308958F5A09
:102C00009F4FFC0140835183628373830895FC01CD
:102C100040875187628773870895FC0144875587F1
:102C2000668777870895CF93DF931F92CDB7DEB77E
:102C30006983298187599F4FFC0120830F90DF9181
:102C4000CF910895CF93DF931F92CDB7DEB76983FD
:102C5000298186599F4FFC0120830F90DF91CF91EE
:102C60000895CF93DF931F92CDB7DEB76983298193
:102C700085599F4FFC0120830F90DF91CF910895DC
:102C80008D559F4FFC0171836083089582569F4F3D
:102C9000FC016083089584569F4FFC01718360831B
:102CA00008958A589F4FFC01718360830895885866
:102CB0009F4FFC0171836083089580599F4FFC01F1
:102CC0004083518362837383089584599F4FFC012D
:102CD00040835183628373830895FC01E658FF4F5C
:102CE00020812223F9F0739720812223D9F0319794
:102CF00020812223B9F0FC01248D222399F023ADF9
:102D0000222381F0E859FF4F2081222359F0319688
:102D10002081222339F031962081222319F0319627
:102D20008081089580E00895FC0185A508951F9392
:102D3000CF93DF93EC01162F6AA90E947C151DA783
:102D4000DF91CF911F9108958C589F4FFC017183A3
:102D50006083089586589F4FFC01608308958B55CA
:102D60009F4FFC018081918108958B559F4FFC01FD
:102D700071836083089589559F4FFC016081718143
:102D800082819381089589559F4FFC01408351832F
:102D900062837383089585559F4FFC016081718123
:102DA00082819381089585559F4FFC014083518313
:102DB00062837383089581559F4FFC016081718107
:102DC00082819381089581559F4FFC0140835183F7
:102DD0006283738308958D549F4FFC0160817181DC
:102DE0008281938108958D549F4FFC0140835183CC
:102DF00062837383089589549F4FFC0160817181C0
:102E000082819381089585549F4FFC016081718177
:102E100082819381089581549F4FFC01608171816B
:102E20008281938108958D539F4FFC018081089585
:102E30008D539F4FFC01608308952CED32E0FC011F
:102E40003183208308952CED32E0FC01318320830F
:102E50000C94FA3DFC018CED92E0918380835583C4
:102E60004483738362830895CF92DF92EF92FF923F
:102E70001F93CF93DF93162F60E0812F0E94783F3E
:102E800061E0812F0E94B13FC0E0D4E080E1C82E14
:102E900087E2D82EE12CF12C28E438EE41E050E016
:102EA00060E0812F0E94E73F1616170618061906E4
:102EB0003CF46C157D058E059F0514F46B017C01B7
:102EC000219751F76AE675E083E69CE00E949E39FF
:102ED0002AE030E0B701A60183E69CE00E94C73AF1
:102EE0008CE0C816D104E104F104F4F184E1C816C1
:102EF000D104E104F104ECF18EE1C816D104E1043F
:102F0000F104E4F188E2C816D104E104F104DCF133
:102F10008CE3C816D104E104F104D4F180E5C816AD
:102F2000D104E104F104CCF186E9C816D104E1042E
:102F3000F104C4F18CE2C81681E0D806E104F10482
:102F4000B4F188E5C81682E0D806E104F104A4F1E2
:102F500080EBC81684E0D806E104F10494F560EB38
:102F600074E080E090E030C060E072EC81E090E0DE
:102F70002BC060E071EE80E090E026C060E076E972
:102F800080E090E021C060E870E780E090E01CC045
:102F900060E07BE480E090E017C060E478E380E0EC
:102FA00090E012C060E875E280E090E00DC060EC57
:102FB00072E180E090E008C060E679E080E090E0B7
:102FC00003C060E070E0CB01DF91CF911F91FF90D3
:102FD000EF90DF90CF900895CF92DF92EF92FF9223
:102FE0007C0166E575E083E69CE00E949E3963E122
:102FF00070E0C7010E9434176B017C01161617069A
:1030000018061906C4F46FE475E083E69CE00E949C
:103010009E392AE030E0B701A60183E69CE00E94D9
:10302000C73A26E0B701A60180E09DE00E942E3657
:10303000B601C70119C068E475E083E69CE00E9410
:103040009E3963E375E083E69CE00E94E03926E068
:1030500040EC52E160E070E080E09DE00E942E369E
:1030600060EC72E180E090E0FF90EF90DF90CF9015
:1030700008954F925F926F927F928F929F92AF923C
:10308000BF92CF92DF92EF92FF920F931F93CF9355
:10309000DF93CDB7DEB760970FB6F894DEBF0FBEF3
:1030A000CDBF69837A838B839C83CA01B9012701D1
:1030B0003801A60195010E946D4025E33AEF4EE8E4
:1030C0005CE30E9442436B017C010E94A5436D8733
:1030D0007E878F87988BC701B6010E9438416D8328
:1030E0007E838F83988725E33AEF4EE85CE369811E
:1030F0007A818B819C810E9442436B017C0125E394
:103100003AEF4EE85CE3C301B2010E9442432B0157
:103110003C01C701B6010E94A5434B015C01C701F8
:10312000B6010E94384169837A838B839C83C301F3
:10313000B2010E94A54369877A878B879C87C30168
:10314000B2010E9438416B017C0129853A854B858B
:103150005C8569817A818B819C810E9442432B012D
:103160003C01A7019601C501B4010E9442432D8193
:103170003E814F8158850E9442439B01AC01C301AF
:10318000B2010E946D409B01AC010E9442432B01A1
:103190003C012D853E854F855889C701B6010E94A7
:1031A00042439B01AC010E9442439B01AC01C3011D
:1031B000B2010E946E400E94AF432B013C01298561
:1031C0003A854B855C85C501B4010E9442434B01A1
:1031D0005C01A701960169817A818B819C810E94A3
:1031E00042432D813E814F8158850E9442439B017D
:1031F000AC01C501B4010E946E409B01AC01C3014A
:10320000B2010E94E14026E73BE742EC5AE40E940B
:10321000424360960FB6F894DEBF0FBECDBFDF917C
:10322000CF911F910F91FF90EF90DF90CF90BF90C3
:10323000AF909F908F907F906F905F904F90089588
:10324000CF93DF93EC018A819B810E94112661E07C
:10325000892B09F460E08C819D810E94D5158C81B9
:103260009D810E941C15882369F18A819B810E949F
:103270004925682F8C819D810E94FA158A819B8146
:103280000E9449258134F1F460E070E08A819B81DD
:103290000E947425FC0182818235A1F060E070E01B
:1032A0008A819B810E947425FC0183818D3451F0B9
:1032B00060E070E08A819B810E947425FC0184811A
:1032C000833431F48C819D81DF91CF910C941C1556
:1032D0000E94463EAB01BC018C819D810E94DA15A3
:1032E0008A819B810E946C25AB01BC018C819D81F0
:1032F0000E94CD158A819B810E944C25AB01BC01A7
:103300008C819D810E94E2158A819B810E945225B9
:10331000AB01BC018C819D810E94EA158C819D814D
:103320000E94A014AB01BC018A819B810E94582598
:10333000AB01BC018C819D810E94F2158A819B8129
:103340000E944325AB01BC018C819D810E94FF1529
:10335000B9CFDF92EF92FF920F931F93CF93DF933A
:10336000CDB7DEB7A8970FB6F894DEBF0FBECDBFBE
:103370008C016DE175E083E69CE00E94E039F80184
:10338000848195810E94AF16892B31F466E075E047
:1033900083E69CE00E94E039F801848195810E94D7
:1033A000AF16019709F07FC06FEE74E083E69CE0F2
:1033B0000E94E03961EE74E080E09DE00E94E03917
:1033C00069EC74E080E09DE00E94E03961EB74E01C
:1033D00080E09DE00E94E03969E974E080E09DE0D2
:1033E0000E94E03961E874E080E09DE00E94E039ED
:1033F00069E674E080E09DE00E94E03961E574E0F8
:1034000080E09DE00E94E03963E474E080E09DE0AC
:103410000E94E0391AA219A28EEA93E098A38F8F36
:10342000CE0101967C019CA38BA38EE190E098A72E
:103430008FA3CE014F960E942C2167E374E0CE014A
:103440004F960E949E39F801848195810E94CB1687
:10345000AB01BC012AE030E0CE014F960E945D3AFC
:103460006FE274E0CE014F960E949E39C7010E9420
:10347000FF0DD82EFFE0F81728F060E3CE014F963D
:103480000E94C53940E150E06D2DCE014F960E945B
:10349000E63AB70180E09DE00E94F239B70183E689
:1034A0009CE00E94F239F801848195810E94AF1658
:1034B000029709F055C066E174E083E69CE00E9443
:1034C000E03965E074E080E09DE00E94E03963ED62
:1034D00073E080E09DE00E94E0391AA219A28EEA12
:1034E00093E098A38F8FCE0101967C019CA38BA3C0
:1034F0008EE190E098A78FA3CE014F960E942C21D9
:1035000069EC73E0CE014F960E949E39F8018481E8
:1035100095810E94CB16AB01BC012AE030E0CE01C0
:103520004F960E945D3A66ED72E0CE014F960E9482
:10353000C339C7010E94FF0D182F803128F460E3C2
:10354000CE014F960E94C53940E150E0612FCE0177
:103550004F960E94E63AB70180E09DE00E94F23962
:10356000A8960FB6F894DEBF0FBECDBFDF91CF9106
:103570001F910F91FF90EF90DF9008951092270B0D
:103580001092260B8EEA93E09093250B8093240BE8
:103590008EE29BE09093290B8093280B88E290E0C9
:1035A00090932D0B80932C0B84E29BE00C942C21A8
:1035B000CF93DF93EC010E94EC17CE010E94A91972
:1035C00080E09DE00E94503580E09DE00E949036B2
:1035D0008C819D810E94CB16AB01BC0126E080E06E
:1035E0009DE0DF91CF910C942E36FC01E853FF4F04
:1035F0001182108232961182108208950F931F93C8
:10360000CF93DF93DC01A853BF4F4D915C9111978D
:10361000FC01E653FF4F4236510514F0118210822F
:103620006A3011F06D3011F411821082643261F44D
:1036300024E6EC0119922A95E9F7EC01688381E010
:1036400090E08D939C9345C02081318121303105DC
:10365000E9F02CF42115310509F442C03DC02230B7
:10366000310561F123303105B9F5FC01E40FF51F97
:1036700060834E5F5F4F4D935C931182BC018C5908
:103680009F4F0E943B4621E030E02AC08A010F5F35
:103690001F4F11961C930E939C01240F351FE901B7
:1036A00068834E5F5F4FE801C80FD91F4D935C934D
:1036B00068836A3299F482E090E00BC09A012F5F30
:1036C0003F4F2D933C93DC01A40FB51F6C9383E017
:1036D00090E09183808302C01182108220E030E06C
:1036E000C901DF91CF911F910F9108958C599F4F80
:1036F0000895862F0E94F33281E090E008950C94A3
:10370000B63328ED33E0FC01318320830C94AF34D1
:10371000CF93DF93EC0188ED93E0998388830E9437
:10372000AF34CE01DF91CF910C94FA3D9A01AB01F9
:10373000CA01B90196958795779567957C5D8B4011
:103740009F4F0E943C44CA01B9010C94A1320C94D1
:10375000F239CF92DF92EF92FF920F931F93CF93A4
:10376000DF93CDB7DEB72A970FB6F894DEBF0FBE52
:10377000CDBF8C017C018EE0E80EF11C1C821B8207
:103780008EEA93E09A838983FE82ED828EE190E057
:103790009A878987CE0101960E942C216BE975E0FA
:1037A000CE0101960E949E39F801848595850E947C
:1037B000FB144AE050E0BC01CE0101960E94A73AFA
:1037C00065E975E0CE0101960E949E39F801848575
:1037D00095850E940115AB01BC0122E030E0CE01CD
:1037E00001960E94EF3B6FE875E0CE0101960E94C2
:1037F0009E39C7010E94FF0D6801F0E4CF0ED11C75
:10380000F6018083803128F460E3CE0101960E94A6
:10381000C53940E150E0F6016081CE0101960E9479
:10382000E63AB70183E69CE00E94F239B701C8018D
:103830000E94F2392A960FB6F894DEBF0FBECDBFB4
:10384000DF91CF911F910F91FF90EF90DF90CF907C
:103850000895AF92BF92CF92DF92EF92FF920F93B3
:103860001F93CF93DF93CDB7DEB72A970FB6F894A7
:10387000DEBF0FBECDBF8C01FC01848595850E9403
:10388000B31420E030E0A9010E943441882309F4F8
:1038900070C05801FCE2AF0EB11C1C821B828EEA84
:1038A00093E09A838983BE82AD8284E190E09A8717
:1038B0008987CE0101960E942C2167E875E0CE0130
:1038C00001960E949E39F801848595850E94AD1469
:1038D0006B017C01F801848595850E94B3149B01DE
:1038E000AC01C701B6010E946D40AB01BC0122E0F2
:1038F00030E0CE0101960E94EF3B63E875E0CE0117
:1039000001960E949E397801F0E4EF0EF11CF70158
:10391000108281E090E0F50101900020E9F7EA19BA
:10392000FB0932978E179F0750F4F801E80FF91F33
:1039300024A5F7013081232720830196ECCFF701DE
:103940008081803128F460E3CE0101960E94C53960
:1039500040E150E0F7016081CE0101960E94E63A15
:10396000B50183E69CE00E94F239B501C8010E94CE
:10397000F2392A960FB6F894DEBF0FBECDBFDF91A5
:10398000CF911F910F91FF90EF90DF90CF90BF905C
:10399000AF900895FC01578B468B718F608F118219
:1039A00010820895FC01A081B181A80FB91F129661
:1039B0006C938081918143972CF480819181019651
:1039C000918380830895CF93DF93EB01FC01718392
:1039D00060830E94523E6093880B7093890B8093A2
:1039E0008A0B90938B0B4091880B5091890B6091BF
:1039F0008A0B70918B0B4093840B5093850B6093D3
:103A0000860B7093870B1092700B1092710B1092B3
:103A1000720B1092730B81E080936F0B1092590B15
:103A200010925A0B8091560B9091570B20E03091D9
:103A3000580B231760F4FC0134E0239FE00DF11DC7
:103A4000112410821182128213822F5FF0CFCE01D7
:103A50000E94F514843691053CF063E670E0CE01D7
:103A6000DF91CF910C944B16DF91CF910895CF92B7
:103A7000DF92EF92FF920F931F93CF93CB01BA0186
:103A800097FF09C090958095709561957F4F8F4FF6
:103A90009F4FC0E001C0C1E0683621E07207810598
:103AA000910534F028E631E040E050E00E945E44A9
:103AB000653B71058105910534F0645B71098109ED
:103AC000910921E0C2276B3571058105910564F0EC
:103AD00004EB10E020E030E068017901C61AD70A53
:103AE000E80AF90AC701B601660F771FFB01EC501F
:103AF000FD4F60817181CC2319F080E090E00CC013
:103B0000CB01A0E0B0E09C01AD0166277727CB0197
:103B1000621B730B840B950BCF911F910F91FF903C
:103B2000EF90DF90CF900895465A5F4F6F4F7F4FD1
:103B30000C94371D4F925F926F927F928F929F925B
:103B4000AF92BF92CF92DF92EF92FF920F931F93AB
:103B5000CF93DF938C016090590BC091560BD0919D
:103B6000570B712CC12CD12C7601812C912C540136
:103B70007614C1F0488159816A817B81C8010E9415
:103B8000941D860E971EA81EB91E499159916991E0
:103B90007991C8010E94371DC60ED71EE81EF91E76
:103BA0007394E6CF81149104A104B10429F4C114E3
:103BB000D104E104F104A1F1662D70E080E090E011
:103BC0000E94D6412B013C01C501B4010E94D6419F
:103BD00020E830E040E857E30E944243A30192010D
:103BE0000E943B414B015C01C701B6010E94D641D6
:103BF00020E830E040E857E30E944243A3019201ED
:103C00000E943B41A50194010E94E14021EE3EE269
:103C100045E652E40E9442430E94A341CB0102C008
:103C200080E090E0DF91CF911F910F91FF90EF9096
:103C3000DF90CF90BF90AF909F908F907F906F90CC
:103C40005F904F9008950F931F930E94463E0091FE
:103C5000900B1091910B2091920B3091930B601B64
:103C6000710B820B930B603171058105910550F149
:103C700080916F0B8823E1F08091880B9091890BE4
:103C8000A0918A0BB0918B0B8093840B9093850B42
:103C9000A093860BB093870B0E94523E6093880BD3
:103CA0007093890B80938A0B90938B0B10926F0B00
:103CB0000E94463E6093900B7093910B8093920B01
:103CC0009093930B1F910F9108950F931F930E9450
:103CD000463E00918C0B10918D0B20918E0B3091F4
:103CE0008F0B601B710B820B930B6031710581058B
:103CF000910508F44BC080916F0B81113DC08091FC
:103D0000780B9091790BA0917A0BB0917B0B8093FB
:103D1000740B9093750BA093760BB093770B0E9466
:103D2000523E6093780B7093790B80937A0B90934B
:103D30007B0B8091840B9091850BA091860BB091A9
:103D4000870B8093800B9093810BA093820BB09391
:103D5000830B8091880B9091890BA0918A0BB09175
:103D60008B0B80937C0B90937D0BA0937E0BB09379
:103D70007F0B81E080936F0B0E94463E60938C0B1B
:103D800070938D0B80938E0B90938F0B1F910F91DF
:103D90000895CF92DF92EF92FF92F8948091800B7A
:103DA0009091810BA091820BB091830BC0907C0B02
:103DB000D0907D0BE0907E0BF0907F0B4091740BC8
:103DC0005091750B6091760B7091770B78948C15F0
:103DD0009D05AE05BF0508F066C0C81AD90AEA0AF3
:103DE000FB0A28E9C2162AE3D206E104F10408F42A
:103DF0005AC0C092700BD092710BE092720BF0928D
:103E0000730B9A01AB01281B390B4A0B5B0B233355
:103E100031054105510508F446C02C153D054E05F8
:103E20005F0508F040C0A8E6B1E00E948344A70106
:103E300096010E943C44283681E03807410551052F
:103E400090F580915A0B8F5F80935A0B9091590B8C
:103E50006091580BE091560BF091570B9617B0F408
:103E600081E0890F8093590B84E0989FE00DF11D4C
:103E70001124208331834283538380915A0B6091B4
:103E8000590B0E941C4490935A0B0DC00E941C4475
:103E900090935A0B84E0989FE00DF11D112420832C
:103EA000318342835383FF90EF90DF90CF9008954A
:103EB0004F925F926F927F928F929F92AF92BF923A
:103EC000CF92DF92EF92FF92CF93DF93EC010E94AB
:103ED000463EC090900BD090910BE090920BF090EA
:103EE000930B6C157D058E059F0550F40E94463E90
:103EF0006093900B7093910B8093920B9093930B24
:103F00000E94463EC0908C0BD0908D0BE0908E0BA3
:103F1000F0908F0B6C157D058E059F0550F40E9467
:103F2000463E60938C0B70938D0B80938E0B909319
:103F30008F0B0E94463EAB01BC01888199810E9493
:103F400065160E94463EC090900BD090910BE09079
:103F5000920BF090930B6C197D098E099F09A88034
:103F6000B980693B7B4081059105A0F040E050E0BD
:103F7000BA01C501DF91CF91FF90EF90DF90CF9014
:103F8000BF90AF909F908F907F906F905F904F9079
:103F90000C945D162091700B3091710B4091720B57
:103FA0005091730B211531054105510509F4B4C039
:103FB00060E071EE85EF95E00E943C4469017A0172
:103FC000233481E0380741055105F4F5AAE0B0E05B
:103FD0000E9483442B013C01C5010E9409154B013D
:103FE0005C01A3019201C301B2010E940C4427E9C4
:103FF0003FEF4FEF5FEF0E945E4429013A01A701B6
:10400000960168E273EE83E090E00E940C4424E69F
:1040100030E040E050E00E945E44420E531E641EB9
:10402000751E24EE421A2FE2520A61087108C3017C
:10403000B2010E94D641A50194010E943B4120E0BB
:1040400030E040E251E460C02C3385E1380741059F
:10405000510554F5C5010E9409152B013C01A7012A
:104060009601C701B6010E940C442EEA38E040E0F8
:1040700050E00E945E4449015A01ABE9BAE4A7014D
:1040800096010E94834424E630E040E050E00E9424
:104090005E44820E931EA41EB51E26EA820E25E201
:1040A000921EA11CB11C2AC0C5010E9409152B013A
:1040B0003C01A7019601C701B6010E940C4422E110
:1040C00034E040E050E00E945E44A4E6B0E00E948C
:1040D00083444B015C01A701960164EB70E281E827
:1040E0009FEF0E940C44860E971EA81EB91E84E402
:1040F000880E8DEB981E8BE2A81EB11CC501B40181
:104100000E94D641A30192010E943B41AB01BC0138
:10411000888199810E945D16888199810E9401158C
:104120006B017C01888199810E941115BC0188274F
:1041300077FD8095982F0E94D6419B01AC01C70165
:10414000B6010E943743181654F4888199810E9461
:1041500001150E94A341888199810E94A416CE0175
:104160000E949A1D7C01888199810E94EF14B701F9
:10417000680F791F77FF02C068597E4F8881998147
:10418000DF91CF91FF90EF90DF90CF90BF90AF90F5
:104190009F908F907F906F905F904F900C945116EE
:1041A0008BE59BE09093570B8093560B85E08093B3
:1041B000580B1092590B10925A0B089561E085E349
:1041C0000E94B13F61E085E30E94783F8CB5806139
:1041D0008CBD8CB580648CBD61E084E30E94783F27
:1041E00061E083E30C94783F811103C08CB5806259
:1041F00002C08CB58F7D8CBD08959CB5937F982BA4
:104200009CBD08952CB5982F93702C7F922B9CBD4C
:104210009DB582FB882780F99E7F982B9DBD0895D0
:10422000FC01A681B7819D012F5F3F4F848195815D
:1042300040855185840F951F2817390750F437831F
:1042400026836C930680F781E02D108281E090E058
:10425000089580E090E00895FC01A481B581B783C2
:10426000A68380859185892B09F01C920895089575
:104270002F923F924F925F926F927F928F929F9276
:10428000AF92BF92CF92DF92EF92FF920F931F9364
:10429000CF93DF93CDB7DEB72A970FB6F894DEBF82
:1042A0000FBECDBF9A878987DC01D6968C91882373
:1042B00009F4E5C00E94463E69837A838B839C8320
:1042C000E985FA8580A191A129813A81281B390BC2
:1042D00084A595A5281739070CF4D1C0028CF38D5D
:1042E000E02D80809180A280B380A985BA855E96FA
:1042F000ED91FC915F97A5019401608171818281AC
:1043000093810E946D402B013C01E985FA8520894B
:104310003189428953890E944243A985BA8594967E
:104320002D913D914D915C9197970E946E406B014C
:104330007C01E985FA8564A375A386A397A312A9D6
:1043400003A934A825A8212F302F432D522D0E94D8
:10435000374318162CF4812F902FA32DB22D18C09F
:10436000A985BA859E968D919D910D90BC91A02DA9
:104370008D839E83AF83B8879C01AD01C701B601D1
:104380000E94344187FF0AC08D819E81AF81B8852C
:10439000E985FA8584A395A3A6A3B7A3A985BA85C1
:1043A0001C962D913D914D915C911F97C301B201D7
:1043B0000E944243E985FA8524A135A146A157A16F
:1043C0000E946E406B017C01A985BA8598962D915B
:1043D0003D914D915C919B97C501B4010E946D4048
:1043E000E985FA8524893589468957890E9442439F
:1043F0009B01AC01C701B6010E946D406B017C01BD
:10440000212F302F432D522D0E9437431816DCF0F8
:10441000A985BA859E961C919E979F960C919F9711
:10442000D0963C90D097D1962C90212F302F432DB1
:10443000522DB601C7010E94344187FD04C01C2DD6
:104440000D2D3E2C2F2CA985BA855C96ED91FC9103
:104450005D97812F902FA32DB22D80839183A2830E
:10446000B383E985FA8580A691A6A2A6B3A6898121
:104470009A81AB81BC8180A391A3A2A3B3A32A9606
:104480000FB6F894DEBF0FBECDBFDF91CF911F9165
:104490000F91FF90EF90DF90CF90BF90AF909F90E3
:1044A0008F907F906F905F904F903F902F900895E6
:1044B0002F923F924F925F926F927F928F929F9234
:1044C000AF92BF92CF92DF92EF92FF920F931F9322
:1044D000CF93DF9300D000D0CDB7DEB71C012A0107
:1044E0003B014801590120E030E0A901C301B201BC
:1044F0000E94344187FD7AC020E030E0A901C50167
:10450000B4010E94344187FD71C020E030E0A90170
:10451000C701B6010E94344187FD68C0F1014082A5
:1045200051826282738284829582A682B782C0861B
:10453000D186E286F38664A575A5882777FD8095E8
:10454000982F0E94D64120E030E04AE754E40E94D0
:104550003B4169837A838B839C83F1014486558632
:10456000668677869B01AC01C501B4010E94424377
:104570004B015C01F101608B718B828B938B2981E4
:104580003A814B815C81C701B6010E943B416B01BE
:104590007C01F101648B758B868B978B808D918D5F
:1045A000019721F5A301920160E070E0CB010E9428
:1045B0006D40F1016487758786879787A50194010F
:1045C00060E070E0CB010E946D40F101608B718B67
:1045D000828B938BA701960160E070E0CB010E9473
:1045E0006D40F101648B758B868B978B0F900F90CC
:1045F0000F900F90DF91CF911F910F91FF90EF904F
:10460000DF90CF90BF90AF909F908F907F906F90F2
:104610005F904F903F902F900895CF92DF92EF924E
:10462000FF920F931F93CF93DF93EC018B0116162C
:10463000170694F5882777FD8095982F0E94D6411C
:104640006B017C016CA57DA5882777FD8095982F4F
:104650000E94D6419B01AC01C701B6010E943B41BB
:104660006B017C019B01AC01688979898A899B89EE
:104670000E944243688B798B8A8B9B8BA7019601A2
:104680006C897D898E899F890E943B416C8B7D8BD3
:104690008E8B9F8B1DA70CA7DF91CF911F910F9140
:1046A000FF90EF90DF90CF9008952F923F924F921E
:1046B0005F926F927F928F929F92AF92BF92CF92B2
:1046C000DF92EF92FF920F931F93CF93DF93EC0152
:1046D0006A017B0148015901A9019801C701B6018E
:1046E0000E94374387FF4EC0CEA6DFA6E8AAF9AAEC
:1046F0008AAA9BAAACAABDAA8EA9882309F442C0A3
:104700002C8C3D8CF1014080518062807380A5012A
:104710009401C301B2010E943743181634F4F10129
:1047200080829182A282B3820DC0A7019601C3014B
:10473000B2010E94344187FF05C0F101C082D182DD
:10474000E282F3828CA09DA0AEA0BFA0CAA8DBA885
:10475000ECA8FDA8A7019601C501B4010E9437434A
:10476000181664F0CEA4DFA4E8A8F9A8A701960162
:10477000C501B4010E94344187FF04C0CCA2DDA270
:10478000EEA2FFA2DF91CF911F910F91FF90EF90CA
:10479000DF90CF90BF90AF909F908F907F906F9061
:1047A0005F904F903F902F9008958F929F92AF927D
:1047B000BF92CF92DF92EF92FF92CF93DF93EC0103
:1047C000EC8DFD8DC080D180E280F380CCA2DDA293
:1047D000EEA2FFA2EA8DFB8D80819181A281B3813F
:1047E00088A799A7AAA7BBA78AA89BA8ACA8BDA879
:1047F000A5019401C701B6010E943743181664F061
:104800008EA49FA4A8A8B9A8A5019401C701B601C8
:104810000E94344187FF04C08CA29DA2AEA2BFA219
:10482000DF91CF91FF90EF90DF90CF90BF90AF904E
:104830009F908F9008951F93CF93DF93EC0111E029
:104840006130710509F010E08EA991E089271813F5
:1048500003C0CE010E94D5231EABDF91CF911F91E3
:1048600008950F931F93CF93DF93EC018B018EA9D3
:10487000882361F1888D998D6817790739F12C8526
:104880003D854E855F8560E070E0CB010E946D4004
:104890006C877D878E879F87288939894A895B89BC
:1048A00060E070E0CB010E946D40688B798B8A8B51
:1048B0009B8B2C893D894E895F8960E070E0CB013C
:1048C0000E946D406C8B7D8B8E8B9F8B198F088F18
:1048D000DF91CF911F910F9108952F923F924F92A8
:1048E0005F926F927F928F929F92AF92BF92CF9280
:1048F000DF92EF92FF920F931F93CF93DF93CDB789
:10490000DEB728970FB6F894DEBF0FBECDBF4C01BF
:104910007A8369831A013C832B8327013801AD8296
:10492000BE82CF82D88600E010E02FE733E440E07B
:1049300050E0BA010E94552384E690E0F40195A767
:1049400084A769A17AA1C4010E943124CD8CDE8C98
:10495000EF8CF8A00D811E812F813885B301A20153
:10496000C4010E9458220E94463EF40144A455A46A
:10497000662457FC6094762C64197509860997099A
:1049800060A371A382A393A316AA358E248E898176
:104990009A81938F828F8B819C81978F868F2896A7
:1049A0000FB6F894DEBF0FBECDBFDF91CF911F9140
:1049B0000F91FF90EF90DF90CF90BF90AF909F90BE
:1049C0008F907F906F905F904F903F902F900895C1
:1049D0000F931F93CF93DF93FC0171836083128247
:1049E00013821482158286E58683178210861186CB
:1049F000128613861486158616861786108A118AE3
:104A0000128A138A148A158A168ADF01A754BF4FA7
:104A100011961C921E92AE55BF4F11961C921E927B
:104A2000149611961C921E92129611961C921E922A
:104A3000129611961C921E92178AAC5AB1091D92B9
:104A40001C92EF0104E110E08FE090E00E94B54479
:104A5000FE01E15EFE4F918380838FE090E00E9433
:104A6000B544FE01E558FF4F91838083FC0110821D
:104A70000150110922960115110531F7DF91CF91EF
:104A80001F910F910895FC0162817381848195814A
:104A90000895FC0186810895FC01678170858185F8
:104AA00092850895FC0163857485858596850895B2
:104AB000CF92DF92EF92FF926A017B01FC01278582
:104AC000308941895289C701B6010E944243FF9053
:104AD000EF90DF90CF900895FC01638974898589F8
:104AE0009689089547960895660F771F680F791F76
:104AF000FB01E558FF4F8081918108954F925F92AD
:104B00006F927F928F929F92AF92BF92CF92DF92DD
:104B1000EF92FF920F931F93CF93DF93FB011081CE
:104B20001D3241F031E020E01B3209F030E0832FEC
:104B3000922F02C081E090E0EB01C80FD91F00E086
:104B40003DEC432E3CEC532E652C3DE3732E812C23
:104B5000912C5401C12CD12C7601E991EE23E9F17D
:104B6000EE32C9F1FF27E7FDF095011113C0AAE06D
:104B7000B0E0A70196010E9483446B017C01CF0144
:104B8000C097AA2797FDA095BA2FC80ED91EEA1E76
:104B9000FB1EE3CFBF0160537109882777FD809525
:104BA000982F0E94D6419B01AC01C301B2010E9423
:104BB00042439B01AC01C501B4010E946E404B0110
:104BC0005C0120E030E040E251E4C301B2010E9408
:104BD0003B412B013C0101E0C0CFC701B6010E945F
:104BE000D6419B01AC01C501B4010E946E401D324B
:104BF00039F49B01AC0160E070E0CB010E946D4094
:104C0000DF91CF911F910F91FF90EF90DF90CF90A8
:104C1000BF90AF909F908F907F906F905F904F90DC
:104C200008958F929F92AF92BF92CF92DF92EF92B0
:104C3000FF920F931F93CF93DF93EC01AC01455A82
:104C40005E4FDA012D913C911197FC01E15AFE4F24
:104C5000243631056CF4A25AB1098D919C911197BB
:104C6000449734F4A655BF4F8D919C910F9714F043
:104C7000118210826A3011F06D3011F411821082AD
:104C80006432E1F4DE01A35ABE4F11961C921E92CB
:104C9000149611961C921E92A85AB10911961C9254
:104CA0001E92A655BF4F1D921C92C554DF4F6883BC
:104CB00081E090E0DA018D939C93E4C08081918142
:104CC0008130910569F024F4009709F47AC272C228
:104CD0008230910509F492C0039709F4D6C06AC2E4
:104CE000273031057CF4D901AE54BC4F8C91681348
:104CF00009C0DE01A35ABE4F8D919C911197019678
:104D00008D939C93C9010196DA018D939C932C0F8E
:104D10003D1FD901A554BF4F6C93CE0187549F4FBF
:104D20008E010D591E4F6A3249F1DE01AF59BE4F57
:104D3000FC016C3209F040C020813181A9014F5F34
:104D40005F4F51834083C901880F991F8C0F9D1FAE
:104D5000EC01C15EDE4F0990D881C02DF801808141
:104D60009181C80FD91F1882118210828D919C9158
:104D70001197FCE28F278D939C931EC2DC012D912D
:104D80003C911197A9014F5F5F4F4D935C93C9010F
:104D9000880F991F8C0F9D1FEC01C15EDE4F09909B
:104DA000D881C02DD8018D919C911197C80FD91F22
:104DB00018821D921C9263C080819181880F991F77
:104DC0008C0F9D1FEC01C15EDE4F0990D881C02D74
:104DD000F801808191819C012F5F3F4F31832083B7
:104DE000C80FD91F6883772767FD70958D919C91B7
:104DF0001197682779276D937C93DEC1C9010196CD
:104E0000DA018D939C932C0F3D1FD901A554BF4F00
:104E10006C93DE01A754BF4F8D919C91880F991F11
:104E20008C0F9D1FDC01A15EBE4F0D911C919E0158
:104E30002D593E4FD9018D919C911197AC014F5F37
:104E40005F4F4D935C93080F191FD8016C93CF5996
:104E5000DE4F48815981862F992787FD90956134CF
:104E600014F0C79701C0C0979C01B4E0220F331F14
:104E7000BA95E1F7CA01821B930B998388838081DD
:104E8000918101969183808397C1CE01820F931FF8
:104E9000DC01A554BF4F6C932E5F3F4FDA012D9379
:104EA0003C93DC01A454BF4F1C929E0127543F4FFA
:104EB000D9018D919C91880F991F8C0F9D1FDC014A
:104EC000A15EBE4F8D919C916E01BDE9CB1ABEEFE4
:104ED000DB0AD6010D911C917801BFEFEB1AFB0A9A
:104EE000D601ED92FC92800F911FDC016C93D901E9
:104EF0008D919C9111978C010F5F1F4F0D931C9307
:104F0000880F991F8C0F9D1F815E9E4FDC018D9134
:104F10009C91D6010D911C91800F911FDC011C9278
:104F200011821082FE01EF59FE4F80819181062F80
:104F3000112707FD1095613424F0B80167537109FA
:104F400003C0B80160537109861B970B918380835E
:104F5000009709F031C168817981672B29F4FA0142
:104F600060817181CB010AC0FE01E35AFE4F60816E
:104F700071816630710509F024C1F1CF019797FD69
:104F80000AC0FE01E80FF91F8F0105541F4FD80119
:104F90001C91178BF3CFFB013197CB0177FF02C038
:104FA00080E090E0BF01681B790BDA016D937C9380
:104FB000FE01E954FF4F1182108240815181D901D5
:104FC0008D919C914817590784F5D6011D921C922A
:104FD00080819181D6014D915C91880F991F8C0F32
:104FE0009D1FBC01615E7E4FDB016D917C91640F62
:104FF000751FDB016C9185589F4FDC018D919C9151
:10500000840F951FDC01662349F06C93D6018D91C6
:105010009C91119701968D939C93DACF1C9280817D
:105020009181019691838083C8CFFE01E35AFE4FA0
:1050300080819181069709F0C2C0FC9760817181DF
:10504000CE010E947E256A837B838C839D83FE0133
:10505000ED5DFE4F0190F081E02D80818E83FE0199
:10506000EB5DFE4F60817181CE010E947E2520E0C4
:1050700030E048EC52E40E943B414B015C010E944D
:1050800011426B017C018E010B591E4FF8016083A8
:105090007183828393839B01AC01C501B4010E949B
:1050A0006D4020E030E048EC52E40E94424320E0B2
:1050B00030E040E752E40E943B41A70196010E9484
:1050C0006E409B01AC016F83788789879A87FE01C8
:1050D000E95DFE4F0190F081E02D8081833549F438
:1050E00060E070E0CB010E946D406F837887898714
:1050F0009A87FE01E75DFE4F60817181CE010E94BB
:105100007E2520E030E048EC52E40E943B414B0118
:105110005C010E9411426B017C01D8016D937D936B
:105120008D939C9313979B01AC01C501B4010E9420
:105130006D4020E030E048EC52E40E94424320E021
:1051400030E040E752E40E943B41A70196010E94F3
:105150006E409B01AC016B877C878D879E87FE012B
:10516000E55DFE4F0190F081E02D8081873549F4A7
:1051700060E070E0CB010E946D406B877C878D877B
:105180009E87FE01E35DFE4F60817181CE010E942A
:105190007E256F87788B898B9A8BFE01E15DFE4FB0
:1051A00060817181CE010E947E256B8B7C8B8D8B03
:1051B0009E8B05C01182108280E090E002C081E0E9
:1051C00090E0DF91CF911F910F91FF90EF90DF90D2
:1051D000CF90BF90AF909F908F9008958EBD0DB4EB
:1051E00007FEFDCF8EB508950F931F93FC01138228
:1051F000128208EE13E020E030E00483158326835A
:1052000037838EEB93E091838083648745871F917A
:105210000F910895EF92FF921F93CF93DF931F9208
:10522000CDB7DEB77C01162F60E0FC018485498391
:105230000E94B13FF8E01F9FB0011124F70185855E
:10524000880F862B0E94EE284981842F0E94EE2829
:1052500062E070E080E090E00E94753E61E0F7015E
:1052600084850F90DF91CF911F91FF90EF900C9468
:10527000B13F462F60E00E940A2981E090E0089546
:1052800046E062E00C940A29CF92DF92EF92FF92FF
:105290000F931F93CF93DF9300D0CDB7DEB78C0170
:1052A000F22E60E0FC01848549835A830E94B13F5D
:1052B0004981E42EC42E5A81D52E8C2D8E198F153E
:1052C00030F4F60181916F010E94EE28F6CF62E082
:1052D00070E080E090E00E94753E61E0F801848516
:1052E0000F900F90DF91CF911F910F91FF90EF9052
:1052F000DF90CF900C94B13F242FAB0160E00C9471
:1053000044291F93CF93DF93EC01162F60E08C8527
:105310000E94B13F62E070E080E090E00E94753E44
:1053200088E0189FB00111248D85880F862B806836
:105330000E94EE2880E00E94EE28182F62E070E0C4
:1053400080E090E00E94753E61E08C850E94B13F54
:10535000812FDF91CF911F91089560E00E948129F4
:1053600090E0089569E00E94812990E0089569E045
:105370000E9481298FEF9FEF08951F93CF93DF93B2
:10538000EC01162F63E00E948129482F4C7F6BEFC0
:10539000610F6370462B63E0CE01DF91CF911F91C7
:1053A0000C940A298F929F92AF92BF92CF92DF9274
:1053B000EF92FF920F931F93CF93DF93EC016A015B
:1053C0007B014801590160ED75E083E69CE00E9495
:1053D000E0390E94DE206AE070E080E090E00E9408
:1053E000753E81E00E94F42081E00E94022180E06D
:1053F0000E94FD2064EC75E083E69CE00E94E039A9
:1054000080910A0290910B02019779F448E06EE0D6
:10541000CE010E940A2910920B0210920A0265EB3B
:1054200075E083E69CE00E94E03964E670E080E08D
:1054300090E00E94753E40E863E0CE010E940A2998
:10544000C701B60123E0660F771F881F991F2A95B1
:10545000D1F7680D791D8A1D9B1DA7019601E4E017
:10546000220F331F441F551FEA95D1F70E943C4479
:1054700069017A01422F60E0CE010E940A294D2D78
:10548000552761E0CE010E940A2940E063E0CE0189
:105490000E940A2968E0CE010E94BD2947E062E02F
:1054A000CE010E940A2963EA75E083E69CE0DF9161
:1054B000CF911F910F91FF90EF90DF90CF90BF9011
:1054C000AF909F908F900C94E0390F931F9300E062
:1054D00010E820E730E00E94D2291F910F91089533
:1054E000E091F20EF091F30E80E090E0309749F0F9
:1054F000029620813181820F931F0280F381E02D7B
:10550000F5CF08950F931F93CF93DF9300D0CDB7BE
:10551000DEB78091F00E9091F10E8E010F5F1F4F5C
:10552000009729F4065F1E401A8309830AC0081BEE
:10553000190B1A8309830E94702A800F911F9A8386
:10554000898389819A810F900F90DF91CF911F916C
:105550000F910895FC016F77808191818627918357
:10556000808347E020813181C9019695879520FF8E
:1055700004C020EF822722E292279183808341504A
:1055800089F70895EF92FF920F931F93CF93DF93C4
:105590007C018A01EB01060F171FC017D10729F004
:1055A0006991C7010E94AA2AF8CFDF91CF911F917C
:1055B0000F91FF90EF900895CF93DF9300D0CDB778
:1055C000DEB7AB012FEF3FE33A832983BC01CE0165
:1055D00001960E94C22A89819A8180952FE39227A1
:1055E0000F900F90DF91CF9108950F931F93CF935A
:1055F000DF931F92CDB7DEB78C01FC01718360830E
:10560000128223831486158616861786108A45967D
:1056100049830E94B02FF801178E10A249818FE9AB
:10562000840F8A3108F440528FEB840F8A3120F0C6
:1056300080ED840F8A3010F4F801428344E650E094
:1056400060E070E0F80144835583668377834FEF11
:105650005FEFBA01408751876287738711A20F906D
:10566000DF91CF911F910F91089508959F92AF926E
:10567000BF92CF92DF92EF92FF920F931F93CF933F
:10568000DF93CDB7DEB7A7970FB6F894DEBF0FBE96
:10569000CDBF6C017B01942E5901DB0114964D9115
:1056A0005D916D917C911797CE0180960E94A930F3
:1056B000CE0180960E947F306894A4F8C8010E94B1
:1056C0005730882321F0C6010E94B22F6CC0CE0152
:1056D00080960E9457308823A9F1CE0180960E94BF
:1056E0009D30F70184858F5F87FD81E0D7011C968F
:1056F0008C93CE0101960E94DF2DF7016281CE01CD
:1057000001960E94E32D6A2DCE0101960E94E32DA1
:10571000D7011C966C91CE0101960E94E32D692D54
:10572000CE0101960E94E32DD701ED91FC911197D6
:1057300063A174A123E230E013964C91CE0101964F
:105740000E94BB2EF701808191810E94892F8823BE
:1057500009F4B4CFD701ED91FC9111979381139681
:105760008C919813ABCF8481833409F0A7CF40810B
:10577000518145505109BF016A5F7F4FCE010196AB
:105780000E9428308981882309F498CF9C81F701F1
:105790008485981393CF8AE0FE013196D60101905B
:1057A0000D928A95E1F7C601A7960FB6F894DEBF71
:1057B0000FBECDBFDF91CF911F910F91FF90EF9062
:1057C000DF90CF90BF90AF909F9008959F92AF923F
:1057D000BF92CF92DF92EF92FF920F931F93CF93DE
:1057E000DF93CDB7DEB76F970FB6F894DEBF0FBE6D
:1057F000CDBF8C015B017A01922EDC01ED91FC9111
:10580000C3A0D4A0CE0101960E94DF2DF8016281D1
:10581000CE0101960E94E32D692DCE0101960E94D2
:10582000E32D96FE07C0D8015F966C91CE010196DC
:105830000E94E32DF70142815381B7016C5F7F4FD6
:10584000CE0101960E94EF2D9501D80113964C913F
:10585000B601CE0101960E94BB2E6F960FB6F8944A
:10586000DEBF0FBECDBFDF91CF911F910F91FF9093
:10587000EF90DF90CF90BF90AF909F900895CF9220
:10588000DF92EF92FF920F931F93CF93DF93CDB7E9
:10589000DEB72A970FB6F894DEBF0FBECDBF7C01EE
:1058A0006A01FC0180A1811123C08B0120E430E05A
:1058B00041E050E0B701CE0101960E94362B8AE00C
:1058C000FE013196D60101900D928A95E1F7F6011D
:1058D000828180FF04C08681978197FD07C0F60111
:1058E0008481F701878F81E080A302C081E001C03D
:1058F00080E02A960FB6F894DEBF0FBECDBFDF91D1
:10590000CF911F910F91FF90EF90DF90CF9008956E
:10591000DF92EF92FF920F931F93CF93DF93CDB758
:10592000DEB72A970FB6F894DEBF0FBECDBF7C015D
:10593000D42EFC0123893489418952898B01BC0111
:10594000CE0101960E94362B8AE0FE013196D701E6
:10595000559601900D928A95E1F7F701878980FFAE
:1059600004C0838D948D97FD0BC0F701818D978DB9
:10597000891731F0811106C081E0D11004C002C046
:1059800081E001C080E02A960FB6F894DEBF0FBE1A
:10599000CDBFDF91CF911F910F91FF90EF90DF90DE
:1059A00008958F929F92AF92BF92CF92DF92EF9223
:1059B000FF920F931F93CF93DF93CDB7DEB72E9750
:1059C0000FB6F894DEBF0FBECDBF7C016B015A014C
:1059D0004901FC0125853685478550892F5F3F4F5A
:1059E0004F4F5F4F258736874787508BBC01CE01CD
:1059F00009960E94CB2EF70181A1882339F09401EA
:105A0000A501B601C7010E94E62B30C0F701408511
:105A1000518562857385CE0101960E94A930A70148
:105A20004B5E5F4FBE016F5F7F4FC7010E943F2CEF
:105A300081111CC0689486F8F701128B018B948A3F
:105A4000838A878D8F5F87FD81E0F701878F9401BF
:105A5000A501B601C7010E94E62B40E0BE016F5FC1
:105A60007F4FC7010E94882C882389F386E0FE01BE
:105A70003996DE01119601900D928A95E1F7298100
:105A80003A814B815C816D817E8180E090E02E9631
:105A90000FB6F894DEBF0FBECDBFDF91CF911F913F
:105AA0000F91FF90EF90DF90CF90BF90AF909F90BD
:105AB0008F9008958F929F92AF92BF92CF92DF9274
:105AC000EF92FF920F931F93CF93DF93CDB7DEB783
:105AD000AA970FB6F894DEBF0FBECDBF4C01CE0122
