:100000000C94E7030C94153D0C94463D0C94773DFD
:100010000C94A83D0C94D93D0C940A3E0C943B3EA4
:100020000C946C3E0C9416040C9416040C94160458
:100030000C9416040C9416040C9416040C94D932E7
:100040000C9416040C9416040C9416040C941604C8
:100050000C9416040C9416040C9416040C94AF3EE5
:100060000C9416040C944D370C9483370C9416049E
:100070000C9416040C9416040C9416040C94160498
:100080000C9416040C9416040C9416040C94160488
:100090000C94FA370C9430380C9416040C94160413
:1000A0000C9416040C9416040C9416040C94160468
:1000B0000C9416040C9416040C945C340C94CB33FE
:1000C0000C94BE340C9416040C9416040C94A738AB
:1000D0000C94DD380C9416040C9454390C948A3921
:1000E0000C941604EF3CB93CC13CCD3CDA3CFB3CE3
:1000F000083DF03FF33FE23FE63FEC3F2A40F73F49
:10010000FB3F0140054009400F40134017402A4083
:100110001D4021402540084AD73B3BCE016E84BCA0
:10012000BFFDC12F3D6C74319ABD56833DDA3D0051
:10013000C77F11BED9E4BB4C3E916BAAAABE00009A
:1001400000803F05A84CCDB2D44EB93836A9020C78
:1001500050B9918688083CA6AAAA2ABE0000008051
:100160003F07634236B79BD8A71A39685618AEBA0C
:10017000AB558C1D3CB7CC5763BD6DEDFD753EF6A0
:10018000177231BF000000803F08000000BE9224BB
:1001900049123EABAAAA2ABECDCCCC4C3E000000F0
:1001A00080BEABAAAAAA3E00000000BF00000080EB
:1001B0003F0000000000084178D3BB4387D1133DC6
:1001C000190E3CC3BD4282AD2B3E68EC8276BED98F
:1001D0008FE1A93E4C80EFFFBE01C4FF7F3F0000CE
:1001E00000000000496E6974206175746F70696C5D
:1001F0006F7420636F6D706C65746500496E69740F
:10020000206175746F70696C6F742E2E7365742025
:100210006C696D6974732E2E00496E697420617566
:10022000746F70696C6F742E2E73746172742050C9
:1002300049442E2E00496E6974206175746F70698F
:100240006C6F742E2E006A736F6E726561646572D6
:100250002E726573756C74735B315D203D20006A8E
:10026000736F6E7265616465722E726573756C74FE
:10027000735B305D203D2000536574757020636FA3
:100280006D706C6574652E2E0053746172742074E9
:10029000696D65722E2E0053746172742077696ED9
:1002A000642E2E005374617274206E6D656120544B
:1002B00078202D206F6E2070696E732034362054A4
:1002C000782C2034382052782061742000537461D7
:1002D0007274206E6D65612054782E2E0053746107
:1002E0007274206E6D6561205278202D20736572C6
:1002F00069616C34206174200043535F50494E2083
:100300004F5554505554203D2048494748004353C9
:100310005F50494E2073657420746F204F555450C0
:1003200055540053746172742053504920756172A2
:1003300074732E2E005374617274206E6D6561208B
:100340005278202D2073657269616C3320617420AE
:10035000005374617274206E6D6561205278202D97
:100360002073657269616C3220617420005374617E
:1003700072742073656174616C6B202D20736572DB
:1003800069616C32206174203438303000537461FC
:10039000727420475053205278202D207365726963
:1003A000616C312061742000496E697469616C6907
:1003B0007A696E672E2E002C002C57534B3A002C76
:1003C0005753583A002C4141443A002C4141453A98
:1003D000002C41414E3A002C4141523A002C4141FF
:1003E000583A002C4150523A002C4150433A002CCC
:1003F0004150543A002C4150533A005549443A4D2B
:100400004547412C4150583A0021215645523A3136
:100410002E392C0024504D544B3235312C002450B1
:100420004D544B3331342C302C312C302C312C3179
:100430002C312C302C302C302C302C302C302C30DB
:100440002C302C302C302C302C302C302A323800F0
:1004500024504D544B3232302C313030302A31461A
:100460000053657474696E672047505320746F2081
:100470004D54454B5F33333239002C382C312C30FE
:100480002A0024505352463130302C312C00245055
:100490005352463130352C302A33460024505352C3
:1004A000463130332C30342C30302C30312C30313C
:1004B0002A32310024505352463130332C30332C01
:1004C00030302C32302C30312A3235002450535207
:1004D000463130332C30322C30302C30352C30310A
:1004E0002A32330024505352463130332C30302CD2
:1004F00030302C30352C30312A32310024505352D8
:10050000463130332C30312C30302C30302C3031DF
:100510002A32350024505352463130332C30352C9A
:1005200030302C30302C30312A32310024505352AC
:10053000463130352C312A33450053657474696E69
:10054000672047505320746F20454D5F343036414B
:100550000053657474696E672047505320746F2090
:1005600047454E455249430053657474696E672090
:1005700047505320636F6E6669672E2E2E00202031
:100580002064656661756C7420746F203438303077
:100590002E2E004641494C4544004F4B20617420AB
:1005A00000202020747279206175746F6261756417
:1005B000202E2E20002020646574656374656420FD
:1005C00070756C73652072617465203D20002C5439
:1005D0002A002448434844542C002C4E2C412A0025
:1005E0002E302C522C002457494D57562C00535076
:1005F0004920696E697420636F6D706C6574650065
:10060000535049205541525420726573657400530C
:1006100050492073746172746564004D756C74691F
:1006200053657269616C3A3A626567696E002C20A5
:1006300074726163653D002A505554204E554D45F6
:10064000524F2120002C2074726163653D002A50B6
:10065000555420535452494E472120002C206368A2
:1006600061723A002C20656C656D656E742074793A
:1006700070653A0050726F636573732063686172CE
:100680002C207374617475733A002A7175657279E0
:100690005F6D6174636821200000000A0B02090C81
:1006A0000D0E080703040100000000000000000018
:1006B000000000000000000000000000000000003A
:1006C00000000000001211100000000000000000F7
:1006D0000000000000000000000000000000000119
:1006E0000210202008081020401020408002010243
:1006F000010804020101020408102040808040200B
:100700001008040201800402018040201008040245
:1007100001080402010102040810204080010204C3
:10072000081020408005050505070508080808028F
:100730000202020A0A08080404040401010101017A
:100740000101010303030303030303040707070C69
:100750000C0C0C0C0C0C0C0202020206060606061F
:100760000606060B0B0B0B0B0B0B0B0000200023DC
:1007700000260029002C002F003200000100000399
:10078000010601090100002200250028002B002E8F
:10079000003100340002010000050108010B0100D6
:1007A000002100240027002A002D00300033000122
:1007B000010000040107010A0100FA085C0DEC16B3
:1007C000FE1CB73764381139BE390E09E70D112404
:1007D0001FBECFEFD1E2DEBFCDBF14E0A0E0B2E09C
:1007E000E6E5F7E900E00BBF02C007900D92AA32E0
:1007F000B107D9F72FE0AAE2B4E001C01D92A831F9
:10080000B207E1F717E0CAECD7E000E006C0229794
:100810000109FE010BBF0E946C46CA3BD10780E074
:100820000807A9F70E949E3E0C94994B0C94000077
:1008300021E132E0FC0131832083089521E132E09F
:10084000FC01318320830C94AD3EFC01CB0121E1FE
:1008500032E03183208373836283148240E050E06E
:10086000BA010E94111261E088E10E942B4061E010
:100870008AE10E942B4061E08CE10E942B4061E004
:100880008EE10E942B4060E082E40C942B40CF92DA
:10089000DF92EF92FF92CF93DF93EC018A819B81ED
:1008A0000E94D312882389F08A819B810E94E70FDE
:1008B0006B017C010E94F93E21E0C616D706E806CE
:1008C000F90608F020E0822F01C080E0DF91CF918F
:1008D000FF90EF90DF90CF900895CF92DF92EF924C
:1008E000FF92CF93DF93EC010E9447048823A9F184
:1008F0000E94F93E6B017C018A819B810E94E10F7D
:10090000C61AD70AE80AF90A89EEC81683E0D8069B
:10091000E104F104C0F16C8188E10E9464406C81C3
:100920008AE10E9464406C818CE10E9464406C8189
:100930008EE10E9464408C8191E089278C830E9423
:10094000F93EAB01BC018A819B81DF91CF91FF9081
:10095000EF90DF90CF900C94111260E088E10E943C
:10096000644060E08AE10E94644060E08CE10E94A3
:10097000644060E08EE1DF91CF91FF90EF90DF90D7
:10098000CF900C946440DF91CF91FF90EF90DF9077
:10099000CF900895CF92DF92EF92FF92CF93DF93A3
:1009A000EC018A819B810E940C12882311F18A81BB
:1009B0009B810E94E01118161906DCF48A819B8144
:1009C0000E94EC116B017C018A819B810E94E011E5
:1009D000BC01882777FD8095982F0E9489429B0152
:1009E000AC01C701B6010E94EA43181614F461E095
:1009F00001C060E08A819B81DF91CF91FF90EF90F1
:100A0000DF90CF900C9403130F931F93CF93DF933A
:100A1000EC0180E40E94B23F8C018A819B810E949C
:100A2000BC11081719074CF08A819B810E94B611EE
:100A30008017910714F060E001C061E08A819B811A
:100A40000E948A1281E40E94B23F8C018A819B81BC
:100A50000E94C811081719073CF08A819B810E94E7
:100A6000C2118017910714F461E001C060E08A812F
:100A70009B810E94991282E40E94B23F8C018A817C
:100A80009B810E94D411081719073CF08A819B8131
:100A90000E94CE118017910714F461E001C060E05C
:100AA0008A819B81DF91CF911F910F910C94A812A5
:100AB00029E132E0FC0131832083089529E132E00D
:100AC000FC01318320830C94AD3E2F923F924F92D4
:100AD0005F926F927F928F929F92AF92BF92CF92CE
:100AE000DF92EF92FF920F931F93CF93DF93CDB7D7
:100AF000DEB728970FB6F894DEBF0FBECDBF1C013E
:100B00006A017B0109831A832B833C83FC01828168
:100B100093810E941D109B01AC01C701B6010E9488
:100B200021412B013C01F101828193810E941D1022
:100B30009B01AC01C701B6010E9420414B015C0141
:100B4000F101828193810E941D109B01AC0169819A
:100B50007A818B819C810E9421416B017C01F10192
:100B6000828193810E941D109B01AC0169817A8171
:100B70008B819C810E94204169837A838B839C8333
:100B8000F101828193810E9423106D837E838F8384
:100B9000988724E83AEB4CE358E3C301B2010E9482
:100BA00020412D813E814F8158850E94EA431816CD
:100BB0006CF4F101828193810E940F109B01AC01C2
:100BC000C301B2010E94E74187FD8CC0F10182811F
:100BD00093810E940F102B013C0124E83AEB4CE377
:100BE00058E3C501B4010E942141A30192010E9472
:100BF000E74187FF0EC0F101828193810E9423109B
:100C00009B01AC01C501B4010E94EA4318160CF423
:100C100071C0F101828193810E9429104B015C0116
:100C200024E83AEB4CE358E3C701B6010E942041A7
:100C3000A50194010E94EA4318166CF4F101828127
:100C400093810E94F30F9B01AC01C701B6010E9482
:100C5000E74187FD57C0F101828193810E94F30F24
:100C60006B017C0124E83AEB4CE358E369817A811B
:100C70008B819C810E942141A70196010E94E7413E
:100C800087FF48C0F101828193810E9429109B0156
:100C9000AC0169817A818B819C810E94EA4318169C
:100CA000CCF549815A816B817C81F10182819381EC
:100CB00028960FB6F894DEBF0FBECDBFDF91CF915F
:100CC0001F910F91FF90EF90DF90CF90BF90AF906A
:100CD0009F908F907F906F905F904F903F902F905C
:100CE0000C944412B301A201F101828193810E940C
:100CF00032126CCFB501A401F101828193810E946F
:100D00003E1287CFB701A601F101828193810E9433
:100D10002612A1CF28960FB6F894DEBF0FBECDBF26
:100D2000DF91CF911F910F91FF90EF90DF90CF90C7
:100D3000BF90AF909F908F907F906F905F904F90FB
:100D40003F902F9008958F929F92AF92BF92CF9233
:100D5000DF92EF92FF920F931F93CF93DF93EC01FB
:100D60006A017B014801590140E050E064EB72E404
:100D70008A819B810E94321240E050E064EB72EC69
:100D80008A819B810E943E1240E050E064E373E45C
:100D90008A819B810E94261240E050E064E373EC5C
:100DA0008A819B810E9444128A819B810E94151036
:100DB0002DE93BEF46E157E30E94F543AB01BC014F
:100DC0008A819B810E94381295018401B701A60196
:100DD000CE010E946505DF91CF911F910F91FF9089
:100DE000EF90DF90CF90BF90AF909F908F9008953D
:100DF000CF92DF92EF92FF920F931F93CF93DF93E7
:100E0000EC018B0189E192E0998388837B836A837B
:100E1000CB010E9401106B017C01C8010E94F90FF7
:100E2000AB01BC0197018601CE010E94A306DF91B0
:100E3000CF911F910F91FF90EF90DF90CF90089589
:100E40004F925F926F927F928F929F92AF92BF92DA
:100E5000CF92DF92EF92FF920F931F93CF93DF9386
:100E600000D000D0CDB7DEB74C01FC018281938168
:100E70000E940212882309F4D2C00E94F93E2B017D
:100E80003C01F401828193810E948511461A570A20
:100E9000680A790AF1EE4F16F3E95F06F4E06F068F
:100EA000710438F0F401828193810E940212811151
:100EB0008DC0F401828193810E94A511882309F4D9
:100EC000AEC0F401828193810E9495115B016C0197
:100ED000F401828193810E948D112B013C01F40168
:100EE000828193810E9401109B01AC01F4018281F7
:100EF000938129833A834B835C830E94F90F83019A
:100F0000720129813A814B815C810E946714AB0197
:100F1000BC01F401828193810E942012F40182813C
:100F200093810E94ED0F2B013C01F401828193819A
:100F30000E9409109B01AC01C301B2010E94EA4367
:100F4000181664F4F401828193810E94ED0FAB01C5
:100F5000BC01F401828193810E942C12F4018281F0
:100F600093810E9495112B013C01F40182819381B0
:100F70000E948D11AB01BC0193018201C4010E944A
:100F80006505F401828193810E940212882369F130
:100F9000F401828193810E94ED0F2B013C01F40149
:100FA000828193810E9415109B01AC01C301B201A3
:100FB0000E94EA431816CCF440E050E0BA01F40174
:100FC000828193810E94171261E010C040E050E0DE
:100FD000BA01F401828193810E94171261E0F40149
:100FE000828193810E941D1264CF60E0F4018281AE
:100FF00093810F900F900F900F90DF91CF911F91E1
:101000000F91FF90EF90DF90CF90BF90AF909F90A7
:101010008F907F906F905F904F900C941D120F9067
:101020000F900F900F90DF91CF911F910F91FF9034
:10103000EF90DF90CF90BF90AF909F908F907F9078
:101040006F905F904F9008950F931F93CF93DF930E
:10105000EC018B0181960E94651D18A30F8FDF9113
:10106000CF911F910F9108958F929F92AF92BF924F
:10107000CF92DF92EF92FF920F931F93CF93DF9364
:10108000CDB7DEB7E7970FB6F894DEBF0FBECDBF82
:101090004C01FC01168E158E148E138E65E372E0E2
:1010A00087E89CE00E94813AF401878D90A10E941C
:1010B0003E13AB01BC0181E794E00E94932664E6F5
:1010C00070E080E090E00E94283FF401878D90A1BD
:1010D0000E94351020E030E044E354E40E942141B6
:1010E0006B017C01F4016083718382839383878D1C
:1010F00090A10E9430119B01AC01C701B6010E9472
:101100002141F4016483758386839783878D90A141
:101110000E942F10F401608771878287938711E006
:10112000108B69E172E087E89CE00E94813AA4019B
:10113000485F5F4FB4016C5F7F4F1F921F938FE337
:101140008F9385E08F938EE18F9388EB8F938AE066
:10115000A82E87EDB82E83EAC82E8DE3D82E16E68A
:10116000E12EFE2C06EE1EE39401CE0101960E94B4
:101170009B2087E3FE013196D401919601900D9258
:101180008A95E1F76CEF71E087E89CE00E94813A74
:10119000F1E28F0E911C00E010E024E832E440E020
:1011A00050E0BA01C4010E94831F64E670E0C401EC
:1011B0000E943B1F64EE71E087E89CE00E94813A48
:1011C0000F900F900F900F900F900F90E7960FB623
:1011D000F894DEBF0FBECDBFDF91CF911F910F916D
:1011E000FF90EF90DF90CF90BF90AF909F908F9047
:1011F0000895089540E063E481E794E00E94222589
:1012000061E774E08CE494E00E94A82B20E841E3BD
:101210006CE474E08AE294E00C9423278AE294E080
:101220000C9463270F931F93CF93DF93EC018C01F2
:101230000F5E1F4F81E794E00E94E025892B21F18A
:1012400081E794E00E94DB252D8D3E8DFE01E20FAB
:10125000F31F818B2F5F3F4F3E8F2D8F8A3029F0F8
:101260008D3019F0213331052CF3FE01E20FF31F0D
:10127000118AB80187E89CE00E94933A1E8E1D8E69
:10128000F80111821082D6CFDF91CF911F910F917B
:1012900008954F925F926F927F92AF92BF92CF92DA
:1012A000DF92EF92FF920F931F93CF93DF9300D0C3
:1012B00000D000D0CDB7DEB75C01FC01878D90A1D6
:1012C0000E94FA1285010F5D1F4F882309F4DEC0CA
:1012D000C5010E94120961E070E0C8010E94492026
:1012E000F501878D90A10E94351020E030E044E3A5
:1012F00054E40E9421416B017C01F50160837183FC
:1013000082839383878D90A10E9430119B01AC0151
:10131000C701B6010E942141F5016483758386836C
:101320009783C8010E94661DF50124853585468591
:10133000578560857185828593850E9420416B0168
:101340007C0120E030E0A9010E94EA43181624F055
:10135000F7FAF094F7F8F094F501878D90A10E94C8
:101360007111BC01882777FD8095982F0E948942D2
:101370009B01AC01C701B6010E94EA4318160CF0AC
:101380009EC0F5018089078D10A1C084D184E284BC
:10139000F3844484558466847784A301920188236E
:1013A00009F1C701B6010E94EA4318160CF1A30126
:1013B0009201C701B6010E94E74187FF3FC0F501D6
:1013C000108AC8010E947711BC01882777FD80959B
:1013D000982F0E9489429B01AC01C701B6010E946F
:1013E000204127C0C701B6010E94E74187FF06C020
:1013F000F501C486D586E686F78620C0A301920152
:10140000C701B6010E94EA431816C4F481E0F50151
:10141000808BC8010E947711BC01882777FD8095D9
:10142000982F0E9489429B01AC01C701B6010E941E
:101430002141F5016487758786879787F501448583
:10144000558566857785878D90A10E944A12F501A2
:10145000878D90A10E947D112B013C0120E030E09E
:1014600048EC52E4F50164857585868597850E9470
:10147000F5430E945642AB01BC01E12CF12C9301D3
:1014800082018AE294E00E94E22919C060E070E0E3
:10149000C80126960FB6F894DEBF0FBECDBFDF9110
:1014A000CF911F910F91FF90EF90DF90CF90BF9061
:1014B000AF907F906F905F904F900C94492026964C
:1014C0000FB6F894DEBF0FBECDBFDF91CF911F9155
:1014D0000F91FF90EF90DF90CF90BF90AF907F90F3
:1014E0006F905F904F90089581E08093470B8091BB
:1014F000450B9091460B01969093460B8093450BBC
:101500008091450B9091460B64E170E00E94064685
:101510009093460B8093450B089582E995E00C94D7
:10152000511A82E995E00C94931A83E79AE00E949D
:101530009E0F83E79AE00E940E13AB01BC0126E0E8
:1015400087E89CE00E94CF3668EA73E087E89CE079
:101550000E94813A8CE895E00E9406176DE873E0DE
:1015600087E89CE00E943F3A83E79AE00E941613C6
:10157000AB01BC012AE030E087E89CE00E947A3BA6
:1015800083E79AE00E941613AB01BC0126E084E2D7
:101590009DE00E94CF3683E79AE00E94461388239D
:1015A00061F06DE673E087E89CE00E94813A27E0F5
:1015B00040EC52E160E070E019C061E573E087E85B
:1015C0009CE00E943F3A83E79AE00E941E13AB0121
:1015D000BC012AE030E087E89CE00E947A3B83E788
:1015E0009AE00E941E13AB01BC0126E081EC9DE055
:1015F0000E94CF3665E373E087E89CE00E943F3AA3
:1016000083E79AE00E942613AB01BC012AE030E098
:1016100087E89CE00E947A3B83E79AE00E942613C9
:10162000AB01BC0126E08EE59EE00E94CF3663E26E
:1016300073E087E89CE00E94813A68EE73E080E006
:1016400090E00E94283F61E083E40E942B406EE01E
:1016500073E087E89CE00E94813A64E670E080E0F5
:1016600090E00E94283F61E083E40E94644069EFBB
:1016700072E087E89CE00E94813A6DED72E087E8B5
:101680009CE00E943F3A83E79AE00E942E13AB0150
:10169000BC012AE030E087E89CE00E947A3B83E7C7
:1016A0009AE00E942E13AB01BC018EE795E00E94E8
:1016B000932664E670E080E090E00E94283F6DECA5
:1016C00072E087E89CE00E94813A60E080E30E943B
:1016D0002B4061E08EE20E942B4064EA72E087E8D2
:1016E0009CE00E943F3A83E79AE00E943613AB01E8
:1016F000BC012AE030E087E89CE00E947A3B83E767
:101700009AE00E943613AB01BC0182E39AE00E948A
:10171000C41786E295E00E94340867E972E087E822
:101720009CE00E94813A60E083E00E942B4043E00D
:1017300050E06DE87AE081E00E94A43C60E082E045
:101740000E942B4043E050E061E97AE080E00E9493
:10175000A43C69E872E087E89CE00E94813A44E793
:101760005AE064E670E080E090E00E946C320E94F3
:10177000783268E772E087E89CE00C94813ACF9376
:10178000DF93DC01FC0101900020E9F7E81BF90B75
:101790003297EC01219680E09E012A1B3B0B2E170D
:1017A0003F0718F499918927F7CFDF91CF910895DA
:1017B0000F931F93CF93DF93C4EAD4E014E687E836
:1017C0009CE00E946435892B09F453C087E89CE0B3
:1017D0000E947F35082F682F8FE794E00E94ED303C
:1017E0002091A2043091A304F901EC55FB4F008332
:1017F0002F5F3F4F3093A3042093A2040A3029F0B7
:101800000D3019F023363105D4F2F901EC55FB4FB8
:10181000108264EA74E087E89CE00E94933A109298
:10182000A3041092A204FE01812F11928A95E9F778
:101830006FE572E087E89CE00E943F3AE091810406
:10184000F09182046081718187E89CE00E94933A64
:1018500066E472E087E89CE00E943F3AE0918104F0
:10186000F09182046281738187E89CE00E94933A40
:10187000A6CFDF91CF911F910F91089584E29DE053
:101880000E946435892BF9F084E29DE00E947F3547
:10189000682F8CE895E00E944E158093A104882360
:1018A00069F389EC98E00E94A021BC0182E39AE0F0
:1018B0000E94D51789EC98E00E94A021BC0187E81E
:1018C0009CE00C94933A089581EC9DE00E9464356D
:1018D000892B79F183E79AE00E944613882351F01F
:1018E00081EC9DE00E947F35682F88E095E00E94A2
:1018F0000019EACF81EC9DE00E947F35682F81E3DB
:1019000097E00E942C178093A0048823E9F281E3DA
:1019100097E00E94A417BC0182E39AE00E94D517C9
:1019200081E397E00E94A417BC0187E89CE00C9437
:10193000933A0895CF938EE59EE00E946435892BFB
:1019400041F18EE59EE00E947F35C82F4AE050E0CD
:10195000682F87E89CE00E94A03B6C2F85E696E00C
:101960000E942C1780939F04882329F385E696E034
:101970000E94A417BC0182E39AE00E94D51785E675
:1019800096E00E94A417BC0187E89CE0CF910C94DC
:10199000933ACF910895CF938EE795E00E94E0258A
:1019A000892B41F18EE795E00E94DB25C82F4AE0A4
:1019B00050E0682F87E89CE00E94A03B6C2F89E9EB
:1019C00095E00E942C1780939E04882329F389E9CF
:1019D00095E00E94A417BC0182E39AE00E94D5170B
:1019E00089E995E00E94A417BC0187E89CE0CF91AB
:1019F0000C94933ACF9108958091470B882309F472
:101A000059C086E295E00E9449098091450B90916A
:101A1000460B80FD04C082E995E00E94F71A809190
:101A2000450B9091460B62E370E00E940646892BBD
:101A3000B1F482E995E00E94F71A82E995E00E94EC
:101A4000861B82E39AE00E94D71784E995E00E9402
:101A50006D0467E87CE083E79AE00E945010809173
:101A6000450B9091460B64E670E00E940646892B78
:101A7000F9F46DE872E087E89CE00E94643A0E9405
:101A8000B0264AE050E0BC0187E89CE00E94623B3F
:101A900082E295E00E94200784E995E00E94CA0452
:101AA00084E995E00E94040582E39AE00E945718B9
:101AB0001092470B0C94CB0CCF92DF92EF92FF92D7
:101AC0000F931F9383E79AE00E94FF0D1092350A4F
:101AD0001092340A88EE93E0A0E0B0E08093360ADA
:101AE0009093370AA093380AB093390A84EE92E0B3
:101AF0009093330A8093320A83E79AE090933F0AE7
:101B000080933E0A60E070E089EC98E00E94162124
:101B100060E070E08DEF97E00E94231760E070E0D6
:101B200081E397E00E94231760E070E085E696E08D
:101B30000E94231760E070E089E995E00E94231776
:101B400063E77AE084E995E00E94250463E77AE0A0
:101B500082E995E00E94111943E75AE069EC78E0C8
:101B60008CE895E00E94581341E063E48EE795E02D
:101B70000E94222563E77AE086E295E00E9424082D
:101B800063E77AE082E295E00E94F80643E75AE0D4
:101B900061EC7DE088E095E00E94F8188EE1C82EA7
:101BA000D12C9FE0E92EF12C0CE010E022E030E097
:101BB00046E052E067E87CE08FE794E00E94732DF6
:101BC0001F910F91FF90EF90DF90CF9008958FE7D6
:101BD00094E00E940A2D82E295E00E94580586E278
:101BE00095E00E94F9088CE895E00E944B1384E987
:101BF00095E00E94180482E39AE00C94AF17FC0170
:101C00001082118212821382148215821682178228
:101C1000108A118A128A138A148A158A168A178AD8
:101C2000108E118E128E138E148E40E050E064EBF5
:101C300072E4458F568F678F70A340E050E064EBED
:101C400072EC41A352A363A374A340E050E064E3A9
:101C500073E445A356A367A370A740E050E064E394
:101C600073EC41A752A763A774A715A683E482ABC0
:101C700013AA14AA15AA16AA40E050E064E072E480
:101C800047AB50AF61AF72AF13AE40E050E068ECCD
:101C900072E444AF55AF66AF77AFDF01A05CBF4FD2
:101CA00040E050E060E271E44D935D936D937C936E
:101CB000139714964D935D936D937C93139714969D
:101CC00040E850E060E070E04D935D936D937C934D
:101CD000139710861186128613861486158616862B
:101CE000178614961C9211961D921D921D921C929D
:101CF000139714961D921D921D921C921397149681
:101D000086E58C9311961D921D921D921C9213973D
:101D100014961D921D921D921C92139714961D925B
:101D20001D921D921C92139714961D921D921D9246
:101D30001C92139714961C9211961C9211961C9249
:101D400011961C92A55ABF4F21E034E011963C93A6
:101D50002E9312968FEF9FEF11969C938E93AC5516
:101D6000B1091C92A25ABF4F11963C932E93129622
:101D700011969C938E93AF55B1091C92AF59BF4FEA
:101D800011963C932E93129611969C938E93A25685
:101D9000B1091D921D921D921C92139714961D92CB
:101DA0001D921D921C921397149611961C921E92CE
:101DB000129611961C921E92129611961C921E92C9
:101DC00012961C9211961D921D921D921C921397B1
:101DD00014961D921D921D921C921397149640E02A
:101DE00050E060E272E44D935D936D937C931397A2
:101DF00014961C9211961C92119611961C921E928A
:101E0000129611961C921E92169640E050E060E8E1
:101E10007FE34D935D936D937C93139714961C927F
:101E2000119640EE53E964E070E04D935D936D933D
:101E30007C93139714961C9211961C92119683E62C
:101E400090E011969C938E9312961C92119640E00E
:101E500050E46CE176E44D935D936D937C9313971E
:101E6000149611961C921E92129681E090E01196A3
:101E70009C938E93129640E056E960E070E04D939B
:101E80005D936D937C93139714964D935D936D932F
:101E90007C931397149640E855E260E070E04D9310
:101EA0005D936D937C93139714964D935D936D930F
:101EB0007C93139714964D935D936D937C93139736
:101EC00018964D935D936D937C93139714961C9283
:101ED000E053FF4F8DE090E09183808308950F934E
:101EE0001F93CF93DF93EC01FC01E053FF4F408140
:101EF00060E070E085EC9BE00E940A33FE01EF5247
:101F0000FF4F408161E070E085EC9BE00E940A3366
:101F1000C558DF4F64E070E049918B010F5F1F4FA0
:101F200085EC9BE00E940A330935110511F0B801D8
:101F3000F3CFDF91CF911F910F910895EF92FF9210
:101F40000F931F93CF93DF9300D0CDB7DEB78C01F3
:101F500060E070E085EC9BE00E940733898361E0DC
:101F600070E085EC9BE00E9407338A83F801E05320
:101F7000FF4F29813A81808191812817390719F013
:101F8000C8010E946F0F05581F4F64E070E07B018D
:101F90008FEFE81AF80A85EC9BE00E940733F801FE
:101FA00081938F01F9E5EF16F10411F0B701EFCF3E
:101FB0000F900F90DF91CF911F910F91FF90EF90B5
:101FC0000895FC0160817181828193810895FC01F3
:101FD00064817581868197810895FC016489758982
:101FE000868997890895FC0165A176A187A190A5AE
:101FF000089585589F4FFC01608171818281938192
:10200000089581589F4FFC01608171818281938185
:102010000895FC01608D718D828D938D0895FC0172
:10202000658D768D878D90A108958D579F4FFC010A
:1020300060817181828193810895FC016089718939
:10204000828993890895FC0161A172A183A194A161
:102050000895FC0161A572A583A594A50895FC01CE
:1020600067A970AD81AD92AD0895FC0163A974A913
:1020700085A996A90895FC0122A9273559F4EA58A3
:10208000FF4F60817181882777FD8095982F0E948E
:1020900089420895FC016085718582859385089544
:1020A000EF92FF920F931F93CF93DF938C01EB017D
:1020B00069E074E0CE010E943F3A6BEF73E0CE011D
:1020C0000E943F3AF80165A570E04AE050E0CE0179
:1020D0000E945A3B65EF73E0CE010E943F3AF8013F
:1020E00062A9CE010E94663AF80185A58823A9F16C
:1020F0006FEE73E0CE010E943F3AF80143A954A964
:1021000065A976A922E030E0CE010E94A23C69EEEA
:1021100073E0CE010E943F3AC8010E943B10AB0120
:10212000BC0122E030E0CE010E94A23C63EE73E0ED
:10213000CE010E943F3A20E030E044E052E4F80152
:1021400067A970AD81AD92AD0E942041AB01BC0189
:1021500022E030E0CE010E94A23C6DED73E0CE01A2
:102160000E943F3A7801F7E8EF0EF11CF701608119
:1021700070E04AE050E0CE010E945A3B67ED73E008
:10218000CE010E943F3AF801ED57FF4F4081518147
:102190006281738122E030E0CE010E94A23CF7010F
:1021A0008081882389F161ED73E0CE010E943F3A7E
:1021B000F801E558FF4F408151816281738122E02F
:1021C00030E0CE010E94A23C6BEC73E0CE010E9495
:1021D0003F3AF801E158FF4F40815181628173819C
:1021E00022E030E0CE010E94A23C65EC73E0CE011B
:1021F0000E943F3AF801448955896689778922E02F
:1022000030E0CE010E94A23C6FEB73E0CE010E9451
:102210003F3AF801E256FF4F608170E04AE050E03B
:10222000CE010E945A3B69EB73E0CE010E943F3A17
:10223000F801E456FF4F608171814AE050E0CE0121
:102240000E945A3B67EB73E0CE010E94813A80E026
:1022500090E0DF91CF911F910F91FF90EF90089543
:10226000CF92DF92EF92FF92CF93DF93EC010E9427
:102270003B109B01AC016BA97CA98DA99EA90E9472
:1022800020416B017C0120E030E044E353E40E94F4
:10229000EA4318167CF020E030E044E353ECC70139
:1022A000B6010E94E74187FF0AC020E030E044EB1E
:1022B00053E408C020E030E044EB53EC03C020E0DE
:1022C00030E0A901C701B6010E9421416EA77FA796
:1022D00088AB99ABDF91CF91FF90EF90DF90CF90DB
:1022E000089587579F4FFC018081918108958557FC
:1022F0009F4FFC0180819181089583579F4FFC017E
:1023000060817181828193810895835B9F4FFC017D
:10231000608171818281938108958A5A9F4FFC0167
:1023200060817181828193810895865A9F4FFC015B
:10233000608171818281938108958F569F4FFC0146
:10234000608171818281938108958B5A9F4FFC0136
:1023500080810895FC01608571858285938508954B
:10236000FC01648575858685978508958C539F4FFC
:10237000FC018081918108958A539F4FFC018081E7
:102380009181089588539F4FFC0180819181089528
:1023900086539F4FFC0180819181089584539F4F04
:1023A000FC0180819181089582539F4FFC018081BF
:1023B000918108958D559F4FFC01808191810895F1
:1023C00084569F4FFC018081918108958A589F4FC8
:1023D000FC0180819181089580599F4FFC016081AB
:1023E000718182819381089581569F4FFC016081A4
:1023F00071818281938108958C589F4FFC01808167
:102400009181089589579F4FFC0180810895845BD5
:102410009F4FFC018081089582569F4FFC0180816F
:102420000895FC0140835183628373830895FC0106
:1024300044835583668377830895FC01648F0895F0
:10244000FC01448B558B668B778B0895FC0145A36B
:1024500056A367A370A70895FC01408F518F628F28
:10246000738F0895FC01458F568F678F70A3089571
:10247000FC01408B518B628B738B0895FC0141A34F
:1024800052A363A374A30895FC0141A752A763A7B5
:1024900074A70895FC0147AB50AF61AF72AF0895C8
:1024A0008E599F4FFC01408351836283738308954B
:1024B000845B9F4FFC0160830895835B9F4FFC0109
:1024C000408351836283738308958A5A9F4FFC012E
:1024D00040835183628373830895865A9F4FFC0122
:1024E00040835183628373830895825A9F4FFC0116
:1024F000408351836283738308958B5A9F4FFC01FD
:10250000608308958F5A9F4FFC01408351836283FB
:1025100073830895CF93DF931F92CDB7DEB769839E
:10252000298187599F4FFC0120830F90DF91CF9124
:102530000895CF93DF931F92CDB7DEB769832981CA
:1025400086599F4FFC0120830F90DF91CF91089512
:10255000CF93DF931F92CDB7DEB769832981855969
:102560009F4FFC0120830F90DF91CF9108958456F7
:102570009F4FFC017183608308958A589F4FFC012F
:1025800071836083089580599F4FFC01408351837C
:1025900062837383089584599F4FFC014083518364
:1025A000628373830895FC01E658FF4F2081222344
:1025B000F9F0739720812223D9F0319720812223CB
:1025C000B9F0FC01248D222399F023AD222381F060
:1025D000E859FF4F2081222359F031962081222390
:1025E00039F031962081222319F0319680810895A7
:1025F00080E00895FC0185A508958C589F4FFC014B
:1026000071836083089586589F4FFC01608308950D
:102610008B559F4FFC0180819181089589559F4F73
:10262000FC016081718182819381089585559F4F5E
:10263000FC016081718182819381089581559F4F52
:10264000FC01608171818281938108958D549F4F37
:10265000FC016081718182819381089589549F4F2B
:10266000FC016081718182819381089585549F4F1F
:10267000FC016081718182819381089581549F4F13
:10268000FC01608171818281938108958D539F4FF8
:10269000FC01808108952CED32E0FC013183208320
:1026A00008952CED32E0FC01318320830C94AD3E83
:1026B000FC018CED92E09183808355834483738386
:1026C00062830895CF92DF92EF92FF921F93CF9390
:1026D000DF93162F60E0812F0E942B4061E0812F55
:1026E0000E946440C0E0D4E080E1C82E87E2D82E8A
:1026F000E12CF12C28E438EE41E050E060E0812F3D
:102700000E949A4016161706180619063CF46C1516
:102710007D058E059F0514F46B017C01219751F70F
:1027200065EB75E087E89CE00E943F3A2AE030E0E4
:10273000B701A60187E89CE00E947A3B8CE0C816AE
:10274000D104E104F104F4F184E1C816D104E104F8
:10275000F104ECF18EE1C816D104E104F104E4F1D6
:1027600088E2C816D104E104F104DCF18CE3C81658
:10277000D104E104F104D4F180E5C816D104E104E8
:10278000F104CCF186E9C816D104E104F104C4F1E6
:102790008CE2C81681E0D806E104F104B4F188E5C2
:1027A000C81682E0D806E104F104A4F180EBC81653
:1027B00084E0D806E104F10494F560EB74E080E075
:1027C00090E030C060E072EC81E090E02BC060E00F
:1027D00071EE80E090E026C060E076E980E090E075
:1027E00021C060E870E780E090E01CC060E07BE41E
:1027F00080E090E017C060E478E380E090E012C0F1
:1028000060E875E280E090E00DC060EC72E180E08D
:1028100090E008C060E679E080E090E003C060E00E
:1028200070E0CB01DF91CF911F91FF90EF90DF908F
:10283000CF900895CF92DF92EF92FF927C0161EAF0
:1028400075E087E89CE00E943F3A63E170E0C701D1
:102850000E9462136B017C011616170618061906F2
:10286000C4F46AE975E087E89CE00E943F3A2AE0F8
:1028700030E0B701A60187E89CE00E947A3B26E0A1
:10288000B701A60184E29DE00E94CF36B601C701E0
:1028900019C063E975E087E89CE00E943F3A6EE763
:1028A00075E087E89CE00E94813A26E040EC52E126
:1028B00060E070E084E29DE00E94CF3660EC72E15F
:1028C00080E090E0FF90EF90DF90CF9008954F92DE
:1028D0005F926F927F928F929F92AF92BF92CF92B0
:1028E000DF92EF92FF920F931F93CF93DF93CDB7B9
:1028F000DEB760970FB6F894DEBF0FBECDBF698319
:102900007A838B839C83CA01B90127013801A60110
:1029100095010E94204125E33AEF4EE85CE30E94D6
:10292000F5436B017C010E94A4446D877E878F87ED
:10293000988BC701B6010E94EB416D837E838F8324
:10294000988725E33AEF4EE85CE369817A818B81D1
:102950009C810E94F5436B017C0125E33AEF4EE830
:102960005CE3C301B2010E94F5432B013C01C701A6
:10297000B6010E94A4444B015C01C701B6010E944C
:10298000EB4169837A838B839C83C301B2010E94EC
:10299000A44469877A878B879C87C301B2010E9410
:1029A000EB416B017C0129853A854B855C8569810A
:1029B0007A818B819C810E94F5432B013C01A70108
:1029C0009601C501B4010E94F5432D813E814F81DE
:1029D00058850E94F5439B01AC01C301B2010E94DE
:1029E00020419B01AC010E94F5432B013C012D8548
:1029F0003E854F855889C701B6010E94F5439B016A
:102A0000AC010E94F5439B01AC01C301B2010E94DD
:102A100021410E94AE442B013C0129853A854B851A
:102A20005C85C501B4010E94F5434B015C01A7011F
:102A3000960169817A818B819C810E94F5432D8169
:102A40003E814F8158850E94F5439B01AC01C50131
:102A5000B4010E9421419B01AC01C301B2010E945B
:102A6000944126E73BE742EC5AE40E94F543609626
:102A70000FB6F894DEBF0FBECDBFDF91CF911F918F
:102A80000F91FF90EF90DF90CF90BF90AF909F900D
:102A90008F907F906F905F904F900895CF93DF93CA
:102AA000EC018A819B810E943F2261E0892B09F41D
:102AB00060E08C819D810E9458128C819D810E94D2
:102AC0000712882369F18A819B810E947721682FF0
:102AD0008C819D810E947D128A819B810E94772139
:102AE0008134F1F460E070E08A819B810E94A22130
:102AF000FC0182818235A1F060E070E08A819B81D7
:102B00000E94A221FC0183818D3451F060E070E0CD
:102B10008A819B810E94A221FC018481833431F44B
:102B20008C819D81DF91CF910C9407120E94F93E18
:102B3000AB01BC018C819D810E945D128A819B81C9
:102B40000E949A21AB01BC018C819D810E94501290
:102B50008A819B810E947A21AB01BC018C819D817D
:102B60000E9465128A819B810E948021AB01BC0179
:102B70008C819D810E946D128C819D810E949D118E
:102B8000AB01BC018A819B810E948621AB01BC0103
:102B90008C819D810E9475128A819B810E94712186
:102BA000AB01BC018C819D810E948212B9CFDF9262
:102BB000EF92FF920F931F93CF93DF93CDB7DEB7C2
:102BC000A8970FB6F894DEBF0FBECDBF8C0168E6A4
:102BD00075E087E89CE00E94813AF8018481958144
:102BE0000E940813892B31F461E575E087E89CE0C9
:102BF0000E94813AF801848195810E94081301970F
:102C000009F07FC06AE375E087E89CE00E94813AA2
:102C10006CE275E084E29DE00E94813A64E175E037
:102C200084E29DE00E94813A6CEF74E084E29DE0D2
:102C30000E94813A64EE74E084E29DE00E94813A51
:102C40006CEC74E084E29DE00E94813A64EB74E0F5
:102C500084E29DE00E94813A6CE974E084E29DE0A8
:102C60000E94813A6EE874E084E29DE00E94813A1D
:102C70001AA219A28EEA93E098A38F8FCE01019633
:102C80007C019CA38BA38EE190E098A78FA3CE013B
:102C90004F960E945A1D62E874E0CE014F960E9442
:102CA0003F3AF801848195810E941613AB01BC0163
:102CB0002AE030E0CE014F960E94103B6AE774E0B4
:102CC000CE014F960E943F3AC7010E94BF0BD82EFB
:102CD000FFE0F81728F060E3CE014F960E94663AB5
:102CE00040E150E06D2DCE014F960E94993BB70117
:102CF00084E29DE00E94933AB70187E89CE00E943D
:102D0000933AF801848195810E940813029709F093
:102D100055C061E674E087E89CE00E94813A60E576
:102D200074E084E29DE00E94813A6EE174E084E206
:102D30009DE00E94813A1AA219A28EEA93E098A31C
:102D40008F8FCE0101967C019CA38BA38EE190E036
:102D500098A78FA3CE014F960E945A1D64E174E09C
:102D6000CE014F960E943F3AF801848195810E94DE
:102D70001613AB01BC012AE030E0CE014F960E9451
:102D8000103B66ED72E0CE014F960E94643AC70197
:102D90000E94BF0B182F803128F460E3CE014F96BC
:102DA0000E94663A40E150E0612FCE014F960E94AA
:102DB000993BB70184E29DE00E94933AA8960FB632
:102DC000F894DEBF0FBECDBFDF91CF911F910F9161
:102DD000FF90EF90DF90089510924B0B10924A0BEA
:102DE0008EEA93E09093490B8093480B82E59BE039
:102DF00090934D0B80934C0B88E290E09093510B95
:102E00008093500B88E49BE00C945A1DCF93DF9382
:102E1000EC010E941A14CE010E94D71584E29DE0B5
:102E20000E94F13584E29DE00E9431378C819D81C2
:102E30000E941613AB01BC0126E084E29DE0DF9105
:102E4000CF910C94CF36FC01E853FF4F11821082D2
:102E500032961182108208950F931F93CF93DF93C0
:102E6000DC01A853BF4F4D915C911197FC01E653D3
:102E7000FF4F4236510514F0118210826A3011F072
:102E80006D3011F411821082643261F424E6EC0199
:102E900019922A95E9F7EC01688381E090E08D931F
:102EA0009C9345C02081318121303105E9F02CF41B
:102EB0002115310509F442C03DC02230310561F1D0
:102EC00023303105B9F5FC01E40FF51F60834E5F37
:102ED0005F4F4D935C931182BC018C599F4F0E94B0
:102EE000AC4821E030E02AC08A010F5F1F4F1196E5
:102EF0001C930E939C01240F351FE90168834E5FDC
:102F00005F4FE801C80FD91F4D935C9368836A3205
:102F100099F482E090E00BC09A012F5F3F4F2D9310
:102F20003C93DC01A40FB51F6C9383E090E0918388
:102F3000808302C01182108220E030E0C901DF915D
:102F4000CF911F910F9108958C599F4F0895862F0F
:102F50000E94943381E090E008950C9457342EEF52
:102F600033E0FC01318320830C945035CF93DF9301
:102F7000EC018EEF93E0998388830E945035CE0157
:102F8000DF91CF910C94AD3E9A01AB01CA01B9011A
:102F900096958795779567957C5D8B409F4F0E94AE
:102FA0001A46CA01B9010C9442330C94933ACF9259
:102FB000DF92EF92FF920F931F93CF93DF93CDB7E2
:102FC000DEB72A970FB6F894DEBF0FBECDBF8C01D7
:102FD0007C018EE0E80EF11C1C821B828EEA93E0DD
:102FE0009A838983FE82ED828EE190E09A878987B9
:102FF000CE0101960E945A1D66EE75E0CE01019643
:103000000E943F3AF801848595850E94E6114AE0C6
:1030100050E0BC01CE0101960E945A3B60EE75E083
:10302000CE0101960E943F3AF801848595850E9461
:10303000EC11AB01BC0122E030E0CE0101960E9410
:10304000A23C6AED75E0CE0101960E943F3AC701AD
:103050000E94BF0B6801F0E4CF0ED11CF601808303
:10306000803128F460E3CE0101960E94663A40E187
:1030700050E0F6016081CE0101960E94993BB701B4
:1030800087E89CE00E94933AB701C8010E94933AF6
:103090002A960FB6F894DEBF0FBECDBFDF91CF9159
:1030A0001F910F91FF90EF90DF90CF900895AF9216
:1030B000BF92CF92DF92EF92FF920F931F93CF9325
:1030C000DF93CDB7DEB72A970FB6F894DEBF0FBEF9
:1030D000CDBF8C01FC01848595850E94B01120E054
:1030E00030E0A9010E94E741882309F470C058012B
:1030F000FCE2AF0EB11C1C821B828EEA93E09A8325
:103100008983BE82AD8284E190E09A878987CE016F
:1031100001960E945A1D62ED75E0CE0101960E9453
:103120003F3AF801848595850E94AA116B017C01C4
:10313000F801848595850E94B0119B01AC01C701FF
:10314000B6010E942041AB01BC0122E030E0CE017B
:1031500001960E94A23C6EEC75E0CE0101960E94A1
:103160003F3A7801F0E4EF0EF11CF701108281E0A4
:1031700090E0F50101900020E9F7EA19FB09329788
:103180008E179F0750F4F801E80FF91F24A5F701E7
:103190003081232720830196ECCFF7018081803195
:1031A00028F460E3CE0101960E94663A40E150E0C7
:1031B000F7016081CE0101960E94993BB50187E835
:1031C0009CE00E94933AB501C8010E94933A2A9666
:1031D0000FB6F894DEBF0FBECDBFDF91CF911F9128
:1031E0000F91FF90EF90DF90CF90BF90AF90089538
:1031F000FC01578B468B718F608F1182108208956E
:10320000FC01A081B181A80FB91F12966C93808137
:10321000918143972CF480819181019691838083E1
:103220000895CF93DF93EB01FC01718360830E94CB
:10323000053F6093AC0B7093AD0B8093AE0B9093F6
:10324000AF0B4091AC0B5091AD0B6091AE0B7091F8
:10325000AF0B4093A80B5093A90B6093AA0B7093EC
:10326000AB0B1092940B1092950B1092960B109240
:10327000970B81E08093930B10927D0B10927E0B45
:1032800080917A0B90917B0B20E030917C0B23177F
:1032900060F4FC0134E0239FE00DF11D1124108245
:1032A0001182128213822F5FF0CFCE010E94E011B3
:1032B000843691053CF063E670E0CE01DF91CF915A
:1032C0000C94B712DF91CF910895CF92DF92EF92D5
:1032D000FF920F931F93CF93CB01BA0197FF09C0C1
:1032E00090958095709561957F4F8F4F9F4FC0E06F
:1032F00001C0C1E0683621E072078105910534F014
:1033000028E631E040E050E00E943C46653B710514
:103310008105910534F0645B71098109910921E00F
:10332000C2276B3571058105910564F004EB10E04F
:1033300020E030E068017901C61AD70AE80AF90AE4
:10334000C701B601660F771FFB01EC50FD4F60818E
:103350007181CC2319F080E090E00CC0CB01A0E09B
:10336000B0E09C01AD0166277727CB01621B730B90
:10337000840B950BCF911F910F91FF90EF90DF90F1
:10338000CF900895465A5F4F6F4F7F4F0C94651949
:103390004F925F926F927F928F929F92AF92BF9265
:1033A000CF92DF92EF92FF920F931F93CF93DF9311
:1033B0008C0160907D0BC0917A0BD0917B0B712CAE
:1033C000C12CD12C7601812C912C54017614C1F0A2
:1033D000488159816A817B81C8010E94C219860E89
:1033E000971EA81EB91E4991599169917991C801FA
:1033F0000E946519C60ED71EE81EF91E7394E6CF0B
:1034000081149104A104B10429F4C114D104E1048C
:10341000F104A1F1662D70E080E090E00E94894205
:103420002B013C01C501B4010E94894220E830E033
:1034300040E857E30E94F543A30192010E94EE4148
:103440004B015C01C701B6010E94894220E830E0CF
:1034500040E857E30E94F543A30192010E94EE4128
:10346000A50194010E94944121EE3EE245E652E41A
:103470000E94F5430E945642CB0102C080E090E0DA
:10348000DF91CF911F910F91FF90EF90DF90CF9040
:10349000BF90AF909F908F907F906F905F904F9074
:1034A00008950F931F930E94F93E0091B40B109161
:1034B000B50B2091B60B3091B70B601B710B820BD3
:1034C000930B603171058105910550F18091930B4B
:1034D0008823E1F08091AC0B9091AD0BA091AE0BE5
:1034E000B091AF0B8093A80B9093A90BA093AA0B5C
:1034F000B093AB0B0E94053F6093AC0B7093AD0B88
:103500008093AE0B9093AF0B1092930B0E94F93EF9
:103510006093B40B7093B50B8093B60B9093B70B7D
:103520001F910F9108950F931F930E94F93E0091F0
:10353000B00B1091B10B2091B20B3091B30B601B0B
:10354000710B820B930B603171058105910508F4B5
:103550004BC08091930B81113DC080919C0B909149
:103560009D0BA0919E0BB0919F0B8093980B909315
:10357000990BA0939A0BB0939B0B0E94053F60930D
:103580009C0B70939D0B80939E0B90939F0B80914F
:10359000A80B9091A90BA091AA0BB091AB0B8093B3
:1035A000A40B9093A50BA093A60BB093A70B8091AF
:1035B000AC0B9091AD0BA091AE0BB091AF0B809383
:1035C000A00B9093A10BA093A20BB093A30B81E04F
:1035D0008093930B0E94F93E6093B00B7093B10BF4
:1035E0008093B20B9093B30B1F910F910895CF92DC
:1035F000DF92EF92FF92F8948091A40B9091A50B2B
:10360000A091A60BB091A70BC090A00BD090A10BDE
:10361000E090A20BF090A30B4091980B5091990B66
:1036200060919A0B70919B0B78948C159D05AE055B
:10363000BF0508F066C0C81AD90AEA0AFB0A28E9D9
:10364000C2162AE3D206E104F10408F45AC0C0927B
:10365000940BD092950BE092960BF092970B9A01F7
:10366000AB01281B390B4A0B5B0B2333310541059A
:10367000510508F446C02C153D054E055F0508F0C0
:1036800040C0A8E6B1E00E946146A70196010E94F1
:103690001A46283681E038074105510590F580919A
:1036A0007E0B8F5F80937E0B90917D0B60917C0BE6
:1036B000E0917A0BF0917B0B9617B0F481E0890FC3
:1036C00080937D0B84E0989FE00DF11D11242083F1
:1036D00031834283538380917E0B60917D0B0E94E6
:1036E000FA4590937E0B0DC00E94FA4590937E0B95
:1036F00084E0989FE00DF11D1124208331834283E3
:103700005383FF90EF90DF90CF9008954F925F9298
:103710006F927F928F929F92AF92BF92CF92DF92E1
:10372000EF92FF92CF93DF93EC010E94F93EC0909D
:10373000B40BD090B50BE090B60BF090B70B6C15B6
:103740007D058E059F0550F40E94F93E6093B40BF1
:103750007093B50B8093B60B9093B70B0E94F93E14
:10376000C090B00BD090B10BE090B20BF090B30BC7
:103770006C157D058E059F0550F40E94F93E6093FF
:10378000B00B7093B10B8093B20B9093B30B0E946C
:10379000F93EAB01BC01888199810E94CB120E9445
:1037A000F93EC090B40BD090B50BE090B60BF09002
:1037B000B70B6C197D098E099F09A880B980693BF8
:1037C0007B4081059105A0F040E050E0BA01C501C1
:1037D000DF91CF91FF90EF90DF90CF90BF90AF90AF
:1037E0009F908F907F906F905F904F900C94C3123A
:1037F0002091940B3091950B4091960B5091970B23
:10380000211531054105510509F4B4C060E071EEA0
:1038100085EF95E00E941A4669017A01233481E020
:10382000380741055105F4F5AAE0B0E00E94614671
:103830002B013C01C5010E94F4114B015C01A30165
:103840009201C301B2010E94EA4527E93FEF4FEF21
:103850005FEF0E943C4629013A01A701960168E208
:1038600073EE83E090E00E94EA4524E630E040E019
:1038700050E00E943C46420E531E641E751E24EE0C
:10388000421A2FE2520A61087108C301B2010E9474
:103890008942A50194010E94EE4120E030E040E21F
:1038A00051E460C02C3385E138074105510554F5DA
:1038B000C5010E94F4112B013C01A7019601C7012B
:1038C000B6010E94EA452EEA38E040E050E00E944E
:1038D0003C4649015A01ABE9BAE4A70196010E94AE
:1038E000614624E630E040E050E00E943C46820E13
:1038F000931EA41EB51E26EA820E25E2921EA11C6E
:10390000B11C2AC0C5010E94F4112B013C01A70182
:103910009601C701B6010E94EA4522E134E040E089
:1039200050E00E943C46A4E6B0E00E9461464B0194
:103930005C01A701960164EB70E281E89FEF0E94B1
:10394000EA45860E971EA81EB91E84E4880E8DEBEC
:10395000981E8BE2A81EB11CC501B4010E948942C9
:10396000A30192010E94EE41AB01BC0188819981C3
:103970000E94C312888199810E94EC116B017C0125
:10398000888199810E94FC11BC01882777FD809570
:10399000982F0E9489429B01AC01C701B6010E9489
:1039A000EA43181654F4888199810E94EC110E9410
:1039B0005642888199810E94FD12CE010E94C81949
:1039C0007C01888199810E94DA11B701680F791F03
:1039D00077FF02C068597E4F88819981DF91CF912E
:1039E000FF90EF90DF90CF90BF90AF909F908F901F
:1039F0007F906F905F904F900C94BD128FE79BE08B
:103A000090937B0B80937A0B85E080937C0B1092D4
:103A10007D0B10927E0B089561E085E30E94644067
:103A200061E085E30E942B408CB580618CBD8CB534
:103A300080648CBD61E084E30E942B4061E083E3FD
:103A40000C942B40811103C08CB5806202C08CB5F0
:103A50008F7D8CBD08959CB5937F982B9CBD089558
:103A60002CB5982F93702C7F922B9CBD9DB582FB1B
:103A7000882780F99E7F982B9DBD0895FC01A68123
:103A8000B7819D012F5F3F4F84819581408551858E
:103A9000840F951F2817390750F4378326836C93BA
:103AA0000680F781E02D108281E090E0089580E0AB
:103AB00090E00895FC01A481B581B783A683808539
:103AC0009185892B09F01C92089508952F923F92B9
:103AD0004F925F926F927F928F929F92AF92BF921E
:103AE000CF92DF92EF92FF920F931F93CF93DF93CA
:103AF000CDB7DEB72A970FB6F894DEBF0FBECDBFA5
:103B00009A878987DC01D6968C91882309F4E5C0D1
:103B10000E94F93E69837A838B839C83E985FA85C9
:103B200080A191A129813A81281B390B84A595A5F3
:103B3000281739070CF4D1C0028CF38DE02D80805A
:103B40009180A280B380A985BA855E96ED91FC91A3
:103B50005F97A501940160817181828193810E94A8
:103B600020412B013C01E985FA8520893189428970
:103B700053890E94F543A985BA8594962D913D916C
:103B80004D915C9197970E9421416B017C01E985E1
:103B9000FA8564A375A386A397A312A903A934A8E1
:103BA00025A8212F302F432D522D0E94EA431816AD
:103BB0002CF4812F902FA32DB22D18C0A985BA8582
:103BC0009E968D919D910D90BC91A02D8D839E838D
:103BD000AF83B8879C01AD01C701B6010E94E741E0
:103BE00087FF0AC08D819E81AF81B885E985FA85FE
:103BF00084A395A3A6A3B7A3A985BA851C962D91E6
:103C00003D914D915C911F97C301B2010E94F54314
:103C1000E985FA8524A135A146A157A10E94214139
:103C20006B017C01A985BA8598962D913D914D91A6
:103C30005C919B97C501B4010E942041E985FA85FA
:103C400024893589468957890E94F5439B01AC0137
:103C5000C701B6010E9420416B017C01212F302F4A
:103C6000432D522D0E94EA431816DCF0A985BA852F
:103C70009E961C919E979F960C919F97D0963C90F4
:103C8000D097D1962C90212F302F432D522DB60155
:103C9000C7010E94E74187FD04C01C2D0D2D3E2C5D
:103CA0002F2CA985BA855C96ED91FC915D97812FAB
:103CB000902FA32DB22D80839183A283B383E985B6
:103CC000FA8580A691A6A2A6B3A689819A81AB8126
:103CD000BC8180A391A3A2A3B3A32A960FB6F894A4
:103CE000DEBF0FBECDBFDF91CF911F910F91FF902F
:103CF000EF90DF90CF90BF90AF909F908F907F908C
:103D00006F905F904F903F902F9008952F923F9229
:103D10004F925F926F927F928F929F92AF92BF92DB
:103D2000CF92DF92EF92FF920F931F93CF93DF9387
:103D300000D000D0CDB7DEB71C012A013B014801FD
:103D4000590120E030E0A901C301B2010E94E7411E
:103D500087FD7AC020E030E0A901C501B4010E94CE
:103D6000E74187FD71C020E030E0A901C701B6013D
:103D70000E94E74187FD68C0F10140825182628262
:103D8000738284829582A682B782C086D186E286BB
:103D9000F38664A575A5882777FD8095982F0E94E6
:103DA000894220E030E04AE754E40E94EE41698312
:103DB0007A838B839C83F101448655866686778659
:103DC0009B01AC01C501B4010E94F5434B015C01AC
:103DD000F101608B718B828B938B29813A814B81AE
:103DE0005C81C701B6010E94EE416B017C01F101CB
:103DF000648B758B868B978B808D918D019721F5C8
:103E0000A301920160E070E0CB010E942041F1012A
:103E10006487758786879787A501940160E070E0C5
:103E2000CB010E942041F101608B718B828B938BBF
:103E3000A701960160E070E0CB010E942041F101F2
:103E4000648B758B868B978B0F900F900F900F90D4
:103E5000DF91CF911F910F91FF90EF90DF90CF9066
:103E6000BF90AF909F908F907F906F905F904F909A
:103E70003F902F900895CF92DF92EF92FF920F9391
:103E80001F93CF93DF93EC018B011616170694F561
:103E9000882777FD8095982F0E9489426B017C01CD
:103EA0006CA57DA5882777FD8095982F0E94894273
:103EB0009B01AC01C701B6010E94EE416B017C0180
:103EC0009B01AC01688979898A899B890E94F543A5
:103ED000688B798B8A8B9B8BA70196016C897D8976
:103EE0008E899F890E94EE416C8B7D8B8E8B9F8B80
:103EF0001DA70CA7DF91CF911F910F91FF90EF901D
:103F0000DF90CF9008952F923F924F925F926F92E1
:103F10007F928F929F92AF92BF92CF92DF92EF9259
:103F2000FF920F931F93CF93DF93EC016A017B0104
:103F300048015901A9019801C701B6010E94EA434D
:103F400087FF4EC0CEA6DFA6E8AAF9AA8AAA9BAA36
:103F5000ACAABDAA8EA9882309F442C02C8C3D8C42
:103F6000F1014080518062807380A5019401C301FA
:103F7000B2010E94EA43181634F4F1018082918262
:103F8000A282B3820DC0A7019601C301B2010E94B3
:103F9000E74187FF05C0F101C082D182E282F3824E
:103FA0008CA09DA0AEA0BFA0CAA8DBA8ECA8FDA8CD
:103FB000A7019601C501B4010E94EA43181664F0F6
:103FC000CEA4DFA4E8A8F9A8A7019601C501B40111
:103FD0000E94E74187FF04C0CCA2DDA2EEA2FFA2AF
:103FE000DF91CF911F910F91FF90EF90DF90CF90D5
:103FF000BF90AF909F908F907F906F905F904F9009
:104000003F902F9008958F929F92AF92BF92CF9240
:10401000DF92EF92FF92CF93DF93EC01EC8DFD8D59
:10402000C080D180E280F380CCA2DDA2EEA2FFA20C
:10403000EA8DFB8D80819181A281B38188A799A7A8
:10404000AAA7BBA78AA89BA8ACA8BDA8A501940154
:10405000C701B6010E94EA43181664F08EA49FA41B
:10406000A8A8B9A8A5019401C701B6010E94E7411B
:1040700087FF04C08CA29DA2AEA2BFA2DF91CF9108
:10408000FF90EF90DF90CF90BF90AF909F908F9078
:1040900008951F93CF93DF93EC0111E06130710518
:1040A00009F010E08EA991E08927181303C0CE0112
:1040B0000E9403201EABDF91CF911F9108950F93B3
:1040C0001F93CF93DF93EC018B018EA9882361F1BD
:1040D000888D998D6817790739F12C853D854E8536
:1040E0005F8560E070E0CB010E9420416C877D8796
:1040F0008E879F87288939894A895B8960E070E0CB
:10410000CB010E942041688B798B8A8B9B8B2C89F9
:104110003D894E895F8960E070E0CB010E942041BB
:104120006C8B7D8B8E8B9F8B198F088FDF91CF913E
:104130001F910F9108952F923F924F925F926F922D
:104140007F928F929F92AF92BF92CF92DF92EF9227
:10415000FF920F931F93CF93DF93CDB7DEB72897CE
:104160000FB6F894DEBF0FBECDBF4C017A836983D2
:104170001A013C832B8327013801AD82BE82CF8296
:10418000D88600E010E02FE733E440E050E0BA01C9
:104190000E94831F84E690E0F40195A784A769A19B
:1041A0007AA1C4010E945F20CD8CDE8CEF8CF8A038
:1041B0000D811E812F813885B301A201C4010E94A7
:1041C000861E0E94F93EF40144A455A4662457FCBF
:1041D0006094762C641975098609970960A371A308
:1041E00082A393A316AA358E248E89819A81938FF8
:1041F000828F8B819C81978F868F28960FB6F8943B
:10420000DEBF0FBECDBFDF91CF911F910F91FF9009
:10421000EF90DF90CF90BF90AF909F908F907F9066
:104220006F905F904F903F902F9008950F931F9342
:10423000CF93DF93FC017183608312821382148217
:10424000158286E58683178210861186128613866C
:104250001486158616861786108A118A128A138A82
:10426000148A158A168ADF01A754BF4F11961C9233
:104270001E92AE55BF4F11961C921E921496119627
:104280001C921E92129611961C921E9212961196D4
:104290001C921E92178AAC5AB1091D921C92EF0112
:1042A00004E110E08FE090E00E949346FE01E15EA1
:1042B000FE4F918380838FE090E00E949346FE0141
:1042C000E558FF4F91838083FC0110820150110952
:1042D00022960115110531F7DF91CF911F910F91B2
:1042E0000895FC0162817381848195810895FC01A8
:1042F00086810895FC016781708581859285089586
:10430000FC0163857485858596850895CF92DF923B
:10431000EF92FF926A017B01FC0127853089418978
:104320005289C701B6010E94F543FF90EF90DF90DC
:10433000CF900895FC0163897489858996890895D1
:1043400047960895660F771F680F791FFB01E558A0
:10435000FF4F8081918108954F925F926F927F927B
:104360008F929F92AF92BF92CF92DF92EF92FF9285
:104370000F931F93CF93DF93FB0110811D3241F008
:1043800031E020E01B3209F030E0832F922F02C091
:1043900081E090E0EB01C80FD91F00E03DEC432E17
:1043A0003CEC532E652C3DE3732E812C912C540153
:1043B000C12CD12C7601E991EE23E9F1EE32C9F15D
:1043C000FF27E7FDF095011113C0AAE0B0E0A701B7
:1043D00096010E9461466B017C01CF01C097AA271C
:1043E00097FDA095BA2FC80ED91EEA1EFB1EE3CF7B
:1043F000BF0160537109882777FD8095982F0E942F
:1044000089429B01AC01C301B2010E94F5439B01AB
:10441000AC01C501B4010E9421414B015C0120E0C7
:1044200030E040E251E4C301B2010E94EE412B01B1
:104430003C0101E0C0CFC701B6010E9489429B0147
:10444000AC01C501B4010E9421411D3239F49B0128
:10445000AC0160E070E0CB010E942041DF91CF9180
:104460001F910F91FF90EF90DF90CF90BF90AF9092
:104470009F908F907F906F905F904F9008958F9254
:104480009F92AF92BF92CF92DF92EF92FF920F93E3
:104490001F93CF93DF93EC01AC01455A5E4FDA01D5
:1044A0002D913C911197FC01E15AFE4F24363105C4
:1044B0006CF4A25AB1098D919C911197449734F4F0
:1044C000A655BF4F8D919C910F9714F011821082C9
:1044D0006A3011F06D3011F4118210826432E1F40F
:1044E000DE01A35ABE4F11961C921E92149611968D
:1044F0001C921E92A85AB10911961C921E92A655A2
:10450000BF4F1D921C92C554DF4F688381E090E03D
:10451000DA018D939C93E4C0808191818130910573
:1045200069F024F4009709F47AC272C282309105CE
:1045300009F492C0039709F4D6C06AC22730310546
:104540007CF4D901AE54BC4F8C91681309C0DE01D4
:10455000A35ABE4F8D919C91119701968D939C9378
:10456000C9010196DA018D939C932C0F3D1FD9014F
:10457000A554BF4F6C93CE0187549F4F8E010D59A8
:104580001E4F6A3249F1DE01AF59BE4FFC016C3259
:1045900009F040C020813181A9014F5F5F4F5183F5
:1045A0004083C901880F991F8C0F9D1FEC01C15ECC
:1045B000DE4F0990D881C02DF80180819181C80F0C
:1045C000D91F1882118210828D919C911197FCE263
:1045D0008F278D939C931EC2DC012D913C911197E6
:1045E000A9014F5F5F4F4D935C93C901880F991FDD
:1045F0008C0F9D1FEC01C15EDE4F0990D881C02D4C
:10460000D8018D919C911197C80FD91F18821D92C6
:104610001C9263C080819181880F991F8C0F9D1F10
:10462000EC01C15EDE4F0990D881C02DF801808178
:1046300091819C012F5F3F4F31832083C80FD91F89
:104640006883772767FD70958D919C9111976827F6
:1046500079276D937C93DEC1C9010196DA018D93B0
:104660009C932C0F3D1FD901A554BF4F6C93DE01C5
:10467000A754BF4F8D919C91880F991F8C0F9D1F40
:10468000DC01A15EBE4F0D911C919E012D593E4F44
:10469000D9018D919C911197AC014F5F5F4F4D9364
:1046A0005C93080F191FD8016C93CF59DE4F4881D6
:1046B0005981862F992787FD9095613414F0C7970B
:1046C00001C0C0979C01B4E0220F331FBA95E1F7F7
:1046D000CA01821B930B9983888380819181019603
:1046E0009183808397C1CE01820F931FDC01A55473
:1046F000BF4F6C932E5F3F4FDA012D933C93DC014B
:10470000A454BF4F1C929E0127543F4FD9018D9155
:104710009C91880F991F8C0F9D1FDC01A15EBE4FDD
:104720008D919C916E01BDE9CB1ABEEFDB0AD601DB
:104730000D911C917801BFEFEB1AFB0AD601ED92A7
:10474000FC92800F911FDC016C93D9018D919C919B
:1047500011978C010F5F1F4F0D931C93880F991FAA
:104760008C0F9D1F815E9E4FDC018D919C91D60127
:104770000D911C91800F911FDC011C9211821082FF
:10478000FE01EF59FE4F80819181062F112707FD11
:104790001095613424F0B8016753710903C0B80162
:1047A00060537109861B970B91838083009709F0F2
:1047B00031C168817981672B29F4FA0160817181A7
:1047C000CB010AC0FE01E35AFE4F60817181663061
:1047D000710509F024C1F1CF019797FD0AC0FE01D0
:1047E000E80FF91F8F0105541F4FD8011C91178B3B
:1047F000F3CFFB013197CB0177FF02C080E090E05F
:10480000BF01681B790BDA016D937C93FE01E954BB
:10481000FF4F1182108240815181D9018D919C916D
:104820004817590784F5D6011D921C928081918109
:10483000D6014D915C91880F991F8C0F9D1FBC0173
:10484000615E7E4FDB016D917C91640F751FDB0112
:104850006C9185589F4FDC018D919C91840F951F21
:10486000DC01662349F06C93D6018D919C911197E0
:1048700001968D939C93DACF1C9280819181019651
:1048800091838083C8CFFE01E35AFE4F80819181DE
:10489000069709F0C2C0FC9760817181CE010E9429
:1048A000AC216A837B838C839D83FE01ED5DFE4F8B
:1048B0000190F081E02D80818E83FE01EB5DFE4F43
:1048C00060817181CE010E94AC2120E030E048EC93
:1048D00052E40E94EE414B015C010E94C4426B0114
:1048E0007C018E010B591E4FF80160837183828316
:1048F00093839B01AC01C501B4010E94204120E0DB
:1049000030E048EC52E40E94F54320E030E040E71C
:1049100052E40E94EE41A70196010E9421419B01B1
:10492000AC016F83788789879A87FE01E95DFE4F26
:104930000190F081E02D8081833549F460E070E0E2
:10494000CB010E9420416F83788789879A87FE0177
:10495000E75DFE4F60817181CE010E94AC2120E0B5
:1049600030E048EC52E40E94EE414B015C010E94B1
:10497000C4426B017C01D8016D937D938D939C9310
:1049800013979B01AC01C501B4010E94204120E0B6
:1049900030E048EC52E40E94F54320E030E040E78C
:1049A00052E40E94EE41A70196010E9421419B0121
:1049B000AC016B877C878D879E87FE01E55DFE4F8E
:1049C0000190F081E02D8081873549F460E070E04E
:1049D000CB010E9420416B877C878D879E87FE01DB
:1049E000E35DFE4F60817181CE010E94AC216F8733
:1049F000788B898B9A8BFE01E15DFE4F608171811E
:104A0000CE010E94AC216B8B7C8B8D8B9E8B05C065
:104A10001182108280E090E002C081E090E0DF919E
:104A2000CF911F910F91FF90EF90DF90CF90BF90AB
:104A3000AF909F908F9008958EBD0DB407FEFDCF6F
:104A40008EB508950F931F93FC011382128208EE16
:104A500013E020E030E004831583268337838EEB58
:104A600093E091838083648745871F910F91089518
:104A7000EF92FF921F93CF93DF931F92CDB7DEB7D4
:104A80007C01162F60E0FC01848549830E9464400C
:104A9000F8E01F9FB0011124F7018585880F862B50
:104AA0000E941C254981842F0E941C2562E070E031
:104AB00080E090E00E94283F61E0F70184850F903C
:104AC000DF91CF911F91FF90EF900C946440462F9F
:104AD00060E00E94382581E090E0089546E062E0C1
:104AE0000C943825CF92DF92EF92FF920F931F9391
:104AF000CF93DF9300D0CDB7DEB78C01F22E60E00C
:104B0000FC01848549835A830E9464404981E42ED4
:104B1000C42E5A81D52E8C2D8E198F1530F4F601A6
:104B200081916F010E941C25F6CF62E070E080E069
:104B300090E00E94283F61E0F80184850F900F907B
:104B4000DF91CF911F910F91FF90EF90DF90CF9069
:104B50000C946440242FAB0160E00C9472251F93E9
:104B6000CF93DF93EC01162F60E08C850E946440A8
:104B700062E070E080E090E00E94283F88E0189FAB
:104B8000B00111248D85880F862B80680E941C251A
:104B900080E00E941C25182F62E070E080E090E029
:104BA0000E94283F61E08C850E946440812FDF9144
:104BB000CF911F91089560E00E94AF2590E0089585
:104BC00069E00E94AF2590E0089569E00E94AF255A
:104BD0008FEF9FEF08951F93CF93DF93EC01162F74
:104BE00063E00E94AF25482F4C7F6BEF610F63702D
:104BF000462B63E0CE01DF91CF911F910C943825B5
:104C00008F929F92AF92BF92CF92DF92EF92FF92DC
:104C10000F931F93CF93DF93EC016A017B0148014F
:104C200059016BE176E087E89CE00E94813A0E949E
:104C30000C1D6AE070E080E090E00E94283F81E077
:104C40000E94221D81E00E94301D80E00E942B1DE9
:104C50006FE076E087E89CE00E94813A80910A024A
:104C600090910B02019779F448E06EE0CE010E942A
:104C7000382510920B0210920A0260E076E087E875
:104C80009CE00E94813A64E670E080E090E00E943F
:104C9000283F40E863E0CE010E943825C701B601F5
:104CA00023E0660F771F881F991F2A95D1F7680D9B
:104CB000791D8A1D9B1DA7019601E4E0220F331F79
:104CC000441F551FEA95D1F70E941A4669017A01DF
:104CD000422F60E0CE010E9438254D2D552761E01E
:104CE000CE010E94382540E063E0CE010E943825C5
:104CF00068E0CE010E94EB2547E062E0CE010E9411
:104D000038256EEE75E087E89CE0DF91CF911F912A
:104D10000F91FF90EF90DF90CF90BF90AF909F905A
:104D20008F900C94813A0F931F9300E010E820E7D6
:104D300030E00E9400261F910F910895E091160F18
:104D4000F091170F80E090E0309749F002962081B3
:104D50003181820F931F0280F381E02DF5CF0895FA
:104D60000F931F93CF93DF9300D0CDB7DEB7809121
:104D7000140F9091150F8E010F5F1F4F009729F4AC
:104D800008511F401A8309830AC0081B190B1A8394
:104D900009830E949E26800F911F9A8389838981AF
:104DA0009A810F900F90DF91CF911F910F910895ED
:104DB000FC016F778081918186279183808347E012
:104DC00020813181C9019695879520FF04C020EF8D
:104DD000822722E2922791838083415089F70895A8
:104DE000EF92FF920F931F93CF93DF937C018A0181
:104DF000EB01060F171FC017D10729F06991C701F2
:104E00000E94D826F8CFDF91CF911F910F91FF908C
:104E1000EF900895CF93DF9300D0CDB7DEB7AB010D
:104E20002FEF3FE33A832983BC01CE0101960E9414
:104E3000F02689819A8180952FE392270F900F9019
:104E4000DF91CF9108950F931F93CF93DF931F921C
:104E5000CDB7DEB78C01FC0171836083128223839E
:104E60001486158616861786108A459649830E94F1
:104E7000DE2BF801178E10A249818FE9840F8A3149
:104E800008F440528FEB840F8A3120F080ED840FBC
:104E90008A3010F4F801428344E650E060E070E0AC
:104EA000F80144835583668377834FEF5FEFBA0140
:104EB000408751876287738711A20F90DF91CF914E
:104EC0001F910F91089508959F92AF92BF92CF9234
:104ED000DF92EF92FF920F931F93CF93DF93CDB7A3
:104EE000DEB7A7970FB6F894DEBF0FBECDBF6C013B
:104EF0007B01942E5901DB0114964D915D916D91CA
:104F00007C911797CE0180960E94D72CCE01809677
:104F10000E94AD2C6894A4F8C8010E94852C8823B7
:104F200021F0C6010E94E02B6CC0CE0180960E9449
:104F3000852C8823A9F1CE0180960E94CB2CF70105
:104F400084858F5F87FD81E0D7011C968C93CE010D
:104F500001960E940D2AF7016281CE0101960E94FE
:104F6000112A6A2DCE0101960E94112AD7011C96A2
:104F70006C91CE0101960E94112A692DCE010196F5
:104F80000E94112AD701ED91FC91119763A174A1A0
:104F900023E230E013964C91CE0101960E94E92A5B
:104FA000F701808191810E94B72B882309F4B4CF47
:104FB000D701ED91FC911197938113968C919813E1
:104FC000ABCF8481833409F0A7CF40815181455014
:104FD0005109BF016A5F7F4FCE0101960E94562C96
:104FE0008981882309F498CF9C81F70184859813DF
:104FF00093CF8AE0FE013196D60101900D928A95F9
:10500000E1F7C601A7960FB6F894DEBF0FBECDBF7D
:10501000DF91CF911F910F91FF90EF90DF90CF9094
:10502000BF90AF909F9008959F92AF92BF92CF9202
:10503000DF92EF92FF920F931F93CF93DF93CDB741
:10504000DEB76F970FB6F894DEBF0FBECDBF8C01F1
:105050005B017A01922EDC01ED91FC91C3A0D4A0FA
:10506000CE0101960E940D2AF8016281CE010196BF
:105070000E94112A692DCE0101960E94112A96FEE6
:1050800007C0D8015F966C91CE0101960E94112A4B
:10509000F70142815381B7016C5F7F4FCE010196CA
:1050A0000E941D2A9501D80113964C91B601CE019C
:1050B00001960E94E92A6F960FB6F894DEBF0FBEE4
:1050C000CDBFDF91CF911F910F91FF90EF90DF90B7
:1050D000CF90BF90AF909F900895CF92DF92EF92C4
:1050E000FF920F931F93CF93DF93CDB7DEB72A972D
:1050F0000FB6F894DEBF0FBECDBF7C016A01FC0184
:1051000080A1811123C08B0120E430E041E050E018
:10511000B701CE0101960E9464278AE0FE01319614
:10512000D60101900D928A95E1F7F601828180FF08
:1051300004C08681978197FD07C0F6018481F7013D
:10514000878F81E080A302C081E001C080E02A96C1
:105150000FB6F894DEBF0FBECDBFDF91CF911F9188
:105160000F91FF90EF90DF90CF900895DF92EF9234
:10517000FF920F931F93CF93DF93CDB7DEB72A979C
:105180000FB6F894DEBF0FBECDBF7C01D42EFC015C
:1051900023893489418952898B01BC01CE01019652
:1051A0000E9464278AE0FE013196D701559601904E
:1051B0000D928A95E1F7F701878980FF04C0838DFE
:1051C000948D97FD0BC0F701818D978D891731F074
:1051D000811106C081E0D11004C002C081E001C08D
:1051E00080E02A960FB6F894DEBF0FBECDBFDF91E8
:1051F000CF911F910F91FF90EF90DF9008958F92C4
:105200009F92AF92BF92CF92DF92EF92FF920F9355
:105210001F93CF93DF93CDB7DEB72E970FB6F894D9
:10522000DEBF0FBECDBF7C016B015A014901FC01FD
:1052300025853685478550892F5F3F4F4F4F5F4FFC
:10524000258736874787508BBC01CE0109960E947F
:10525000F92AF70181A1882339F09401A501B6014B
:10526000C7010E94142830C0F7014085518562852E
:105270007385CE0101960E94D72CA7014B5E5F4F2C
:10528000BE016F5F7F4FC7010E946D2881111CC056
:10529000689486F8F701128B018B948A838A878D34
:1052A0008F5F87FD81E0F701878F9401A501B6012B
:1052B000C7010E94142840E0BE016F5F7F4FC70105
:1052C0000E94B628882389F386E0FE013996DE0124
:1052D000119601900D928A95E1F729813A814B81CF
:1052E0005C816D817E8180E090E02E960FB6F8940F
:1052F000DEBF0FBECDBFDF91CF911F910F91FF9009
:10530000EF90DF90CF90BF90AF909F908F900895D7
:105310008F929F92AF92BF92CF92DF92EF92FF92C5
:105320000F931F93CF93DF93CDB7DEB7AA970FB636
:10533000F894DEBF0FBECDBF4C01CE0101962FA366
:1053400038A749A75AA76EA30E940D2A6EA1CE01C5
:1053500001960E94112A2FA138A549A55AA5BA0184
:10536000A901CE0101960E94352AF7FC0BC0602FDF
:10537000CE0101960E94112AB701A601CE01019625
:105380000E94352A01E010E09501AE014F5F5F4FAA
:1053900064E270E0C4010E94FF2880E090E0AA96D9
:1053A0000FB6F894DEBF0FBECDBFDF91CF911F9136
:1053B0000F91FF90EF90DF90CF90BF90AF909F90B4
:1053C0008F900895AF92BF92CF92DF92EF92FF92AB
:1053D0000F931F93CF93DF9300D000D000D0CDB7B1
:1053E000DEB757016801790102E09A01AB0161E083
:1053F0000E94882980E090E026960FB6F894DEBFE0
:105400000FBECDBFDF91CF911F910F91FF90EF9015
:10541000DF90CF90BF90AF900895FC01138212826D
:105420000895FC0122813381A9014F5F5F4F5383AF
:105430004283E20FF31F64830895CF93DF93FB0150
:10544000460F571FE417F50769F0A191EC012A8177
:105450003B81B9016F5F7F4F7B836A83C20FD31F8C
:10546000AC83F0CFDF91CF9108950F931F9341301C
:105470005105610520EE72077CF08A019B01011540
:105480001105210540E2340724F00FEF1FEF2FEF45
:105490003FE137FF12C004C001E010E020E030EE31
:1054A00030952095109501951F4F2F4F3F4F000FBE
:1054B000111F221F331F016004C0000F111F221F84
:1054C000331FFC0142815381702F7F73003411051B
:1054D0002105310510F060E401C060E04F5F5F4FCF
:1054E000FC01E40FF51F672B638366E03695279573
:1054F000179507956A95D1F7011511052105310515
:1055000019F7FC01538342831F910F910895EF9285
:10551000FF920F931F93CF93DF93EC01688349832E
:105520000A83F901DC011396C901800F911FE81766
:10553000F90719F021912D93FACF780183E0E80E55
:10554000F11CB701CE010E940A27FE01EE0DFF1DDE
:10555000282F2F772083C00FD11F880F892F881FF6
:10556000990B91958F778C83C8010596DF91CF9128
:105570001F910F91FF90EF900895EF92FF920F937C
:105580001F93CF93DF93CDB7DEB7A0970FB6F894F4
:10559000DEBF0FBECDBF7C01CE0101960E94872ADF
:1055A000D701ED91FC910280F381E02DAC01BE01A9
:1055B0006F5F7F4FC7010995A0960FB6F894DEBFC5
:1055C0000FBECDBFDF91CF911F910F91FF90EF9054
:1055D00008950F931F93FC01CB01642FA901028151
:1055E00013819F012C5F3F4F0E94BD2A1F910F9195
:1055F0000895FC0171836083228333834483558340
:105600000895FC0171836083460F571F53834283C3
:105610000895FC01A081B18182819381A817B90707
:1056200039F08D91B183A083FB01808381E00895DF
:1056300080E00895AF92BF92CF92DF92EF92FF92F7
:105640000F931F93CF93DF931F92CDB7DEB75C010B
:1056500000E010E0C12CD12C7601BE016F5F7F4FBE
:10566000C5010E94092B8823C9F02981822F8F73DD
:1056700090E0A0E0B0E0002E04C0880F991FAA1FA0
:10568000BB1F0A94D2F7C82AD92AEA2AFB2A26FF86
:1056900005C00A5F1F4F0E311105F9F6D701C6018B
:1056A000B695A79597958795C0FE0AC09C01AD0158
:1056B00066277727CB01621B730B840B950B02C007
:1056C000BC01CD010F90DF91CF911F910F91FF9001
:1056D000EF90DF90CF90BF90AF900895FC011182C2
:1056E000108212820895CF93DF93EC0167FD03C00F
:1056F0008A81882319F0198218821A8288819981F7
:105700008032910548F49C012F5F3F4F39832883F5
:10571000FE01E80FF91F63836881798165307105A7
:10572000A0F08B8187FF11C08D8190E09B012550F7
:1057300031092817390749F4CE0103960E940A2738
:105740008E37904311F481E08A83DF91CF910895E1
:105750000F931F93CF93DF93EC018B010E946E2B6D
:105760001CA30BA3DF91CF911F910F910895CF93AD
:10577000DF93EC018BA19CA1DC01ED91FC910680F3
:10578000F781E02D099597FD09C0682FCE010E9491
:10579000732B8A81882371F381E001C080E0DF915F
:1057A000CF910895FC011082158214821382128217
:1057B0001182168217821086118608950C94D22BBE
:1057C000CF93DF93EC010E94D22B81E088838A8300
:1057D0004EEF5FEF6FEF7FEF4E835F8368877987D0
:1057E000CE01DF91CF9108950F931F93CF93DF9355
:1057F00000D000D0CDB7DEB78C01CE0101960E945B
:10580000012BB8016F5F7F4FCE0101960E94092BDB
:10581000811102C080E041C0B8016E5F7F4FCE01B0
:1058200001960E94092B8823A9F3F801828184FD47
:1058300005C0F801828186FD0BC013C0B8016D5F01
:105840007F4FCE0101960E94092B8111F2CFE2CF4A
:10585000B8016C5F7F4FCE0101960E94092B88230F
:10586000C9F2B8016B5F7F4FCE0101960E94092BF0
:10587000882381F2CE0101960E941A2BF8016683DB
:10588000778380879187228120FF06C0161617062E
:10589000180619060CF0BECF81E00F900F900F9004
:1058A0000F90DF91CF911F910F9108950F931F9348
:1058B000CF93DF9300D000D0CDB7DEB78C014B8300
:1058C0005C8369837A830E94D22B4B815C816981DE
:1058D0007A81C8010E94F42B882361F081E0F801ED
:1058E00080830F900F900F900F90DF91CF911F91B9
:1058F0000F910895C8010F900F900F900F90DF91B6
:10590000CF911F910F910C94D22B0F931F93CF9394
:10591000DF93EC014C815D816E817F8177FD17C043
:105920000E94F93E088119812A813B81601B710B1D
:10593000820B930B41E00C811D812E813F8160170A
:1059400071078207930708F440E0842F01C080E0CC
:10595000DF91CF911F910F9108950F931F93CF93D4
:10596000DF93EC014C815D816E817F8177FD0EC0FC
:105970000E94F93E0C811D812E813F81601B710BBD
:10598000820B930B688379838A839B83DF91CF910A
:105990001F910F910895CF93DF93EC010E94F93E80
:1059A000688379838A839B83DF91CF910895FC017B
:1059B00044835583668377830C94CB2C0F931F937A
:1059C000CF93DF93EC018E859F850E942B478C85BA
:1059D0009D850E942B47888999890E942B4700E06A
:1059E00010E02C893D898A819B810217130764F49A
:1059F000F801EE0FFF1FE80FF91F808191810E94CF
:105A00002B470F5F1F4FEDCFDF91CF911F910F916C
:105A10000C942B4726EF33E0FC01318320830C9458
:105A2000DE2CCF93DF93EC010E940A2DCE01DF9193
:105A3000CF910C94AD3ECF92DF92EF92FF920F93F5
:105A40001F93CF93DF93EC018A8D9B8D0E94934629
:105A5000998B888B8E899F890E9493469D878C871E
:105A6000888D998D0E9493469F878E871986188608
:105A70001B861A86FC011082EC85FD851082E88960
:105A8000F98910828C899D89880F991F0E949346FD
:105A90009B838A8300E010E08C899D890817190791
:105AA000CCF46801CC0CDD1CEA80FB80EC0CFD1C06
:105AB00081E090E00E949346F70191838083EA8120
:105AC000FB81EC0DFD1D0190F081E02D10820F5F38
:105AD0001F4FE2CFDF91CF911F910F91FF90EF9079
